:0400000094EF1EF06B
:08000800046ED8CF05F0E0CF33
:1000100006F00001E9CF0CF0EACF07F0E1CF08F0DD
:10002000E2CF09F0D9CF0AF0DACF0BF0F3CF12F01C
:10003000F4CF13F0FACF14F0F5CF15F0F6CF16F099
:10004000F7CF17F000C00EF001C00FF002C010F0A3
:1000500003C011F09DA230EF00F09EB240EF02F01D
:100060009DAA36EF00F09EBA7AEF02F0A3AA3CEF09
:1000700000F0A4BA92EF03F0B6AE42EF00F0B7BEC4
:1000800057EF03F00EC000F00FC001F010C002F0F7
:1000900011C003F00CC0E9FF07C0EAFF078E08C0DB
:1000A000E1FF09C0E2FF0AC0D9FF0BC0DAFF12C0AE
:1000B000F3FF13C0F4FF14C0FAFF15C0F5FF16C01C
:1000C000F6FF17C0F7FF045006C0E0FF05C0D8FFD9
:1000D0001000F76AE20FF66E000EF7220900F550E5
:1000E000120000C1814001C0804101C0804100C1B7
:1000F000814001C0804100C1814000C1814001C0F8
:10010000804101C0804100C1814000C1814001C0E7
:10011000804100C1814001C0804101C0804100C1D7
:10012000814001C0804100C1814000C1814001C0C7
:10013000804100C1814001C0804101C0804100C1B7
:10014000814000C1814001C0804101C0804100C1A7
:10015000814001C0804100C1814000C1814001C097
:10016000804101C0804100C1814000C1814001C087
:10017000804100C1814001C0804101C0804100C177
:10018000814000C1814001C0804101C0804100C167
:10019000814001C0804100C1814000C1814001C057
:1001A000804100C1814001C0804101C0804100C147
:1001B000814001C0804100C1814000C1814001C037
:1001C000804101C0804100C1814000C1814001C027
:1001D000804100C1814001C0804101C0804100C117
:1001E0008140F76AF20FF66E010EF7220900F55012
:1001F000120000C0C101C30302C2C60607C705C57D
:10020000C404CC0C0DCD0FCFCE0E0ACACB0BC9093E
:1002100008C8D81819D91BDBDA1A1EDEDF1FDD1D4E
:100220001CDC14D4D515D71716D6D21213D311D17E
:10023000D010F03031F133F3F23236F6F737F535CE
:1002400034F43CFCFD3DFF3F3EFEFA3A3BFB39F9FE
:10025000F83828E8E929EB2B2AEAEE2E2FEF2DEDCE
:10026000EC2CE42425E527E7E62622E2E323E1213E
:1002700020E0A06061A163A3A26266A6A767A5654E
:1002800064A46CACAD6DAF6F6EAEAA6A6BAB69A9BE
:10029000A86878B8B979BB7B7ABABE7E7FBF7DBDCE
:1002A000BC7CB47475B577B7B67672B2B373B171FE
:1002B00070B05090915193535292965657975595CE
:1002C00094549C5C5D9D5F9F9E5E5A9A9B5B99597E
:1002D0005898884849894B8B8A4A4E8E8F4F8D4D4E
:1002E0004C8C4484854587474686824243834181BE
:1002F00080402320726561645F706172616D5F662A
:10030000696C6520435243206D69732D6D61746380
:10031000682E2057726974696E67206E6577206455
:10032000656661756C74210D0A0023206469736130
:10033000626C696E6720616C6C20646576696365C8
:10034000730D0A00232077726974655F64657669AE
:1003500063655F66696C6528290D0A002320726554
:1003600061645F6465766963655F66696C65206377
:1003700072633D25750D0A002320726561645F6418
:1003800065766963655F66696C6520435243206DDD
:1003900069732D6D617463682E2057726974696E7C
:1003A00067206E65772064656661756C74210D0A3F
:1003B0000000232064756D70696E6720616C6C208D
:1003C000656E61626C656420646576696365733A25
:1003D0000D0A00006465766963655B25755D0D0A2D
:1003E000000009747970653D25750D0A00000974D7
:1003F00072616E736D697445766572793D25750D10
:100400000A00096E6574776F726B4164647265737C
:10041000733D25750D0A00000973657269616C4EA4
:10042000756D6265723D30782530327825303278CE
:1004300025303278253032780D0A00000973746156
:10044000727452656769737465723D256C750D0A27
:100450000000096E5265676973746572733D257596
:100460000D0A00002320646F6E650D0A00009D9246
:1004700009019C5303E0CC6A9E929D820001120008
:100480000501905102080AE1915308E1925306E1F7
:100490008FB104D0020E945F8F8101D08F91926949
:1004A0009169906B09019C6B0001E1DF9E9242EF24
:1004B00000F09EAAFED7ABCF20F0AECF01F020A275
:1004C00002D0AB98AB8812000501925109019C192A
:1004D0009D6F036A9D510001FCDD016E0501915184
:1004E0000118926F036A09019D5100017ADEE8CF7D
:1004F00091F51200DEDF01C09BF905018FB12BD011
:10050000905308E1926991699BC993F5902B946B84
:10051000966B17D0902D04D09BC995F5902B11D0D8
:10052000905102080EE1943D02D0FE0E946F970E9A
:100530009425E96E050EEA6ED8B0EA2A9BC9EFFF52
:10054000942B9BC99CF90001BFDF010E09019C6F30
:1005500000018DDF05019E9A000142EF00F023208B
:1005600073626469785F6D6F5F7374617475732013
:1005700020203D2025640A00232073626469785F8F
:100580006D6F5F6D736E2020202020203D20256C34
:10059000750A0000232073626469785F6D745F736D
:1005A00074617475732020203D2025640A00232087
:1005B00073626469785F6D745F6D736E20202020B4
:1005C00020203D20256C750A000023207362646999
:1005D000785F6D745F6C656E6774682020203D20C5
:1005E000256C750A0000232073626469785F6D745E
:1005F0005F7175657565642020203D2025640A00C3
:10060000415445300D004154264B300D00004154FB
:100610002B5342444D54413D310D000041542B4376
:100620005249530D0000415445300D004154264BB2
:10063000300D000041542B5342444D54413D310D87
:10064000000041542B53424457423D256C750D0028
:1006500041542B53424449580D0041542B534244BA
:1006600044300D00415445300D004154264B300DAF
:10067000000041542B5342444D54413D310D000084
:1006800041542B53424452420D0023206C3D256CB3
:100690007520723D256C750D0A0023206D745F6214
:1006A0007566665B256C755D3D25630D0A00090165
:1006B0002D2B2D5164081AE12D6B2E2BD8B42F2B26
:1006C0000501855109012F5D0CE305E10501845108
:1006D00009012E5D06E32F6B2E6B010E0301616F86
:1006E00009010701DD5301E0DD0709010301623D56
:1006F00001D001D0622B645303E1939A8A9A03D00C
:10070000939A8A8A6407B79E000142EF00F0A4AA78
:10071000FED7A6CF20F07ACF01F020A202D0A69873
:10072000A688120005016B5303E00001F0DF05010C
:10073000030162510A0803E205016A6B0301626B5F
:1007400005016A5336E131C930F932C931F933C98B
:1007500032F934C933F90001DADF01C034F9090193
:100760003051230824E131510501815DD8B402D014
:1007700009011DD032C903F0090133510501825D21
:10078000D8B402D0090113D00350835DD8B402D08D
:1007900009010DD030C96AF431C96BF432C96CF467
:1007A00033C96DF434C96EF4050E6A6F09011DD0AA
:1007B00005016A516A2B6A0FE96E040EEA6ED8B021
:1007C000EA2AEACF9EF9E9CF9DF90001A0DF9EC990
:1007D000EAFF9DC9E9FF01C0EFFF04016E51050169
:1007E0006A5D02E1010E6B6F0901A49A000142EFFC
:1007F00000F023207362642E72696E675F666C611D
:10080000673D310D0A0023207362642E73626469B0
:10081000785F726573706F6E73653D272573270D62
:100820000A0023206D74206D657373616765207203
:1008300065636569766564210D0A000005016A6BD0
:100840006B6B0001120093988A8893908A80CEEF98
:1008500004F0C69E9E968BC9C9FF020EC6BE05D087
:100860009EA6FED7000EC5BC010E016E1200C5800B
:10087000C5B0FED70400090E006E002EFED70000A2
:100880009A0E09018B6F0001E4DF090188358A6F38
:100890008A378A37F80E8A178AC98BF90001D9DF9F
:1008A00089C98BF9D6DFC584C5B4FED71200030E03
:1008B0000901886F800E896F0001D9DF0901886BFB
:1008C0007AC989F90001D3DF010E0901886F896BAC
:1008D0000001CDDF030E0901886FBF0E896F000193
:1008E000C6DF020E0901886F100E896F0001BFDF9D
:1008F000030E0901886F896F0001B9DF010E09013C
:10090000886F896B0001B3DF020E0901886F070E43
:10091000896F0001ACDFD3EF04F0090EEA6E7A0EA6
:10092000E96EEF5011E0020E016EBF0E006E040082
:10093000002EFDD7012EF9D7960E006E002EFED7A1
:1009400000D00400EF2EEFD71200620ED36E9B6A28
:10095000646A0F015C51800B5C6F000E5D6FC19685
:10096000C198C19AD1805D691F0E5C6FF00EBB16F5
:1009700050174D174A174717949A8B9A780E060905
:10098000886E4D0EA96EB68E010E0301616F62690D
:10099000636B646B000152DFA38A55D7060E090111
:1009A0007A6F000184D70E0E09017A6F0001B5DF5E
:1009B000F6EF1EF0010E0501865DFB0F19E2050F33
:1009C0000001FFEF04F092908980050111D092920E
:1009D000898205010DD092948984050109D09296EF
:1009E0008986050105D0929A898A050101D0050101
:1009F000040E0901886F896B000139DF1200E824B9
:100A0000F76AF736190FF66E0A0EF7220A00F5504C
:100A1000FA6E0800F550F96EC609CE09D609DE094E
:100A2000E6090901966B95C998F99451D8B49507D0
:100A30009407976F975302E198533FE0040093C9DE
:100A400003F09251E96E03C0EAFFEFCF97F996C920
:100A500098F997C999F998519919016E01C096F9B9
:100A60009151036E9051902BD8B4912B976F03C086
:100A700098F99351036E9251922BD8B4932BE96E4F
:100A800003C0EAFFEFCF99F9F250006EF29E98C9C9
:100A900075FF97C974FF99C973FF7F9C7F9E7F8400
:100AA0000F01550E7E6EAA0E7E6E7F827FB2FED73C
:100AB0007F940050F2120901B6D796C901F00001E7
:100AC0001200050E09018E6F810E8D6F916B040E61
:100AD000906F8EC993F98DC992F9956B080E946F3A
:100AE00000019FDF01C08CF9F250006EF29E756A22
:100AF000746A8CC973FF7F9C7F9E7F840F01550EA3
:100B00007E6EAA0E7E6E7F827FB2FED77F940050EB
:100B1000F21200011200960E0301646F410E0501EE
:100B2000816F120E836FC00E826F856B3C0E846FD7
:100B3000010E866F020E886F580E876F0001C1DFAD
:100B400012000900F5520DE0F6CF8DF9F7CF8EF9BE
:100B5000F550A4A8FED7796E8DC9F6FF8EC9F7FFB0
:100B6000F0D71200090194519603F3CF01F0F4CFAE
:100B700000F09703F350002695519603F3500020A0
:100B8000026E000112000901210E8E6F916B800E22
:100B9000906F936B8EC992F9030E956F400E946F10
:100BA00000013FDF01C08DF9F250006EF29E756AC0
:100BB000020E746E8DC973FF7F9C7F9E7F840F0130
:100BC000550E7E6EAA0E7E6E7F827FB2FED77F9418
:100BD0000050F21200011200960E0301646F2A0EFB
:100BE000F66E030EF76E0001ACDF09018C6B8C51C1
:100BF0003F0812E3956B8CC994F9976B0D0E966FB5
:100C00000001B0DF210E09010124E96E000E02206F
:100C1000EA6EEF6A8C2BEBD7100E216E7D0E236EE1
:100C2000226A010E246E3E0E256E296A410E286E40
:100C3000120E276EC10E266E2B6A2A6A060E2C6EC5
:100C4000100E2E6E7D0E306E2F6A010E316E360E36
:100C5000326E366A410E356E120E346EC20E336E2F
:100C6000386A376A200E396E100E3B6E7D0E3D6E6F
:100C70003C6A010E3E6E380E3F6E436A410E426E74
:100C8000120E416EC30E406E456A446A200E466ED7
:100C9000440EF66E030EF76E000153DF74DF120090
:100CA0000901836B82C985F98151D8B48207810714
:100CB000846F845302E1855332E080C903F07F5191
:100CC000E96E03C0EAFF7E51036E7D517D2BD8B4DF
:100CD0007E2B866F03C087F9F2CF88F9F29E87C911
:100CE00075FF86C974FF7F9C7F9E7F80735088BF8D
:100CF000F28EEF6E80C903F07F51E96E03C0EAFF08
:100D0000EFCF84F983C998F984C999F99851991951
:100D1000016E01C083F97F2BD8B4802BC3D783C960
:100D200001F000011200050E09017C6F810E7B6F3E
:100D30007E6B040E7D6F7CC980F97BC97FF9826B65
:100D4000080E816F0001ACDF01C07AF9F2CF7BF9A8
:100D5000F29E756A746A7F9C7F9E7F807350090142
:100D60007BBFF28E7A5D08E0F20EF66E020EF76E31
:100D70000001E7DED0DE090100011EEF1FF00900CF
:100D8000F6CF7DF9F7CF7EF9F550A4A8FED7796E9E
:100D90007DC9F6FF7EC9F7FF09017C2F01D002D083
:100DA0000001EDD70001120009018351016A825D43
:100DB00003E282C900F00CD0006A080E846F82370B
:100DC00000368351005CD8B0006E0136842FF7D70F
:100DD0000001120001507BC982F9640E0901836F82
:100DE0000001E2DF00C07BF90150300E08E109018B
:100DF0007CA30ED07CB70CD07CB9200E04D00901A6
:100E00007C977C997C8101260150A4A8FED7796E3D
:100E10007BC982F90A0E836F0001C6DF00C07BF92F
:100E20000150300E08E109017CB70BD07CA109D03C
:100E30007CB9200E000101260150A4A8FED7796ECE
:100E40000901300E7B277B51A4A8FED7796E0001E3
:100E50004BEF07F00901210E7B6F7E6B800E7D6FDB
:100E6000806B7BC97FF9030E826F400E816F00019A
:100E700017DF01C07AF95C0EF66E030EF76E170EDF
:100E800009017C6F00017BDF7AC97BF91B0E090128
:100E90007C6F00019FD70D0EA4A8FED7796E0A0EB5
:100EA000A4A8FED7796EF2CF7BF9F29E756A020E86
:100EB000746E7F9C7F9E7F80735009017BBFF28E92
:100EC0007A5D08E0780EF66E030EF76E000139DEEB
:100ED00083DE0901000120EF1FF09EAA03D059EC28
:100EE00002F0FBD7AE50949A8B9A9D8A1200949A86
:100EF0008B9AF3DF480E0609CA6EF90ECB6EC00E50
:100F0000F21222EF1FF00801E66B0901276B0001C6
:100F10001200EF5210E0EACF7BF9E9CF7AF9EF50F7
:100F2000A4A8FED7796E7BC9EAFF7AC9E9FFE92A4E
:100F3000D8B4EA2AEED749EF1FF07DC97FF97CC902
:100F40007EF97FC9EAFF09017EC9E9FFEF5206E099
:100F50007E2BD8B47F2B0001F4D709017C517E5D34
:100F6000006E7D517F59036E00C001F0026E0001DA
:100F700001EF09F009017E6B7DC9EAFF7CC9E9FF39
:100F8000EF50200804E17C2BD8B47D2BF5D77DC928
:100F9000EAFF7CC9E9FFEFCF7FF97F512F0812E20A
:100FA0007F5139080FE37E510A0DF3CF7EF97DC9D9
:100FB000EAFF7CC9E9FF300EEF5C7E277C2BD8B4BA
:100FC0007D2BE5D77EC901F0000112007FC9EAFF41
:100FD00009017EC9E9FF8051EF5C12E07FC903F08F
:100FE0007EC9E9FF03C0EAFFEF5204E1000E016E83
:100FF000026E0AD07E2BD8B47F2B0001E7D70901FF
:101000007EC901F07FC902F00001120009017F6B67
:101010007E6B7DC9EAFF7CC9E9FFEF50200804E13F
:101020007C2BD8B47D2BF5D77DC9EAFF7CC9E9FFBD
:10103000EFCF80F980512F081EE2805139081BE361
:101040007FC995F97EC994F9976B0A0E966F0001D6
:1010500089DD02C07FF901C07EF97DC9EAFF09017F
:101060007CC9E9FF300EEF5C7E27000E7F237C2BCE
:10107000D8B47D2BD9D77EC901F07FC902F0000119
:101080001200200E09017DA9300E7E6F7CC900F090
:1010900000AE08D0001E002A00C07CF92D0E7E6F25
:1010A0007D8F7D8101507CC982F9640E836F0001C0
:1010B0007BDE00C07CF9300E012409017F6F7CC902
:1010C00082F90A0E836F00016FDE300E00240901E1
:1010D000816F300E0124806F7EC900F0300E7F5D7D
:1010E00004E07D837DBF7D8512D07EC97FF9200E0F
:1010F0007E6F300E805D04E07D817DBF7D8307D0F3
:10110000D8A47D8104E17FC980F9200E7F6F7DB571
:1011100005D07DB307D07DB109D00CD07E51A4A8F5
:10112000FED7796E7F51A4A8FED7796E8051A4A80E
:10113000FED7796E8151A4A8FED7796E0001120006
:10114000EACF84F9E9CF83F909017D39F0097F6F8E
:101150007F27E20F806F320F826F7D510F0B802748
:1011600080278227E90F816F812781277C390F0B28
:101170008127822781378237821F82377C510F0B6C
:1011800082277F37070E7E6F0A0E81078227FDE3D5
:1011900080078127FDE37F078027FDE37E077F2708
:1011A000FDE3090EEA6E7E0EE96E070E8315839D40
:1011B000E926000EEA22E950820804E1EA50090813
:1011C00001E1838DEF50006E08E183BD06D083B945
:1011D0000CD083B702D0200E03D083878399300EC2
:1011E00000260050A4A8FED7796EEE5083ADE3D759
:1011F00000011200060E09017D6F960E7C6F000142
:101200009CD602C07DF901C07CF909017D5303E140
:101210007C5117080BE206019E512F08D8A002D07E
:10122000090104D09E51390803E2090133D10601B6
:10123000060E09017D6F9E0E7C6F00019BDE01C0D2
:10124000C0F6060E09017F6F9F0E7E6F2C0E806F19
:101250000001BCDE02C07BF901C07AF909017A53B2
:1012600003E17B5301E116D17A2BD8B47B2B7BC9E8
:101270007DF97AC97CF90001C9DE02C0C2F601C05D
:10128000C1F6010E09017A257C6F000E7B217D6F6E
:101290007F6F7CC97EF92C0E806F000197DE02C043
:1012A0007BF901C07AF909017A5303E17B5301E12B
:1012B000F1D07A2BD8B47B2B7BC97DF97AC97CF924
:1012C000000158DE01C0C3F6010E09017A257C6FCA
:1012D000000E7B217D6F7F6F7CC97EF92C0E806FA5
:1012E000000174DE02C07BF901C07AF909017A536A
:1012F00003E17B5301E1CED07A2BD8B47B2B7BC9A1
:101300007DF97AC97CF9000181DE02C0C5F601C011
:10131000C4F6010E09017A257C6F000E7B217D6FDA
:101320007F6F7CC97EF92C0E806F00014FDE02C0FA
:101330007BF901C07AF909017A5303E17B5301E19A
:10134000A9D07A2BD8B47B2B7BC97DF97AC97CF9DB
:1013500000015CDE02C0C7F601C0C6F6010E09013D
:101360007A257C6F000E7B217D6F7F6F7CC97EF9B3
:101370002C0E806F00012ADE02C07BF901C07AF9D1
:1013800009017A5303E17B5301E184D07A2BD8B46D
:101390007B2B7BC97DF97AC97CF90001EBDD01C0AB
:1013A000C8F65E0EF66E050EF76E160E09017C6F1E
:1013B0000001E5DCC0C67CF9180E09017D6F000153
:1013C00060DE0A0EA4A8FED7796E780EF66E050EC2
:1013D000F76E160E09017C6F0001D1DC100EE96E6C
:1013E000C2C67DF9C1C67CF9ABDE0A0EA4A8FED741
:1013F000796E940EF66E050EF76E160E09017C6F6F
:101400000001BDDCC3C67CF9180E09017D6F000127
:1014100038DE0A0EA4A8FED7796EAE0EF66E050E63
:10142000F76E160E09017C6F0001A9DC100EE96E43
:10143000C5C67DF9C4C67CF983DE0A0EA4A8FED712
:10144000796ECA0EF66E050EF76E160E09017C6FE8
:10145000000195DC100EE96EC7C67DF9C6C67CF9A1
:101460006FDE0A0EA4A8FED7796EE60EF66E050EA4
:10147000F76E160E09017C6F000181DCC8C67CF98D
:10148000180E09017D6F0001FCDD0A0EA4A8FED72D
:10149000796E0901000155EF1FF0C69CC586C5B6DF
:1014A000FED700B0C59A00A0C58AC588C5B8FED7CA
:1014B000C9CF01F01200C580C5B0FED70400090EE7
:1014C000006E002EFED700009A0E09018B6F0001FE
:1014D00029EC04F009017B357D6F7D377D37F80EEF
:1014E0007D177DC98BF9000129EC04F0C582C5B2D6
:1014F000FED70400090E006E002EFED700009B0EE2
:1015000009018B6F000129EC04F0006AC6DF01C0FD
:101510007CF9C584C5B4FED709017CC901F000017E
:101520001200050E09017B6F0001C5DF0150010BA0
:10153000016E120009017B6B0001BDDF015001C08B
:101540007AF909017A510D0801E14AD00801E65300
:1015500048E109017A510A0803E1275301E140D02B
:101560000801E75153081EE1E85142081BE1E95127
:10157000440818E1EA51520815E1EB51490812E11B
:10158000EC514E080FE109017A514708D8B402D056
:10159000080108D0010E0801E46F0001B4DC090164
:1015A0001FD0080109017A510A080DE1E70E27252D
:1015B000E96E080EEA6ED8B0EA2AEF6A010E080159
:1015C000E66F09010DD027513E080AE3E70E2725F3
:1015D000E96E080EEA6ED8B0EA2A7AC9EFFF272B27
:1015E000080100016CEF1FF00901886B87C989F9B8
:1015F000000137EC04F012000900F5520CE0F6CFC0
:101600007EF9F7CF7FF9F5CF87F9EEDF7EC9F6FFD8
:101610007FC9F7FFF1D712000701DF5101080BE383
:10162000000171DC640EF66E060EF76EE5DF020E49
:101630000701DF6F79D1DF51020811E10801E62DC2
:101640000CD0E7514F0806E1E8514B0803E10701D0
:10165000DF2B0801000157DC080167D10701DF51CA
:1016600003080AE100014FDC6A0EF66E060EF76E03
:10167000C3DF0701DF2B58D1DF51040811E1080156
:10168000E62D0CD0E7514F0806E1E8514B0803E185
:101690000701DF2B0801000136DC080146D10701F4
:1016A000DF5105080AE100012EDC720EF66E060E0F
:1016B000F76EA2DF0701DF2B37D1DF51060811E1FA
:1016C0000801E62D0CD0E7514F0806E1E8514B0820
:1016D00003E10701DF2B0801000115DC080125D11A
:1016E0000701DF5107080EE100010DDC010E0901C1
:1016F000286F800EF66E060EF76E00017DDF070183
:10170000DF2B12D1DF51080811E100010ADF01527D
:1017100001E10BD109017B6B0001CDDE015001C05D
:10172000E1F80801E06B0701DF2BFED0DF5109086B
:1017300018E10001F6DE015201E1F7D009017B6BEF
:101740000001B9DE015001500801E027000EE1233D
:101750000701DF2B09012C6B2B6B2A6B296BE4D063
:101760000701DF510A0835E10001DBDE015201E12A
:10177000DCD00801E05307E1E15305E10701DF2B6D
:101780000001D3D0080109017B6B000194DE0150F8
:1017900001C07AF9E00E09012925E96E070E2A2118
:1017A000EA6E7AC9EFFF7A512B27000E2C23292BE2
:1017B000D8B42A2B0801E0510901295D08E108018C
:1017C000E15109012A5D03E10701DF2B0901ACD0DA
:1017D0000701DF510B0811E10001A3DE015201E115
:1017E000A4D009017B6B000166DE015001C02AF91B
:1017F0000901296B0701DF2B97D0DF510C0815E198
:1018000000018FDE015201E190D009017B6B0001E4
:1018100052DE0150015009012927000E2A23070139
:10182000DF2B0901286B80D00701DF510D08D8A4F8
:101830007BD08A0EF66E060EF76E040E09017C6FE1
:101840000001BFEC06F0100EE96E2CC97DF92BC922
:101850007CF976DC910EF66E060EF76E030E09012A
:101860007C6F0001BFEC06F0100EE96E2AC97DF90D
:1018700029C97CF965DC0D0EA4A8FED7796E0A0E85
:10188000A4A8FED7796E090129512B5D48E12A51A0
:101890002C5D45E1010E0701DE6F09012A6B296B02
:1018A0002A510801E15D3CE308E1E0510901295DAD
:1018B000D8A002D0080134D00801E00E0901292582
:1018C000E96E070E2A21EA6EEFCF7BF99A0EF66ECB
:1018D000060EF76E0A0E7C6F0001BFEC06F0100ECC
:1018E000E96E2AC97DF929C97CF92ADC5D0EA4A814
:1018F000FED7796E3D0EA4A8FED7796E09017B5103
:10190000A4A8FED7796E0D0EA4A8FED7796E0A0E94
:10191000A4A8FED7796E292BD8B42A2BC1D70801E9
:101920000601C36B0701DF6B0801000173EF1FF0B5
:101930000900F6CF7FF9F7CF80F9F5CF87F954DEAC
:101940007FC9F6FF80C9F7FF09017E2F01D002D0C1
:101950000001EED7000125EF0EF0EACF86F9E9CFBE
:1019600085F909017F39F009816F8127E20F826FC4
:10197000320F846F7F510F0B822782278427E90F54
:10198000836F832783277E390F0B83278427833731
:101990008437841F84377E510F0B84278137070ECD
:1019A000806F0A0E83078427FDE382078327FDE308
:1019B00081078227FDE380078127FDE3090EEA6E98
:1019C000800EE96E070E8515859DE926000EEA2238
:1019D000E950840804E1EA50090801E1858DEF50DF
:1019E000006E08E185BD06D085B915D085B702D057
:1019F000200E03D085878599300E0026EACF7FF927
:101A0000E9CF7EF900C087F90001EEDD7FC9EAFF6A
:101A10007EC9E9FF0901EE5085ADDAD700012CEF50
:101A20000EF0090E09017F5F0CE3090EEA6E7F0ECE
:101A3000E96ED890EF32EF5004E001D00400EF2EB1
:101A4000FDD700017DEF0EF07FC985F97EC984F9CD
:101A50000901825302E1835323E081C9EAFF80C96F
:101A6000E9FFEF521DE085C903F08451842BD8B4FF
:101A7000852B866F03C087F981C9EAFF8051802BCF
:101A8000D8B4812BE96EEFCF88F903C0EAFF86C98D
:101A9000E9FF88C9EFFF8251D8B483078207D9D7FD
:101AA000825302E183530DE085C9EAFF8451842B00
:101AB000D8B4852BE96EEF6A8251D8B483078207C8
:101AC000EFD77EC901F07FC902F0000105EF0FF0EA
:101AD000010E0501865DFB0F19E2050F000190EF75
:101AE0000DF092908990050111D092928992050192
:101AF0000DD092948994050109D09296899605019A
:101B000005D0929A899A050101D00501040E0901B8
:101B1000886F020E896F000137EC04F097EF0FF029
:101B2000E824F76AF7363B0FF66E1B0EF7220A0021
:101B3000F550FA6E0800F550F96EE21AEA1AF21A38
:101B4000FA1A021B0701DB6BDA6B0601C96B000195
:101B500012000601C95302E1F0D1ECD1C92D0BD01E
:101B6000000183EC07F0260EF66E060EF76E44DDDC
:101B70000601C92BDFD1C951020812E10801E62D87
:101B80000DD0E7514F0806E1E8514B0803E106018B
:101B9000C92B0801000183EC07F00801CCD1060134
:101BA000C95103080BE1000183EC07F02C0EF66E1F
:101BB000060EF76E21DD0601C92BBCD1C951040800
:101BC00012E10801E62D0DD0E7514F0806E1E8517A
:101BD0004B0803E10601C92B0801000183EC07F063
:101BE0000801A9D10601C95105080BE1000183ECE8
:101BF00007F0340EF66E060EF76EFEDC0601C92BFA
:101C000099D1C951060812E10801E62D0DD0E7511E
:101C10004F0806E1E8514B0803E10601C92B080112
:101C2000000183EC07F0080186D10601C9510708BD
:101C30001BE1000183EC07F0420EF66E060EF76E14
:101C4000090E09017E6F000173D6100EE96EDBC725
:101C50007FF9DAC77EF981D60D0E0901876F000181
:101C6000C3DC0601C92B66D1C95108081BE1080174
:101C7000E62D16D0E75152080FE1E85145080CE176
:101C8000E951410809E1EA51440806E1EB515908DC
:101C900003E10601C92B0801000183EC07F00801EC
:101CA0004AD10601C951090848E1000183EC07F057
:101CB00009017D6B7C6B7B6B7A6B7B510701DB5D74
:101CC0002EE308E1DA5109017A5DD8A002D00701BC
:101CD00026D00701CA0E09017A25E96E060E7B217E
:101CE000EA6EEFCF87F900017FDC0400020E0901E4
:101CF0007E6FF70E7F6F000194D609017E2FF9D712
:101D0000CA0E7A25E96E060E7B21EA6EEF507C271B
:101D1000000E7D237A2BD8B47B2BCFD707017DC94A
:101D20007EF97DC987F900015FDC7CC97EF97CC939
:101D300087F95ADC0601C92BFDD0C9510A0811E107
:101D40000801E62D0CD0E751300804E10601C92B4B
:101D500005D00801000183EC07F006010801EBD073
:101D60000601C9510B0812E10801E62D0DD0E7511B
:101D70004F0806E1E8514B0803E10601C92B0801B1
:101D8000000183EC07F00801D6D00601C9510C0808
:101D900013E10701DC5305E0DD5303E00601CDD07C
:101DA0000701000183EC07F0500EF66E060EF76E89
:101DB00023DC0601C92BBED0C9510D0843E108013F
:101DC000E62D3ED0E7512B0837E1E851530834E1C6
:101DD000E951420831E1EA5144082EE1EB5149084A
:101DE0002BE1EC51580828E10601965310E1060E4C
:101DF00009017F6F960E7E6F080E816FE70E806F70
:101E0000836B290E826F00011FD60601BF6B08018C
:101E1000EE5120080CE1EF512F0809E2EF51320892
:101E200006E30601C92B0701DC6B05D0080106019A
:101E3000C92B0701DC2B0801000183EC07F0080126
:101E40007AD00601C9510E0835E10801E62D0DD002
:101E5000E7514F0806E1E8514B0803E10601C92BA1
:101E60000801000183EC07F008010701DC5320E0C2
:101E70000C0E0601C96F0701DC2D01D003D0DC5127
:101E8000020803E1030EDD6F13D0DC51030803E009
:101E9000DC51040803E1150EDD6F0AD0DC510508A2
:101EA00003E1FB0EDD6F04D00F0E0601C96F0701C1
:101EB00043D00601C9510F080CE1000183EC07F083
:101EC0005A0EF66E060EF76EFCEC0AF00601C92BF0
:101ED00031D0C951100811E10801E62D0CD0E751AD
:101EE000300804E10601C92B05D00801000183EC8C
:101EF00007F0060108011FD00601C951110812E1BF
:101F00000801E62D0DD0E7514F0806E1E8514B08D6
:101F100003E10601C92B0801000183EC07F0080169
:101F20000AD00601C951120805E10001D1D583ECA0
:101F300007F008DE08010701060100017FEF1FF02E
:101F40009EA8FED7AD6EA9EF0FF009018F510001D9
:101F5000F7D7196AF2BE198EF29E8FC99CF964EC0C
:101F600002F019BEF28E0400440E006E002EFED761
:101F700000D012000501926991698F919D9A949AFF
:101F80008B8A0400F20E006E002EFED78CC98FF9EA
:101F90000001DBDF8DC98FF9D8DF120092C58DF902
:101FA00091C58CF98DC98FF9D0DF8CC98FF9CDDF40
:101FB000ADA2FED70400F20E006E002EFED76DEC2F
:101FC00007F0949A8B9A05019269916900011200B9
:101FD00005018FB104D0000E016E0AD006D095AF76
:101FE00004D097C596F5010E946F8F91010E016E86
:101FF0000001120081C98CF9040E09018D6F0001E6
:10200000B9DF83C986F983C98FF99FDF82C986F951
:1020100082C98FF99ADF85C986F985C98FF995DF5D
:1020200084C986F984C98FF990DFB8DF090181532B
:1020300029E00001CDDF015219E1FF0E05018B27D8
:10204000D8A08C27D8A08D27D8A08E278B5309E144
:102050008C5307E18D5305E18E53D8A402D00001C3
:1020600005D0040000000901E4D7000105018B53ED
:1020700008E18C5306E18D5304E18E5302E10C0E0E
:10208000966F090105018E6B010E8D6F860E8C6FA8
:10209000A00E8B6F96C501F00001120081C98CF96A
:1020A000030E09018D6F000165DF83C986F983C9BD
:1020B0008FF94BDF82C986F982C98FF946DF85C95E
:1020C00086F985C98FF941DF84C986F984C98FF9FA
:1020D0003CDF64DF0901815329E0000179DF01520F
:1020E00019E1FF0E05018B27D8A08C27D8A08D27DA
:1020F000D8A08E278B5309E18C5307E18D5305E15E
:102100008E53D8A402D0000105D0040000000901BC
:10211000E4D7000105018B5308E18C5306E18D5390
:1021200004E18E5302E10C0E966F090105018E6BDE
:10213000010E8D6F860E8C6FA00E8B6F96C501F011
:1021400000011200090197519707000A24E096C97F
:10215000EAFF9551952BD8B4962BE96EEF50931B5F
:10216000986B9851070816E39351010B006E036AB0
:10217000005003100AE0D89094319A6F9331010A0D
:10218000936F9A51A00A946F03D0D89094339333ED
:10219000982BE7D7D8D793C901F094C902F0000172
:1021A0001200A4A8FED7796E1200110E0401662554
:1021B000020F0901916F926BD8B0922B230E806FA2
:1021C00081C581F983C582F9090182C583F90901B5
:1021D0008469120E856F92C986F991C987F969C41D
:1021E00088F9090168C489F9090167C47FF9956B09
:1021F0007FC994F9976B0D0E966F0001B2EC05F054
:1022000001C093F9010E09010124016E000E0220A4
:10221000036E0150210FE96E000E0320EA6EECCF31
:102220008AF9ED52EFCF93F9956B7FC994F9976BCB
:102230000D0E966F0001B2EC05F001C093F9010E8E
:1022400009010124016E000E0220036E0150210FCE
:10225000E96E000E0320EA6EECCF94F9ED52EFCF59
:102260008BF9956B7FC994F9976B0D0E966F0001F2
:10227000B2EC05F001C093F9050E09010124016ECD
:10228000000E0220036E0150210FE96E000E0320A4
:10229000EA6EEFCF93F9ECCF94F9ECCF95F9ECCF50
:1022A0008CF9956B7FC994F9976B0D0E966F0001B1
:1022B000B2EC05F001C093F9050E09010124016E8D
:1022C000000E0220036E0150210FE96E000E032064
:1022D000EA6EEFCF93F9ECCF94F9ECCF8DF9ECCF18
:1022E00096F9956B7FC994F9976B0D0E966F000167
:1022F000B2EC05F001C093F9050E09010124016E4D
:10230000000E0220036E0150210FE96E000E032023
:10231000EA6EEFCF93F9ECCF8EF9ECCF95F9ECCFD5
:1023200096F9956B7FC994F9976B0D0E966F000126
:10233000B2EC05F001C093F9050E09010124016E0C
:10234000000E0220036E0150210FE96E000E0320E3
:10235000EA6EEFCF8FF9ECCF94F9ECCF95F9ECCF93
:1023600096F965C390F994699369090E966F810E89
:10237000956F100E976F0001E5DE02C07EF901C077
:102380007DF97EC994F97DC993F9030E0901966F11
:10239000660E956F66C497F90001D4DE02C07EF91F
:1023A00001C07DF909017F6B7F5110080FE3036ABB
:1023B0007F51800FE96E090E0320EA6EEFCF93F98B
:1023C00093510001EEDE09017F2BEED77F6B0401F4
:1023D000665109017F5D0FE2660E7F25E96E030EEF
:1023E000EA6ED8B0EA2AEFCF93F993510001D9DE13
:1023F00009017F2BECD77EC993F993510001D1DEFF
:102400007DC993F9090193510001CBDE120081C906
:102410008CF9010E09018D6F0001ACDD83C986F9CD
:1024200083C98FF992DD82C986F982C98FF98DDD62
:1024300085C986F985C98FF988DD84C986F984C97B
:102440008FF983DDABDD0901815329E00001C0DD97
:10245000015219E1FF0E05018B27D8A08C27D8A0C7
:102460008D27D8A08E278B5309E18C5307E18D531C
:1024700005E18E53D8A402D0000105D0040000006D
:102480000901E4D7000105018B5308E18C5306E1F3
:102490008D5304E18E5302E10C0E966F0901050184
:1024A0008E6B010E8D6F860E8C6FA00E8B6F96C596
:1024B00001F000011200C580C5B0FED70400090E6E
:1024C000006E002EFED7000081C98BF929EC04F0C4
:1024D00082C98BF929EC04F0C582C5B2FED704008D
:1024E000090E006E002EFED700000901815101097E
:1024F000866F8B6F000129EC04F009018551850777
:10250000010810E084C9EAFF83C9E9FF010E006EEB
:1025100000014DEC0AF001C0EFFF0901832BD8B494
:10252000842BECD784C9EAFF83C9E9FF006A000164
:102530004DEC0AF001C0EFFFC584C5B4FED7DDEF56
:1025400015F00901772D08D0785306E10001DAEC87
:1025500004F0A2EC0DF00901775329E1785327E14B
:102560000001DAEC04F0A2EC0DF00701DBC703F088
:10257000DA51DA2BD8B4DB2B09017D6FCA0E7D2529
:10258000E96E060E0320EA6E36C9EFFF0701DBC7CE
:1025900003F0DA51DA2BD8B4DB2B09017D6FCA0EB8
:1025A0007D25E96E060E0320EA6E35C9EFFF7A6BD2
:1025B0007A513F08D8A07AD30400640E0301646FF7
:1025C0000901956B7AC994F9976B0D0E966F00010E
:1025D000B2EC05F002C07EF901C07DF9210E0901BF
:1025E0000124E96E000E0220EA6EEF5001E15CD397
:1025F000036A7A51370FE96E090E0320EA6EEF2A5B
:10260000036A7A51370FE96E090E0320EA6EEFCFA5
:102610007DF9956B7AC994F9976B0D0E966F000151
:10262000B2EC05F002C07FF901C07EF9030E09018A
:102630000124016E000E0220036E0150210FE96E8D
:10264000000E0320EA6EEF507D5D02E22DD308D02C
:10265000036A7A51370FE96E090E0320EA6EEF6ABA
:102660007AC967F436C969F435C968F4956B7AC9D3
:1026700094F9976B0D0E966F0001B2EC05F002C055
:102680007EF901C07DF9210E09010124E96E000ED9
:102690000220EA6EEF500708D8A002D2956B7AC9E3
:1026A00094F9976B0D0E966F0001B2EC05F002C025
:1026B0007EF901C07DF90C0E09010124016E000EA6
:1026C0000220036E0150210FE96E000E0320EA6E16
:1026D000EF50010808E1A796190EAF6EA60EAC6E7A
:1026E000900EAB6E07D0A7960C0EAF6EA20EAC6E1E
:1026F000900EAB6E956B7AC994F9976B0D0E966F31
:102700000001B2EC05F002C07EF901C07DF9210E96
:1027100009010124E96E000E0220EA6EEF50030861
:1027200018E0956B7AC994F9976B0D0E966F0001BE
:10273000B2EC05F002C080F901C07FF9210E090159
:102740000124E96E000E0220EA6EEF500408D8A4BE
:10275000F8D0956B7AC994F9976B0D0E966F0001BE
:10276000B2EC05F002C07EF901C07DF9210E09012D
:102770000124E96E000E0220EA6EEF50040861E1C8
:10278000956B7AC994F9976B0D0E966F0001B2ECB8
:1027900005F002C07EF901C07DF9040E0901012493
:1027A000016E000E0220036E0150210FE96E000E33
:1027B0000320EA6EEFCF7DF9956B7AC994F9976B98
:1027C0000D0E966F0001B2EC05F001C07EF9090E06
:1027D00009010124016E000E0220036E0150210F39
:1027E000E96E000E0320EA6EECCF7FF9ED52EFCFD9
:1027F0007EF9956B7AC994F9976B0D0E966F00016F
:10280000B2EC05F001C080F90B0E09010124016E44
:10281000000E0220036E0150210FE96E000E03200E
:10282000EA6EEFCF84F97DC981F97FC983F97EC94A
:1028300082F9856B0001FAEC0FF001C065F360D0FE
:102840000901956B7AC994F9976B0D0E966F00018B
:10285000B2EC05F002C07EF901C07DF9040E090159
:102860000124016E000E0220036E0150210FE96E5B
:10287000000E0320EA6EEFCF7DF9956B7AC994F9CB
:10288000976B0D0E966F0001B2EC05F001C07EF95A
:10289000090E09010124016E000E0220036E015091
:1028A000210FE96E000E0320EA6EECCF7FF9ED52A6
:1028B000EFCF7EF9956B7AC994F9976B0D0E966FF1
:1028C0000001B2EC05F001C080F90B0E09010124F2
:1028D000016E000E0220036E0150210FE96E000E02
:1028E0000320EA6EEFCF84F97DC981F97FC983F9AE
:1028F0007EC982F9856B00014EEC10F001C065F3D2
:10290000030165531CE1010E0501945D0401666F2E
:10291000010E0501945D09017D6F030EEA6E660EDE
:10292000E96E050EE26E980EE16E7D51016E04E0D7
:10293000E6CFEEFF012EFCD7000137DC0301AED05D
:102940000901956B7AC994F9976B0D0E966F00018A
:10295000B2EC05F002C07EF901C07DF9210E09013B
:102960000124E96E000E0220EA6EEF50010818E023
:10297000956B7AC994F9976B0D0E966F0001B2ECC6
:1029800005F002C080F901C07FF9210E0901012480
:10299000E96E000E0220EA6EEF500208D8A47FD044
:1029A000956B7AC994F9976B0D0E966F0001B2EC96
:1029B00005F002C07EF901C07DF9040E0901012471
:1029C000016E000E0220036E0150210FE96E000E11
:1029D0000320EA6EEFCF7DF9956B7AC994F9976B76
:1029E0000D0E966F0001B2EC05F001C07EF9090EE4
:1029F00009010124016E000E0220036E0150210F17
:102A0000E96E000E0320EA6EECCF7FF9ED52EFCFB6
:102A10007EF9956B7AC994F9976B0D0E966F00014C
:102A2000B2EC05F001C080F90B0E09010124016E22
:102A3000000E0220036E0150210FE96E000E0320EC
:102A4000EA6EEFCF84F97DC981F97FC983F97EC928
:102A500082F9856B0001DBDC01C065F3030165537E
:102A60001DE1010E0501945D0401666F010E050173
:102A7000945D09017D6F030EEA6E660EE96E050E28
:102A8000E26E980EE16E7D51016E04E0E6CFEEFF3E
:102A9000012EFCD70001D5EC10F003010901AED0E6
:102AA000956B7AC994F9976B0D0E966F0001B2EC95
:102AB00005F002C07EF901C07DF9210E0901012453
:102AC000E96E000E0220EA6EEF501708D8A096D0EB
:102AD000956B7AC994F9976B0D0E966F0001B2EC65
:102AE00005F002C07EF901C07DF9210E0901012423
:102AF000E96E000E0220EA6EEF501008D8A47ED0D6
:102B0000956B7AC994F9976B0D0E966F0001B2EC34
:102B100005F002C07EF901C07DF9040E090101240F
:102B2000016E000E0220036E0150210FE96E000EAF
:102B30000320EA6EEFCF7DF9956B7AC994F9976B14
:102B40000D0E966F0001B2EC05F001C07EF9090E82
:102B500009010124016E000E0220036E0150210FB5
:102B6000E96E000E0320EA6EECCF7FF9ED52EFCF55
:102B70007EF9956B7AC994F9976B0D0E966F0001EB
:102B8000B2EC05F001C080F90B0E09010124016EC1
:102B9000000E0220036E0150210FE96E000E03208B
:102BA000EA6EEFCF85F97DC981F97EC982F9030EFE
:102BB000846F660E836F00017ED40301656B09018B
:102BC000956B7AC994F9976B0D0E966F0001B2EC74
:102BD00005F001C07DF90B0E09010124016E000E04
:102BE0000220036E0150210FE96E000E0320EA6EF1
:102BF000EFCF66F40001D5EC10F00901775354E1F2
:102C0000785352E103016553D8B402D009014CD086
:102C10000701DBC703F0DA51DA2BD8B4DB2B09014B
:102C20007D6FCA0E7D25E96E060E0320EA6E7AC915
:102C3000EFFF0701DBC703F0DA51DA2BD8B4DB2B47
:102C400009017D6FCA0E7D25E96E060E0320EA6E2E
:102C500066C4EFFF7C6B7B6B7C5326E104016651FD
:102C600009017B5D21E20701DBC77EF9DA51DA2B2E
:102C7000D8B4DB2B09017D6FCA0E7D25016E060ECF
:102C80007E21036E660E7B25E96E030E7C21EA6EC3
:102C9000EFCF81F903C0EAFF01C0E9FF81C9EFFF6F
:102CA0007B2BD8B47C2BD8D77A2B82D477530EE1E8
:102CB00078530CE10701DA5305E1DB53D8A402D0C5
:102CC000090104D0010E0601C96F0901352BD8B4E2
:102CD000362B77530DE178530BE1010E0501875D2B
:102CE0000901776F000E050188590901786F04D03A
:102CF0007751D8B478077707000196EF1FF00901E4
:102D000089510308D8A06AD104E18851E708D8A006
:102D100065D18931036E8831026E0332023203328B
:102D2000023202C08DF98851070B8E6F8D51400819
:102D300003E2020E016ECED18E51F80FD8B04DD104
:102D4000080F00016DEF18F00901956B8DC994F91A
:102D5000976B0D0E966F0001B2EC05F002C090F972
:102D600001C08FF9210E09010124E96E000E022035
:102D7000EA6E8C6BEFCF8BF930D10901956B8DC961
:102D800094F9976B0D0E966F0001B2EC05F002C03E
:102D900090F901C08FF9010E09010124016E000EA6
:102DA0000220036E0150210FE96E000E0320EA6E2F
:102DB000ECCF8CF9ED52EFCF8BF90FD10901956B68
:102DC0008DC994F9976B0D0E966F0001B2EC05F06A
:102DD00002C090F901C08FF9030E09010124016EB0
:102DE000000E0220036E0150210FE96E000E032039
:102DF000EA6E8C6BEFCF8BF9F0D00901956B8DC922
:102E000094F9976B0D0E966F0001B2EC05F002C0BD
:102E100090F901C08FF9040E09010124016E000E22
:102E20000220036E0150210FE96E000E0320EA6EAE
:102E30008C6BEFCF8BF9D1D00901956B8DC994F9CB
:102E4000976B0D0E966F0001B2EC05F001C08FF983
:102E5000050E09010124016E000E0220036E0150CF
:102E6000210FE96E000E0320EA6EEFCF8FF9ECCF51
:102E700090F9ECCF91F9ECCF93F9956B8DC994F95A
:102E8000976B0D0E966F0001B2EC05F001C094F93E
:102E9000050E09010124016E000E0220036E01508F
:102EA000210FE96E000E0320EA6EEFCF94F9ECCF0C
:102EB00095F9ECCF96F9ECCF97F996C998F993C9A3
:102EC0008CF996C98BF989D00901956B8DC994F954
:102ED000976B0D0E966F0001B2EC05F001C08FF9F3
:102EE000050E09010124016E000E0220036E01503F
:102EF000210FE96E000E0320EA6EEFCF8FF9ECCFC1
:102F000093F9ECCF91F9ECCF92F9956B8DC994F9C7
:102F1000976B0D0E966F0001B2EC05F001C094F9AD
:102F2000050E09010124016E000E0220036E0150FE
:102F3000210FE96E000E0320EA6EEFCF94F9ECCF7B
:102F400095F9ECCF96F9ECCF97F994C998F993C914
:102F50008CF994C98BF941D00901956B8DC994F90D
:102F6000976B0D0E966F0001B2EC05F002C090F960
:102F700001C08FF9090E09010124016E000E022023
:102F8000036E0150210FE96E000E0320EA6EECCFB4
:102F90008CF9ED52EFCF8BF920D00901956B8DC9DB
:102FA00094F9976B0D0E966F0001B2EC05F002C01C
:102FB00090F901C08FF90B0E09010124016E000E7A
:102FC0000220036E0150210FE96E000E0320EA6E0D
:102FD0008C6BEFCF8BF901D0090163D08851006E63
:102FE0008951036E030E035C05E1E80E005C0001ED
:102FF00032E00901030E035C05E1E90E005C00010B
:103000002FE00901030E035C05E1EA0E005C0001FC
:103010002DE00901030E035C05E1EB0E005C0001ED
:103020002AE00901030E035C05E1EC0E005C0001DF
:1030300026E00901030E035C05E1ED0E005C0001D2
:1030400023E00901040E035C05E14C0E005C000165
:103050001FE0090123D009018C6B81C58BF921D0B8
:1030600083C58CF982C58BF909011BD009018C6BD2
:10307000520E8B6F16D009018C6B8B6B12D009012D
:103080008C6B340E8B6F0DD009018C6B8B6B09D060
:1030900085C58CF984C58BF9090103D0020E016E38
:1030A00019D06A0E8A25E96E040EEA6ED8B0EA2AB3
:1030B0008CC9EFFF010E8A256A0FE96E040EEA6ED5
:1030C000D8B0EA2A8BC9EFFF020E05018027000E57
:1030D000016E090100019AEF18F0E824F76AF7364B
:1030E000F50FF66E300EF7220A00F550FA6E080062
:1030F000F550F96E482D7A2DBC2DFA2D382EC82E9C
:10310000582F9A2F0901846B836B8251835D17E2DC
:10311000845315E183518025856F000E8121866FD0
:10312000D8908335876F86C989F985C988F98A6FF0
:103130000001E5D501C084F90901832BE6D784C9D4
:1031400001F0000178EF1AF0030163531BE009015D
:103150008451E80809E18551030806E186C981F533
:10316000000E016E83D10DD08451E9080AE185512A
:10317000030807E187C983F586C982F5000E016E51
:1031800075D10301090185510308D8A002D104E1DA
:103190008451E708D8A0FDD08531036E8431026EDA
:1031A000033202320332023202C088F98451070B23
:1031B000896F8851400803E2020E016E57D1895190
:1031C000F80FD8B0E5D0080F000139EF1AF0090167
:1031D000956B88C994F9976B0D0E966F0001B2EC50
:1031E00005F002C08DF901C08CF9210E09010124FE
:1031F000E96E000E0220EA6E86C9EFFFC9D0090110
:10320000956B88C994F9976B0D0E966F0001B2EC1F
:1032100005F002C08DF901C08CF9010E09010124ED
:10322000016E000E0220036E0150210FE96E000EA8
:103230000320EA6E87C9ECFFED5286C9EFFFA8D0E4
:103240000901956B88C994F9976B0D0E966F000173
:10325000B2EC05F002C08DF901C08CF9030E090132
:103260000124016E000E0220036E0150210FE96E51
:10327000000E0320EA6E86C9EFFF8AD00901956B24
:1032800088C994F9976B0D0E966F0001B2EC05F0AA
:1032900002C08DF901C08CF9040E09010124016EF0
:1032A000000E0220036E0150210FE96E000E032074
:1032B000EA6E86C9EFFF6CD087C98BF986C98AF997
:1032C000090166D00901956B88C994F9976B0D0EB9
:1032D000966F0001B2EC05F001C08CF9050E0901F2
:1032E0000124016E000E0220036E0150210FE96ED1
:1032F000000E0320EA6EEE528AC9ECFF8BC9ECFF88
:10330000ED52ED52ED5286C9EFFF87C9ECFF000187
:103310000901956B88C994F9976B0D0E966F0001A2
:10332000B2EC05F002C08DF901C08CF9090E09015B
:103330008C25016E000E8D21036E0150210FE96E68
:10334000000E0320EA6E87C9ECFFED5286C9EFFF3D
:103350001FD00901956B88C994F9976B0D0E966F74
:103360000001B2EC05F002C08DF901C08CF90B0E22
:1033700009010124016E000E0220036E0150210F8D
:10338000E96E000E0320EA6E86C9EFFF01D0090145
:1033900069D08451006E8551036E040E035C05E113
:1033A0004C0E005C000122E00901070E035C05E100
:1033B000CD0E005C00011FE00901070E035C05E172
:1033C000CE0E005C000118E00901070E035C05E168
:1033D000CF0E005C000120E009014E0E035C05E108
:1033E0001F0E005C000126E0090139D087C985F570
:1033F00086C984F538D0FF0009018651CE0803E163
:103400008751070803E0030E016E30D000018BECFA
:1034100005F0ECEC05F027D00901862D02D087538A
:1034200003E0030E016E22D0000161EC05F0C3EC55
:1034300005F019D0090186510A0803E187510708F0
:1034400006E00301636B030E016E09010FD0010E4C
:103450000301636FC80E646F000105D00901020EFD
:10346000016E04D00001000E016E090100019DEF04
:103470001AF0E824F76AF7368D0FF66E340EF7224D
:103480000A00F550FA6E0800F550F96ECE31FE31A3
:1034900040327C32B832C432103352330501806B73
:1034A0007751006E7851036E035005E1030E005C06
:1034B000000117E00501035005E1040E005C000166
:1034C00010E00501035005E1060E005C000113E069
:1034D0000501035005E1070E005C000131E0050124
:1034E00031D07AC581F979C580F97BC582F90AD6D0
:1034F00001C07FF52AD06A0E05017C25E96E040E15
:10350000EA6ED8B0EA2AEFCF80F9010E7C256A0F67
:10351000E96E040EEA6ED8B0EA2AEFCF81F980C9CD
:1035200083F981C982F97AC585F979C584F980C999
:1035300087F981C986F9000107D601C07FF505D05A
:1035400004D00501010E7F6F806B00018BEF1EF030
:1035500081C98CF9020E09018D6F0001BAEC0FF0E0
:1035600083C986F983C98FF9A5EC0FF082C986F962
:1035700082C98FF9A5EC0FF085C986F985C98FF945
:10358000A5EC0FF084C986F984C98FF9A5EC0FF07A
:10359000CEEC0FF0090181532AE00001E8EC0FF0B6
:1035A000015219E1FF0E05018B27D8A08C27D8A066
:1035B0008D27D8A08E278B5309E18C5307E18D53BB
:1035C00005E18E53D8A402D0000105D0040000000C
:1035D0000901E3D7000105018B5308E18C5306E193
:1035E0008D5304E18E5302E10C0E966F0901050123
:1035F0008E6B010E8D6F860E8C6FA00E8B6F96C535
:1036000001F00001C4EF1CF082C98CF9050E09011C
:103610008D6F0001BAEC0FF084C986F984C98FF967
:10362000A5EC0FF083C986F983C98FF9A5EC0FF0DB
:103630000901855306E08F690001A5EC0FF005D064
:1036400009018F6B0001A5EC0FF009018F6B0001E0
:10365000A5EC0FF0CEEC0FF0090182532AE0000137
:10366000E8EC0FF0015219E1FF0E05018B27D8A0FD
:103670008C27D8A08D27D8A08E278B5309E18C5397
:1036800007E18D5305E18E53D8A402D0000105D087
:10369000040000000901E3D7000105018B5308E194
:1036A0008C5306E18D5304E18E5302E10C0E966FAC
:1036B000090105018E6B010E8D6F860E8C6FA00EB9
:1036C0008B6F96C501F0000105EF1DF085C98CF9DF
:1036D000060E09018D6F0001BAEC0FF087C98AF957
:1036E00087C98FF9A5EC0FF086C98AF986C98FF9C9
:1036F000A5EC0FF089C98AF989C98FF9A5EC0FF0FB
:1037000088C98AF988C98FF9A5EC0FF0CEEC0FF0C3
:10371000090185532AE00001E8EC0FF0015219E19C
:10372000FF0E05018B27D8A08C27D8A08D27D8A005
:103730008E278B5309E18C5307E18D5305E18E539E
:10374000D8A402D0000105D0040000000901E3D78D
:10375000000105018B5308E18C5306E18D5304E110
:103760008E5302E10C0E966F090105018E6B010E5E
:103770008D6F860E8C6FA00E8B6F96C501F00001C9
:1037800030EF1DF0D89009018635026E873502C0F2
:103790008BF983C98CF9100E8D6F0001BAEC0FF014
:1037A00085C98CF985C98FF9A5EC0FF084C98CF90E
:1037B00084C98FF9A5EC0FF087C98CF987C98FF9F7
:1037C000A5EC0FF086C98CF986C98FF9A5EC0FF02E
:1037D0008BC98FF9A5EC0FF009018A6B875303E1C0
:1037E00086518A5D34E2036A8AC902F0D8900236B3
:1037F000033602508825E96E89510320EA6EECCF2A
:103800008DF9ED52EFCF8CF98CC98EF98CC98FF9F7
:103810000001A5EC0FF0036A09018AC902F0D890F3
:103820000236033602508825E96E89510320EA6E7C
:10383000ECCF8DF9ED52EFCF8CF98DC98EF98DC992
:103840008FF90001A5EC0FF009018A2BC7D7000101
:10385000CEEC0FF0090183532AE00001E8EC0FF0F1
:10386000015219E1FF0E05018B27D8A08C27D8A0A3
:103870008D27D8A08E278B5309E18C5307E18D53F8
:1038800005E18E53D8A402D0000105D00400000049
:103890000901E3D7000105018B5308E18C5306E1D0
:1038A0008D5304E18E5302E10C0E966F0901050160
:1038B0008E6B010E8D6F860E8C6FA00E8B6F96C572
:1038C00001F000014FEF1DF005017751006E7851B6
:1038D000036E035004E10052000135E0050103507E
:1038E00005E1010E005C00012FE00501035005E138
:1038F000020E005C00013CE00501035005E1030EEF
:10390000005C000148E00501035005E1040E005C85
:10391000000155E00501035005E1050E005C0001C2
:1039200062E00501035006E1060E005C0001D8B418
:1039300073D00501035006E1070E005C0001D8B406
:1039400096D00501B4D0E3D075C581F97AC583F965
:1039500079C582F90901856B7BC584F9000107EC03
:1039600012F001C07FF5010E0901806F05019FD0A3
:1039700075C581F97AC583F979C582F90901856B25
:103980007BC584F90001E4D501C07FF5010E090172
:10399000806F05018CD075C581F97AC583F979C529
:1039A00082F90901856B7BC584F900014EEC10F0AA
:1039B00001C07FF5010E0901806F050178D075C542
:1039C00081F97AC583F979C582F90901856B7BC5CF
:1039D00084F90001FAEC0FF001C07FF5010E090136
:1039E000806F050164D06A0E05017C25E96E040E26
:1039F000EA6ED8B0EA2AEFCF85F975C582F97AC5A3
:103A000084F979C583F90001FFD501C07FF5020E65
:103A10000901806F05014BD06A0E05017C25E96E16
:103A2000040EEA6ED8B0EA2AEFCF81F9010E7C25A8
:103A30006A0FE96E040EEA6ED8B0EA2AEFCF82F977
:103A400081C984F982C983F975C585F97AC587F971
:103A500079C586F981C989F982C988F9000136D604
:103A600001C07FF5020E0901806F000150D06A0E7F
:103A700005017C250901816F040E826FD8B0822B6D
:103A800075C583F97AC585F979C584F9876B7BC5D6
:103A900086F982C989F981C988F9000173D601C004
:103AA0007FF5020E0901806F000131D00501090187
:103AB000802D1DD005017F53D8B402D0090117D045
:103AC000010E945D806F010E945D0901816F040EFB
:103AD000EA6E6A0EE96E050EE26E980EE16E815195
:103AE000016E04E0E6CFEEFF012EFCD710D080512E
:103AF00002080DE105017F53D8B402D0090107D0B7
:103B0000020E806F9AC56AF49BC56BF4090100012F
:103B10008FEF1EF0230E0901806F81C581F983C5E7
:103B200082F9090182C583F909018469140E856F40
:103B30000D0E05018025020F09018D6F8E6BD8B027
:103B40008E2B8EC986F98DC987F970C588F9090150
:103B50006FC589F909016EC58AF909016DC58BF92F
:103B600009017FC58CF994699369090E966F810EDE
:103B7000956F0C0E976F0001A2EC10F002C08EF949
:103B800001C08DF98EC994F98DC993F9040E09010C
:103B9000966F6A0E956F80C597F90001A2EC10F040
:103BA00002C08EF901C08DF909018F6B8F510C088D
:103BB00010E3036A8F51800FE96E090E0320EA6E4D
:103BC000EFCF90F990510001D1EC10F009018F2B4B
:103BD000EDD78F6B0501805109018F5D10E26A0EF0
:103BE0008F25E96E040EEA6ED8B0EA2AEFCF90F97D
:103BF00090510001D1EC10F009018F2BEBD78EC949
:103C000090F990510001D1EC10F08DC990F90901A3
:103C100090510001D1EC10F090EF1EF06EC46CF5E5
:103C2000020E05016C5D6A0FE96E040EEA6ED8B0F3
:103C3000EA2AEFCF7EF5010E6C5D6A0FE96E040E85
:103C4000EA6ED8B0EA2AEFCF7DF5030E6C5D09016C
:103C5000806F94699369040E966F6B0E956F80C99F
:103C600097F90001A2EC10F002C07FF901C07EF9C3
:103C700005017D5109017E5D05E105017E510901C6
:103C80007F5D01E04ED004016F51130803E009018C
:103C900048D0040170C470F571C46FF572C46EF53C
:103CA00073C46DF574C474F575C473F576C472F598
:103CB00077C471F578C476F579C475F57AC478F56A
:103CC0007BC477F57CC47AF57DC479F57EC47BF539
:103CD000150E05017C6F806B09017D6B81C57CF938
:103CE00082C57AF983C57BF90501715109017A5DB5
:103CF00014E10501725109017B5D0FE1050173516A
:103D000009017C5D0AE10501745109017D5D05E150
:103D100000014EEF1AF003D009010001D5D5FAD603
:103D2000090100019CEF1FF0F86AD09E078E620E19
:103D3000D36E9B6A646A206AB986220E7B6E000E7F
:103D40007C6EA60EBA6E900EA66E94869488040EB3
:103D5000C86E280EC66EC79EC79C05018A6B896B0C
:103D6000A7960C0EAF6EA20EAC6E900EAB6E8E6B65
:103D7000010E8D6F860E8C6FA00E8B6F8F91906BE6
:103D80000F015C51800B5C6F000E5D6FC196C19896
:103D9000C19A5E6B5F6B08D002001A0000FF469666
:103DA00000FFC000E5C00000000EF86E3D0EF76E8B
:103DB000980EF66E0900F550006E000A13E0090037
:103DC000F550016EE8BE05D03F0BEA6E0900F5CF55
:103DD000E9FF01BC090001AC0900F5CFEEFF004E80
:103DE000E9D7F9D7F86A0001A5EF04F00901796B6A
:103DF000795195081AE30400939A8A8A640E7A6FBF
:103E000000018DEC04F0939A8A9A640E09017A6F8E
:103E100000018DEC04F0090179514B0804E2000126
:103E2000DAEC04F00901792BE3D7C00EF21200019D
:103E30008BEC05F0ECEC05F093EF06F02AEF07F0C1
:103E400077EF07F083EC07F004000501865365E087
:103E50000801E45309E0F20EF66E070EF76E00015A
:103E6000A1EC05F00801E46B0601965322E0C9536A
:103E700020E1060EF66E080EF76E160E09017C6F35
:103E80000001BFEC06F0060EEA6E960EE96E89EFB1
:103E900007F01E0EF66E080EF76E030E09017C6F1A
:103EA0000001BFEC06F0FAEF08F00601966BC8536C
:103EB00000E00801E65311E109012853D8B402D00B
:103EC00008010BD0000191EC0AF00152D8A402D0F5
:103ED000080103D09AEF0AF008010601C32D04D0AF
:103EE00000010CEF0BF00601C9530AE00701DF5394
:103EF000D8B402D0060104D00001A9EF0DF00601EC
:103F00000701DE2D09D0220EF66E080EF76E0001B5
:103F1000A1EC05F00701DE6B05010301615307E029
:103F2000616BC80E646F0001A1EF12F0030105017F
:103F30006B5305E0000172D61EEC04F00501000190
:043F400083D7030020
:020000040030CA
:0E00000015086727000991000FC000E00040BE
:00000001FF
;PIC18F25K80
;CRC=842E  CREATED="03-Nov-23 23:44"
