:0400000007EF10F006
:08000800046ED8CF05F0E0CF33
:1000100006F00001E9CF0CF0EACF07F0E1CF08F0DD
:10002000E2CF09F0D9CF0AF0DACF0BF0F3CF12F01C
:10003000F4CF13F0FACF14F0F5CF15F0F6CF16F099
:10004000F7CF17F000C00EF001C00FF002C010F0A3
:1000500003C011F09DA230EF00F09EB240EF02F01D
:100060009DAA36EF00F09EBA7AEF02F0A3AA3CEF09
:1000700000F0A4BA02EF03F0B6AE42EF00F0B7BE54
:10008000C7EF02F00EC000F00FC001F010C002F088
:1000900011C003F00CC0E9FF07C0EAFF078E08C0DB
:1000A000E1FF09C0E2FF0AC0D9FF0BC0DAFF12C0AE
:1000B000F3FF13C0F4FF14C0FAFF15C0F5FF16C01C
:1000C000F6FF17C0F7FF045006C0E0FF05C0D8FFD9
:1000D0001000F76AE20FF66E000EF7220900F550E5
:1000E000120000C1814001C0804101C0804100C1B7
:1000F000814001C0804100C1814000C1814001C0F8
:10010000804101C0804100C1814000C1814001C0E7
:10011000804100C1814001C0804101C0804100C1D7
:10012000814001C0804100C1814000C1814001C0C7
:10013000804100C1814001C0804101C0804100C1B7
:10014000814000C1814001C0804101C0804100C1A7
:10015000814001C0804100C1814000C1814001C097
:10016000804101C0804100C1814000C1814001C087
:10017000804100C1814001C0804101C0804100C177
:10018000814000C1814001C0804101C0804100C167
:10019000814001C0804100C1814000C1814001C057
:1001A000804100C1814001C0804101C0804100C147
:1001B000814001C0804100C1814000C1814001C037
:1001C000804101C0804100C1814000C1814001C027
:1001D000804100C1814001C0804101C0804100C117
:1001E0008140F76AF20FF66E010EF7220900F55012
:1001F000120000C0C101C30302C2C60607C705C57D
:10020000C404CC0C0DCD0FCFCE0E0ACACB0BC9093E
:1002100008C8D81819D91BDBDA1A1EDEDF1FDD1D4E
:100220001CDC14D4D515D71716D6D21213D311D17E
:10023000D010F03031F133F3F23236F6F737F535CE
:1002400034F43CFCFD3DFF3F3EFEFA3A3BFB39F9FE
:10025000F83828E8E929EB2B2AEAEE2E2FEF2DEDCE
:10026000EC2CE42425E527E7E62622E2E323E1213E
:1002700020E0A06061A163A3A26266A6A767A5654E
:1002800064A46CACAD6DAF6F6EAEAA6A6BAB69A9BE
:10029000A86878B8B979BB7B7ABABE7E7FBF7DBDCE
:1002A000BC7CB47475B577B7B67672B2B373B171FE
:1002B00070B05090915193535292965657975595CE
:1002C00094549C5C5D9D5F9F9E5E5A9A9B5B99597E
:1002D0005898884849894B8B8A4A4E8E8F4F8D4D4E
:1002E0004C8C4484854587474686824243834181BE
:1002F00080402320726561645F706172616D5F662A
:10030000696C6520435243206D69732D6D61746380
:10031000682E2057726974696E67206E6577206455
:10032000656661756C74210D0A0023206469736130
:10033000626C696E6720616C6C20646576696365C8
:10034000730D0A00232077726974655F64657669AE
:1003500063655F66696C6528290D0A002320726554
:1003600061645F6465766963655F66696C65206377
:1003700072633D25750D0A002320726561645F6418
:1003800065766963655F66696C6520435243206DDD
:1003900069732D6D617463682E2057726974696E7C
:1003A00067206E65772064656661756C74210D0A3F
:1003B0000000232064756D70696E6720616C6C208D
:1003C000656E61626C656420646576696365733A25
:1003D0000D0A00006465766963655B25755D0D0A2D
:1003E000000009747970653D25750D0A00000974D7
:1003F00072616E736D697445766572793D25750D10
:100400000A00096E6574776F726B4164647265737C
:10041000733D25750D0A00000973657269616C4EA4
:10042000756D6265723D30782530327825303278CE
:1004300025303278253032780D0A00000973746156
:10044000727452656769737465723D256C750D0A27
:100450000000096E5265676973746572733D257596
:100460000D0A00002320646F6E650D0A00009D9246
:1004700008019E5303E0CC6A9E929D820001120007
:100480000501CD5102080AE1CE5308E1CF5306E140
:10049000CCB104D0020ED15FCC8101D0CC91CF6918
:1004A000CE69CD6B08019E6B0001E1DF9E9242EFA9
:1004B00000F09EAAFED7ABCF20F0AECF01F020A275
:1004C00002D0AB98AB8812000501CF5108019E19EC
:1004D0009F6F036A9F510001FCDD016E0501CE5143
:1004E0000118CF6F036A08019F5100017ADEE8CF3F
:1004F000CEF51200DEDF01C09DF80501CCB12BD096
:10050000CD5308E1CF69CE699DC8D0F5CD2BD16B15
:10051000D36B17D0CD2D04D09DC8D2F5CD2B11D0E3
:10052000CD5102080EE1D13D02D0FE0ED16FD40EA6
:10053000D125E96E050EEA6ED8B0EA2A9DC8EFFF14
:10054000D12B9DC89EF80001BFDF010E08019E6FF0
:1005500000018DDF05019E9A000142EF00F0415439
:1005600045300D004154264B300D000041542B53B3
:10057000424457423D256C750D0041542B53424473
:1005800049580D0041542B53424444300D0008019A
:10059000312B315164081AE1316B322BD8B4332B33
:1005A0000501C5510801335D0CE305E10501C451A6
:1005B0000801325D06E3336B326B010E0301A16F5C
:1005C00008010701ED5301E0ED0708010301A23D19
:1005D00001D001D0A22BA45303E1939A8A9A03D0AD
:1005E000939A8A8AA407B79E000142EF00F0A4AA5A
:1005F000FED7A6CF20F07ACF01F020A202D0A69895
:10060000A68812000501AB5303E00001F0DF0501ED
:100610000301A2510A0803E20501AA6B0301A26BC0
:100620000501AA5336E135C834F836C835F837C85D
:1006300036F838C837F80001DADF01C038F80801A9
:100640003451230824E135510501C15DD8B402D0ED
:1006500008011DD036C803F0080137510501C25DFD
:10066000D8B402D0080113D00350C35DD8B402D06F
:1006700008010DD034C8AAF435C8ABF436C8ACF4C0
:1006800037C8ADF438C8AEF4050EAA6F08011DD006
:100690000501AA51AA2BAA0FE96E040EEA6ED8B082
:1006A000EA2AEACFA0F8E9CF9FF80001A0DFA0C8AE
:1006B000EAFF9FC8E9FF01C0EFFF0401AE51050149
:1006C000AA5D02E1010EAB6F0801A49A000142EF9E
:1006D00000F00501AA6BAB6B000118EF04F09398D2
:1006E0008A8893908A801AEF04F0C69E9E968DC8E1
:1006F000C9FF020EC6BE05D09EA6FED7000EC5BC21
:10070000010E016E1200C580C5B0FED70400090EAF
:10071000006E002EFED700009A0E08018D6F0001BA
:10072000E4DF08018A358C6F8C378C37F80E8C1714
:100730008CC88DF80001D9DF8BC88DF8D6DFC58451
:10074000C5B4FED71200030E08018A6F800E8B6FAE
:100750000001D9DF08018A6B7CC88BF80001D3DF68
:10076000010E08018A6F8B6B0001CDDF030E0801BB
:100770008A6FBF0E8B6F0001C6DF020E08018A6F01
:10078000100E8B6F0001BFDF030E08018A6F8B6FA5
:100790000001B9DF010E08018A6F8B6B0001B3DF26
:1007A000020E08018A6F070E8B6F0001ACDF1FEF8E
:1007B00004F0080EEA6E7C0EE96EEF5011E0020EB6
:1007C000016EBF0E006E0400002EFDD7012EF9D77A
:1007D000960E006E002EFED700D00400EF2EEFD74D
:1007E0001200620ED36E9B6A646A0F015C51800B2B
:1007F0005C6F000E5D6FC196C198C19AD1805D6932
:100800001F0E5C6FF00EBB1650174D174A17471797
:10081000949A8B9A780E0609886E4D0EA96EB68E44
:10082000010E0301A16FA269A36BA46B000151D754
:10083000A38A55D7060E08017C6F000184D70E0EDF
:1008400008017C6F0001B5DF68EF10F00801876BCD
:1008500086C889F88551D8B486078507886F88537C
:1008600002E189533FE0040084C803F08351E96E3C
:1008700003C0EAFFEFCF88F887C889F888C88AF8EC
:1008800089518A19016E01C087F88251036E815126
:10089000812BD8B4822B886F03C089F88451036EF2
:1008A0008351832BD8B4842BE96E03C0EAFFEFCFCA
:1008B0008AF8F250006EF29E89C875FF88C874FFEE
:1008C0008AC873FF7F9C7F9E7F840F01550E7E6ECA
:1008D000AA0E7E6E7F827FB2FED77F940050F21206
:1008E0000801B6D787C801F000011200050E080103
:1008F0007F6FC10E7E6F826B040E816F7FC884F89C
:100900007EC883F8866B050E856F00019FDF01C0EE
:100910007DF8F250006EF29E756A746A7DC873FFAE
:100920007F9C7F9E7F840F01550E7E6EAA0E7E6E89
:100930007F827FB2FED77F940050F2120001B1EFA8
:1009400004F0960E0301A46F5A0E0501C16F260E26
:10095000C36F930EC26F020EC56F580EC46F0001B5
:10096000C5D712000900F5520DE0F6CF7EF8F7CF9B
:100970007FF8F550A4A8FED7796E7EC8F6FF7FC831
:10098000F7FFF0D71200080195519703F3CF01F05C
:10099000F4CF00F09803F350002696519703F350DC
:1009A0000020026E000112000801210E7F6F826B91
:1009B000800E816F846B7FC883F8030E866F800E74
:1009C000856F000143DF01C07EF8F250006EF29E99
:1009D000756A020E746E7EC873FF7F9C7F9E7F8453
:1009E0000F01550E7E6EAA0E7E6E7F827FB2FED7FD
:1009F0007F940050F212000167EF05F0960E03019C
:100A0000A46F2A0EF66E030EF76E0001ABDF08012D
:100A10007D6B7D513F0812E3966B7DC895F8986B0E
:100A20000E0E976F0001AFDF210E08010124E96E61
:100A3000000E0220EA6EEF6A7D2BEBD7100E216EBE
:100A40007D0E236E226A010E246E3E0E256E296AEB
:100A5000410E286E120E276EB60E266E2B6A2A6A7B
:100A6000060E2C6E020E2E6E100E2F6E7D0E316E47
:100A7000306A010E326E360E336E376A410E366EB4
:100A8000120E356EB70E346E396A386A200E3A6E21
:100A9000020E3C6E100E3D6E7D0E3F6E3E6A010EE4
:100AA000406E380E416E456A410E446E120E436E22
:100AB000B80E426E476A466A200E486E020E4A6EB3
:100AC000440EF66E030EF76E00014CDF6DD7120078
:100AD0000801856B84C887F88351D8B484078307DD
:100AE000866F865302E1875332E082C803F081515A
:100AF000E96E03C0EAFF8051036E7F517F2BD8B4AB
:100B0000802B886F03C089F8F2CF8AF8F29E89C8DB
:100B100075FF88C874FF7F9C7F9E7F8073508ABF5B
:100B2000F28EEF6E82C803F08151E96E03C0EAFFD6
:100B3000EFCF86F885C889F886C88AF889518A195E
:100B4000016E01C085F8812BD8B4822BC3D785C82C
:100B500001F000011200050E08017E6FC10E7D6FCD
:100B6000806B040E7F6F7EC882F87DC881F8846B2D
:100B7000050E836F0001ACDF01C07CF8F2CF7DF879
:100B8000F29E756A746A7F9C7F9E7F807350080115
:100B90007DBFF28E7C5D08E0F20EF66E020EF76EFF
:100BA0000001E0DECEDE0801000189EF10F009004F
:100BB000F6CF7EF8F7CF7FF8F550A4A8FED7796E70
:100BC0007EC8F6FF7FC8F7FF08017D2F01D002D055
:100BD0000001EDD700015DEF06F008018051016AC8
:100BE0007F5D03E27FC800F00CD0006A080E816FC1
:100BF0007F3700368051005CD8B0006E0136812FFF
:100C0000F7D70001120001507DC87FF8640E08017B
:100C1000806F0001E2DF00C07DF80150300E08E176
:100C200008017EA30ED07EB70CD07EB9200E04D072
:100C300008017E977E997E8101260150A4A8FED7E7
:100C4000796E7DC87FF80A0E806F0001C6DF00C094
:100C50007DF80150300E08E108017EB70BD07EA16F
:100C600009D07EB9200E000101260150A4A8FED7AC
:100C7000796E0801300E7D277D51A4A8FED7796ECC
:100C8000000164EF06F00801210E7D6F806B800E7D
:100C90007F6F826B7DC881F8030E846F800E836F37
:100CA000000116DF01C07CF85C0EF66E030EF76ED5
:100CB000170E08017D6F00017AD77CC87DF81B0EE6
:100CC00008017E6F00019FD70D0EA4A8FED7796E94
:100CD0000A0EA4A8FED7796EF2CF7DF8F29E756A4F
:100CE000020E746E7F9C7F9E7F80735008017DBFD3
:100CF000F28E7C5D08E0780EF66E030EF76E000152
:100D000031DE7CDE080100018BEF10F09EAA03D0DB
:100D100059EC02F0FBD7AE50949A8B9A9D8A120040
:100D2000949A8B9AF3DF480E0609CA6EF90ECB6EC1
:100D3000C00EF2128DEF10F00701EF6B0801306B5F
:100D400000011200C69CC586C5B6FED700B0C59A84
:100D500000A0C58AC588C5B8FED7C9CF01F012006A
:100D6000C580C5B0FED70400090E006E002EFED768
:100D700000009A0E08018D6F0001B7DC08017D3577
:100D80007F6F7F377F37F80E7F177FC88DF80001A0
:100D9000ACDCC582C5B2FED70400090E006E002E81
:100DA000FED700009B0E08018D6F00019EDC006ADB
:100DB000C9DF01C07EF8C584C5B4FED708017EC86E
:100DC00001F000011200050E08017D6F0001C8DF6F
:100DD0000150010B016E96EF10F008017D6B0001D0
:100DE000BFDF015001C07CF808017C510D0801E112
:100DF00027D00701EF5325E108017C510A0803E1E0
:100E0000305301E11DD07C510A080DE1F00E302570
:100E1000E96E070EEA6ED8B0EA2AEF6A010E070102
:100E2000EF6F08010DD030513E080AE3F00E302577
:100E3000E96E070EEA6ED8B0EA2A7CC8EFFF302BC5
:100E4000070100019DEF10F008018A6B89C88BF83B
:100E5000000159DC12000900F5520CE0F6CF80F8D1
:100E6000F7CF81F8F5CF89F8EFDF80C8F6FF81C8AA
:100E7000F7FFF1D712000900F6CF81F8F7CF82F81B
:100E8000F5CF89F8E1DF81C8F6FF82C8F7FF0801D6
:100E9000802F01D002D00001EED700010EEF08F044
:100EA000EACF88F8E9CF87F808018139F009836F24
:100EB0008327E20F846F320F866F81510F0B8427D7
:100EC00084278627E90F856F8527852780390F0BB3
:100ED0008527862785378637861F863780510F0BF3
:100EE00086278337070E826F0A0E85078627FDE364
:100EF00084078527FDE383078427FDE38207832793
:100F0000FDE3080EEA6E820EE96E070E8715879DD7
:100F1000E926000EEA22E950860804E1EA500808B2
:100F200001E1878DEF50006E08E187BD06D087B9DB
:100F300015D087B702D0200E03D087878799300E4F
:100F40000026EACF81F8E9CF80F800C089F80001D7
:100F50007BDF81C8EAFF80C8E9FF0801EE5087AD5A
:100F6000DAD7000115EF08F00701EB6BEA6B00011F
:100F700055EF09F00601D95302E199D198D1D92D45
:100F80000AD00001D9DE5E0EF66E050EF76E63DF45
:100F90000601D92B8CD1D951020811E10701EF2D9F
:100FA0000CD0F0514F0806E1F1514B0803E1060166
:100FB000D92B07010001C0DE07017AD10601D95102
:100FC00003080AE10001B8DE640EF66E050EF76E46
:100FD00042DF0601D92B6BD1D951040811E1070179
:100FE000EF2D0CD0F0514F0806E1F1514B0803E111
:100FF0000601D92B070100019FDE070159D1060127
:10100000D95105081AE1000197DE6C0EF66E050E47
:10101000F76E090E0801806F00012DD7100EE96EE2
:10102000EBC781F8EAC780F83BD70D0E0801896F3E
:1010300000010ADF0601D92B3AD1D95106081AE17D
:101040000701EF2D15D0F05152080FE1F15145087D
:101050000CE1F251410809E1F351440806E1F45171
:10106000590803E10601D92B0701000165DE0701DC
:101070001FD10601D95107083DE100015DDE0801DD
:101080007F6B7E6B7D6B7C6B7D510701EB5D24E399
:1010900008E1EA5108017C5DD8A002D007011CD00C
:1010A0000701DA0E08017C25E96E060E7D21EA6E45
:1010B000EFCF89F80001C8DEDA0E08017C25E96E61
:1010C000060E7D21EA6EEF507E27000E7F237C2BDB
:1010D000D8B47D2BD9D707017FC880F87FC889F89D
:1010E0000001B2DE7EC880F87EC889F8ADDE060158
:1010F000D92BDDD0D951080810E10701EF2D0BD015
:10110000F051300804E10601D92B04D00701000199
:1011100013DE06010701CCD00601D951090811E1FF
:101120000701EF2D0CD0F0514F0806E1F1514B08AB
:1011300003E10601D92B07010001FEDD0701B8D04C
:101140000601D9510A0812E10701EC5305E0ED53FD
:1011500003E00601ACD007010001EEDD7A0EF66E69
:10116000050EF76E78DE0601D92BA1D0D9510B08F8
:101170002CE10701EF2D27D0F0512B0821E1F1518F
:1011800053081EE1F25142081BE1F351440818E1F3
:10119000F451490815E1F551580812E1F7512008BA
:1011A0000BE1F8512F0808E2F851320805E3060177
:1011B000D92B0701EC6B04D00601D92B0701EC2BCE
:1011C0000001BADD070174D00601D9510C0833E1E2
:1011D0000701EF2D0CD0F0514F0806E1F1514B08FB
:1011E00003E10601D92B07010001A6DD0701EC533D
:1011F00020E00A0E0601D96F0701EC2D01D003D0C3
:10120000EC51020803E1030EED6F13D0EC5103081B
:1012100003E0EC51040803E1150EED6F0AD0EC5128
:10122000050803E1FB0EED6F04D00D0E0601D96F2A
:1012300007013ED00601D9510D080AE100017CDD0D
:10124000840EF66E050EF76E06DE0601D92B2FD042
:10125000D9510E0810E10701EF2D0BD0F0513008E5
:1012600004E10601D92B04D00701000165DD060168
:1012700007011ED00601D9510F0811E10701EF2D1A
:101280000CD0F0514F0806E1F1514B0803E1060183
:10129000D92B0701000150DD07010AD00601D95101
:1012A000100805E1000148DD5FD60601D96B070192
:1012B0000001A6EF10F09EA8FED7AD6E64EF09F016
:1012C00008018A510001F7D7196AF2BE198EF29E01
:1012D0008AC89EF864EC02F019BEF28E0400440E37
:1012E000006E002EFED700D012000501CF69CE6936
:1012F000CC919D9A949A8B8A0400F20E006E002E77
:10130000FED788C88AF80001DBDF89C88AF8D8DFF1
:101310001200CFC589F8CEC588F889C88AF8D0DF11
:1013200088C88AF8CDDFADA2FED70400F20E006EA9
:10133000002EFED7EBDC949A8B9A0501CF69CE691B
:10134000000112000501CCB104D0000E016E0AD0DC
:1013500006D0D2AF04D0D4C5D3F5010ED16FCC9155
:10136000010E016E0001120083C888F8040E080106
:10137000896F0001BADF85C888F885C88AF8A0DFC0
:1013800084C888F884C88AF89BDF87C888F887C82B
:101390008AF896DF86C888F886C88AF891DFB9DFB0
:1013A0000801835329E00001CDDF015219E1FF0E4E
:1013B0000501C827D8A0C927D8A0CA27D8A0CB27FD
:1013C000C85309E1C95307E1CA5305E1CB53D8A477
:1013D00002D0000105D0040000000801E4D700019C
:1013E0000501C85308E1C95306E1CA5304E1CB53D0
:1013F00002E10C0ED36F08010501CB6B010ECA6F21
:10140000860EC96FA00EC86FD3C501F00001A4EF0E
:101410000DF083C888F8030E0801896F000165DFAD
:1014200085C888F885C88AF84BDF84C888F884C8DE
:101430008AF846DF87C888F887C88AF841DF86C8F7
:1014400088F886C88AF83CDF64DF0801835329E006
:10145000000178DF015219E1FF0E0501C827D8A06D
:10146000C927D8A0CA27D8A0CB27C85309E1C95398
:1014700007E1CA5305E1CB53D8A402D0000105D03F
:10148000040000000801E4D700010501C85308E189
:10149000C95306E1CA5304E1CB5302E10C0ED36FEA
:1014A00008010501CB6B010ECA6F860EC96FA00E35
:1014B000C86FD3C501F0000104EF0EF00801995187
:1014C0009907000A24E098C8EAFF9751972BD8B4EF
:1014D000982BE96EEF50951B9A6B9A51070816E30B
:1014E0009551010B006E036A005003100AE0D8907A
:1014F00096319C6F9531010A956F9C51A00A966FA9
:1015000003D0D890963395339A2BE7D7D8D795C880
:1015100001F096C802F000011200A4A8FED7796E6F
:101520001200110E0401A625020F0801936F946B9F
:10153000D8B0942B230E826FC1C583F8C3C584F83D
:101540000801C2C585F808018669120E876F94C824
:1015500088F893C889F8A9C48AF80801A8C48BF848
:101560000801A7C481F8966B81C895F8986B0E0E98
:10157000976F0001C3EC04F001C095F8010E08015B
:101580000124016E000E0220036E0150210FE96E4E
:10159000000E0320EA6EECCF8CF8ED52EFCF95F8F9
:1015A000966B81C895F8986B0E0E976F0001C3EC8F
:1015B00004F001C095F8010E08010124016E000E2F
:1015C0000220036E0150210FE96E000E0320EA6E27
:1015D000ECCF96F8ED52EFCF8DF8966B81C895F869
:1015E000986B0E0E976F0001C3EC04F001C095F8E4
:1015F000050E08010124016E000E0220036E015049
:10160000210FE96E000E0320EA6EEFCF95F8ECCFC4
:1016100096F8ECCF97F8ECCF8EF8966B81C895F8DA
:10162000986B0E0E976F0001C3EC04F001C095F8A3
:10163000050E08010124016E000E0220036E015008
:10164000210FE96E000E0320EA6EEFCF95F8ECCF84
:1016500096F8ECCF8FF8ECCF98F8966B81C895F898
:10166000986B0E0E976F0001C3EC04F001C095F863
:10167000050E08010124016E000E0220036E0150C8
:10168000210FE96E000E0320EA6EEFCF95F8ECCF44
:1016900090F8ECCF97F8ECCF98F8966B81C895F856
:1016A000986B0E0E976F0001C3EC04F001C095F823
:1016B000050E08010124016E000E0220036E015088
:1016C000210FE96E000E0320EA6EEFCF91F8ECCF08
:1016D00096F8ECCF97F8ECCF98F8A5C392F89669F6
:1016E0009569080E986F830E976F100E996F000121
:1016F000E5DE02C080F801C07FF880C896F87FC898
:1017000095F8030E0801986FA60E976FA6C499F876
:101710000001D4DE02C080F801C07FF80801816BAF
:10172000815110080FE3036A8151820FE96E080EA0
:101730000320EA6EEFCF95F895510001EEDE080127
:10174000812BEED7816B0401A6510801815D0FE268
:10175000A60E8125E96E030EEA6ED8B0EA2AEFCF15
:1017600095F895510001D9DE0801812BECD780C88E
:1017700095F895510001D1DE7FC895F80801955183
:101780000001CBDE120083C888F8010E0801896FC2
:101790000001ABDD85C888F885C88AF891DD84C86A
:1017A00088F884C88AF88CDD87C888F887C88AF8E2
:1017B00087DD86C888F886C88AF882DDAADD080138
:1017C000835329E00001BEDD015219E1FF0E05013E
:1017D000C827D8A0C927D8A0CA27D8A0CB27C853C4
:1017E00009E1C95307E1CA5305E1CB53D8A402D09C
:1017F000000105D0040000000801E4D70001050144
:10180000C85308E1C95306E1CA5304E1CB5302E1CE
:101810000C0ED36F08010501CB6B010ECA6F860E4B
:10182000C96FA00EC86FD3C501F00001B2EF0EF072
:10183000C580C5B0FED70400090E006E002EFED78D
:10184000000083C88DF875EC03F084C88DF875EC42
:1018500003F0C582C5B2FED70400090E006E002E4B
:10186000FED70000080183510109886F8D6F0001C8
:1018700075EC03F0080187518707010810E086C85E
:10188000EAFF85C8E9FF010E006E0001A2EC06F038
:1018900001C0EFFF0801852BD8B4862BECD786C892
:1018A000EAFF85C8E9FF006A0001A2EC06F001C06A
:1018B000EFFFC584C5B4FED763EF0FF008017C6B62
:1018C0007C513F08D8A093D30400640E0301A46F99
:1018D0000801966B7CC895F8986B0E0E976F000107
:1018E000C3EC04F002C080F801C07FF8210E0801AB
:1018F0000124E96E000E0220EA6EEF5001E175D37B
:10190000036A7C513B0FE96E080E0320EA6EEF2A52
:10191000036A7C513B0FE96E080E0320EA6EEFCF9D
:101920007FF8966B7CC895F8986B0E0E976F000148
:10193000C3EC04F002C081F801C080F8030E080176
:101940000124016E000E0220036E0150210FE96E8A
:10195000000E0320EA6EEF507F5D02E246D308D00E
:10196000036A7C513B0FE96E080E0320EA6EEF6AB2
:101970007CC8A7F43AC8A9F439C8A8F4966B7CC807
:1019800095F8986B0E0E976F0001C3EC04F002C03F
:1019900080F801C07FF8210E08010124E96E000ED5
:1019A0000220EA6EEF500708D8A000D2966B7CC8E0
:1019B00095F8986B0E0E976F0001C3EC04F002C00F
:1019C00080F801C07FF80C0E08010124016E000EA2
:1019D0000220036E0150210FE96E000E0320EA6E13
:1019E000EF50010808E1A796190EAF6EA60EAC6E77
:1019F000900EAB6E07D0A7960C0EAF6EA20EAC6E1B
:101A0000900EAB6E966B7CC895F8986B0E0E976F28
:101A10000001C3EC04F002C080F801C07FF8210E81
:101A200008010124E96E000E0220EA6EEF5003085F
:101A300018E0966B7CC895F8986B0E0E976F0001B6
:101A4000C3EC04F002C082F801C081F8210E080145
:101A50000124E96E000E0220EA6EEF500408D8A4BB
:101A6000F6D0966B7CC895F8986B0E0E976F0001B8
:101A7000C3EC04F002C080F801C07FF8210E080119
:101A80000124E96E000E0220EA6EEF50040860E1C6
:101A9000966B7CC895F8986B0E0E976F0001C3EC9F
:101AA00004F002C080F801C07FF8040E0801012490
:101AB000016E000E0220036E0150210FE96E000E30
:101AC0000320EA6EEFCF7FF8966B7CC895F8986B91
:101AD0000E0E976F0001C3EC04F001C080F8090EF0
:101AE00008010124016E000E0220036E0150210F37
:101AF000E96E000E0320EA6EECCF81F8ED52EFCFD5
:101B000080F8966B7CC895F8986B0E0E976F000165
:101B1000C3EC04F001C082F80B0E08010124016E31
:101B2000000E0220036E0150210FE96E000E03200B
:101B3000EA6EEFCF86F87FC883F881C885F880C841
:101B400084F8876B000110D401C0A5F35FD00801B1
:101B5000966B7CC895F8986B0E0E976F0001C3ECDE
:101B600004F002C080F801C07FF8040E08010124CF
:101B7000016E000E0220036E0150210FE96E000E6F
:101B80000320EA6EEFCF7FF8966B7CC895F8986BD0
:101B90000E0E976F0001C3EC04F001C080F8090E2F
:101BA00008010124016E000E0220036E0150210F76
:101BB000E96E000E0320EA6EECCF81F8ED52EFCF14
:101BC00080F8966B7CC895F8986B0E0E976F0001A5
:101BD000C3EC04F001C082F80B0E08010124016E71
:101BE000000E0220036E0150210FE96E000E03204B
:101BF000EA6EEFCF86F87FC883F881C885F880C881
:101C000084F8876B000105D401C0A5F30301A55337
:101C10001CE1010E0501D15D0401A66F010E050155
:101C2000D15D08017F6F030EEA6EA60EE96E050E08
:101C3000E26ED50EE16E7F51016E04E0E6CFEEFF5D
:101C4000012EFCD700016DDC0301AED00801966BBC
:101C50007CC895F8986B0E0E976F0001C3EC04F0EA
:101C600002C080F801C07FF8210E08010124E96E4E
:101C7000000E0220EA6EEF50010818E0966B7CC857
:101C800095F8986B0E0E976F0001C3EC04F002C03C
:101C900082F801C081F8210E08010124E96E000ECE
:101CA0000220EA6EEF500208D8A47FD0966B7CC861
:101CB00095F8986B0E0E976F0001C3EC04F002C00C
:101CC00080F801C07FF8040E08010124016E000EA7
:101CD0000220036E0150210FE96E000E0320EA6E10
:101CE000EFCF7FF8966B7CC895F8986B0E0E976FC8
:101CF0000001C3EC04F001C080F8090E08010124C2
:101D0000016E000E0220036E0150210FE96E000EDD
:101D10000320EA6EECCF81F8ED52EFCF80F8966B9E
:101D20007CC895F8986B0E0E976F0001C3EC04F019
:101D300001C082F80B0E08010124016E000E022082
:101D4000036E0150210FE96E000E0320EA6EEFCF03
:101D500086F87FC883F881C885F880C884F8876BC7
:101D6000000111D501C0A5F30301A5531DE1010E2A
:101D70000501D15D0401A66F010E0501D15D0801C9
:101D80007F6F030EEA6EA60EE96E050EE26ED50EAB
:101D9000E16E7F51016E04E0E6CFEEFF012EFCD72D
:101DA000000191EC0AF0030108011FD1966B7CC879
:101DB00095F8986B0E0E976F0001C3EC04F002C00B
:101DC00080F801C07FF8210E08010124E96E000EA1
:101DD0000220EA6EEF501708D8A007D1966B7CC896
:101DE00095F8986B0E0E976F0001C3EC04F002C0DB
:101DF00080F801C07FF8210E08010124E96E000E71
:101E00000220EA6EEF501008D8A4EFD0966B7CC881
:101E100095F8986B0E0E976F0001C3EC04F002C0AA
:101E200080F801C07FF8040E08010124016E000E45
:101E30000220036E0150210FE96E000E0320EA6EAE
:101E4000EFCF7FF8966B7CC895F8986B0E0E976F66
:101E50000001C3EC04F001C080F8090E0801012460
:101E6000016E000E0220036E0150210FE96E000E7C
:101E70000320EA6EECCF81F8ED52EFCF80F8966B3D
:101E80007CC895F8986B0E0E976F0001C3EC04F0B8
:101E900001C082F80B0E08010124016E000E022021
:101EA000036E0150210FE96E000E0320EA6EEFCFA2
:101EB00087F87FC883F880C884F8030E866FA60E63
:101EC000856F0001B5D40301A56B0801966B7CC832
:101ED00095F8986B0E0E976F0001C3EC04F001C0EB
:101EE0007FF80B0E08010124016E000E0220036E24
:101EF0000150210FE96E000E0320EA6EEFCFA6F429
:101F0000000191EC0AF00701EA5324E1EB5322E1CE
:101F1000EBC703F0EA51EA2BD8B4EB2B08017F6F33
:101F2000DA0E7F25E96E060E0320EA6E3AC8EFFF4F
:101F30000701EBC703F0EA51EA2BD8B4EB2B0801F9
:101F40007F6FDA0E7F25E96E060E0320EA6E39C830
:101F5000EFFF0701EBC703F0EA51EA2BD8B4EB2BF4
:101F600008017F6FDA0E7F25E96E060E0320EA6E08
:101F70007CC8EFFF0701EBC703F0EA51EA2BD8B4A6
:101F8000EB2B08017F6FDA0E7F25E96E060E03202A
:101F9000EA6EA6C4EFFF7E6B7D6B7E5326E10401E3
:101FA000A65108017D5D21E20701EBC780F8EA51E7
:101FB000EA2BD8B4EB2B08017F6FDA0E7F25016E78
:101FC000060E8021036EA60E7D25E96E030E7E218E
:101FD000EA6EEFCF83F803C0EAFF01C0E9FF83C8D0
:101FE000EFFF7D2BD8B47E2BD8D77C2B69D407018B
:101FF000EA5302E1EB5304E0010E0601D96F070139
:102000000801392BD8B43A2B0001B4EF10F0F86A6C
:10201000D09E078E620ED36E9B6A646A206AB98670
:10202000220E7B6E000E7C6EA60EBA6E900EA66E11
:1020300094869488040EC86E280EC66EC79EC79CF0
:102040000501C76BC66BA7960C0EAF6EA20EAC6EE9
:10205000900EAB6ECB6B010ECA6F860EC96FA00ED1
:10206000C86FCC91CD6B0F015C51800B5C6F000E83
:102070005D6FC196C198C19A5E6B5F6B07D002001D
:102080001A0000FF46D300A9C0000000000EF86E41
:10209000200EF76E7E0EF66E0900F550006E000AF7
:1020A00013E00900F550016EE8BE05D03F0BEA6E63
:1020B0000900F5CFE9FF01BC090001AC0900F5CF2B
:1020C000EEFF004EE9D7F9D7F86A0001F1EF03F00F
:1020D00008017B6B7B51090813E30400939A8A8AF9
:1020E000640E7C6F0001D9EC03F0939A8A9A640E17
:1020F00008017C6F0001D9EC03F008017B2BEAD7C3
:10210000C00EF2120001A1EC04F0FEEC04F0ABEF03
:1021100005F043EF06F090EF06F09CEC06F00400AB
:102120000701EF530BE10001E3EF06F00152D8A4E1
:1021300002D0070103D0EDEF06F007010601D953E5
:1021400007E0929A898A0001BAEF07F004D00601ED
:10215000929A899A00010301A15307E0A16BC80E6E
:10216000A46F00015EEF0CF003010001D8D703005B
:020000040030CA
:0E00000015086727000991000FC000E00040BE
:00000001FF
;PIC18F25K80
;CRC=E0C1  CREATED="09-Feb-22 06:33"
