:0400000031EF10F0DC
:08000800046ED8CF05F0E0CF33
:1000100006F00001E9CF0CF0EACF07F0E1CF08F0DD
:10002000E2CF09F0D9CF0AF0DACF0BF0F3CF12F01C
:10003000F4CF13F0FACF14F0F5CF15F0F6CF16F099
:10004000F7CF17F000C00EF001C00FF002C010F0A3
:1000500003C011F09DA230EF00F09EB240EF02F01D
:100060009DAA36EF00F09EBA7AEF02F0A3AA3CEF09
:1000700000F0A4BAE5EF02F0B6AE42EF00F0B7BE72
:10008000AFEF02F00EC000F00FC001F010C002F0A0
:1000900011C003F00CC0E9FF07C0EAFF078E08C0DB
:1000A000E1FF09C0E2FF0AC0D9FF0BC0DAFF12C0AE
:1000B000F3FF13C0F4FF14C0FAFF15C0F5FF16C01C
:1000C000F6FF17C0F7FF045006C0E0FF05C0D8FFD9
:1000D0001000F76AE20FF66E000EF7220900F550E5
:1000E000120000C1814001C0804101C0804100C1B7
:1000F000814001C0804100C1814000C1814001C0F8
:10010000804101C0804100C1814000C1814001C0E7
:10011000804100C1814001C0804101C0804100C1D7
:10012000814001C0804100C1814000C1814001C0C7
:10013000804100C1814001C0804101C0804100C1B7
:10014000814000C1814001C0804101C0804100C1A7
:10015000814001C0804100C1814000C1814001C097
:10016000804101C0804100C1814000C1814001C087
:10017000804100C1814001C0804101C0804100C177
:10018000814000C1814001C0804101C0804100C167
:10019000814001C0804100C1814000C1814001C057
:1001A000804100C1814001C0804101C0804100C147
:1001B000814001C0804100C1814000C1814001C037
:1001C000804101C0804100C1814000C1814001C027
:1001D000804100C1814001C0804101C0804100C117
:1001E0008140F76AF20FF66E010EF7220900F55012
:1001F000120000C0C101C30302C2C60607C705C57D
:10020000C404CC0C0DCD0FCFCE0E0ACACB0BC9093E
:1002100008C8D81819D91BDBDA1A1EDEDF1FDD1D4E
:100220001CDC14D4D515D71716D6D21213D311D17E
:10023000D010F03031F133F3F23236F6F737F535CE
:1002400034F43CFCFD3DFF3F3EFEFA3A3BFB39F9FE
:10025000F83828E8E929EB2B2AEAEE2E2FEF2DEDCE
:10026000EC2CE42425E527E7E62622E2E323E1213E
:1002700020E0A06061A163A3A26266A6A767A5654E
:1002800064A46CACAD6DAF6F6EAEAA6A6BAB69A9BE
:10029000A86878B8B979BB7B7ABABE7E7FBF7DBDCE
:1002A000BC7CB47475B577B7B67672B2B373B171FE
:1002B00070B05090915193535292965657975595CE
:1002C00094549C5C5D9D5F9F9E5E5A9A9B5B99597E
:1002D0005898884849894B8B8A4A4E8E8F4F8D4D4E
:1002E0004C8C4484854587474686824243834181BE
:1002F00080402320726561645F706172616D5F662A
:10030000696C6520435243206D69732D6D61746380
:10031000682E2057726974696E67206E6577206455
:10032000656661756C74210D0A0023206469736130
:10033000626C696E6720616C6C20646576696365C8
:10034000730D0A00232077726974655F64657669AE
:1003500063655F66696C6528290D0A002320726554
:1003600061645F6465766963655F66696C65206377
:1003700072633D25750D0A002320726561645F6418
:1003800065766963655F66696C6520435243206DDD
:1003900069732D6D617463682E2057726974696E7C
:1003A00067206E65772064656661756C74210D0A3F
:1003B0000000232064756D70696E6720616C6C208D
:1003C000656E61626C656420646576696365733A25
:1003D0000D0A00006465766963655B25755D0D0A2D
:1003E000000009747970653D25750D0A00000974D7
:1003F00072616E736D697445766572793D25750D10
:100400000A00096E6574776F726B4164647265737C
:10041000733D25750D0A00000973657269616C4EA4
:10042000756D6265723D30782530327825303278CE
:1004300025303278253032780D0A00000973746156
:10044000727452656769737465723D256C750D0A27
:100450000000096E5265676973746572733D257596
:100460000D0A00002320646F6E650D0A00009D9246
:1004700008015A5303E0CC6A9E929D82000112004B
:1004800005018D5102080AE18E5308E18F5306E100
:100490008CB104D0020E915F8C8101D08C918F6958
:1004A0008E698D6B08015A6B0001E1DF9E9242EF6D
:1004B00000F09EAAFED7ABCF20F0AECF01F020A275
:1004C00002D0AB98AB88120005018F5108015A1970
:1004D0005B6F036A5B510001FCDD016E05018E510B
:1004E00001188F6F036A08015B5100017ADEE8CFC3
:1004F0008EF51200DEDF01C059F805018CB12BD05A
:100500008D5308E18F698E6959C890F58D2B916BD9
:10051000936B17D08D2D04D059C892F58D2B11D027
:100520008D5102080EE1913D02D0FE0E916F940EA6
:100530009125E96E050EEA6ED8B0EA2A59C8EFFF98
:10054000912B59C85AF80001BFDF010E08015A6FFC
:1005500000018DDF05019E9A000142EF00F00601C7
:10056000932B9351640815E1936B942BD8B4952B7E
:10057000050185510601955D0CE305E105018451F6
:100580000601945D06E3956B946B010E0301616FA8
:1005900006010301623D01D001D0622B645303E1E7
:1005A000939A8A9A03D0939A8A8A6407B79E000125
:1005B00042EF00F0A4AAFED7A6CF20F07ACF01F038
:1005C00020A202D0A698A688120005016B5303E072
:1005D0000001F0DF0501030162510A0803E2050191
:1005E0006A6B0301626B05016A5336E197C696F6A2
:1005F00098C697F699C698F69AC699F60001DADF7A
:1006000001C09AF606019651230824E1975105018D
:10061000815DD8B402D006011DD098C603F0060152
:1006200099510501825DD8B402D0060113D0035060
:10063000835DD8B402D006010DD096C66AF497C681
:100640006BF498C66CF499C66DF49AC66EF4050EF8
:100650006A6F06011DD005016A516A2B6A0FE96EA7
:10066000040EEA6ED8B0EA2AEACF5CF8E9CF5BF86C
:100670000001A0DF5CC8EAFF5BC8E9FF01C0EFFF33
:1006800004016E5105016A5D02E1010E6B6F060106
:10069000A49A000142EF00F0415445300D0041544E
:1006A000264B300D000041542B53424457423D2508
:1006B0006C750D0041542B53424449580D00415470
:1006C0002B53424444300D0072645461702028253D
:1006D000632530346C752920257320257300382D4F
:1006E0004665622D3232000031383A31363A3431C3
:1006F000000005016A6B6B6B000128EF04F0939812
:100700008A8893908A802AEF04F0C69E9E964BC8F2
:10071000C9FF020EC6BE05D09EA6FED7000EC5BC00
:10072000010E016E1200C580C5B0FED70400090E8F
:10073000006E002EFED700009A0E08014B6F0001DC
:10074000E4DF080148354A6F4A374A37F80E4A173E
:100750004AC84BF80001D9DF49C84BF8D6DFC58439
:10076000C5B4FED71200030E0801486F800E496F12
:100770000001D9DF0801486B3AC849F80001D3DF0E
:10078000010E0801486F496B0001CDDF030E08011F
:10079000486FBF0E496F0001C6DF020E0801486FA7
:1007A000100E496F0001BFDF030E0801486F496F4B
:1007B0000001B9DF010E0801486F496B0001B3DF8A
:1007C000020E0801486F070E496F0001ACDF2FEFE2
:1007D00004F0080EEA6E3A0EE96EEF5011E0020ED8
:1007E000016EBF0E006E0400002EFDD7012EF9D75A
:1007F000960E006E002EFED700D00400EF2EEFD72D
:100800001200620ED36E9B6A646A0F015C51800B0A
:100810005C6F000E5D6FC196C198C19AD1805D6911
:100820001F0E5C6FF00EBB1650174D174A17471777
:10083000949A8B9A780E0609886E4D0EA96EB68E24
:10084000010E0301616F6269636B646B000151D734
:10085000A38A55D7060E08013A6F000184D70E0E01
:1008600008013A6F0001B5DF92EF10F00801456B07
:1008700044C847F84351D8B444074307466F46532A
:1008800002E147533FE0040042C803F04151E96EE2
:1008900003C0EAFFEFCF46F845C847F846C848F816
:1008A00047514819016E01C045F84051036E3F5150
:1008B0003F2BD8B4402B466F03C047F84251036E1C
:1008C0004151412BD8B4422BE96E03C0EAFFEFCF70
:1008D00048F8F250006EF29E47C875FF46C874FF94
:1008E00048C873FF7F9C7F9E7F840F01550E7E6EEC
:1008F000AA0E7E6E7F827FB2FED77F940050F212E6
:100900000801B6D745C801F000011200050E080124
:100910003D6F810E3C6F406B040E3F6F3DC842F847
:100920003CC841F8446B050E436F00019FDF01C0D6
:100930003BF8F250006EF29E756A746A3BC873FF12
:100940007F9C7F9E7F840F01550E7E6EAA0E7E6E69
:100950007F827FB2FED77F940050F2120001C1EF78
:1009600004F0960E0301646F5A0E0501816F260E86
:10097000836F930E826F040E856FB00E846F00013B
:10098000C5D712000900F5520DE0F6CF3CF8F7CFBD
:100990003DF8F550A4A8FED7796E3CC8F6FF3DC8D7
:1009A000F7FFF0D71200080151515303F3CF01F0C4
:1009B000F4CF00F05403F350002652515303F35088
:1009C0000020026E000112000801210E3D6F406BF5
:1009D000800E3F6F426B3DC841F8030E446F400EDE
:1009E000436F000143DF01C03CF8F250006EF29EFD
:1009F000756A020E746E3CC873FF7F9C7F9E7F8475
:100A00000F01550E7E6EAA0E7E6E7F827FB2FED7DC
:100A10007F940050F212000171EF05F0960E030171
:100A2000646F2A0EF66E030EF76E0001ABDF08014D
:100A30003B6B3B513F0812E3526B3BC851F8546B80
:100A40000D0E536F0001AFDF210E08010124E96E86
:100A5000000E0220EA6EEF6A3B2BEBD7100E216EE0
:100A60007D0E236E226A010E246E3E0E256E296ACB
:100A7000410E286E120E276EB60E266E2B6A2A6A5B
:100A8000060E2C6E100E2E6E7D0E306E2F6A010E2D
:100A9000316E360E326E366A410E356E120E346E7F
:100AA000B70E336E386A376A200E396E100E3B6E01
:100AB0007D0E3D6E3C6A010E3E6E380E3F6E436AFF
:100AC000410E426E120E416EB80E406E456A446A87
:100AD000200E466E440EF66E030EF76E000152DFD6
:100AE00073D712000801436B42C845F84151D8B48E
:100AF00042074107446F445302E1455332E040C886
:100B000003F03F51E96E03C0EAFF3E51036E3D51D1
:100B10003D2BD8B43E2B466F03C047F8F2CF48F8C0
:100B2000F29E47C875FF46C874FF7F9C7F9E7F80FA
:100B3000735048BFF28EEF6E40C803F03F51E96E2C
:100B400003C0EAFFEFCF44F843C847F844C848F869
:100B500047514819016E01C043F83F2BD8B4402BD0
:100B6000C3D743C801F000011200050E08013C6F15
:100B7000810E3B6F3E6B040E3D6F3CC840F83BC896
:100B80003FF8426B050E416F0001ACDF01C03AF83F
:100B9000F2CF3BF8F29E756A746A7F9C7F9E7F80DD
:100BA000735008013BBFF28E3A5D08E0F20EF66E1C
:100BB000020EF76E0001E6DED4DE08010001B3EF9D
:100BC00010F00900F6CF3CF8F7CF3DF8F550A4A897
:100BD000FED7796E3CC8F6FF3DC8F7FF08013B2FF2
:100BE00001D002D00001EDD7000167EF06F0080147
:100BF0003E51016A3D5D03E23DC800F00CD0006A41
:100C0000080E3F6F3D3700363E51005CD8B0006E95
:100C100001363F2FF7D70001120001503BC83DF8C5
:100C2000640E08013E6F0001E2DF00C03BF8015096
:100C3000300E08E108013CA30ED03CB70CD03CB903
:100C4000200E04D008013C973C993C8101260150BC
:100C5000A4A8FED7796E3BC83DF80A0E3E6F00018E
:100C6000C6DF00C03BF80150300E08E108013CB778
:100C70000BD03CA109D03CB9200E00010126015047
:100C8000A4A8FED7796E0801300E3B273B51A4A8DB
:100C9000FED7796E00016EEF06F00801210E3B6F62
:100CA0003E6B800E3D6F406B3BC83FF8030E426FBA
:100CB000400E416F000116DF01C03AF85C0EF66E7F
:100CC000030EF76E170E08013B6F00017AD73AC882
:100CD0003BF81B0E08013C6F00019FD70D0EA4A826
:100CE000FED7796E0A0EA4A8FED7796EF2CF3BF834
:100CF000F29E756A020E746E7F9C7F9E7F80735099
:100D000008013BBFF28E3A5D08E0780EF66E030EE6
:100D1000F76E000137DE82DE08010001B5EF10F04A
:100D20009EAA03D059EC02F0FBD7AE50949A8B9A4E
:100D30009D8A1200949A8B9AF3DF480E0609CA6EB8
:100D4000F90ECB6EC00EF212B7EF10F00701B56BC3
:100D5000F66B0001120087C5EAFF86C5E9FF0801AE
:100D600043C8EFFFE92AD8B4EA2AEF6A0501862BC7
:100D7000D8B4872B000112000900F6CF3BF8F7CF5B
:100D80003CF8F5CF43F8E7DF3BC8F6FF3CC8F7FF78
:100D900008013A2F01D002D00001EED70001C8EFC0
:100DA00010F0EACF42F8E9CF41F808013B39F009E9
:100DB0003D6F3D27E20F3E6F320F406F3B510F0BEF
:100DC0003E273E274027E90F3F6F3F273F273A390D
:100DD0000F0B3F2740273F374037401F40373A51DE
:100DE0000F0B40273D37070E3C6F0A0E3F07402789
:100DF000FDE33E073F27FDE33D073E27FDE33C07BC
:100E00003D27FDE3080EEA6E3C0EE96E070E411524
:100E1000419DE926000EEA22E950400804E1EA502B
:100E2000080801E1418DEF50006E08E141BD06D098
:100E300041B915D041B702D0200E03D04187419966
:100E4000300E0026EACF3BF8E9CF3AF800C043F86D
:100E5000000181DF3BC8EAFF3AC8E9FF0801EE5014
:100E600041ADDAD70001D4EF10F00900F5520CE0E3
:100E7000F6CF3AF8F7CF3BF8F5CF43F86CDF3AC836
:100E8000F6FF3BC8F7FFF1D712003BC83DF83AC860
:100E90003CF83DC8EAFF08013CC8E9FFEF5206E014
:100EA0003C2BD8B43D2B0001F4D708013A513C5DEE
:100EB000006E3B513D59036E00C001F0026E00010F
:100EC000FAEF10F0C69CC586C5B6FED700B0C59A2D
:100ED00000A0C58AC588C5B8FED7C9CF01F01200E9
:100EE000C580C5B0FED70400090E006E002EFED7E7
:100EF00000009A0E08014B6F000107DC08013B352A
:100F00003D6F3D373D37F80E3D173DC84BF80001AA
:100F100085EC03F0C582C5B2FED70400090E006E51
:100F2000002EFED700009B0E08014B6F000185ECE0
:100F300003F0006AC7DF01C03CF8C584C5B4FED722
:100F400008013CC801F000011200050E08013B6FCA
:100F50000001C6DF0150010B016E05EF11F0080121
:100F60003B6B0001BDDF015001C03AF808013A5166
:100F70000D0801E12ED00701B5532AE108013A51CD
:100F80000A0808E10701F653D8B402D0080102D0DC
:100F900008011FD03A510A080DE1B60E0701F625E7
:100FA000E96E070EEA6ED8B0EA2AEF6A010EB56F55
:100FB00008010FD00701F6513E080AE3B60EF625E8
:100FC000E96E070EEA6ED8B0EA2A3AC8EFFFF62BB0
:100FD000080100010CEF11F00801486B47C849F8FF
:100FE000000193EC03F012000900F5520CE0F6CF7B
:100FF0003EF8F7CF3FF8F5CF47F8EEDF3EC8F6FFF3
:101000003FC8F7FFF1D712000900F6CF3FF8F7CF3E
:1010100040F8F5CF47F8E0DF3FC8F6FF40C8F7FFDC
:1010200008013E2F01D002D00001EED70001D1EF20
:1010300008F0EACF46F8E9CF45F808013F39F00952
:10104000416F4127E20F426F320F446F3F510F0B48
:10105000422742274427E90F436F432743273E395E
:101060000F0B4327442743374437441F44373E512F
:101070000F0B44274137070E406F0A0E43074427E2
:10108000FDE342074327FDE341074227FDE3400715
:101090004127FDE3080EEA6E400EE96E070E451586
:1010A000459DE926000EEA22E950440804E1EA5091
:1010B000080801E1458DEF50006E08E145BD06D0FE
:1010C00045B915D045B702D0200E03D045874599C4
:1010D000300E0026EACF3FF8E9CF3EF800C047F8CF
:1010E00000017ADF3FC8EAFF3EC8E9FF0801EE5081
:1010F00045ADDAD70001D8EF08F00601A15302E1AF
:101100005FD15ED1A12D0AD0000120DE980EF66ECF
:10111000060EF76E69DF0601A12B52D1A15102081C
:1011200011E10701B52D0CD0B6514F0806E1B751BA
:101130004B0803E10601A12B0701000107DE0701AF
:1011400040D10601A15103080AE10001FFDD9E0E16
:10115000F66E060EF76E48DF0601A12B31D1A151C4
:10116000040811E10701B52D0CD0B6514F0806E176
:10117000B7514B0803E10601A12B07010001E6DD91
:1011800007011FD10601A15105081AE10001DEDDAA
:10119000A60EF66E060EF76E090E08013E6F0001F0
:1011A00033D7100EE96EB3C73FF8B2C73EF841D748
:1011B0000D0E0801476F00010FDF0601A12B00D1C2
:1011C000A15106081AE10701B52D15D0B6515208F4
:1011D0000FE1B75145080CE1B851410809E1B95197
:1011E000440806E1BA51590803E10601A12B0701A1
:1011F0000001ACDD0701E5D00601A15107083DE182
:101200000001A4DD08013D6B3C6B3B6B3A6B3B512D
:101210000701B35D24E308E1B25108013A5DD8A0AB
:1012200002D007011CD00701A20E08013A25E96E81
:10123000060E3B21EA6EEFCF47F80001CDDEA20E8D
:1012400008013A25E96E060E3B21EA6EEF503C2775
:10125000000E3D233A2BD8B43B2BD9D707013DC80C
:101260003EF83DC847F80001B7DE3CC83EF83CC830
:1012700047F8B2DE0601A12BA3D0A151080810E166
:101280000701B52D0BD0B651300804E10601A12BA2
:1012900004D0070100015ADD0601070192D00601C2
:1012A000A151090811E10701B52D0CD0B6514F0825
:1012B00006E1B7514B0803E10601A12B070100012C
:1012C00045DD07017ED00601A1510A080AE10001AF
:1012D0003DDDB40EF66E060EF76E86DE0601A12B1E
:1012E0006FD0A1510B081DE10701B52D18D0B651E3
:1012F0002B0812E1B75153080FE1B85142080CE135
:10130000B951440809E1BA51490806E1BB515808EE
:1013100003E10601A12B0701000118DD070151D0EF
:101320000601A1510C0811E10701B52D0CD0B651F1
:101330004F0806E1B7514B0803E10601A12B070155
:10134000000104DD07013DD00601A1510D080AE1AD
:101350000001FCDCBE0EF66E060EF76E45DE0601E1
:10136000A12B2ED0A1510E0810E10701B52D0BD0F5
:10137000B651300804E10601A12B04D00701000199
:10138000E5DC060107011DD00601A1510F0811E19E
:101390000701B52D0CD0B6514F0806E1B7514B08E7
:1013A00003E10601A12B07010001D0DC070109D0F0
:1013B0000601A151100804E10001C8DC0601A16B7F
:1013C0000701000115EF11F09EA8FED7AD6EEDEFFD
:1013D00009F0080146510001F7D7196AF2BE198ECB
:1013E000F29E46C85AF864EC02F019BEF28E040070
:1013F000440E006E002EFED700D0120005018F694A
:101400008E698C919D9A949A8B8A0400F20E006EDC
:10141000002EFED744C846F80001DBDF45C846F879
:10142000D8DF12008FC545F88EC544F845C846F888
:10143000D0DF44C846F8CDDFADA2FED70400F20EDF
:10144000006E002EFED76CDC949A8B9A05018F6992
:101450008E690001120005018CB104D0000E016EEE
:101460000AD006D092AF04D094C593F5010E916FC7
:101470008C91010E016E000112003FC844F8040E69
:101480000801456F0001BADF41C844F841C846F879
:10149000A0DF40C844F840C846F89BDF43C844F882
:1014A00043C846F896DF42C844F842C846F891DF80
:1014B000B9DF08013F5329E00001CDDF015219E1F6
:1014C000FF0E05018827D8A08927D8A08A27D8A091
:1014D0008B27885309E1895307E18A5305E18B5330
:1014E000D8A402D0000105D0040000000801E4D710
:1014F00000010501885308E1895306E18A5304E19C
:101500008B5302E10C0E936F080105018B6B010EEA
:101510008A6F860E896FA00E886F93C501F0000157
:101520002DEF0EF03FC844F8030E0801456F00018F
:1015300065DF41C844F841C846F84BDF40C844F86D
:1015400040C846F846DF43C844F843C846F841DF80
:1015500042C844F842C846F83CDF64DF08013F5304
:1015600029E0000178DF015219E1FF0E050188270B
:10157000D8A08927D8A08A27D8A08B27885309E12B
:10158000895307E18A5305E18B53D8A402D00001A7
:1015900005D0040000000801E4D7000105018853CC
:1015A00008E1895306E18A5304E18B5302E10C0EF2
:1015B000936F080105018B6B010E8A6F860E896F90
:1015C000A00E886F93C501F000018DEF0EF00801A9
:1015D00055515507000A24E054C8EAFF5351532BD4
:1015E000D8B4542BE96EEF50511B566B5651070877
:1015F00016E35151010B006E036A005003100AE01C
:10160000D8905231586F5131010A516F5851A00A88
:10161000526F03D0D89052335133562BE7D7D8D7D7
:1016200051C801F052C802F000011200A4A8FED770
:10163000796E1200110E04016625020F08014F6F2A
:10164000506BD8B0502B230E3E6F81C53FF883C539
:1016500040F8080182C541F808014269120E436F43
:1016600050C844F84FC845F869C446F8080168C432
:1016700047F8080167C43DF8526B3DC851F8546BF8
:101680000D0E536F0001D3EC04F001C051F8010EB0
:1016900008010124016E000E0220036E0150210F8B
:1016A000E96E000E0320EA6EECCF48F8ED52EFCF62
:1016B00051F8526B3DC851F8546B0D0E536F000139
:1016C000D3EC04F001C051F8010E08010124016EB1
:1016D000000E0220036E0150210FE96E000E032060
:1016E000EA6EECCF52F8ED52EFCF49F8526B3DC89D
:1016F00051F8546B0D0E536F0001D3EC04F001C090
:1017000051F8050E08010124016E000E0220036E3F
:101710000150210FE96E000E0320EA6EEFCF51F861
:10172000ECCF52F8ECCF53F8ECCF4AF8526B3DC8EF
:1017300051F8546B0D0E536F0001D3EC04F001C04F
:1017400051F8050E08010124016E000E0220036EFF
:101750000150210FE96E000E0320EA6EEFCF51F821
:10176000ECCF52F8ECCF4BF8ECCF54F8526B3DC8AD
:1017700051F8546B0D0E536F0001D3EC04F001C00F
:1017800051F8050E08010124016E000E0220036EBF
:101790000150210FE96E000E0320EA6EEFCF51F8E1
:1017A000ECCF4CF8ECCF53F8ECCF54F8526B3DC86B
:1017B00051F8546B0D0E536F0001D3EC04F001C0CF
:1017C00051F8050E08010124016E000E0220036E7F
:1017D0000150210FE96E000E0320EA6EEFCF4DF8A5
:1017E000ECCF52F8ECCF53F8ECCF54F865C34EF879
:1017F00052695169080E546F3F0E536F100E556FAA
:101800000001E5DE02C03CF801C03BF83CC852F8DC
:101810003BC851F8030E0801546F660E536F66C43F
:1018200055F80001D4DE02C03CF801C03BF80801C5
:101830003D6B3D5110080FE3036A3D513E0FE96EC9
:10184000080E0320EA6EEFCF51F851510001EEDE91
:1018500008013D2BEED73D6B0401665108013D5D4B
:101860000FE2660E3D25E96E030EEA6ED8B0EA2A55
:10187000EFCF51F851510001D9DE08013D2BECD7D3
:101880003CC851F851510001D1DE3BC851F8080164
:1018900051510001CBDE12003FC844F8010E08018F
:1018A000456F0001ABDD41C844F841C846F891DD01
:1018B00040C844F840C846F88CDD43C844F843C8E3
:1018C00046F887DD42C844F842C846F882DDAADD02
:1018D00008013F5329E00001BEDD015219E1FF0E6E
:1018E00005018827D8A08927D8A08A27D8A08B27C8
:1018F000885309E1895307E18A5305E18B53D8A442
:1019000002D0000105D0040000000801E4D7000166
:101910000501885308E1895306E18A5304E18B539A
:1019200002E10C0E936F080105018B6B010E8A6FAB
:10193000860E896FA00E886F93C501F000013BEF02
:101940000FF0C580C5B0FED70400090E006E002E52
:10195000FED700003FC84BF885EC03F040C84BF8B9
:1019600085EC03F0C582C5B2FED70400090E006EF7
:10197000002EFED7000008013F510109446F4B6F54
:10198000000185EC03F0080143514307010810E012
:1019900042C8EAFF41C8E9FF010E006E000162EC97
:1019A00007F001C0EFFF0801412BD8B4422BECD760
:1019B00042C8EAFF41C8E9FF006A000162EC07F093
:1019C00001C0EFFFC584C5B4FED7ECEF0FF00801EE
:1019D0003A6B3A513F08D8A03DD30400640E03018E
:1019E000646F0801526B3AC851F8546B0D0E536F77
:1019F0000001D3EC04F002C03CF801C03BF8210E1A
:101A000008010124E96E000E0220EA6EEF5001E1A8
:101A10001FD3036A3A51F90FE96E070E0320EA6EED
:101A2000EF2A036A3A51F90FE96E070E0320EA6EB6
:101A3000EFCF3BF8526B3AC851F8546B0D0E536F11
:101A40000001D3EC04F002C03DF801C03CF8030EE5
:101A500008010124016E000E0220036E0150210FC7
:101A6000E96E000E0320EA6EEF503B5D02E2F0D219
:101A700008D0036A3A51F90FE96E070E0320EA6EA7
:101A8000EF6A3AC867F4F8C769F4F7C768F4526BAD
:101A90003AC851F8546B0D0E536F0001D3EC04F0AB
:101AA00002C03CF801C03BF8210E08010124E96E98
:101AB000000E0220EA6EEF500708D8A000D2526B49
:101AC0003AC851F8546B0D0E536F0001D3EC04F07B
:101AD00002C03CF801C03BF80C0E08010124016E65
:101AE000000E0220036E0150210FE96E000E03204C
:101AF000EA6EEF50010808E1A796190EAF6EA60E28
:101B0000AC6E900EAB6E07D0A7960C0EAF6EA20E09
:101B1000AC6E900EAB6E526B3AC851F8546B0D0E12
:101B2000536F0001D3EC04F002C03CF801C03BF855
:101B3000210E08010124E96E000E0220EA6EEF502A
:101B4000030818E0526B3AC851F8546B0D0E536FEE
:101B50000001D3EC04F002C03EF801C03DF8210EB4
:101B600008010124E96E000E0220EA6EEF5004081D
:101B7000D8A4F6D0526B3AC851F8546B0D0E536F7F
:101B80000001D3EC04F002C03CF801C03BF8210E88
:101B900008010124E96E000E0220EA6EEF500408ED
:101BA00060E1526B3AC851F8546B0D0E536F00014F
:101BB000D3EC04F002C03CF801C03BF8040E08016D
:101BC0000124016E000E0220036E0150210FE96E08
:101BD000000E0320EA6EEFCF3BF8526B3AC851F883
:101BE000546B0D0E536F0001D3EC04F001C03CF8B0
:101BF000090E08010124016E000E0220036E01503F
:101C0000210FE96E000E0320EA6EECCF3DF8ED5295
:101C1000EFCF3CF8526B3AC851F8546B0D0E536F2E
:101C20000001D3EC04F001C03EF80B0E08010124C2
:101C3000016E000E0220036E0150210FE96E000EAE
:101C40000320EA6EEFCF42F83BC83FF83DC841F8A9
:101C50003CC840F8436B000110D401C065F35FD06D
:101C60000801526B3AC851F8546B0D0E536F0001C6
:101C7000D3EC04F002C03CF801C03BF8040E0801AC
:101C80000124016E000E0220036E0150210FE96E47
:101C9000000E0320EA6EEFCF3BF8526B3AC851F8C2
:101CA000546B0D0E536F0001D3EC04F001C03CF8EF
:101CB000090E08010124016E000E0220036E01507E
:101CC000210FE96E000E0320EA6EECCF3DF8ED52D5
:101CD000EFCF3CF8526B3AC851F8546B0D0E536F6E
:101CE0000001D3EC04F001C03EF80B0E0801012402
:101CF000016E000E0220036E0150210FE96E000EEE
:101D00000320EA6EEFCF42F83BC83FF83DC841F8E8
:101D10003CC840F8436B000105D401C065F30301E2
:101D200065531CE1010E0501915D0401666F010E12
:101D30000501915D08013B6F030EEA6E660EE96EC8
:101D4000050EE26E950EE16E3B51016E04E0E6CFAA
:101D5000EEFF012EFCD700016DDC0301AED00801BF
:101D6000526B3AC851F8546B0D0E536F0001D3EC0F
:101D700004F002C03CF801C03BF8210E0801012428
:101D8000E96E000E0220EA6EEF50010818E0526B77
:101D90003AC851F8546B0D0E536F0001D3EC04F0A8
:101DA00002C03EF801C03DF8210E08010124E96E91
:101DB000000E0220EA6EEF500208D8A47FD0526BCA
:101DC0003AC851F8546B0D0E536F0001D3EC04F078
:101DD00002C03CF801C03BF8040E08010124016E6A
:101DE000000E0220036E0150210FE96E000E032049
:101DF000EA6EEFCF3BF8526B3AC851F8546B0D0EB8
:101E0000536F0001D3EC04F001C03CF8090E080147
:101E10000124016E000E0220036E0150210FE96EB5
:101E2000000E0320EA6EECCF3DF8ED52EFCF3CF808
:101E3000526B3AC851F8546B0D0E536F0001D3EC3E
:101E400004F001C03EF80B0E08010124016E000EE3
:101E50000220036E0150210FE96E000E0320EA6E8E
:101E6000EFCF42F83BC83FF83DC841F83CC840F8C6
:101E7000436B000111D501C065F3030165531DE1FA
:101E8000010E0501915D0401666F010E0501915D72
:101E900008013B6F030EEA6E660EE96E050EE26EF8
:101EA000950EE16E3B51016E04E0E6CFEEFF012E90
:101EB000FCD700011AEC0BF003010801C9D0526BEA
:101EC0003AC851F8546B0D0E536F0001D3EC04F077
:101ED00002C03CF801C03BF8210E08010124E96E64
:101EE000000E0220EA6EEF501708D8A0B1D0526B56
:101EF0003AC851F8546B0D0E536F0001D3EC04F047
:101F000002C03CF801C03BF8210E08010124E96E33
:101F1000000E0220EA6EEF501008D8A499D0526B40
:101F20003AC851F8546B0D0E536F0001D3EC04F016
:101F300002C03CF801C03BF8040E08010124016E08
:101F4000000E0220036E0150210FE96E000E0320E7
:101F5000EA6EEFCF3BF8526B3AC851F8546B0D0E56
:101F6000536F0001D3EC04F001C03CF8090E0801E6
:101F70000124016E000E0220036E0150210FE96E54
:101F8000000E0320EA6EECCF3DF8ED52EFCF3CF8A7
:101F9000526B3AC851F8546B0D0E536F0001D3ECDD
:101FA00004F001C03EF80B0E08010124016E000E82
:101FB0000220036E0150210FE96E000E0320EA6E2D
:101FC000EFCF43F83BC83FF83CC840F8030E426FE0
:101FD000660E416F0001B5D40301656B0801526BB9
:101FE0003AC851F8546B0D0E536F0001D3EC04F056
:101FF00001C03BF80B0E08010124016E000E022007
:10200000036E0150210FE96E000E0320EA6EEFCF40
:1020100066F400011AEC0BF008013A51020818E1CD
:10202000060EEA6EA20EE96E030EE26E660EE16E19
:1020300004016651016E04E0E6CFEEFF012EFCD7ED
:102040000701B36B66C4B2F7010E0601A16F080168
:102050003A2BBFD40701F72BD8B4F82B000123EF9C
:1020600011F0F86AD09E078E620ED36E9B6A646A86
:10207000206AB986220E7B6E000E7C6EA60EBA6EAA
:10208000900EA66E94869488040EC86E280EC66EB6
:10209000C79EC79C0501876B866BA7960C0EAF6E1B
:1020A000A20EAC6E900EAB6E8B6B010E8A6F860E1D
:1020B000896FA00E886F8C918D6B0F015C51800B26
:1020C0005C6F000E5D6FC196C198C19A5E6B5F6BCD
:1020D00007D002001A0000FF469300A7C0000000CE
:1020E000000EF86E200EF76ED20EF66E0900F55057
:1020F000006E000A13E00900F550016EE8BE05D03D
:102100003F0BEA6E0900F5CFE9FF01BC090001AC05
:102110000900F5CFEEFF004EE9D7F9D7F86A0001C4
:1021200001EF04F00801396B3951090813E3040089
:10213000939A8A8A640E3A6F0001E9EC03F0939A4D
:102140008A9A640E08013A6F0001E9EC03F0080175
:10215000392BEAD7C00EF2120001B1EC04F00EECFC
:1021600005F0B5EF05F04DEF06F09AEF06F0A6EC9E
:1021700006F0060E0501876FA20E866FC80EF66E7A
:10218000060EF76E070E08013A6F0001BCEF06F06D
:1021900081C543F8ABEC06F0090EE96E83C53BF848
:1021A00082C53AF8D1EF06F0290E0801436F00010D
:1021B000ABEC06F0200E0801436F0001ABEC06F01B
:1021C000DE0EF66E060EF76E35EC07F0200E0801F7
:1021D000436F0001ABEC06F0E80EF66E060EF76EEC
:1021E00035EC07F0060E08013B6FA20E3A6F0001B6
:1021F00045EF07F002C0B3F701C0B2F704000701D2
:10220000B5530BE10001A5EF07F00152D8A402D0AD
:10221000070103D0AFEF07F007010601A15307E064
:10222000929A898A00017DEF08F004D00601929A03
:10223000899A00010301615307E0616BC80E646F66
:0E2240000001E7EF0CF003010001D8D7030006
:020000040030CA
:0E00000015086727000991000FC000E00040BE
:00000001FF
;PIC18F25K80
;CRC=E5E3  CREATED="08-Feb-22 18:16"
