:0400000079EF1BF089
:08000800046ED8CF05F0E0CF33
:1000100006F00001E9CF0CF0EACF07F0E1CF08F0DD
:10002000E2CF09F0D9CF0AF0DACF0BF0F3CF12F01C
:10003000F4CF13F0FACF14F0F5CF15F0F6CF16F099
:10004000F7CF17F000C00EF001C00FF002C010F0A3
:1000500003C011F09DA230EF00F09EB240EF02F01D
:100060009DAA36EF00F09EBA7AEF02F0A3AA3CEF09
:1000700000F0A4BA41EF03F0B6AE42EF00F0B7BE15
:1000800006EF03F00EC000F00FC001F010C002F048
:1000900011C003F00CC0E9FF07C0EAFF078E08C0DB
:1000A000E1FF09C0E2FF0AC0D9FF0BC0DAFF12C0AE
:1000B000F3FF13C0F4FF14C0FAFF15C0F5FF16C01C
:1000C000F6FF17C0F7FF045006C0E0FF05C0D8FFD9
:1000D0001000F76AE20FF66E000EF7220900F550E5
:1000E000120000C1814001C0804101C0804100C1B7
:1000F000814001C0804100C1814000C1814001C0F8
:10010000804101C0804100C1814000C1814001C0E7
:10011000804100C1814001C0804101C0804100C1D7
:10012000814001C0804100C1814000C1814001C0C7
:10013000804100C1814001C0804101C0804100C1B7
:10014000814000C1814001C0804101C0804100C1A7
:10015000814001C0804100C1814000C1814001C097
:10016000804101C0804100C1814000C1814001C087
:10017000804100C1814001C0804101C0804100C177
:10018000814000C1814001C0804101C0804100C167
:10019000814001C0804100C1814000C1814001C057
:1001A000804100C1814001C0804101C0804100C147
:1001B000814001C0804100C1814000C1814001C037
:1001C000804101C0804100C1814000C1814001C027
:1001D000804100C1814001C0804101C0804100C117
:1001E0008140F76AF20FF66E010EF7220900F55012
:1001F000120000C0C101C30302C2C60607C705C57D
:10020000C404CC0C0DCD0FCFCE0E0ACACB0BC9093E
:1002100008C8D81819D91BDBDA1A1EDEDF1FDD1D4E
:100220001CDC14D4D515D71716D6D21213D311D17E
:10023000D010F03031F133F3F23236F6F737F535CE
:1002400034F43CFCFD3DFF3F3EFEFA3A3BFB39F9FE
:10025000F83828E8E929EB2B2AEAEE2E2FEF2DEDCE
:10026000EC2CE42425E527E7E62622E2E323E1213E
:1002700020E0A06061A163A3A26266A6A767A5654E
:1002800064A46CACAD6DAF6F6EAEAA6A6BAB69A9BE
:10029000A86878B8B979BB7B7ABABE7E7FBF7DBDCE
:1002A000BC7CB47475B577B7B67672B2B373B171FE
:1002B00070B05090915193535292965657975595CE
:1002C00094549C5C5D9D5F9F9E5E5A9A9B5B99597E
:1002D0005898884849894B8B8A4A4E8E8F4F8D4D4E
:1002E0004C8C4484854587474686824243834181BE
:1002F00080402320726561645F706172616D5F662A
:10030000696C6520435243206D69732D6D61746380
:10031000682E2057726974696E67206E6577206455
:10032000656661756C74210D0A0023206469736130
:10033000626C696E6720616C6C20646576696365C8
:10034000730D0A00232077726974655F64657669AE
:1003500063655F66696C6528290D0A002320726554
:1003600061645F6465766963655F66696C65206377
:1003700072633D25750D0A002320726561645F6418
:1003800065766963655F66696C6520435243206DDD
:1003900069732D6D617463682E2057726974696E7C
:1003A00067206E65772064656661756C74210D0A3F
:1003B0000000232064756D70696E6720616C6C208D
:1003C000656E61626C656420646576696365733A25
:1003D0000D0A00006465766963655B25755D0D0A2D
:1003E000000009747970653D25750D0A00000974D7
:1003F00072616E736D697445766572793D25750D10
:100400000A00096E6574776F726B4164647265737C
:10041000733D25750D0A00000973657269616C4EA4
:10042000756D6265723D30782530327825303278CE
:1004300025303278253032780D0A00000973746156
:10044000727452656769737465723D256C750D0A27
:100450000000096E5265676973746572733D257596
:100460000D0A00002320646F6E650D0A00009D9246
:1004700009019C5303E0CC6A9E929D820001120008
:100480000501905102080AE1915308E1925306E1F7
:100490008FB104D0020E945F8F8101D08F91926949
:1004A0009169906B09019C6B0001E1DF9E9242EF24
:1004B00000F09EAAFED7ABCF20F0AECF01F020A275
:1004C00002D0AB98AB8812000501925109019C192A
:1004D0009D6F036A9D510001FCDD016E0501915184
:1004E0000118926F036A09019D5100017ADEE8CF7D
:1004F00091F51200DEDF01C09BF905018FB12BD011
:10050000905308E1926991699BC993F5902B946B84
:10051000966B17D0902D04D09BC995F5902B11D0D8
:10052000905102080EE1943D02D0FE0E946F970E9A
:100530009425E96E050EEA6ED8B0EA2A9BC9EFFF52
:10054000942B9BC99CF90001BFDF010E09019C6F30
:1005500000018DDF05019E9A000142EF00F0415439
:1005600045300D004154264B300D000041542B53B3
:1005700042444D54413D310D000041542B435249FA
:10058000530D0000415445300D004154264B300DB1
:10059000000041542B5342444D54413D310D000065
:1005A00041542B53424457423D256C750D00415434
:1005B0002B53424449580D0041542B53424444307C
:1005C0000D00415445300D004154264B300D0000C4
:1005D00041542B5342444D54413D310D0000415490
:1005E0002B53424452420D0023206D745F627566A6
:1005F000665B256C755D3D25630D0A0023206C3D0F
:10060000256C7520723D256C750D0A0009012D2B96
:100610002D5164081AE12D6B2E2BD8B42F2B050118
:10062000855109012F5D0CE305E1050184510901A4
:100630002E5D06E32F6B2E6B010E0301616F090126
:100640000701DD5301E0DD0709010301623D01D02F
:1006500001D0622B645303E1939A8A9A03D0939A50
:100660008A8A6407B79E000142EF00F0A4AAFED771
:10067000A6CF20F07ACF01F020A202D0A698A688BB
:10068000120005016B5303E00001F0DF05010301D7
:1006900062510A0803E205016A6B0301626B0501FE
:1006A0006A5336E131C930F932C931F933C932F907
:1006B00034C933F90001DADF01C034F909013051DE
:1006C000230824E131510501815DD8B402D009012C
:1006D0001DD032C903F0090133510501825DD8B440
:1006E00002D0090113D00350835DD8B402D00901B0
:1006F0000DD030C96AF431C96BF432C96CF433C916
:100700006DF434C96EF4050E6A6F09011DD0050140
:100710006A516A2B6A0FE96E040EEA6ED8B0EA2AB3
:10072000EACF9EF9E9CF9DF90001A0DF9EC9EAFF5B
:100730009DC9E9FF01C0EFFF04016E5105016A5D2B
:1007400002E1010E6B6F0901A49A000142EF00F073
:10075000232068656C6C6F206A6F650D0A0023208A
:100760007362642E72696E675F666C61673D310DFE
:100770000A0023207362642E73626469785F726575
:1007800073706F6E73653D272573270D0A00050191
:100790006A6B6B6B0001120093988A8893908A8031
:1007A00077EF04F0C69E9E968BC9C9FF020EC6BEA7
:1007B00005D09EA6FED7000EC5BC010E016E12002C
:1007C000C580C5B0FED70400090E006E002EFED70E
:1007D00000009A0E09018B6F0001E4DF09018835E2
:1007E0008A6F8A378A37F80E8A178AC98BF900010F
:1007F000D9DF89C98BF9D6DFC584C5B4FED712000D
:10080000030E0901886F800E896F0001D9DF09018D
:10081000886B7AC989F90001D3DF010E0901886F5D
:10082000896B0001CDDF030E0901886FBF0E896F50
:100830000001C6DF020E0901886F100E896F0001EA
:10084000BFDF030E0901886F896F0001B9DF010E58
:100850000901886F896B0001B3DF020E0901886FFF
:10086000070E896F0001ACDF7CEF04F0090EEA6E21
:100870007A0EE96EEF5011E0020E016EBF0E006EAF
:100880000400002EFDD7012EF9D7960E006E002E23
:10089000FED700D00400EF2EEFD71200620ED36E09
:1008A0009B6A646A0F015C51800B5C6F000E5D6F88
:1008B000C196C198C19AD1805D691F0E5C6FF00E20
:1008C000BB1650174D174A174717949A8B9A780EF4
:1008D0000609886E4D0EA96EB68E010E0301616F7A
:1008E0006269636B646B000152DFA38A55D7060E01
:1008F00009017A6F000184D70E0E09017A6F000199
:10090000B5DFDBEF1BF0010E0501865DFB0F19E281
:10091000050F0001A8EF04F092908980050111D025
:100920009292898205010DD092948984050109D0A3
:1009300092968986050105D0929A898A050101D08F
:100940000501040E0901886F896B000139DF12006F
:10095000E824F76AF7366B0FF66E090EF7220A00E5
:10096000F550FA6E0800F550F96E180920092809AB
:10097000300938090900F5520DE0F6CF8DF9F7CFAF
:100980008EF9F550A4A8FED7796E8DC9F6FF8EC9F1
:10099000F7FFF0D712000901966B95C998F99451A9
:1009A000D8B495079407976F975302E198533FE0A7
:1009B000040093C903F09251E96E03C0EAFFEFCF40
:1009C00097F996C998F997C999F998519919016EAB
:1009D00001C096F99151036E9051902BD8B4912B90
:1009E000976F03C098F99351036E9251922BD8B42C
:1009F000932BE96E03C0EAFFEFCF99F9F250006E36
:100A0000F29E98C975FF97C974FF99C973FF7F9CBF
:100A10007F9E7F840F01550E7E6EAA0E7E6E7F82B2
:100A20007FB2FED77F940050F2120901B6D796C963
:100A300001F000011200050E09018E6F810E8D6F0D
:100A4000916B040E906F8EC993F98DC992F9956BD5
:100A5000080E946F00019FDF01C08CF9F250006E08
:100A6000F29E756A746A8CC973FF7F9C7F9E7F8437
:100A70000F01550E7E6EAA0E7E6E7F827FB2FED76C
:100A80007F940050F21200011200960E0301646F71
:100A9000410E0501816F120E836FC00E826F856B50
:100AA0003C0E846F010E866F020E886F580E876FA2
:100AB0000001C1DF1200090194519603F3CF01F048
:100AC000F4CF00F09703F350002695519603F350AE
:100AD0000020026E000112000901210E8E6F916B41
:100AE000800E906F936B8EC992F9030E956F400E36
:100AF000946F000150DF01C08DF9F250006EF29E3C
:100B0000756A020E746E8DC973FF7F9C7F9E7F8411
:100B10000F01550E7E6EAA0E7E6E7F827FB2FED7CB
:100B20007F940050F21200011200960E0301646FD0
:100B30002A0EF66E030EF76E00011CDF09018C6BA6
:100B40008C513F0812E3956B8CC994F9976B0D0E8D
:100B5000966F0001B0DF210E09010124E96E000E3D
:100B60000220EA6EEF6A8C2BEBD7100E216E7D0E01
:100B7000236E226A010E246E3E0E256E296A410EF6
:100B8000286E120E276EC10E266E2B6A2A6A060E7A
:100B90002C6E100E2E6E7D0E306E2F6A010E316E91
:100BA000360E326E366A410E356E120E346EC20E3D
:100BB000336E386A376A200E396E100E3B6E7D0E2A
:100BC0003D6E3C6A010E3E6E380E3F6E436A410E2A
:100BD000426E120E416EC30E406E456A446A200E8C
:100BE000466E440EF66E030EF76E0001C3DE74DF30
:100BF00012000901836B82C985F98151D8B482073B
:100C00008107846F845302E1855332E080C903F089
:100C10007F51E96E03C0EAFF7E51036E7D517D2B4B
:100C2000D8B47E2B866F03C087F9F2CF88F9F29E85
:100C300087C975FF86C974FF7F9C7F9E7F80735034
:100C400088BFF28EEF6E80C903F07F51E96E03C05A
:100C5000EAFFEFCF84F983C998F984C999F99851CB
:100C60009919016E01C083F97F2BD8B4802BC3D7AB
:100C700083C901F000011200050E09017C6F810E8D
:100C80007B6F7E6B040E7D6F7CC980F97BC97FF919
:100C9000826B080E816F0001ACDF01C07AF9F2CFE0
:100CA0007BF9F29E756A746A7F9C7F9E7F80735089
:100CB00009017BBFF28E7A5D08E0F20EF66E020E3D
:100CC000F76E000157DEE1DE0901000109EF1CF0BB
:100CD0000900F6CF7CF9F7CF7DF9F550A4A8FED72F
:100CE000796E7CC9F6FF7DC9F7FF09017B2F01D022
:100CF00002D00001EDD70001120009017E51016A06
:100D00007D5D03E27DC900F00CD0006A080E7F6FA4
:100D10007D3700367E51005CD8B0006E01367F2FE3
:100D2000F7D70001120001507BC97DF9640E09015B
:100D30007E6F0001E2DF00C07BF90150300E08E158
:100D400009017CA30ED07CB70CD07CB9200E04D056
:100D500009017C977C997C8101260150A4A8FED7CB
:100D6000796E7BC97DF90A0E7E6F0001C6DF00C077
:100D70007BF90150300E08E109017CB70BD07CA152
:100D800009D07CB9200E000101260150A4A8FED78D
:100D9000796E0901300E7B277B51A4A8FED7796EAE
:100DA0000001F4EF06F00901210E7B6F7E6B800ECF
:100DB0007D6F806B7BC97FF9030E826F400E816F60
:100DC000000117DF01C07AF95C0EF66E030EF76EB4
:100DD000170E09017B6F00017BDF7AC97BF91B0EBF
:100DE00009017C6F00019FD70D0EA4A8FED7796E74
:100DF0000A0EA4A8FED7796EF2CF7BF9F29E756A2F
:100E0000020E746E7F9C7F9E7F80735009017BBFB2
:100E1000F28E7A5D08E0780EF66E030EF76E000132
:100E2000A9DD83DE090100010BEF1CF09EAA03D0AF
:100E300059EC02F0FBD7AE50949A8B9A9D8A12001F
:100E4000949A8B9AF3DF480E0609CA6EF90ECB6EA0
:100E5000C00EF2120DEF1CF00801E66B0901276BC2
:100E600000011200EF5210E0EACF7BF9E9CF7AF9E6
:100E7000EF50A4A8FED7796E7BC9EAFF7AC9E9FFD3
:100E8000E92AD8B4EA2AEED732EF1CF07DC97FF9FF
:100E90007CC97EF97FC9EAFF09017EC9E9FFEF52EB
:100EA00006E07E2BD8B47F2B0001F4D709017C51DA
:100EB0007E5D006E7D517F59036E00C001F0026EB1
:100EC0000001F1EF07F009017E6B7DC9EAFF7CC9E3
:100ED000E9FFEF50200804E17C2BD8B47D2BF5D737
:100EE0007DC9EAFF7CC9E9FFEFCF7FF97F512F0869
:100EF00012E27F5139080FE37E510A0DF3CF7EF9DC
:100F00007DC9EAFF7CC9E9FF300EEF5C7E277C2BB0
:100F1000D8B47D2BE5D77EC901F0000112007FC94E
:100F2000EAFF09017EC9E9FF8051EF5C12E07FC949
:100F300003F07EC9E9FF03C0EAFFEF5204E1000EAF
:100F4000016E026E0AD07E2BD8B47F2B0001E7D74A
:100F500009017EC901F07FC902F0000112000901F8
:100F60007F6B7E6B7DC9EAFF7CC9E9FFEF502008EB
:100F700004E17C2BD8B47D2BF5D77DC9EAFF7CC971
:100F8000E9FFEFCF80F980512F081EE28051390828
:100F90001BE37FC995F97EC994F9976B0A0E966F8A
:100FA000000189DD02C07FF901C07EF97DC9EAFF39
:100FB00009017CC9E9FF300EEF5C7E27000E7F231C
:100FC0007C2BD8B47D2BD9D77EC901F07FC902F024
:100FD00000011200060E09017D6F960E7C6F000164
:100FE00055D702C07DF901C07CF909017D5303E1A9
:100FF0007C5117080BE206019E512F08D8A002D0A1
:10100000090104D09E51390803E20901BBD0060151
:10101000060E09017D6F9E0E7C6F000154DF01C03A
:10102000C0F6060E09017F6F9F0E7E6F2C0E806F3B
:10103000000175DF02C07BF901C07AF909017A531A
:1010400003E17B5301E19ED07A2BD8B47B2B7BC983
:101050007DF97AC97CF9000182DF02C0C2F601C0C5
:10106000C1F6010E09017A257C6F000E7B217D6F90
:101070007F6F7CC97EF92C0E806F000150DF02C0AB
:101080007BF901C07AF909017A5303E17B5301E14D
:1010900079D07A2BD8B47B2B7BC97DF97AC97CF9BE
:1010A000000111DF01C0C3F6010E09017A257C6F32
:1010B000000E7B217D6F7F6F7CC97EF92C0E806FC7
:1010C00000012DDF02C07BF901C07AF909017A53D2
:1010D00003E17B5301E156D07A2BD8B47B2B7BC93B
:1010E0007DF97AC97CF900013ADF02C0C5F601C07A
:1010F000C4F6010E09017A257C6F000E7B217D6FFD
:101100007F6F7CC97EF92C0E806F000108DF02C062
:101110007BF901C07AF909017A5303E17B5301E1BC
:1011200031D07A2BD8B47B2B7BC97DF97AC97CF975
:10113000000115DF02C0C7F601C0C6F6010E0901A5
:101140007A257C6F000E7B217D6F7F6F7CC97EF9D5
:101150002C0E806F0001E3DE02C07BF901C07AF93A
:1011600009017A5303E17B5301E10CD07A2BD8B407
:101170007B2B7BC97DF97AC97CF90001A4DE01C013
:10118000C8F6090100013EEF1CF0C69CC586C5B635
:10119000FED700B0C59A00A0C58AC588C5B8FED7DD
:1011A000C9CF01F01200C580C5B0FED70400090EFA
:1011B000006E002EFED700009A0E09018B6F000111
:1011C000D2EC03F009017B357D6F7D377D37F80E5A
:1011D0007D177DC98BF90001D2EC03F0C582C5B241
:1011E000FED70400090E006E002EFED700009B0EF5
:1011F00009018B6F0001D2EC03F0006AC6DF01C069
:101200007CF9C584C5B4FED709017CC901F0000191
:101210001200050E09017B6F0001C5DF0150010BB3
:10122000016E51EF1CF009017B6B0001BCDF015026
:1012300001C07AF909017A510D0801E14AD008018B
:10124000E65348E109017A510A0803E1275301E115
:1012500040D00801E75153081EE1E85142081BE164
:10126000E951440818E1EA51520815E1EB514908E7
:1012700012E1EC514E080FE109017A514708D8B448
:1012800002D0080108D0010E0801E46F0001E4DD7E
:1012900009011FD0080109017A510A080DE1E70E82
:1012A0002725E96E080EEA6ED8B0EA2AEF6A010E29
:1012B0000801E66F09010DD027513E080AE3E70E49
:1012C0002725E96E080EEA6ED8B0EA2A7AC9EFFF40
:1012D000272B0801000158EF1CF00901886B87C912
:1012E00089F90001E0EC03F012000900F5520CE06E
:1012F000F6CF7EF9F7CF7FF9F5CF87F9EEDF7EC91C
:10130000F6FF7FC9F7FFF1D712000900F6CF7FF98A
:10131000F7CF80F9F5CF87F9E0DF7FC9F6FF80C905
:10132000F7FF09017E2F01D002D00001EED70001A6
:101330000BEF0BF0EACF86F9E9CF85F909017F3988
:10134000F009816F8127E20F826F320F846F7F5126
:101350000F0B822782278427E90F836F8327832738
:101360007E390F0B8327842783378437841F843784
:101370007E510F0B84278137070E806F0A0E83077B
:101380008427FDE382078327FDE381078227FDE3AE
:1013900080078127FDE3090EEA6E800EE96E070ED5
:1013A0008515859DE926000EEA22E950840804E1AE
:1013B000EA50090801E1858DEF50006E08E185BD16
:1013C00006D085B915D085B702D0200E03D0858709
:1013D0008599300E0026EACF7FF9E9CF7EF900C06B
:1013E00087F900017ADF7FC9EAFF7EC9E9FF0901B9
:1013F000EE5085ADDAD7000112EF0BF0090E0901AE
:101400007F5F0CE3090EEA6E7F0EE96ED890EF3233
:10141000EF5004E001D00400EF2EFDD7000163EF90
:101420000BF07FC985F97EC984F90901825302E175
:10143000835323E081C9EAFF80C9E9FFEF521DE031
:1014400085C903F08451842BD8B4852B866F03C0E3
:1014500087F981C9EAFF8051802BD8B4812BE96ECE
:10146000EFCF88F903C0EAFF86C9E9FF88C9EFFF1B
:101470008251D8B483078207D9D7825302E18353BC
:101480000DE085C9EAFF8451842BD8B4852BE96E21
:10149000EF6A8251D8B483078207EFD77EC901F083
:1014A0007FC902F00001EBEF0BF0010E0501865D34
:1014B000FB0F19E2050F00017DEF0AF09290899071
:1014C000050111D09292899205010DD092948994D0
:1014D000050109D092968996050105D0929A899ABC
:1014E000050101D00501040E0901886F020E896F04
:1014F0000001E0EC03F07CEF0CF0E824F76AF7362B
:10150000150FF66E150EF7220A00F550FA6E080058
:10151000F550F96EBC14C414CC14D414DC140701B7
:10152000DB6BDA6B0601C96B000112000601C953BF
:1015300002E1E8D1E4D1C92D0AD000018DDC840E8E
:10154000F66E050EF76ED1DE0601C92BD8D1C95152
:10155000020811E10801E62D0CD0E7514F0806E121
:10156000E8514B0803E10601C92B0801000174DCB6
:101570000801C6D10601C95103080AE100016CDC6B
:101580008A0EF66E050EF76EB0DE0601C92BB7D1D6
:10159000C951040811E10801E62D0CD0E7514F08AC
:1015A00006E1E8514B0803E10601C92B08010001DF
:1015B00053DC0801A5D10601C95105080AE1000163
:1015C0004BDC920EF66E050EF76E8FDE0601C92B10
:1015D00096D1C951060811E10801E62D0CD0E7515A
:1015E0004F0806E1E8514B0803E10601C92B080149
:1015F000000132DC080184D10601C95107081AE153
:1016000000012ADCA00EF66E050EF76E090E090128
:101610007E6F00017AD6100EE96EDBC77FF9DAC75C
:101620007EF988D60D0E0901876F000156DE06018E
:10163000C92B65D1C95108081BE10801E62D16D058
:10164000E75152080FE1E85145080CE1E951410822
:1016500009E1EA51440806E1EB51590803E10601AA
:10166000C92B080100012CEC07F0080149D1060143
:10167000C951090848E100012CEC07F009017D6B14
:101680007C6B7B6B7A6B7B510701DB5D2EE308E1A2
:10169000DA5109017A5DD8A002D0070126D00701EE
:1016A000CA0E09017A25E96E060E7B21EA6EEFCF9C
:1016B00087F9000112DE0400020E09017E6FF70EA9
:1016C0007F6F00019BD609017E2FF9D7CA0E7A25BC
:1016D000E96E060E7B21EA6EEF507C27000E7D231B
:1016E0007A2BD8B47B2BCFD707017DC97EF97DC972
:1016F00087F90001F2DD7CC97EF97CC987F9EDDD4F
:101700000601C92BFCD0C9510A0811E10801E62DD8
:101710000CD0E751300804E10601C92B05D00801BF
:1017200000012CEC07F006010801EAD00601C951BE
:101730000B0812E10801E62D0DD0E7514F0806E134
:10174000E8514B0803E10601C92B080100012CEC0C
:1017500007F00801D5D00601C9510C0813E10701B3
:10176000DC5305E0DD5303E00601CCD007010001A6
:101770002CEC07F0AE0EF66E050EF76EB6DD060128
:10178000C92BBDD0C9510D0843E10801E62D3ED05B
:10179000E7512B0837E1E851530834E1E951420899
:1017A00031E1EA5144082EE1EB5149082BE1EC51BB
:1017B000580828E10601965310E0060E09017F6FD4
:1017C000960E7E6F080E816FE70E806F836B290E79
:1017D000826F000126D60601BF6B0801EE5120087A
:1017E0000CE1EF512F0809E2EF51320806E3060140
:1017F000C92B0701DC6B05D008010601C92B0701C5
:10180000DC2B080100012CEC07F0080179D006015F
:10181000C9510E0835E10801E62D0DD0E7514F08FA
:1018200006E1E8514B0803E10601C92B080100015C
:101830002CEC07F008010701DC5320E00C0E060138
:10184000C96F0701DC2D01D003D0DC51020803E190
:10185000030EDD6F13D0DC51030803E0DC510408F4
:1018600003E1150EDD6F0AD0DC51050803E1FB0E24
:10187000DD6F04D00F0E0601C96F070142D00601CB
:10188000C9510F080BE100012CEC07F0B80EF66E01
:10189000050EF76E2ADD0601C92B31D0C95110089B
:1018A00011E10801E62D0CD0E751300804E10601F2
:1018B000C92B05D0080100012CEC07F00601080136
:1018C0001FD00601C951110812E10801E62D0DD003
:1018D000E7514F0806E1E8514B0803E10601C92B27
:1018E000080100012CEC07F008010AD00601C951DB
:1018F000120805E10001D9D52CEC07F010DE080133
:1019000007010601000161EF1CF09EA8FED7AD6E35
:101910008EEF0CF009018F510001F7D7196AF2BE62
:10192000198EF29E8FC99CF964EC02F019BEF28EFA
:101930000400440E006E002EFED700D012000501F8
:10194000926991698F919D9A949A8B8A0400F20E04
:10195000006E002EFED78CC98FF90001DBDF8DC928
:101960008FF9D8DF120092C58DF991C58CF98DC918
:101970008FF9D0DF8CC98FF9CDDFADA2FED704007F
:10198000F20E006E002EFED716EC07F0949A8B9A9A
:101990000501926991690001120005018FB104D01F
:1019A000000E016E0AD006D095AF04D097C596F50B
:1019B000010E946F8F91010E016E0001120081C91A
:1019C0008CF9040E09018D6F0001B9DF83C986F916
:1019D00083C98FF99FDF82C986F982C98FF99ADF9F
:1019E00085C986F985C98FF995DF84C986F984C9C7
:1019F0008FF990DFB8DF0901815329E00001CDDFC5
:101A0000015219E1FF0E05018B27D8A08C27D8A021
:101A10008D27D8A08E278B5309E18C5307E18D5376
:101A200005E18E53D8A402D0000105D004000000C7
:101A30000901E4D7000105018B5308E18C5306E14D
:101A40008D5304E18E5302E10C0E966F09010501DE
:101A50008E6B010E8D6F860E8C6FA00E8B6F96C5F0
:101A600001F00001120081C98CF9030E09018D6F8C
:101A7000000165DF83C986F983C98FF94BDF82C90D
:101A800086F982C98FF946DF85C986F985C98FF93C
:101A900041DF84C986F984C98FF93CDF64DF09011D
:101AA000815329E0000179DF015219E1FF0E0501A0
:101AB0008B27D8A08C27D8A08D27D8A08E278B5312
:101AC00009E18C5307E18D5305E18E53D8A402D070
:101AD000000105D0040000000901E4D70001050160
:101AE0008B5308E18C5306E18D5304E18E5302E1E0
:101AF0000C0E966F090105018E6B010E8D6F860E1F
:101B00008C6FA00E8B6F96C501F0000112000901C9
:101B100097519707000A24E096C9EAFF9551952B43
:101B2000D8B4962BE96EEF50931B986B9851070829
:101B300016E39351010B006E036A005003100AE094
:101B4000D89094319A6F9331010A936F9A51A00AF9
:101B5000946F03D0D89094339333982BE7D7D8D78A
:101B600093C901F094C902F000011200A4A8FED7A5
:101B7000796E1200110E04016625020F0901916FA2
:101B8000926BD8B0922B230E806F81C581F983C5EB
:101B900082F9090182C583F909018469120E856FF2
:101BA00092C986F991C987F969C488F9090168C49D
:101BB00089F9090167C47FF9956B7FC994F9976B1F
:101BC0000D0E966F00015BEC05F001C093F9010E5C
:101BD00009010124016E000E0220036E0150210F45
:101BE000E96E000E0320EA6EECCF8AF9ED52EFCFDA
:101BF00093F9956B7FC994F9976B0D0E966F000161
:101C00005BEC05F001C093F9010E09010124016E9E
:101C1000000E0220036E0150210FE96E000E03201A
:101C2000EA6EECCF94F9ED52EFCF8BF9956B7FC94B
:101C300094F9976B0D0E966F00015BEC05F001C0F7
:101C400093F9050E09010124016E000E0220036EB6
:101C50000150210FE96E000E0320EA6EEFCF93F9D9
:101C6000ECCF94F9ECCF95F9ECCF8CF9956B7FC95B
:101C700094F9976B0D0E966F00015BEC05F001C0B7
:101C800093F9050E09010124016E000E0220036E76
:101C90000150210FE96E000E0320EA6EEFCF93F999
:101CA000ECCF94F9ECCF8DF9ECCF96F9956B7FC919
:101CB00094F9976B0D0E966F00015BEC05F001C077
:101CC00093F9050E09010124016E000E0220036E36
:101CD0000150210FE96E000E0320EA6EEFCF93F959
:101CE000ECCF8EF9ECCF95F9ECCF96F9956B7FC9D7
:101CF00094F9976B0D0E966F00015BEC05F001C037
:101D000093F9050E09010124016E000E0220036EF5
:101D10000150210FE96E000E0320EA6EEFCF8FF91C
:101D2000ECCF94F9ECCF95F9ECCF96F965C390F927
:101D300094699369090E966F810E956F100E976FD7
:101D40000001E5DE02C07EF901C07DF97EC994F98B
:101D50007DC993F9030E0901966F660E956F66C4EF
:101D600097F90001D4DE02C07EF901C07DF90901B6
:101D70007F6B7F5110080FE3036A7F51800FE96E7C
:101D8000090E0320EA6EEFCF93F993510001EEDEC6
:101D900009017F2BEED77F6B0401665109017F5D3E
:101DA0000FE2660E7F25E96E030EEA6ED8B0EA2ACE
:101DB000EFCF93F993510001D9DE09017F2BECD7C6
:101DC0007EC993F993510001D1DE7DC993F90901D0
:101DD00093510001CBDE120081C98CF9010E09017B
:101DE0008D6F0001ACDD83C986F983C98FF992DD5F
:101DF00082C986F982C98FF98DDD85C986F985C9C1
:101E00008FF988DD84C986F984C98FF983DDABDD5C
:101E10000901815329E00001C0DD015219E1FF0EE3
:101E200005018B27D8A08C27D8A08D27D8A08E2776
:101E30008B5309E18C5307E18D5305E18E53D8A4F0
:101E400002D0000105D0040000000901E4D7000120
:101E500005018B5308E18C5306E18D5304E18E5349
:101E600002E10C0E966F090105018E6B010E8D6F5C
:101E7000860E8C6FA00E8B6F96C501F000011200CC
:101E8000C580C5B0FED70400090E006E002EFED737
:101E9000000081C98BF9D2EC03F082C98BF9D2EC36
:101EA00003F0C582C5B2FED70400090E006E002EF5
:101EB000FED70000090181510109866F8B6F000177
:101EC000D2EC03F0090185518507010810E084C9AF
:101ED000EAFF83C9E9FF010E006E0001C5EC08F0BE
:101EE00001C0EFFF0901832BD8B4842BECD784C940
:101EF000EAFF83C9E9FF006A0001C5EC08F001C0F0
:101F0000EFFFC584C5B4FED7C2EF12F00901772DEB
:101F100008D0785306E1000183EC04F08FEC0AF05E
:101F20000901775329E1785327E1000183EC04F09C
:101F30008FEC0AF00701DBC703F0DA51DA2BD8B4D3
:101F4000DB2B09017D6FCA0E7D25E96E060E03208D
:101F5000EA6E36C9EFFF0701DBC703F0DA51DA2B6F
:101F6000D8B4DB2B09017D6FCA0E7D25E96E060E04
:101F70000320EA6E35C9EFFF7A6B7A513F08D8A08B
:101F80007AD30400640E0301646F0901956B7AC96A
:101F900094F9976B0D0E966F00015BEC05F002C093
:101FA0007EF901C07DF9210E09010124E96E000EC0
:101FB0000220EA6EEF5001E15CD3036A7A51370FD9
:101FC000E96E090E0320EA6EEF2A036A7A51370F91
:101FD000E96E090E0320EA6EEFCF7DF9956B7AC9A1
:101FE00094F9976B0D0E966F00015BEC05F002C043
:101FF0007FF901C07EF9030E09010124016E000E74
:102000000220036E0150210FE96E000E0320EA6EDC
:10201000EF507D5D02E22DD308D0036A7A51370F6D
:10202000E96E090E0320EA6EEF6A7AC967F436C9D1
:1020300069F435C968F4956B7AC994F9976B0D0EFC
:10204000966F00015BEC05F002C07EF901C07DF9DE
:10205000210E09010124E96E000E0220EA6EEF5004
:102060000708D8A002D2956B7AC994F9976B0D0E28
:10207000966F00015BEC05F002C07EF901C07DF9AE
:102080000C0E09010124016E000E0220036E0150A6
:10209000210FE96E000E0320EA6EEF50010808E1FF
:1020A000A796190EAF6EA60EAC6E900EAB6E07D053
:1020B000A7960C0EAF6EA20EAC6E900EAB6E956B2B
:1020C0007AC994F9976B0D0E966F00015BEC05F0E1
:1020D00002C07EF901C07DF9210E09010124E96EDB
:1020E000000E0220EA6EEF50030818E0956B7AC9E3
:1020F00094F9976B0D0E966F00015BEC05F002C032
:1021000080F901C07FF9210E09010124E96E000E5A
:102110000220EA6EEF500408D8A4F8D0956B7AC973
:1021200094F9976B0D0E966F00015BEC05F002C001
:102130007EF901C07DF9210E09010124E96E000E2E
:102140000220EA6EEF50040861E1956B7AC994F9B8
:10215000976B0D0E966F00015BEC05F002C07EF9E7
:1021600001C07DF9040E09010124016E000E022058
:10217000036E0150210FE96E000E0320EA6EEFCFCF
:102180007DF9956B7AC994F9976B0D0E966F0001E6
:102190005BEC05F001C07EF9090E09010124016E16
:1021A000000E0220036E0150210FE96E000E032085
:1021B000EA6EECCF7FF9ED52EFCF7EF9956B7AC9DD
:1021C00094F9976B0D0E966F00015BEC05F001C062
:1021D00080F90B0E09010124016E000E0220036E2E
:1021E0000150210FE96E000E0320EA6EEFCF84F953
:1021F0007DC981F97FC983F97EC982F9856B0001A8
:10220000DFEC0CF001C065F360D00901956B7AC971
:1022100094F9976B0D0E966F00015BEC05F002C010
:102220007EF901C07DF9040E09010124016E000E42
:102230000220036E0150210FE96E000E0320EA6EAA
:10224000EFCF7DF9956B7AC994F9976B0D0E966F68
:1022500000015BEC05F001C07EF9090E09010124C3
:10226000016E000E0220036E0150210FE96E000E78
:102270000320EA6EECCF7FF9ED52EFCF7EF9956B3C
:102280007AC994F9976B0D0E966F00015BEC05F01F
:1022900001C080F90B0E09010124016E000E02201D
:1022A000036E0150210FE96E000E0320EA6EEFCF9E
:1022B00084F97DC981F97FC983F97EC982F9856B6B
:1022C000000133EC0DF001C065F3030165531CE11F
:1022D000010E0501945D0401666F010E0501945D18
:1022E00009017D6F030EEA6E660EE96E050EE26E61
:1022F000980EE16E7D51016E04E0E6CFEEFF012EF7
:10230000FCD7000137DC0301AED00901956B7AC917
:1023100094F9976B0D0E966F00015BEC05F002C00F
:102320007EF901C07DF9210E09010124E96E000E3C
:102330000220EA6EEF50010818E0956B7AC994F913
:10234000976B0D0E966F00015BEC05F002C080F9F3
:1023500001C07FF9210E09010124E96E000E02205F
:10236000EA6EEF500208D8A47FD0956B7AC994F931
:10237000976B0D0E966F00015BEC05F002C07EF9C5
:1023800001C07DF9040E09010124016E000E022036
:10239000036E0150210FE96E000E0320EA6EEFCFAD
:1023A0007DF9956B7AC994F9976B0D0E966F0001C4
:1023B0005BEC05F001C07EF9090E09010124016EF4
:1023C000000E0220036E0150210FE96E000E032063
:1023D000EA6EECCF7FF9ED52EFCF7EF9956B7AC9BB
:1023E00094F9976B0D0E966F00015BEC05F001C040
:1023F00080F90B0E09010124016E000E0220036E0C
:102400000150210FE96E000E0320EA6EEFCF84F930
:102410007DC981F97FC983F97EC982F9856B000185
:10242000DBDC01C065F3030165531DE1010E05010D
:10243000945D0401666F010E0501945D09017D6FD5
:10244000030EEA6E660EE96E050EE26E980EE16E00
:102450007D51016E04E0E6CFEEFF012EFCD70001B6
:10246000BAEC0DF003010901AED0956B7AC994F96D
:10247000976B0D0E966F00015BEC05F002C07EF9C4
:1024800001C07DF9210E09010124E96E000E022030
:10249000EA6EEF501708D8A096D0956B7AC994F9D8
:1024A000976B0D0E966F00015BEC05F002C07EF994
:1024B00001C07DF9210E09010124E96E000E022000
:1024C000EA6EEF501008D8A47ED0956B7AC994F9C3
:1024D000976B0D0E966F00015BEC05F002C07EF964
:1024E00001C07DF9040E09010124016E000E0220D5
:1024F000036E0150210FE96E000E0320EA6EEFCF4C
:102500007DF9956B7AC994F9976B0D0E966F000162
:102510005BEC05F001C07EF9090E09010124016E92
:10252000000E0220036E0150210FE96E000E032001
:10253000EA6EECCF7FF9ED52EFCF7EF9956B7AC959
:1025400094F9976B0D0E966F00015BEC05F001C0DE
:1025500080F90B0E09010124016E000E0220036EAA
:102560000150210FE96E000E0320EA6EEFCF85F9CE
:102570007DC981F97EC982F9030E846F660E836F6F
:1025800000017ED40301656B0901956B7AC994F94A
:10259000976B0D0E966F00015BEC05F001C07DF9A5
:1025A0000B0E09010124016E000E0220036E015082
:1025B000210FE96E000E0320EA6EEFCF66F40001F2
:1025C000BAEC0DF00901775354E1785352E103015D
:1025D0006553D8B402D009014CD00701DBC703F022
:1025E000DA51DA2BD8B4DB2B09017D6FCA0E7D25B9
:1025F000E96E060E0320EA6E7AC9EFFF0701DBC71A
:1026000003F0DA51DA2BD8B4DB2B09017D6FCA0E47
:102610007D25E96E060E0320EA6E66C4EFFF7C6B33
:102620007B6B7C5326E10401665109017B5D21E24D
:102630000701DBC77EF9DA51DA2BD8B4DB2B0901AD
:102640007D6FCA0E7D25016E060E7E21036E660E1D
:102650007B25E96E030E7C21EA6EEFCF81F903C082
:10266000EAFF01C0E9FF81C9EFFF7B2BD8B47C2BC7
:10267000D8D77A2B82D477530EE178530CE1070137
:10268000DA5305E1DB53D8A402D0090104D0010ECE
:102690000601C96F0901352BD8B4362B77530DE1EC
:1026A00078530BE1010E0501875D0901776F000E7C
:1026B000050188590901786F04D07751D8B478079B
:1026C000770700016CEF1CF0090189510308D8A0BD
:1026D0006AD104E18851E708D8A065D18931036E39
:1026E0008831026E033202320332023202C08DF9A7
:1026F0008851070B8E6F8D51400803E2020E016E68
:10270000CED18E51F80FD8B04DD1080F000152EF45
:1027100015F00901956B8DC994F9976B0D0E966FA5
:1027200000015BEC05F002C090F901C08FF9210EA9
:1027300009010124E96E000E0220EA6E8C6BEFCFD6
:102740008BF930D10901956B8DC994F9976B0D0EFA
:10275000966F00015BEC05F002C090F901C08FF9A3
:10276000010E09010124016E000E0220036E0150CA
:10277000210FE96E000E0320EA6EECCF8CF9ED52CA
:10278000EFCF8BF90FD10901956B8DC994F9976B38
:102790000D0E966F00015BEC05F002C090F901C0D0
:1027A0008FF9030E09010124016E000E0220036E51
:1027B0000150210FE96E000E0320EA6E8C6BEFCF03
:1027C0008BF9F0D00901956B8DC994F9976B0D0EBB
:1027D000966F00015BEC05F002C090F901C08FF923
:1027E000040E09010124016E000E0220036E015047
:1027F000210FE96E000E0320EA6E8C6BEFCF8BF990
:10280000D1D00901956B8DC994F9976B0D0E966F18
:1028100000015BEC05F001C08FF9050E09010124F0
:10282000016E000E0220036E0150210FE96E000EB2
:102830000320EA6EEFCF8FF9ECCF90F9ECCF91F94E
:10284000ECCF93F9956B8DC994F9976B0D0E966F3C
:1028500000015BEC05F001C094F9050E09010124AB
:10286000016E000E0220036E0150210FE96E000E72
:102870000320EA6EEFCF94F9ECCF95F9ECCF96F9FF
:10288000ECCF97F996C998F993C98CF996C98BF949
:1028900089D00901956B8DC994F9976B0D0E966FD0
:1028A00000015BEC05F001C08FF9050E0901012460
:1028B000016E000E0220036E0150210FE96E000E22
:1028C0000320EA6EEFCF8FF9ECCF93F9ECCF91F9BB
:1028D000ECCF92F9956B8DC994F9976B0D0E966FAD
:1028E00000015BEC05F001C094F9050E090101241B
:1028F000016E000E0220036E0150210FE96E000EE2
:102900000320EA6EEFCF94F9ECCF95F9ECCF96F96E
:10291000ECCF97F994C998F993C98CF994C98BF9BC
:1029200041D00901956B8DC994F9976B0D0E966F87
:1029300000015BEC05F002C090F901C08FF9090EAF
:1029400009010124016E000E0220036E0150210FC7
:10295000E96E000E0320EA6EECCF8CF9ED52EFCF5A
:102960008BF920D00901956B8DC994F9976B0D0EE9
:10297000966F00015BEC05F002C090F901C08FF981
:102980000B0E09010124016E000E0220036E01509E
:10299000210FE96E000E0320EA6E8C6BEFCF8BF9EE
:1029A00001D0090163D08851006E8951036E030E76
:1029B000035C05E1E80E005C000132E00901030E52
:1029C000035C05E1E90E005C00012FE00901030E44
:1029D000035C05E1EA0E005C00012DE00901030E35
:1029E000035C05E1EB0E005C00012AE00901030E27
:1029F000035C05E1EC0E005C000126E00901030E1A
:102A0000035C05E1ED0E005C000123E00901040E0A
:102A1000035C05E14C0E005C00011FE0090123D0BE
:102A200009018C6B81C58BF921D083C58CF982C5D6
:102A30008BF909011BD009018C6B520E8B6F16D0DC
:102A400009018C6B8B6B12D009018C6B340E8B6F70
:102A50000DD009018C6B8B6B09D085C58CF984C5B1
:102A60008BF9090103D0020E016E19D06A0E8A2576
:102A7000E96E040EEA6ED8B0EA2A8CC9EFFF010EA7
:102A80008A256A0FE96E040EEA6ED8B0EA2A8BC96D
:102A9000EFFF020E05018027000E016E0901000103
:102AA0007FEF15F0E824F76AF736BF0FF66E2A0EAF
:102AB000F7220A00F550FA6E0800F550F96E122759
:102AC00044278627C427022892282229642909013D
:102AD000846B836B8251835D17E2845315E18351CC
:102AE0008025856F000E8121866FD8908335876F92
:102AF00086C989F985C988F98A6F0001E5D501C0C1
:102B000084F90901832BE6D784C901F000015DEF48
:102B100017F0030163531BE009018451E80809E140
:102B20008551030806E186C981F5000E016E83D147
:102B30000DD08451E9080AE18551030807E187C9EE
:102B400083F586C982F5000E016E75D10301090176
:102B500085510308D8A002D104E18451E708D8A028
:102B6000FDD08531036E8431026E033202320332AE
:102B7000023202C088F98451070B896F88514008DE
:102B800003E2020E016E57D18951F80FD8B0E5D09B
:102B9000080F00011EEF17F00901956B88C994F921
:102BA000976B0D0E966F00015BEC05F002C08DF97E
:102BB00001C08CF9210E09010124E96E000E0220EA
:102BC000EA6E86C9EFFFC9D00901956B88C994F9EF
:102BD000976B0D0E966F00015BEC05F002C08DF94E
:102BE00001C08CF9010E09010124016E000E0220C2
:102BF000036E0150210FE96E000E0320EA6E87C9B3
:102C0000ECFFED5286C9EFFFA8D00901956B88C98A
:102C100094F9976B0D0E966F00015BEC05F002C006
:102C20008DF901C08CF9030E09010124016E000E1B
:102C30000220036E0150210FE96E000E0320EA6EA0
:102C400086C9EFFF8AD00901956B88C994F9976B03
:102C50000D0E966F00015BEC05F002C08DF901C00E
:102C60008CF9040E09010124016E000E0220036E8E
:102C70000150210FE96E000E0320EA6E86C9EFFFB6
:102C80006CD087C98BF986C98AF9090166D0090118
:102C9000956B88C994F9976B0D0E966F00015BECEC
:102CA00005F001C08CF9050E09010124016E000E2A
:102CB0000220036E0150210FE96E000E0320EA6E20
:102CC000EE528AC9ECFF8BC9ECFFED52ED52ED528A
:102CD00086C9EFFF87C9ECFF00010901956B88C920
:102CE00094F9976B0D0E966F00015BEC05F002C036
:102CF0008DF901C08CF9090E09018C25016E000EB9
:102D00008D21036E0150210FE96E000E0320EA6E43
:102D100087C9ECFFED5286C9EFFF1FD00901956B03
:102D200088C994F9976B0D0E966F00015BEC05F066
:102D300002C08DF901C08CF90B0E09010124016E4E
:102D4000000E0220036E0150210FE96E000E0320D9
:102D5000EA6E86C9EFFF01D0090169D08451006E87
:102D60008551036E040E035C05E14C0E005C00010E
:102D700022E00901070E035C05E1CD0E005C0001B5
:102D80001FE00901070E035C05E1CE0E005C0001A7
:102D900018E00901070E035C05E1CF0E005C00019D
:102DA00020E009014E0E035C05E11F0E005C0001EE
:102DB00026E0090139D087C985F586C984F538D060
:102DC000FF0009018651CE0803E18751070803E09F
:102DD000030E016E30D0000145EC05F095EC05F0D6
:102DE00027D00901862D02D0875303E0030E016E20
:102DF00022D000011BEC05F06CEC05F019D00901A4
:102E000086510A0803E18751070806E00301636B56
:102E1000030E016E09010FD0010E0301636FC80E8E
:102E2000646F000105D00901020E016E04D000019B
:102E3000000E016E0901000182EF17F0E824F76A25
:102E4000F736570FF66E2E0EF7220A00F550FA6E7F
:102E50000800F550F96E982BC82B0A2C462C822CB2
:102E60008E2CDA2C1C2D0501806B7751006E785169
:102E7000036E035005E1030E005C000117E005013D
:102E8000035005E1040E005C000110E00501035051
:102E900005E1060E005C000113E00501035005E1A9
:102EA000070E005C000131E0050131D07AC581F9DF
:102EB00079C580F97BC582F90AD601C07FF52AD091
:102EC0006A0E05017C25E96E040EEA6ED8B0EA2A86
:102ED000EFCF80F9010E7C256A0FE96E040EEA6ED1
:102EE000D8B0EA2AEFCF81F980C983F981C982F984
:102EF0007AC585F979C584F980C987F981C986F9C8
:102F0000000107D601C07FF505D004D00501010EF0
:102F10007F6F806B000170EF1BF081C98CF9020E8E
:102F200009018D6F00019FEC0CF083C986F983C9FC
:102F30008FF98AEC0CF082C986F982C98FF98AEC84
:102F40000CF085C986F985C98FF98AEC0CF084C923
:102F500086F984C98FF98AEC0CF0B3EC0CF0090106
:102F600081532AE00001CDEC0CF0015219E1FF0E73
:102F700005018B27D8A08C27D8A08D27D8A08E2715
:102F80008B5309E18C5307E18D5305E18E53D8A48F
:102F900002D0000105D0040000000901E3D70001C0
:102FA00005018B5308E18C5306E18D5304E18E53E8
:102FB00002E10C0E966F090105018E6B010E8D6FFB
:102FC000860E8C6FA00E8B6F96C501F00001A9EFE5
:102FD00019F082C98CF9050E09018D6F00019FEC73
:102FE0000CF084C986F984C98FF98AEC0CF083C986
:102FF00086F983C98FF98AEC0CF00901855306E044
:103000008F6900018AEC0CF005D009018F6B00017B
:103010008AEC0CF009018F6B00018AEC0CF0B3EC28
:103020000CF0090182532AE00001CDEC0CF00152B2
:1030300019E1FF0E05018B27D8A08C27D8A08D277A
:10304000D8A08E278B5309E18C5307E18D5305E1FE
:103050008E53D8A402D0000105D00400000009015D
:10306000E3D7000105018B5308E18C5306E18D5332
:1030700004E18E5302E10C0E966F090105018E6B7F
:10308000010E8D6F860E8C6FA00E8B6F96C501F0B2
:103090000001EAEF19F085C98CF9060E09018D6F60
:1030A00000019FEC0CF087C98AF987C98FF98AEC77
:1030B0000CF086C98AF986C98FF98AEC0CF089C9A7
:1030C0008AF989C98FF98AEC0CF088C98AF988C90C
:1030D0008FF98AEC0CF0B3EC0CF0090185532AE06F
:1030E0000001CDEC0CF0015219E1FF0E05018B2718
:1030F000D8A08C27D8A08D27D8A08E278B5309E184
:103100008C5307E18D5305E18E53D8A402D0000102
:1031100005D0040000000901E3D7000105018B532D
:1031200008E18C5306E18D5304E18E5302E10C0E4D
:10313000966F090105018E6B010E8D6F860E8C6FE7
:10314000A00E8B6F96C501F0000115EF1AF0D89014
:1031500009018635026E873502C08BF983C98CF967
:10316000100E8D6F00019FEC0CF085C98CF985C99C
:103170008FF98AEC0CF084C98CF984C98FF98AEC38
:103180000CF087C98CF987C98FF98AEC0CF086C9D5
:103190008CF986C98FF98AEC0CF08BC98FF98AEC0F
:1031A0000CF009018A6B875303E186518A5D34E292
:1031B000036A8AC902F0D890023603360250882585
:1031C000E96E89510320EA6EECCF8DF9ED52EFCF15
:1031D0008CF98CC98EF98CC98FF900018AEC0CF03E
:1031E000036A09018AC902F0D890023603360250F8
:1031F0008825E96E89510320EA6EECCF8DF9ED52F6
:10320000EFCF8CF98DC98EF98DC98FF900018AEC49
:103210000CF009018A2BC7D70001B3EC0CF00901AF
:1032200083532AE00001CDEC0CF0015219E1FF0EAE
:1032300005018B27D8A08C27D8A08D27D8A08E2752
:103240008B5309E18C5307E18D5305E18E53D8A4CC
:1032500002D0000105D0040000000901E3D70001FD
:1032600005018B5308E18C5306E18D5304E18E5325
:1032700002E10C0E966F090105018E6B010E8D6F38
:10328000860E8C6FA00E8B6F96C501F0000134EF97
:103290001AF005017751006E7851036E035004E176
:1032A0000052000135E00501035005E1010E005C0C
:1032B00000012FE00501035005E1020E005C000152
:1032C0003CE00501035005E1030E005C000148E00D
:1032D0000501035005E1040E005C000155E0050105
:1032E000035005E1050E005C000162E0050103509A
:1032F00006E1060E005C0001D8B473D0050103504E
:1033000006E1070E005C0001D8B496D00501B4D0E8
:10331000E3D075C581F97AC583F979C582F90901C8
:10332000856B7BC584F90001ECEC0EF001C07FF5E4
:10333000010E0901806F05019FD075C581F97AC51D
:1033400083F979C582F90901856B7BC584F9000190
:10335000E4D501C07FF5010E0901806F05018CD015
:1033600075C581F97AC583F979C582F90901856B3B
:103370007BC584F9000133EC0DF001C07FF5010E2F
:103380000901806F050178D075C581F97AC583F987
:1033900079C582F90901856B7BC584F90001DFECF1
:1033A0000CF001C07FF5010E0901806F050164D0AA
:1033B0006A0E05017C25E96E040EEA6ED8B0EA2A91
:1033C000EFCF85F975C582F97AC584F979C583F996
:1033D0000001FFD501C07FF5020E0901806F0501D4
:1033E0004BD06A0E05017C25E96E040EEA6ED8B05A
:1033F000EA2AEFCF81F9010E7C256A0FE96E040EEF
:10340000EA6ED8B0EA2AEFCF82F981C984F982C97D
:1034100083F975C585F97AC587F979C586F981C9B2
:1034200089F982C988F9000136D601C07FF5020EFC
:103430000901806F000150D06A0E05017C25090149
:10344000816F040E826FD8B0822B75C583F97AC55F
:1034500085F979C584F9876B7BC586F982C989F9B5
:1034600081C988F9000173D601C07FF5020E0901F8
:10347000806F000131D005010901802D1DD00501AB
:103480007F53D8B402D0090117D0010E945D806F2C
:10349000010E945D0901816F040EEA6E6A0EE96EF9
:1034A000050EE26E980EE16E8151016E04E0E6CFEA
:1034B000EEFF012EFCD710D0805102080DE105016E
:1034C0007F53D8B402D0090107D0020E806F9AC58D
:1034D0006AF49BC56BF40901000174EF1BF0230E25
:1034E0000901806F81C581F983C582F9090182C50F
:1034F00083F909018469140E856F0D0E050180257D
:10350000020F09018D6F8E6BD8B08E2B8EC986F994
:103510008DC987F970C588F909016FC589F9090155
:103520006EC58AF909016DC58BF909017FC58CF952
:1035300094699369090E966F810E956F0C0E976FC3
:10354000000187EC0DF002C08EF901C08DF98EC923
:1035500094F98DC993F9040E0901966F6A0E956F5F
:1035600080C597F9000187EC0DF002C08EF901C00B
:103570008DF909018F6B8F510C0810E3036A8F518D
:10358000800FE96E090E0320EA6EEFCF90F990519B
:103590000001B6EC0DF009018F2BEDD78F6B050103
:1035A000805109018F5D10E26A0E8F25E96E040ECD
:1035B000EA6ED8B0EA2AEFCF90F990510001B6EC4C
:1035C0000DF009018F2BEBD78EC990F990510001B6
:1035D000B6EC0DF08DC990F9090190510001B6ECDF
:1035E0000DF075EF1BF06EC46CF5020E05016C5DFD
:1035F0006A0FE96E040EEA6ED8B0EA2AEFCF7EF5C4
:10360000010E6C5D6A0FE96E040EEA6ED8B0EA2A0C
:10361000EFCF7DF5030E6C5D0901806F94699369AE
:10362000040E966F6B0E956F80C997F9000187ECB9
:103630000DF002C07FF901C07EF905017D5109013D
:103640007E5D05E105017E5109017F5D01E04ED0FF
:1036500004016F51130803E0090148D0040170C44C
:1036600070F571C46FF572C46EF573C46DF574C4F2
:1036700074F575C473F576C472F577C471F578C4C2
:1036800076F579C475F57AC478F57BC477F57CC492
:103690007AF57DC479F57EC47BF5150E05017C6F46
:1036A000806B09017D6B81C57CF982C57AF983C580
:1036B0007BF90501715109017A5D14E1050172512F
:1036C00009017B5D0FE10501735109017C5D0AE190
:1036D0000501745109017D5D05E1000133EF17F02B
:1036E00003D009010001D5D5FAD60901000172EF16
:1036F0001CF0F86AD09E078E620ED36E9B6A646AD5
:10370000206AB986220E7B6E000E7C6EA60EBA6E03
:10371000900EA66E94869488040EC86E280EC66E0F
:10372000C79EC79C05018A6B896BA7960C0EAF6E6E
:10373000A20EAC6E900EAB6E8E6B010E8D6F860E70
:103740008C6FA00E8B6F8F91906B0F015C51800B73
:103750005C6F000E5D6FC196C198C19A5E6B5F6B26
:1037600008D002001A0000FF469600FFC000E5C026
:103770000000000EF86E370EF76E620EF66E09004E
:10378000F550006E000A13E00900F550016EE8BE26
:1037900005D03F0BEA6E0900F5CFE9FF01BC090037
:1037A00001AC0900F5CFEEFF004EE9D7F9D7F86A72
:1037B00000014EEF04F00901796B795195081AE385
:1037C0000400939A8A8A640E7A6F000136EC04F042
:1037D000939A8A9A640E09017A6F000136EC04F01C
:1037E000090179514B0804E2000183EC04F009015E
:1037F000792BE3D7500EF66E070EF76E0001BAEC88
:1038000004F0C00EF21245EC05F095EC05F03CEF2B
:1038100006F0D3EF06F020EF07F02CEC07F00400E1
:103820000501865350E00801E45309E05E0EF66E90
:10383000070EF76E0001BAEC04F00801E46B060114
:10384000965323E0720EF66E070EF76E160E090100
:103850007B6F000168EC06F0060EEA6E960EE96ECC
:1038600032EF07F08A0EF66E070EF76E030E0901AF
:103870007B6F000168EC06F0EAEF07F00601966B3B
:10388000C32D01D0C36BC85300E00801E65311E11A
:1038900009012853D8B402D008010BD0000109EF68
:1038A00009F00152D8A402D0080103D013EF09F0A7
:1038B00008010601C95306E0000183EC04F096EF0D
:1038C0000AF0060105010301615307E0616BC80EB0
:1038D000646F000186EF0FF0030105016B5305E0F3
:1038E000000181D6C7EC03F00501000198D7030061
:020000040030CA
:0E00000015086727000991000FC000E00040BE
:00000001FF
;PIC18F25K80
;CRC=EC12  CREATED="03-Nov-23 21:41"
