:0400000045EF19F0BF
:08000800046ED8CF05F0E0CF33
:1000100006F00001E9CF0CF0EACF07F0E1CF08F0DD
:10002000E2CF09F0D9CF0AF0DACF0BF0F3CF12F01C
:10003000F4CF13F0FACF14F0F5CF15F0F6CF16F099
:10004000F7CF17F000C00EF001C00FF002C010F0A3
:1000500003C011F09DA230EF00F09EB240EF02F01D
:100060009DAA36EF00F09EBA7AEF02F0A3AA3CEF09
:1000700000F0A4BA1AEF03F0B6AE42EF00F0B7BE3C
:10008000E1EF02F00EC000F00FC001F010C002F06E
:1000900011C003F00CC0E9FF07C0EAFF078E08C0DB
:1000A000E1FF09C0E2FF0AC0D9FF0BC0DAFF12C0AE
:1000B000F3FF13C0F4FF14C0FAFF15C0F5FF16C01C
:1000C000F6FF17C0F7FF045006C0E0FF05C0D8FFD9
:1000D0001000F76AE20FF66E000EF7220900F550E5
:1000E000120000C1814001C0804101C0804100C1B7
:1000F000814001C0804100C1814000C1814001C0F8
:10010000804101C0804100C1814000C1814001C0E7
:10011000804100C1814001C0804101C0804100C1D7
:10012000814001C0804100C1814000C1814001C0C7
:10013000804100C1814001C0804101C0804100C1B7
:10014000814000C1814001C0804101C0804100C1A7
:10015000814001C0804100C1814000C1814001C097
:10016000804101C0804100C1814000C1814001C087
:10017000804100C1814001C0804101C0804100C177
:10018000814000C1814001C0804101C0804100C167
:10019000814001C0804100C1814000C1814001C057
:1001A000804100C1814001C0804101C0804100C147
:1001B000814001C0804100C1814000C1814001C037
:1001C000804101C0804100C1814000C1814001C027
:1001D000804100C1814001C0804101C0804100C117
:1001E0008140F76AF20FF66E010EF7220900F55012
:1001F000120000C0C101C30302C2C60607C705C57D
:10020000C404CC0C0DCD0FCFCE0E0ACACB0BC9093E
:1002100008C8D81819D91BDBDA1A1EDEDF1FDD1D4E
:100220001CDC14D4D515D71716D6D21213D311D17E
:10023000D010F03031F133F3F23236F6F737F535CE
:1002400034F43CFCFD3DFF3F3EFEFA3A3BFB39F9FE
:10025000F83828E8E929EB2B2AEAEE2E2FEF2DEDCE
:10026000EC2CE42425E527E7E62622E2E323E1213E
:1002700020E0A06061A163A3A26266A6A767A5654E
:1002800064A46CACAD6DAF6F6EAEAA6A6BAB69A9BE
:10029000A86878B8B979BB7B7ABABE7E7FBF7DBDCE
:1002A000BC7CB47475B577B7B67672B2B373B171FE
:1002B00070B05090915193535292965657975595CE
:1002C00094549C5C5D9D5F9F9E5E5A9A9B5B99597E
:1002D0005898884849894B8B8A4A4E8E8F4F8D4D4E
:1002E0004C8C4484854587474686824243834181BE
:1002F00080402320726561645F706172616D5F662A
:10030000696C6520435243206D69732D6D61746380
:10031000682E2057726974696E67206E6577206455
:10032000656661756C74210D0A0023206469736130
:10033000626C696E6720616C6C20646576696365C8
:10034000730D0A00232077726974655F64657669AE
:1003500063655F66696C6528290D0A002320726554
:1003600061645F6465766963655F66696C65206377
:1003700072633D25750D0A002320726561645F6418
:1003800065766963655F66696C6520435243206DDD
:1003900069732D6D617463682E2057726974696E7C
:1003A00067206E65772064656661756C74210D0A3F
:1003B0000000232064756D70696E6720616C6C208D
:1003C000656E61626C656420646576696365733A25
:1003D0000D0A00006465766963655B25755D0D0A2D
:1003E000000009747970653D25750D0A00000974D7
:1003F00072616E736D697445766572793D25750D10
:100400000A00096E6574776F726B4164647265737C
:10041000733D25750D0A00000973657269616C4EA4
:10042000756D6265723D30782530327825303278CE
:1004300025303278253032780D0A00000973746156
:10044000727452656769737465723D256C750D0A27
:100450000000096E5265676973746572733D257596
:100460000D0A00002320646F6E650D0A00009D9246
:100470000801655303E0CC6A9E929D820001120040
:100480000501905102080AE1915308E1925306E1F7
:100490008FB104D0020E945F8F8101D08F91926949
:1004A0009169906B0801656B0001E1DF9E9242EF5C
:1004B00000F09EAAFED7ABCF20F0AECF01F020A275
:1004C00002D0AB98AB881200050192510801651962
:1004D000666F036A66510001FCDD016E05019151F2
:1004E0000118926F036A0801665100017ADEE8CFB5
:1004F00091F51200DEDF01C064F805018FB12BD049
:10050000905308E19269916964C893F5902B946BBC
:10051000966B17D0902D04D064C895F5902B11D010
:10052000905102080EE1943D02D0FE0E946F970E9A
:100530009425E96E050EEA6ED8B0EA2A64C8EFFF8A
:10054000942B64C865F80001BFDF010E0801656FD8
:1005500000018DDF05019E9A000142EF00F0415439
:1005600045300D004154264B300D000041542B53B3
:1005700042444D54413D310D000041542B435249FA
:10058000530D0000415445300D004154264B300DB1
:10059000000041542B5342444D54413D310D000065
:1005A00041542B53424457423D256C750D00415434
:1005B0002B53424449580D0041542B53424444307C
:1005C0000D000701F62BF651640818E1F66BF72BC6
:1005D000D8B4F82B050185510701F85D0CE305E15E
:1005E000050184510701F75D06E3F86BF76B010E17
:1005F0000301616F0701B05301E0B0070301623DE1
:1006000001D001D0622B645303E1939A8A9A03D0FC
:10061000939A8A8A6407B79E000142EF00F0A4AA69
:10062000FED7A6CF20F07ACF01F020A202D0A69864
:10063000A688120005016B5303E00001F0DF0501FD
:10064000030162510A0803E205016A6B0301626B50
:1006500005016A5336E1FAC7F9F7FBC7FAF7FCC799
:10066000FBF7FDC7FCF70001DADF01C0FDF707016A
:10067000F951230824E1FA510501815DD8B402D073
:1006800007011DD0FBC703F00701FC510501825D86
:10069000D8B402D0070113D00350835DD8B402D080
:1006A00007010DD0F9C76AF4FAC76BF4FBC76CF405
:1006B000FCC76DF4FDC76EF4050E6A6F07011DD00F
:1006C00005016A516A2B6A0FE96E040EEA6ED8B012
:1006D000EA2AEACF67F8E9CF66F80001A0DF67C829
:1006E000EAFF66C8E9FF01C0EFFF04016E51050192
:1006F0006A5D02E1010E6B6F0701A49A000142EFEF
:1007000000F0232068656C6C6F206A6F650D0A002D
:1007100023207362642E72696E675F666C61673D49
:10072000310D0A0005016A6B6B6B00011200939892
:100730008A8893908A8042EF04F0C69E9E9654C8A1
:10074000C9FF020EC6BE05D09EA6FED7000EC5BCD0
:10075000010E016E1200C580C5B0FED70400090E5F
:10076000006E002EFED700009A0E0801546F0001A3
:10077000E4DF08015135536F53375337F80E5317E1
:1007800053C854F80001D9DF52C854F8D6DFC584E5
:10079000C5B4FED71200030E0801516F800E526FD0
:1007A0000001D9DF0801516B43C852F80001D3DFC3
:1007B000010E0801516F526B0001CDDF030E0801DD
:1007C000516FBF0E526F0001C6DF020E0801516F5C
:1007D000100E526F0001BFDF030E0801516F526F00
:1007E0000001B9DF010E0801516F526B0001B3DF48
:1007F000020E0801516F070E526F0001ACDF47EF88
:1008000004F0080EEA6E430EE96EEF5011E0020E9E
:10081000016EBF0E006E0400002EFDD7012EF9D729
:10082000960E006E002EFED700D00400EF2EEFD7FC
:100830001200620ED36E9B6A646A0F015C51800BDA
:100840005C6F000E5D6FC196C198C19AD1805D69E1
:100850001F0E5C6FF00EBB1650174D174A17471747
:10086000949A8B9A780E0609886E4D0EA96EB68EF4
:10087000010E0301616F6269636B646B000152DFFB
:10088000A38A55D7060E0801436F000184D70E0EC8
:100890000801436F0001B5DFA6EF19F0010E050155
:1008A000865DFB0F19E2050F000173EF04F09290D3
:1008B0008980050111D09292898205010DD0929410
:1008C0008984050109D092968986050105D0929AFE
:1008D000898A050101D00501040E0801516F526B90
:1008E000000139DF1200E824F76AF736010FF66ECF
:1008F000090EF7220A00F550FA6E0800F550F96E5D
:10090000AE08B608BE08C608CE080900F5520DE0CC
:10091000F6CF56F8F7CF57F8F550A4A8FED7796E62
:1009200056C8F6FF57C8F7FFF0D7120008015F6BF3
:100930005EC861F85D51D8B45E075D07606F6053B3
:1009400002E161533FE004005CC803F05B51E96ED3
:1009500003C0EAFFEFCF60F85FC861F860C862F8D3
:1009600061516219016E01C05FF85A51036E59510D
:10097000592BD8B45A2B606F03C061F85C51036ED9
:100980005B515B2BD8B45C2BE96E03C0EAFFEFCF61
:1009900062F8F250006EF29E61C875FF60C874FF85
:1009A00062C873FF7F9C7F9E7F840F01550E7E6E11
:1009B000AA0E7E6E7F827FB2FED77F940050F21225
:1009C0000801B6D75FC801F000011200050E08014A
:1009D000576F810E566F5A6B040E596F57C85CF8EB
:1009E00056C85BF85E6B080E5D6F00019FDF01C0AB
:1009F00055F8F250006EF29E756A746A55C873FF1E
:100A00007F9C7F9E7F840F01550E7E6EAA0E7E6EA8
:100A10007F827FB2FED77F940050F2120001120055
:100A2000960E0301646F410E0501816F120E836FF4
:100A3000C00E826F856B3C0E846F010E866F020EB6
:100A4000886F580E876F0001C1DF120008015D51E9
:100A50005F03F3CF01F0F4CF00F06003F350002602
:100A60005E515F03F3500020026E00011200080186
:100A7000210E576F5A6B800E596F5C6B57C85BF82D
:100A8000030E5E6F400E5D6F000150DF01C056F82F
:100A9000F250006EF29E756A020E746E56C873FFB5
:100AA0007F9C7F9E7F840F01550E7E6EAA0E7E6E08
:100AB0007F827FB2FED77F940050F21200011200B5
:100AC000960E0301646F2A0EF66E030EF76E000198
:100AD0001CDF0801556B55513F0812E35E6B55C88A
:100AE0005DF8606B0D0E5F6F0001B0DF210E080135
:100AF0000124E96E000E0220EA6EEF6A552BEBD757
:100B0000100E216E7D0E236E226A010E246E3E0EA3
:100B1000256E296A410E286E120E276EC10E266EB2
:100B20002B6A2A6A060E2C6E100E2E6E7D0E306E0B
:100B30002F6A010E316E360E326E366A410E356EF8
:100B4000120E346EC20E336E386A376A200E396E5A
:100B5000100E3B6E7D0E3D6E3C6A010E3E6E380EF1
:100B60003F6E436A410E426E120E416EC30E406EDE
:100B7000456A446A200E466E440EF66E030EF76E0A
:100B80000001C3DE74DF120008014C6B4BC84EF845
:100B90004A51D8B44B074A074D6F4D5302E14E53AB
:100BA00032E049C803F04851E96E03C0EAFF4751FB
:100BB000036E4651462BD8B4472B4F6F03C050F8F5
:100BC000F2CF51F8F29E50C875FF4FC874FF7F9C5A
:100BD0007F9E7F80735051BFF28EEF6E49C803F045
:100BE0004851E96E03C0EAFFEFCF4DF84CC861F8F9
:100BF0004DC862F861516219016E01C04CF8482B72
:100C0000D8B4492BC3D74CC801F000011200050E1F
:100C10000801456F810E446F476B040E466F45C84F
:100C200049F844C848F84B6B080E4A6F0001ACDF26
:100C300001C043F8F2CF44F8F29E756A746A7F9C53
:100C40007F9E7F807350080144BFF28E435D08E0B1
:100C5000F20EF66E020EF76E000157DEE1DE0801BD
:100C60000001D4EF19F00900F6CF45F8F7CF46F8A8
:100C7000F550A4A8FED7796E45C8F6FF46C8F7FF21
:100C80000801442F01D002D00001EDD70001B9EFD7
:100C900006F008014751016A465D03E246C800F0CC
:100CA0000CD0006A080E486F463700364751005C8A
:100CB000D8B0006E0136482FF7D70001120001505E
:100CC00044C846F8640E0801476F0001E2DF00C027
:100CD00044F80150300E08E1080145A30ED045B795
:100CE0000CD045B9200E04D008014597459945819F
:100CF00001260150A4A8FED7796E44C846F80A0E12
:100D0000476F0001C6DF00C044F80150300E08E113
:100D1000080145B70BD045A109D045B9200E000107
:100D200001260150A4A8FED7796E0801300E442791
:100D30004451A4A8FED7796E0001C0EF06F0080167
:100D4000210E446F476B800E466F496B44C848F8CC
:100D5000030E4B6F400E4A6F000116DF01C043F8CF
:100D60005C0EF66E030EF76E170E0801446F00015D
:100D70007AD743C844F81B0E0801456F00019FD77E
:100D80000D0EA4A8FED7796E0A0EA4A8FED7796E20
:100D9000F2CF44F8F29E756A020E746E7F9C7F9EBD
:100DA0007F807350080144BFF28E435D08E0780EE7
:100DB000F66E030EF76E0001A8DD82DE0801000169
:100DC000D6EF19F09EAA03D059EC02F0FBD7AE5033
:100DD000949A8B9A9D8A1200949A8B9AF3DF480E0C
:100DE0000609CA6EF90ECB6EC00EF212D8EF19F0DA
:100DF0000701B46BF56B00011200C69CC586C5B631
:100E0000FED700B0C59A00A0C58AC588C5B8FED770
:100E1000C9CF01F01200C580C5B0FED70400090E8D
:100E2000006E002EFED700009A0E0801546F0001DC
:100E300084DC08014435466F46374637F80E4617BE
:100E400046C854F8000179DCC582C5B2FED704005B
:100E5000090E006E002EFED700009B0E0801546F95
:100E600000016BDC006AC9DF01C045F8C584C5B468
:100E7000FED7080145C801F000011200050E080167
:100E8000446F0001C8DF0150010B016EEFEF19F054
:100E90000801446B0001BFDF015001C043F80801A5
:100EA00043510D0801E14FD00701B4534BE1080154
:100EB00043510A0808E10701F553D8B402D00801EC
:100EC00002D0080140D00701B55153081CE1B651CA
:100ED000420819E1B751440816E1B851520813E12C
:100EE000B951490810E1BA514E080DE108014351CA
:100EF0004708D8B402D0070106D0010E0701B26F2F
:100F0000000176DF0701080143510A080DE1B50E23
:100F10000701F525E96E070EEA6ED8B0EA2AEF6AF6
:100F2000010EB46F08010FD00701F5513E080AE326
:100F3000B50EF525E96E070EEA6ED8B0EA2A43C869
:100F4000EFFFF52B08010001F6EF19F00801516BD6
:100F500050C852F80001ABEC03F012000900F55242
:100F60000CE0F6CF47F8F7CF48F8F5CF50F8EEDFB2
:100F700047C8F6FF48C8F7FFF1D712000900F6CFBF
:100F800048F8F7CF49F8F5CF50F8E0DF48C8F6FF4A
:100F900049C8F7FF0801472F01D002D00001EED762
:100FA000000100EF09F0EACF4FF8E9CF4EF8080151
:100FB0004839F0094A6F4A27E20F4B6F320F4D6FE5
:100FC00048510F0B4B274B274D27E90F4C6F4C27F0
:100FD0004C2747390F0B4C274D274C374D374D1FAA
:100FE0004D3747510F0B4D274A37070E496F0A0EF1
:100FF0004C074D27FDE34B074C27FDE34A074B27E2
:10100000FDE349074A27FDE3080EEA6E490EE96E43
:10101000070E4E154E9DE926000EEA22E9504D08B6
:1010200004E1EA50080801E14E8DEF50006E08E13E
:101030004EBD06D04EB915D04EB702D0200E03D00B
:101040004E874E99300E0026EACF48F8E9CF47F890
:1010500000C050F800017ADF48C8EAFF47C8E9FF3E
:101060000801EE504EADDAD7000107EF09F0090E86
:101070000801485F0CE3080EEA6E480EE96ED8904E
:10108000EF32EF5004E001D00400EF2EFDD7000155
:1010900056EF09F0010E0501865DFB0F19E2050F01
:1010A000000172EF08F092908990050111D09292A0
:1010B000899205010DD092948994050109D09296E8
:1010C0008996050105D0929A899A050101D00501FA
:1010D000040E0801516F020E526F0001ABEC03F0D9
:1010E00050EF0AF0E824F76AF736FF0FF66E100E9D
:1010F000F7220A00F550FA6E0800F550F96EA610B6
:10110000AE10B610BE10C6100701AE6BAD6B060177
:101110009C6B0001120006019C5302E1C5D1C2D1B3
:101120009C2D0AD0000164DE840EF66E050EF76E6B
:1011300015DF06019C2BB6D19C51020811E1070175
:10114000B42D0CD0B5514F0806E1B6514B0803E160
:1011500006019C2B070100014BDE0701A4D106010B
:101160009C5103080AE1000143DE8A0EF66E050E6B
:10117000F76EF4DE06019C2B95D19C51040811E119
:101180000701B42D0CD0B5514F0806E1B6514B08FC
:1011900003E106019C2B070100012ADE070183D130
:1011A00006019C5105080AE1000122DE920EF66E4E
:1011B000050EF76ED3DE06019C2B74D19C510608F8
:1011C00011E10701B42D0CD0B5514F0806E1B6511D
:1011D0004B0803E106019C2B0701000109DE070112
:1011E00062D106019C5107081AE1000101DEA00E40
:1011F000F66E050EF76E090E0801476F0001BED6A8
:10120000100EE96EAEC748F8ADC747F8CCD60D0E44
:101210000801506F00019ADE06019C2B43D19C51BE
:1012200008081AE10701B42D15D0B55152080FE195
:10123000B65145080CE1B751410809E1B8514408DD
:1012400006E1B951590803E106019C2B0701000191
:10125000CFDD070128D106019C51090847E10001B3
:10126000C7DD0801466B456B446B436B4451070176
:10127000AE5D2EE308E1AD510801435DD8A002D078
:10128000070126D007019D0E08014325E96E060ED1
:101290004421EA6EEFCF50F8000158DE0400020E40
:1012A0000801476FF70E486F0001E1D60801472F8C
:1012B000F9D79D0E4325E96E060E4421EA6EEF50E4
:1012C0004527000E4623432BD8B4442BCFD7070124
:1012D00046C847F846C850F8000138DE45C847F808
:1012E00045C850F833DE06019C2BDCD09C510A081F
:1012F00010E10701B42D0BD0B551300804E106010F
:101300009C2B04D00701000173DD06010701CBD03F
:1013100006019C510B0811E10701B42D0CD0B55109
:101320004F0806E1B6514B0803E106019C2B07016B
:1013300000015EDD0701B7D006019C510C0812E1E7
:101340000701AF5305E0B05303E00601ADD007013C
:1013500000014EDDAE0EF66E050EF76EFFDD0601E6
:101360009C2BA0D09C510D082CE10701B42D27D057
:10137000B5512B0821E1B65153081EE1B75142087F
:101380001BE1B851440818E1B951490815E1BA51B7
:10139000580812E1BC5120080BE1BD512F0808E2AA
:1013A000BD51320805E306019C2B0701AF6B04D049
:1013B00006019C2B0701AF2B00011ADD070173D03A
:1013C00006019C510E0833E10701B42D0CD0B55134
:1013D0004F0806E1B6514B0803E106019C2B0701BB
:1013E000000106DD0701AF5320E00C0E06019C6FE3
:1013F0000701AF2D01D003D0AF51020803E1030E66
:10140000B06F13D0AF51030803E0AF51040803E1FC
:10141000150EB06F0AD0AF51050803E1FB0EB06F97
:1014200004D00F0E06019C6F07013DD006019C51B0
:101430000F080AE10001DCDCB80EF66E050EF76E4F
:101440008DDD06019C2B2ED09C51100810E1070168
:10145000B42D0BD0B551300804E106019C2B04D00B
:1014600007010001C5DC060107011DD006019C51E2
:10147000110811E10701B42D0CD0B5514F0806E158
:10148000B6514B0803E106019C2B07010001B0DCBB
:10149000070109D006019C51120804E10001FAD5A8
:1014A000A7DC32DE070106010001FFEF19F09EA85C
:1014B000FED7AD6E60EF0AF0080158510001F7D772
:1014C000196AF2BE198EF29E58C865F864EC02F0F3
:1014D00019BEF28E0400440E006E002EFED700D01E
:1014E00012000501926991698F919D9A949A8B8A55
:1014F0000400F20E006E002EFED755C858F8000109
:10150000DBDF56C858F8D8DF120092C556F891C5EF
:1015100055F856C858F8D0DF55C858F8CDDFADA2F9
:10152000FED70400F20E006E002EFED74BDC949A1C
:101530008B9A0501926991690001120005018FB132
:1015400004D0000E016E0AD006D095AF04D097C526
:1015500096F5010E946F8F91010E016E000112003D
:101560004AC855F8040E0801566F0001BADF4CC88E
:101570004FF84CC858F8A0DF4BC84FF84BC858F884
:101580009BDF4EC84FF84EC858F896DF4DC84FF84D
:101590004DC858F891DFB9DF08014A5329E000012E
:1015A000CDDF015219E1FF0E05018B27D8A08C2752
:1015B000D8A08D27D8A08E278B5309E18C5307E143
:1015C0008D5305E18E53D8A402D0000105D004004C
:1015D00000000801E4D7000105018B5308E18C539A
:1015E00006E18D5304E18E5302E10C0E966F080163
:1015F00005018E6B010E8D6F860E8C6FA00E8B6FAA
:1016000096C501F0000112004AC855F8030E080102
:10161000566F000166DF4CC84FF84CC858F84CDFD5
:101620004BC84FF84BC858F847DF4EC84FF84EC864
:1016300058F842DF4DC84FF84DC858F83DDF65DF18
:1016400008014A5329E0000179DF015219E1FF0E38
:1016500005018B27D8A08C27D8A08D27D8A08E274E
:101660008B5309E18C5307E18D5305E18E53D8A4C8
:1016700002D0000105D0040000000801E4D70001F9
:1016800005018B5308E18C5306E18D5304E18E5321
:1016900002E10C0E966F080105018E6B010E8D6F35
:1016A000860E8C6FA00E8B6F96C501F000011200A4
:1016B000080160516007000A24E05FC8EAFF5E513C
:1016C0005E2BD8B45F2BE96EEF505C1B616B6151F0
:1016D000070816E35C51010B006E036A005003100B
:1016E0000AE0D8905D31636F5C31010A5C6F635131
:1016F000A00A5D6F03D0D8905D335C33612BE7D7D0
:10170000D8D75CC801F05DC802F000011200A4A89F
:10171000FED7796E1200110E04016625020F080132
:101720005A6F5B6BD8B05B2B230E496F81C54AF8AB
:1017300083C54BF8080182C54CF808014D69120EAB
:101740004E6F5BC84FF85AC850F869C451F8080189
:1017500068C452F8080167C448F85E6B48C85DF871
:10176000606B0D0E5F6F000126EC05F001C05CF8A8
:10177000010E08010124016E000E0220036E0150CB
:10178000210FE96E000E0320EA6EECCF53F8ED5204
:10179000EFCF5CF85E6B48C85DF8606B0D0E5F6F55
:1017A000000126EC05F001C05CF8010E08010124DF
:1017B000016E000E0220036E0150210FE96E000E33
:1017C0000320EA6EECCF5DF8ED52EFCF54F85E6B7C
:1017D00048C85DF8606B0D0E5F6F000126EC05F0E8
:1017E00001C05CF8050E08010124016E000E022004
:1017F000036E0150210FE96E000E0320EA6EEFCF59
:101800005CF8ECCF5DF8ECCF5EF8ECCF55F85E6B92
:1018100048C85DF8606B0D0E5F6F000126EC05F0A7
:1018200001C05CF8050E08010124016E000E0220C3
:10183000036E0150210FE96E000E0320EA6EEFCF18
:101840005CF8ECCF5DF8ECCF56F8ECCF5FF85E6B50
:1018500048C85DF8606B0D0E5F6F000126EC05F067
:1018600001C05CF8050E08010124016E000E022083
:10187000036E0150210FE96E000E0320EA6EEFCFD8
:101880005CF8ECCF57F8ECCF5EF8ECCF5FF85E6B0E
:1018900048C85DF8606B0D0E5F6F000126EC05F027
:1018A00001C05CF8050E08010124016E000E022043
:1018B000036E0150210FE96E000E0320EA6EEFCF98
:1018C00058F8ECCF5DF8ECCF5EF8ECCF5FF865C36D
:1018D00059F85D695C69080E5F6F4A0E5E6F100E05
:1018E000606F0001E5DE02C047F801C046F847C856
:1018F0005DF846C85CF8030E08015F6F660E5E6F08
:1019000066C460F80001D4DE02C047F801C046F8A2
:101910000801486B485110080FE3036A4851490F0A
:10192000E96E080E0320EA6EEFCF5CF85C5100010F
:10193000EEDE0801482BEED7486B04016651080122
:10194000485D0FE2660E4825E96E030EEA6ED8B0D8
:10195000EA2AEFCF5CF85C510001D9DE0801482B80
:10196000ECD747C85CF85C510001D1DE46C85CF892
:1019700008015C510001CBDE12004AC855F8010E87
:101980000801566F0001ADDD4CC84FF84CC858F83F
:1019900093DD4BC84FF84BC858F88EDD4EC84FF852
:1019A0004EC858F889DD4DC84FF84DC858F884DD49
:1019B000ACDD08014A5329E00001C0DD015219E104
:1019C000FF0E05018B27D8A08C27D8A08D27D8A083
:1019D0008E278B5309E18C5307E18D5305E18E531C
:1019E000D8A402D0000105D0040000000801E4D70B
:1019F000000105018B5308E18C5306E18D5304E18E
:101A00008E5302E10C0E966F080105018E6B010EDC
:101A10008D6F860E8C6FA00E8B6F96C501F0000146
:101A20001200C580C5B0FED70400090E006E002E5E
:101A3000FED700004AC854F89DEC03F04BC854F898
:101A40009DEC03F0C582C5B2FED70400090E006EFE
:101A5000002EFED7000008014A5101094F6F546F54
:101A600000019DEC03F008014E514E07010810E003
:101A70004DC8EAFF4CC8E9FF010E006E0001FDEC05
:101A800006F001C0EFFF08014C2BD8B44D2BECD76A
:101A90004DC8EAFF4CC8E9FF006A0001FDEC06F002
:101AA00001C0EFFFC584C5B4FED78CEF10F008016C
:101AB000402D08D0415306E100014EEC04F084ECC7
:101AC00008F0080140532BE1415329E100014EEC9D
:101AD00004F084EC08F00701AEC703F0AD51AD2B64
:101AE000D8B4AE2B0801466F9D0E4625E96E060E52
:101AF0000320EA6E0701FFC7EFFFAEC703F0AD5149
:101B0000AD2BD8B4AE2B0801466F9D0E4625E96E6D
:101B1000060E0320EA6E0701FEC7EFFF0801436BC4
:101B200043513F08D8A071D30400640E0301646FD1
:101B300008015E6B43C85DF8606B0D0E5F6F0001BE
:101B400026EC05F002C047F801C046F8210E080156
:101B50000124E96E000E0220EA6EEF5001E153D33A
:101B600043C8E9FF080EEA6EEF2A43C8E9FF080EF2
:101B7000EA6EEFCF46F85E6B43C85DF8606B0D0E02
:101B80005F6F000126EC05F002C048F801C047F87D
:101B9000030E08010124016E000E0220036E0150A5
:101BA000210FE96E000E0320EA6EEF50465D02E25F
:101BB0002AD305D043C8E9FF080EEA6EEF6A43C88E
:101BC00067F4FFC769F4FEC768F45E6B43C85DF84D
:101BD000606B0D0E5F6F000126EC05F002C047F848
:101BE00001C046F8210E08010124E96E000E022012
:101BF000EA6EEF500708D8A002D25E6B43C85DF8CA
:101C0000606B0D0E5F6F000126EC05F002C047F817
:101C100001C046F80C0E08010124016E000E0220DE
:101C2000036E0150210FE96E000E0320EA6EEF50A3
:101C3000010808E1A796190EAF6EA60EAC6E900EC5
:101C4000AB6E07D0A7960C0EAF6EA20EAC6E900EC8
:101C5000AB6E5E6B43C85DF8606B0D0E5F6F00018D
:101C600026EC05F002C047F801C046F8210E080135
:101C70000124E96E000E0220EA6EEF50030818E01E
:101C80005E6B43C85DF8606B0D0E5F6F000126EC64
:101C900005F002C049F801C048F8210E08010124EE
:101CA000E96E000E0220EA6EEF500408D8A4F8D0C6
:101CB0005E6B43C85DF8606B0D0E5F6F000126EC34
:101CC00005F002C047F801C046F8210E08010124C2
:101CD000E96E000E0220EA6EEF50040861E15E6BCF
:101CE00043C85DF8606B0D0E5F6F000126EC05F0D8
:101CF00002C047F801C046F8040E08010124016E35
:101D0000000E0220036E0150210FE96E000E032029
:101D1000EA6EEFCF46F85E6B43C85DF8606B0D0E60
:101D20005F6F000126EC05F001C047F8090E0801BD
:101D30000124016E000E0220036E0150210FE96E96
:101D4000000E0320EA6EECCF48F8ED52EFCF47F8D3
:101D50005E6B43C85DF8606B0D0E5F6F000126EC93
:101D600005F001C049F80B0E08010124016E000EB8
:101D70000220036E0150210FE96E000E0320EA6E6F
:101D8000EFCF4DF846C84AF848C84CF847C84BF85A
:101D90004E6B0001B0EC0AF001C065F360D00801A1
:101DA0005E6B43C85DF8606B0D0E5F6F000126EC43
:101DB00005F002C047F801C046F8040E08010124EE
:101DC000016E000E0220036E0150210FE96E000E1D
:101DD0000320EA6EEFCF46F85E6B43C85DF8606B98
:101DE0000D0E5F6F000126EC05F001C047F8090EEB
:101DF00008010124016E000E0220036E0150210F24
:101E0000E96E000E0320EA6EECCF48F8ED52EFCFFA
:101E100047F85E6B43C85DF8606B0D0E5F6F0001A5
:101E200026EC05F001C049F80B0E08010124016EF3
:101E3000000E0220036E0150210FE96E000E0320F8
:101E4000EA6EEFCF4DF846C84AF848C84CF847C884
:101E50004BF84E6B000104EC0BF001C065F303017D
:101E600065531CE1010E0501945D0401666F010ECE
:101E70000501945D0801466F030EEA6E660EE96E79
:101E8000050EE26E980EE16E4651016E04E0E6CF5B
:101E9000EEFF012EFCD700013EDC0301AED00801AD
:101EA0005E6B43C85DF8606B0D0E5F6F000126EC42
:101EB00005F002C047F801C046F8210E08010124D0
:101EC000E96E000E0220EA6EEF50010818E05E6B2A
:101ED00043C85DF8606B0D0E5F6F000126EC05F0E6
:101EE00002C049F801C048F8210E08010124E96E3A
:101EF000000E0220EA6EEF500208D8A47FD05E6B7D
:101F000043C85DF8606B0D0E5F6F000126EC05F0B5
:101F100002C047F801C046F8040E08010124016E12
:101F2000000E0220036E0150210FE96E000E032007
:101F3000EA6EEFCF46F85E6B43C85DF8606B0D0E3E
:101F40005F6F000126EC05F001C047F8090E08019B
:101F50000124016E000E0220036E0150210FE96E74
:101F6000000E0320EA6EECCF48F8ED52EFCF47F8B1
:101F70005E6B43C85DF8606B0D0E5F6F000126EC71
:101F800005F001C049F80B0E08010124016E000E96
:101F90000220036E0150210FE96E000E0320EA6E4D
:101FA000EFCF4DF846C84AF848C84CF847C84BF838
:101FB0004E6B0001E2DC01C065F3030165531DE1D6
:101FC000010E0501945D0401666F010E0501945D2B
:101FD0000801466F030EEA6E660EE96E050EE26EAC
:101FE000980EE16E4651016E04E0E6CFEEFF012E41
:101FF000FCD700018BEC0BF003010801AED05E6B47
:1020000043C85DF8606B0D0E5F6F000126EC05F0B4
:1020100002C047F801C046F8210E08010124E96E0C
:10202000000E0220EA6EEF501708D8A096D05E6B23
:1020300043C85DF8606B0D0E5F6F000126EC05F084
:1020400002C047F801C046F8210E08010124E96EDC
:10205000000E0220EA6EEF501008D8A47ED05E6B0E
:1020600043C85DF8606B0D0E5F6F000126EC05F054
:1020700002C047F801C046F8040E08010124016EB1
:10208000000E0220036E0150210FE96E000E0320A6
:10209000EA6EEFCF46F85E6B43C85DF8606B0D0EDD
:1020A0005F6F000126EC05F001C047F8090E08013A
:1020B0000124016E000E0220036E0150210FE96E13
:1020C000000E0320EA6EECCF48F8ED52EFCF47F850
:1020D0005E6B43C85DF8606B0D0E5F6F000126EC10
:1020E00005F001C049F80B0E08010124016E000E35
:1020F0000220036E0150210FE96E000E0320EA6EEC
:10210000EFCF4EF846C84AF847C84BF8030E4D6F5C
:10211000660E4C6F000185D40301656B08015E6B90
:1021200043C85DF8606B0D0E5F6F000126EC05F093
:1021300001C046F80B0E08010124016E000E0220BA
:10214000036E0150210FE96E000E0320EA6EEFCFFF
:1021500066F400018BEC0BF00801405354E141534D
:1021600052E103016553D8B402D008014CD00701F5
:10217000AEC703F0AD51AD2BD8B4AE2B0801466FFE
:102180009D0E4625E96E060E0320EA6E43C8EFFF5A
:102190000701AEC703F0AD51AD2BD8B4AE2B08018B
:1021A000466F9D0E4625E96E060E0320EA6E66C454
:1021B000EFFF456B446B455326E10401665108016E
:1021C000445D21E20701AEC747F8AD51AD2BD8B44D
:1021D000AE2B0801466F9D0E4625016E060E472167
:1021E000036E660E4425E96E030E4521EA6EEFCFBD
:1021F0004AF803C0EAFF01C0E9FF4AC8EFFF442BD9
:10220000D8B4452BD8D7432B8BD440530EE1415340
:102210000CE10701AD5305E1AE53D8A402D008018B
:1022200004D0010E06019C6F08010701FE2BD8B4F3
:10223000FF2B080140530DE141530BE1010E050155
:10224000875D0801406F000E050188590801416F44
:1022500004D04051D8B44107400700010AEF1AF0FA
:10226000080152510308D8A06AD104E15151E7088E
:10227000D8A065D15231036E5131026E0332023261
:102280000332023202C056F85151070B576F5651B4
:10229000400803E2020E016ECED15751F80FD8B0BC
:1022A0004DD1080F00011EEF13F008015E6B56C8F8
:1022B0005DF8606B0D0E5F6F000126EC05F002C04B
:1022C00059F801C058F8210E08010124E96E000EEA
:1022D0000220EA6E556BEFCF54F830D108015E6BE7
:1022E00056C85DF8606B0D0E5F6F000126EC05F0BF
:1022F00002C059F801C058F8010E08010124016E0E
:10230000000E0220036E0150210FE96E000E032023
:10231000EA6EECCF55F8ED52EFCF54F80FD108012B
:102320005E6B56C85DF8606B0D0E5F6F000126ECAA
:1023300005F002C059F801C058F8030E0801012445
:10234000016E000E0220036E0150210FE96E000E97
:102350000320EA6E556BEFCF54F8F0D008015E6BA6
:1023600056C85DF8606B0D0E5F6F000126EC05F03E
:1023700002C059F801C058F8040E08010124016E8A
:10238000000E0220036E0150210FE96E000E0320A3
:10239000EA6E556BEFCF54F8D1D008015E6B56C88A
:1023A0005DF8606B0D0E5F6F000126EC05F001C05B
:1023B00058F8050E08010124016E000E0220036E7C
:1023C0000150210FE96E000E0320EA6EEFCF58F89E
:1023D000ECCF59F8ECCF5AF8ECCF5CF85E6B56C8EE
:1023E0005DF8606B0D0E5F6F000126EC05F001C01B
:1023F0005DF8050E08010124016E000E0220036E37
:102400000150210FE96E000E0320EA6EEFCF5DF858
:10241000ECCF5EF8ECCF5FF8ECCF60F85FC861F806
:102420005CC855F85FC854F889D008015E6B56C87F
:102430005DF8606B0D0E5F6F000126EC05F001C0CA
:1024400058F8050E08010124016E000E0220036EEB
:102450000150210FE96E000E0320EA6EEFCF58F80D
:10246000ECCF5CF8ECCF5AF8ECCF5BF85E6B56C85B
:102470005DF8606B0D0E5F6F000126EC05F001C08A
:102480005DF8050E08010124016E000E0220036EA6
:102490000150210FE96E000E0320EA6EEFCF5DF8C8
:1024A000ECCF5EF8ECCF5FF8ECCF60F85DC861F878
:1024B0005CC855F85DC854F841D008015E6B56C839
:1024C0005DF8606B0D0E5F6F000126EC05F002C039
:1024D00059F801C058F8090E08010124016E000ED8
:1024E0000220036E0150210FE96E000E0320EA6EF8
:1024F000ECCF55F8ED52EFCF54F820D008015E6BC9
:1025000056C85DF8606B0D0E5F6F000126EC05F09C
:1025100002C059F801C058F80B0E08010124016EE1
:10252000000E0220036E0150210FE96E000E032001
:10253000EA6E556BEFCF54F801D0080163D05151CA
:10254000006E5251036E030E035C05E1E80E005C61
:10255000000132E00801030E035C05E1E90E005CB6
:1025600000012FE00801030E035C05E1EA0E005CA8
:1025700000012DE00801030E035C05E1EB0E005C99
:1025800000012AE00801030E035C05E1EC0E005C8B
:10259000000126E00801030E035C05E1ED0E005C7E
:1025A000000123E00801040E035C05E14C0E005C11
:1025B00000011FE0080123D00801556B81C554F8C4
:1025C00021D083C555F882C554F808011BD00801F5
:1025D000556B520E546F16D00801556B546B12D0C8
:1025E0000801556B340E546F0DD00801556B546BB8
:1025F00009D085C555F884C554F8080103D0020EEA
:10260000016E19D06A0E5325E96E040EEA6ED8B039
:10261000EA2A55C8EFFF010E53256A0FE96E040E32
:10262000EA6ED8B0EA2A54C8EFFF020E05018027EF
:10263000000E016E080100014BEF13F0E824F76A69
:10264000F736570FF66E260EF7220A00F550FA6E8F
:102650000800F550F96EAA22DC221E235C239A237F
:102660002A24BA24FC2408014D6B4C6B4B514C5D61
:1026700017E24D5315E14C5149254E6F000E4A218A
:102680004F6FD8904C35506F4FC852F84EC851F824
:10269000536F0001E5D501C04DF808014C2BE6D77A
:1026A0004DC801F0000129EF15F0030163531BE051
:1026B00008014D51E80809E14E51030806E14FC8F1
:1026C00081F5000E016E83D10DD04D51E9080AE16C
:1026D0004E51030807E150C883F54FC882F5000E3C
:1026E000016E75D1030108014E510308D8A002D133
:1026F00004E14D51E708D8A0FDD04E31036E4D31B5
:10270000026E033202320332023202C051F84D51DE
:10271000070B526F5151400803E2020E016E57D170
:102720005251F80FD8B0E5D0080F0001EAEF14F0CD
:1027300008015E6B51C85DF8606B0D0E5F6F0001A4
:1027400026EC05F002C056F801C055F8210E08012C
:102750000124E96E000E0220EA6E4FC8EFFFC9D0D7
:1027600008015E6B51C85DF8606B0D0E5F6F000174
:1027700026EC05F002C056F801C055F8010E08011C
:102780000124016E000E0220036E0150210FE96E3C
:10279000000E0320EA6E50C8ECFFED524FC8EFFF69
:1027A000A8D008015E6B51C85DF8606B0D0E5F6FBD
:1027B000000126EC05F002C056F801C055F8030EE2
:1027C00008010124016E000E0220036E0150210F4A
:1027D000E96E000E0320EA6E4FC8EFFF8AD00801B1
:1027E0005E6B51C85DF8606B0D0E5F6F000126ECEB
:1027F00005F002C056F801C055F8040E0801012486
:10280000016E000E0220036E0150210FE96E000ED2
:102810000320EA6E4FC8EFFF6CD050C854F84FC881
:1028200053F8080166D008015E6B51C85DF8606B13
:102830000D0E5F6F000126EC05F001C055F8050E86
:1028400008010124016E000E0220036E0150210FC9
:10285000E96E000E0320EA6EEE5253C8ECFF54C836
:10286000ECFFED52ED52ED524FC8EFFF50C8ECFFB8
:10287000000108015E6B51C85DF8606B0D0E5F6F63
:10288000000126EC05F002C056F801C055F8090E0B
:1028900008015525016E000E5621036E0150210FCF
:1028A000E96E000E0320EA6E50C8ECFFED524FC8EF
:1028B000EFFF1FD008015E6B51C85DF8606B0D0E15
:1028C0005F6F000126EC05F002C056F801C055F814
:1028D0000B0E08010124016E000E0220036E015050
:1028E000210FE96E000E0320EA6E4FC8EFFF01D002
:1028F000080169D04D51006E4E51036E040E035C09
:1029000005E14C0E005C000122E00801070E035CAB
:1029100005E1CD0E005C00011FE00801070E035C1D
:1029200005E1CE0E005C000118E00801070E035C13
:1029300005E1CF0E005C000120E008014E0E035CB3
:1029400005E11F0E005C000126E0080139D050C8E7
:1029500085F54FC884F538D0FF0008014F51CE08E7
:1029600003E15051070803E0030E016E30D000016F
:1029700010EC05F060EC05F027D008014F2D02D0D7
:10298000505303E0030E016E22D00001E6EC04F088
:1029900037EC05F019D008014F510A0803E15051F6
:1029A000070806E00301636B030E016E08010FD0F8
:1029B000010E0301636FC80E646F000105D00801AA
:1029C000020E016E04D00001000E016E080100012C
:1029D0004EEF15F0E824F76AF736EF0FF66E290E82
:1029E000F7220A00F550FA6E0800F550F96E30270C
:1029F0006027A227DE271A2826287228B428050176
:102A0000806B7751006E7851036E035005E1030E21
:102A1000005C000117E00501035005E1040E005CB5
:102A2000000110E00501035005E1060E005C000105
:102A300013E00501035005E1070E005C000131E0E1
:102A4000050131D07AC54AF879C549F87BC54BF8FC
:102A50000AD601C07FF52AD06A0E05017C25E96EF1
:102A6000040EEA6ED8B0EA2AEFCF49F8010E7C25B1
:102A70006A0FE96E040EEA6ED8B0EA2AEFCF4AF880
:102A800049C84CF84AC84BF87AC54EF879C54DF894
:102A900049C850F84AC84FF8000107D601C07FF571
:102AA00005D004D00501010E7F6F806B00013CEF63
:102AB00019F04AC855F8020E0801566F000171EC72
:102AC0000AF04CC84FF84CC858F85CEC0AF04BC8F8
:102AD0004FF84BC858F85CEC0AF04EC84FF84EC897
:102AE00058F85CEC0AF04DC84FF84DC858F85CEC4B
:102AF0000AF085EC0AF008014A532AE000019EEC36
:102B00000AF0015219E1FF0E05018B27D8A08C278E
:102B1000D8A08D27D8A08E278B5309E18C5307E1CD
:102B20008D5305E18E53D8A402D0000105D00400D6
:102B300000000801E3D7000105018B5308E18C5325
:102B400006E18D5304E18E5302E10C0E966F0801ED
:102B500005018E6B010E8D6F860E8C6FA00E8B6F34
:102B600096C501F0000175EF17F04BC855F8050E3A
:102B70000801566F000171EC0AF04DC84FF84DC8BE
:102B800058F85CEC0AF04CC84FF84CC858F85CECAC
:102B90000AF008014E5306E0586900015CEC0AF0A7
:102BA00005D00801586B00015CEC0AF00801586B75
:102BB00000015CEC0AF085EC0AF008014B532AE0B6
:102BC00000019EEC0AF0015219E1FF0E05018B276E
:102BD000D8A08C27D8A08D27D8A08E278B5309E1A9
:102BE0008C5307E18D5305E18E53D8A402D0000128
:102BF00005D0040000000801E3D7000105018B5354
:102C000008E18C5306E18D5304E18E5302E10C0E72
:102C1000966F080105018E6B010E8D6F860E8C6F0D
:102C2000A00E8B6F96C501F00001B6EF17F04EC8ED
:102C300055F8060E0801566F000171EC0AF050C8F5
:102C400053F850C858F85CEC0AF04FC853F84FC816
:102C500058F85CEC0AF052C853F852C858F85CECCB
:102C60000AF051C853F851C858F85CEC0AF085ECEA
:102C70000AF008014E532AE000019EEC0AF00152CE
:102C800019E1FF0E05018B27D8A08C27D8A08D272E
:102C9000D8A08E278B5309E18C5307E18D5305E1B2
:102CA0008E53D8A402D0000105D004000000080112
:102CB000E3D7000105018B5308E18C5306E18D53E6
:102CC00004E18E5302E10C0E966F080105018E6B34
:102CD000010E8D6F860E8C6FA00E8B6F96C501F066
:102CE0000001E1EF17F0D89008014F35026E503522
:102CF00002C054F84CC855F8100E566F000171EC24
:102D00000AF04EC855F84EC858F85CEC0AF04DC8A9
:102D100055F84DC858F85CEC0AF050C855F850C842
:102D200058F85CEC0AF04FC855F84FC858F85CECFE
:102D30000AF054C858F85CEC0AF00801536B505381
:102D400003E14F51535D34E2036A53C802F0D89057
:102D50000236033602505125E96E52510320EA6EC5
:102D6000ECCF56F8ED52EFCF55F855C857F855C887
:102D700058F800015CEC0AF0036A080153C802F03D
:102D8000D8900236033602505125E96E5251032085
:102D9000EA6EECCF56F8ED52EFCF55F856C857F81B
:102DA00056C858F800015CEC0AF00801532BC7D74D
:102DB000000185EC0AF008014C532AE000019EEC6A
:102DC0000AF0015219E1FF0E05018B27D8A08C27CC
:102DD000D8A08D27D8A08E278B5309E18C5307E10B
:102DE0008D5305E18E53D8A402D0000105D0040014
:102DF00000000801E3D7000105018B5308E18C5363
:102E000006E18D5304E18E5302E10C0E966F08012A
:102E100005018E6B010E8D6F860E8C6FA00E8B6F71
:102E200096C501F0000100EF18F005017751006E22
:102E30007851036E035004E10052000135E00501B2
:102E4000035005E1010E005C00012FE00501035075
:102E500005E1020E005C00013CE00501035005E1C4
:102E6000030E005C000148E00501035005E1040E7B
:102E7000005C000155E00501035005E1050E005C12
:102E8000000162E00501035006E1060E005C00014E
:102E9000D8B473D00501035006E1070E005C0001B1
:102EA000D8B496D00501B4D0E3D075C54AF87AC538
:102EB0004CF879C54BF808014E6B7BC54DF8000105
:102EC000BDEC0CF001C07FF5010E0801496F050152
:102ED0009FD075C54AF87AC54CF879C54BF80801FA
:102EE0004E6B7BC54DF80001E4D501C07FF5010EA6
:102EF0000801496F05018CD075C54AF87AC54CF8B0
:102F000079C54BF808014E6B7BC54DF8000104EC08
:102F10000BF001C07FF5010E0801496F050178D063
:102F200075C54AF87AC54CF879C54BF808014E6B5F
:102F30007BC54DF80001B0EC0AF001C07FF5010E31
:102F40000801496F050164D06A0E05017C25E96E10
:102F5000040EEA6ED8B0EA2AEFCF4EF875C54BF8EA
:102F60007AC54DF879C54CF80001FFD501C07FF551
:102F7000020E0801496F05014BD06A0E05017C2540
:102F8000E96E040EEA6ED8B0EA2AEFCF4AF8010ED5
:102F90007C256A0FE96E040EEA6ED8B0EA2AEFCFFC
:102FA0004BF84AC84DF84BC84CF875C54EF87AC571
:102FB00050F879C54FF84AC852F84BC851F800018B
:102FC00036D601C07FF5020E0801496F000150D0CE
:102FD0006A0E05017C2508014A6F040E4B6FD8B0BC
:102FE0004B2B75C54CF87AC54EF879C54DF8506B2A
:102FF0007BC54FF84BC852F84AC851F8000173D648
:1030000001C07FF5020E0801496F000131D00501B2
:103010000801492D1DD005017F53D8B402D0080105
:1030200017D0010E945D806F010E945D08014A6F08
:10303000040EEA6E6A0EE96E050EE26E980EE16EFF
:103040004A51016E04E0E6CFEEFF012EFCD710D00E
:10305000495102080DE105017F53D8B402D008019F
:1030600007D0020E806F9AC56AF49BC56BF4080105
:10307000000140EF19F0230E0801496F81C54AF89D
:1030800083C54BF8080182C54CF808014D69140E40
:103090004E6F0D0E05018025020F0801566F576B0C
:1030A000D8B0572B57C84FF856C850F870C551F8CC
:1030B00008016FC552F808016EC553F808016DC5C7
:1030C00054F808017FC555F85D695C69080E5F6FAB
:1030D0004A0E5E6F0C0E606F000158EC0BF002C0E0
:1030E00057F801C056F857C85DF856C85CF8040E8A
:1030F00008015F6F6A0E5E6F80C560F8000158ECD2
:103100000BF002C057F801C056F80801586B58512F
:103110000C0810E3036A5851490FE96E080E0320AA
:10312000EA6EEFCF59F85951000187EC0BF0080116
:10313000582BEDD7586B050180510801585D10E2FE
:103140006A0E5825E96E040EEA6ED8B0EA2AEFCF6F
:1031500059F85951000187EC0BF00801582BEBD7B7
:1031600057C859F85951000187EC0BF056C859F867
:1031700008015951000187EC0BF041EF19F06EC4C2
:103180006CF5020E05016C5D6A0FE96E040EEA6EC5
:10319000D8B0EA2AEFCF7EF5010E6C5D6A0FE96EBA
:1031A000040EEA6ED8B0EA2AEFCF7DF5030E6C5D0F
:1031B0000801496F5D695C69040E5F6F6B0E5E6F9D
:1031C00049C860F8000158EC0BF002C048F801C093
:1031D00047F805017D510801475D05E105017E5174
:1031E0000801485D01E04ED004016F51130803E06F
:1031F000080148D0040170C470F571C46FF572C441
:103200006EF573C46DF574C474F575C473F576C446
:1032100072F577C471F578C476F579C475F57AC41A
:1032200078F57BC477F57CC47AF57DC479F57EC4E6
:103230007BF5150E05017C6F806B0801466B81C51F
:1032400045F882C543F883C544F80501715108016A
:10325000435D14E1050172510801445D0FE1050170
:1032600073510801455D0AE1050174510801465D8D
:1032700005E10001FFEF14F003D008010001D5D5EE
:10328000FAD60801000110EF1AF0F86AD09E078EF6
:10329000620ED36E9B6A646A206AB986220E7B6EC8
:1032A000000E7C6EA60EBA6E900EA66E9486948862
:1032B000040EC86E280EC66EC79EC79C05018A6B99
:1032C000896BA7960C0EAF6EA20EAC6E900EAB6E15
:1032D0008E6B010E8D6F860E8C6FA00E8B6F8F9193
:1032E000906B0F015C51800B5C6F000E5D6FC1969F
:1032F000C198C19A5E6B5F6B07D002001A0000FF95
:10330000469600ADC0000000000EF86E320EF76E5B
:10331000FA0EF66E0900F550006E000A13E009007F
:10332000F550016EE8BE05D03F0BEA6E0900F5CFFF
:10333000E9FF01BC090001AC0900F5CFEEFF004E2A
:10334000E9D7F9D7F86A000119EF04F00801426BD8
:10335000425195081AE30400939A8A8A640E436FD7
:10336000000101EC04F0939A8A9A640E0801436FFD
:10337000000101EC04F0080142514B0804E2000195
:103380004EEC04F00801422BE3D7020EF66E070E56
:10339000F76E000185EC04F0C00EF21210EC05F09F
:1033A00060EC05F007EF06F09FEF06F0ECEF06F09B
:1033B000F8EC06F004000501865323E00701B25340
:1033C00009E0100EF66E070EF76E000185EC04F0B2
:1033D0000701B26BB4530BE100013EEF07F001525D
:1033E000D8A402D0070103D048EF07F00701060177
:1033F0009C5306E000014EEC04F08BEF08F0060150
:1034000005010301615307E0616BC80E646F0001A1
:1034100057EF0DF0030105016B5305E00001AFD636
:0C34200092EC03F005010001C5D7030089
:020000040030CA
:0E00000015086727000991000FC000E00040BE
:00000001FF
;PIC18F25K80
;CRC=526B  CREATED="31-Oct-23 11:25"
