:0400000017EF1BF0EB
:08000800046ED8CF05F0E0CF33
:1000100006F00001E9CF0CF0EACF07F0E1CF08F0DD
:10002000E2CF09F0D9CF0AF0DACF0BF0F3CF12F01C
:10003000F4CF13F0FACF14F0F5CF15F0F6CF16F099
:10004000F7CF17F000C00EF001C00FF002C010F0A3
:1000500003C011F09DA230EF00F09EB282EF01F0DC
:100060009DAA36EF00F09EBABCEF01F0A3AA3CEFC8
:1000700000F0A4BA71EF02F0B6AE42EF00F0B7BEE6
:1000800036EF02F00EC000F00FC001F010C002F019
:1000900011C003F00CC0E9FF07C0EAFF078E08C0DB
:1000A000E1FF09C0E2FF0AC0D9FF0BC0DAFF12C0AE
:1000B000F3FF13C0F4FF14C0FAFF15C0F5FF16C01C
:1000C000F6FF17C0F7FF045006C0E0FF05C0D8FFD9
:1000D0001000F76AE20FF66E000EF7220900F550E5
:1000E000120000C1814001C0804101C0804100C1B7
:1000F000814001C0804100C1814000C1814001C0F8
:10010000804101C0804100C1814000C1814001C0E7
:10011000804100C1814001C0804101C0804100C1D7
:10012000814001C0804100C1814000C1814001C0C7
:10013000804100C1814001C0804101C0804100C1B7
:10014000814000C1814001C0804101C0804100C1A7
:10015000814001C0804100C1814000C1814001C097
:10016000804101C0804100C1814000C1814001C087
:10017000804100C1814001C0804101C0804100C177
:10018000814000C1814001C0804101C0804100C167
:10019000814001C0804100C1814000C1814001C057
:1001A000804100C1814001C0804101C0804100C147
:1001B000814001C0804100C1814000C1814001C037
:1001C000804101C0804100C1814000C1814001C027
:1001D000804100C1814001C0804101C0804100C117
:1001E0008140F76AF20FF66E010EF7220900F55012
:1001F000120000C0C101C30302C2C60607C705C57D
:10020000C404CC0C0DCD0FCFCE0E0ACACB0BC9093E
:1002100008C8D81819D91BDBDA1A1EDEDF1FDD1D4E
:100220001CDC14D4D515D71716D6D21213D311D17E
:10023000D010F03031F133F3F23236F6F737F535CE
:1002400034F43CFCFD3DFF3F3EFEFA3A3BFB39F9FE
:10025000F83828E8E929EB2B2AEAEE2E2FEF2DEDCE
:10026000EC2CE42425E527E7E62622E2E323E1213E
:1002700020E0A06061A163A3A26266A6A767A5654E
:1002800064A46CACAD6DAF6F6EAEAA6A6BAB69A9BE
:10029000A86878B8B979BB7B7ABABE7E7FBF7DBDCE
:1002A000BC7CB47475B577B7B67672B2B373B171FE
:1002B00070B05090915193535292965657975595CE
:1002C00094549C5C5D9D5F9F9E5E5A9A9B5B99597E
:1002D0005898884849894B8B8A4A4E8E8F4F8D4D4E
:1002E0004C8C4484854587474686824243834181BE
:1002F00080409D9209019C5303E0CC6A9E929D82AE
:100300000001120005018E5102080AE18F5308E135
:10031000905306E18DB104D0020E925F8D8101D021
:100320008D9190698F698E6B09019C6B0001E1DFF3
:100330009E9242EF00F09EAAFED7ABCF20F0AECF48
:1003400001F020A202D0AB98AB88120005019051B9
:1003500009019C199D6F036A9D510001BADE016E6F
:1003600005018F510118906F036A09019D51000129
:1003700038DFE8CF8FF51200DEDF01C09BF9050101
:100380008DB12BD08E5308E190698F699BC991F58F
:100390008E2B926B946B17D08E2D04D09BC993F546
:1003A0008E2B11D08E5102080EE1923D02D0FE0E2E
:1003B000926F950E9225E96E050EEA6ED8B0EA2A84
:1003C0009BC9EFFF922B9BC99CF90001BFDF010E77
:1003D00009019C6F00018DDF05019E9A000142EF2B
:1003E00000F0415445300D004154264B300D0000C3
:1003F00041542B5342444D54413D310D0000415472
:100400002B435249530D0000415445300D004154D7
:10041000264B300D000041542B5342444D54413D76
:10042000310D000041542B53424457423D256C7519
:100430000D0041542B53424449580D0041542B5355
:10044000424444300D00415445300D004154264B88
:10045000300D000041542B5342444D54413D310D69
:10046000000041542B53424452420D0009012D2BF0
:100470002D5164081AE12D6B2E2BD8B42F2B0501BA
:10048000855109012F5D0CE305E105018451090146
:100490002E5D06E32F6B2E6B010E0301616F0901C8
:1004A0000701DB5301E0DB0709010301623D01D0D5
:1004B00001D0622B645303E1939A8A9A03D0939AF2
:1004C0008A8A6407B79E000142EF00F0A4AAFED713
:1004D000A6CF20F07ACF01F020A202D0A698A6885D
:1004E000120005016B5303E00001F0DF0501030179
:1004F00062510A0803E205016A6B0301626B0501A0
:100500006A5338E131C930F932C931F933C932F9A6
:1005100034C933F90001DADF01C034F9090130517F
:10052000230826E131510501815DD8B402D00901CB
:100530001FD032C903F0090133510501825DD8B4DF
:1005400002D0090115D00350835DD8B402D009014F
:100550000FD09292898230C96AF431C96BF432C9E2
:100560006CF433C96DF434C96EF4050E6A6F090179
:100570001FD005016A516A2B6A0FE96E040EEA6EFC
:10058000D8B0EA2AEACF9EF9E9CF9DF900019EDFB3
:100590009EC9EAFF9DC9E9FF01C0EFFF04016E514A
:1005A00005016A5D04E192928972010E6B6F090187
:1005B000A49A000142EF00F005016A6B6B6B000129
:1005C0001200C69E9E968DC9C9FF020EC6BE05D0FA
:1005D0009EA6FED7000EC5BC010E016E1200C5809E
:1005E000C5B0FED70400090E006E002EFED7000035
:1005F0009A0E09018D6F0001E4DF090188358A6FC9
:100600008A378A37F80E8A178AC98DF90001D9DF2F
:1006100089C98DF9D6DFC584C5B4FED71200030E93
:100620000901886F800E896F0001D9DF0901886B8D
:100630007AC989F90001D3DF010E0901886F896B3E
:100640000001CDDF030E0901886FBF0E896F000125
:10065000C6DF020E0901886F100E896F0001BFDF2F
:10066000030E0901886F896F0001B9DF010E0901CE
:10067000886F896B0001B3DF020E0901886F070ED6
:10068000896F0001ACDF8DEF03F0090EEA6E900E6A
:10069000E96EEF5011E0020E016EBF0E006E040015
:1006A000002EFDD7012EF9D7960E006E002EFED734
:1006B00000D00400EF2EEFD71200620ED36E9B6ABB
:1006C000646A0F015C51800B5C6F000E5D6FC19618
:1006D000C198C19AD1805D691F0E5C6FF00EBB1688
:1006E00050174D174A174717949A8B9A780E060998
:1006F000886E4D0EA96EB68E010E0301616F6269A0
:10070000636B646B000158DFA38A0501865306E022
:10071000060E09017A6F000182D705010E0E09014C
:10072000906F0001B2DF7CEF1BF00901966B95C959
:1007300098F99451D8B495079407976F975302E1AD
:1007400098533FE0040093C903F09251E96E03C04F
:10075000EAFFEFCF97F996C998F997C999F9985197
:100760009919016E01C096F99151036E9051902B29
:10077000D8B4912B976F03C098F99351036E92519F
:10078000922BD8B4932BE96E03C0EAFFEFCF99F90F
:10079000F250006EF29E98C975FF97C974FF99C90F
:1007A00073FF7F9C7F9E7F840F01550E7E6EAA0E85
:1007B0007E6E7F827FB2FED77F940050F2120901D5
:1007C000B6D796C901F000011200050E09018E6F1F
:1007D000810E8D6F916B040E906F8EC993F98DC948
:1007E00092F9956B080E946F00019FDF01C08CF9A0
:1007F000F250006EF29E756A746A8CC973FF7F9C1A
:100800007F9E7F840F01550E7E6EAA0E7E6E7F82C4
:100810007FB2FED77F940050F21200011200960EB4
:100820000301646F410E0501816F120E836FC00ECC
:10083000826F856B3C0E846F010E866F886B3C0E59
:10084000876F0001C2DF1200090194519603F3CFB4
:1008500001F0F4CF00F09703F35000269551960372
:10086000F3500020026E000112000901210E8E6F6C
:10087000916B800E906F936B8EC992F9030E956FFA
:10088000400E946F000151DF01C08DF9F250006EEF
:10089000F29E756A020E746E8DC973FF7F9C7F9EF7
:1008A0007F840F01550E7E6EAA0E7E6E7F827FB210
:1008B000FED77F940050F21200011200960E030141
:1008C000646F09018C6B8C513F0812E3956B8CC9E6
:1008D00094F9976B0D0E966F0001B6DF210E09019A
:1008E0000124E96E000E0220EA6EEF6A8C2BEBD732
:1008F000100E216E7D0E236E226A010E246E3E0EB6
:10090000256E296A410E286E120E276EC10E266EC4
:100910002B6A2A6A060E2C6E100E2E6E7D0E306E1D
:100920002F6A010E316E360E326E366A410E356E0A
:10093000120E346EC20E336E386A376A200E396E6C
:10094000100E3B6E7D0E3D6E3C6A010E3E6E380E03
:100950003F6E436A410E426E120E416EC30E406EF0
:10096000456A446A200E466E00017FDF12000901CD
:10097000836B82C985F98151D8B482078107846F5E
:10098000845302E1855332E080C903F07F51E96E60
:1009900003C0EAFF7E51036E7D517D2BD8B47E2BC0
:1009A000866F03C087F9F2CF88F9F29E87C975FF79
:1009B00086C974FF7F9C7F9E7F80735088BFF28EB4
:1009C000EF6E80C903F07F51E96E03C0EAFFEFCFFD
:1009D00084F983C998F984C999F998519919016ED4
:1009E00001C083F97F2BD8B4802BC3D783C901F012
:1009F00000011200050E09017C6F810E7B6F7E6B7A
:100A0000040E7D6F7CC980F97BC97FF9826B080E6B
:100A1000816F0001ACDF01C07AF9F2CF7BF9F29E61
:100A2000756A746A7F9C7F9E7F80735009017BBFCB
:100A3000F28E7A5D03E00001F2DE090100019DEF14
:100A40001BF00901210E7B6F7E6B800E7D6F806B2A
:100A50007BC97FF9030E826F400E816F000187DF33
:100A600001C07AF9F2CF7BF9F29E756A020E746EBC
:100A70007F9C7F9E7F80735009017BBFF28E7A5DE1
:100A800003E000011BDF090100019FEF1BF09EAA9C
:100A900002D051DCFCD7AE50949A8B9A9D8A1200FA
:100AA000949A8B9AF4DF480E0609CA6EF90ECB6E43
:100AB000C00EF212A1EF1BF00801E46B0901256BD7
:100AC000000112007DC97FF97CC97EF97FC9EAFF68
:100AD00009017EC9E9FFEF5206E07E2BD8B47F2BD7
:100AE0000001F4D709017C517E5D006E7D517F5974
:100AF000036E00C001F0026E00010DEF06F0090167
:100B00007E6B7DC9EAFF7CC9E9FFEF50200804E154
:100B10007C2BD8B47D2BF5D77DC9EAFF7CC9E9FFD2
:100B2000EFCF7FF97F512F0812E27F5139080FE391
:100B30007E510A0DF3CF7EF97DC9EAFF7CC9E9FF3A
:100B4000300EEF5C7E277C2BD8B47D2BE5D77EC999
:100B500001F0000112007FC9EAFF09017EC9E9FF27
:100B60008051EF5C12E07FC903F07EC9E9FF03C04A
:100B7000EAFFEF5204E1000E016E026E0AD07E2BF6
:100B8000D8B47F2B0001E7D709017EC901F07FC9E6
:100B900002F00001120009017F6B7E6B7DC9EAFF44
:100BA0007CC9E9FFEF50200804E17C2BD8B47D2BF1
:100BB000F5D77DC9EAFF7CC9E9FFEFCF80F9805105
:100BC0002F081EE2805139081BE37FC995F97EC9C1
:100BD00094F9976B0A0E966F000136DE02C07FF91A
:100BE00001C07EF97DC9EAFF09017CC9E9FF300E29
:100BF000EF5C7E27000E7F237C2BD8B47D2BD9D7CA
:100C00007EC901F07FC902F000011200060E090141
:100C10007D6F940E7C6F000155D702C07DF901C035
:100C20007CF909017D5303E17C5117080BE20601B1
:100C30009C512F08D8A002D0090104D09C5139083A
:100C400003E20901BBD00601060E09017D6F9C0E6F
:100C50007C6F000154DF01C0BEF6060E09017F6FF4
:100C60009D0E7E6F2C0E806F000175DF02C07BF938
:100C700001C07AF909017A5303E17B5301E19ED067
:100C80007A2BD8B47B2B7BC97DF97AC97CF900011A
:100C900082DF02C0C0F601C0BFF6010E09017A254D
:100CA0007C6F000E7B217D6F7F6F7CC97EF92C0EDF
:100CB000806F000150DF02C07BF901C07AF90901A1
:100CC0007A5303E17B5301E179D07A2BD8B47B2BA3
:100CD0007BC97DF97AC97CF9000111DF01C0C1F639
:100CE000010E09017A257C6F000E7B217D6F7F6FDD
:100CF0007CC97EF92C0E806F00012DDF02C07BF9CC
:100D000001C07AF909017A5303E17B5301E156D01E
:100D10007A2BD8B47B2B7BC97DF97AC97CF9000189
:100D20003ADF02C0C3F601C0C2F6010E09017A25FE
:100D30007C6F000E7B217D6F7F6F7CC97EF92C0E4E
:100D4000806F000108DF02C07BF901C07AF9090158
:100D50007A5303E17B5301E131D07A2BD8B47B2B5A
:100D60007BC97DF97AC97CF9000115DF02C0C5F69F
:100D700001C0C4F6010E09017A257C6F000E7B21AB
:100D80007D6F7F6F7CC97EF92C0E806F0001E3DEE2
:100D900002C07BF901C07AF909017A5303E17B5360
:100DA00001E10CD07A2BD8B47B2B7BC97DF97AC9B1
:100DB0007CF90001A4DE01C0C6F609010001B3EF11
:100DC0001BF0C69CC586C5B6FED700B0C59A00A06C
:100DD000C58AC588C5B8FED7C9CF01F01200C58045
:100DE000C5B0FED70400090E006E002EFED700002D
:100DF0009A0E09018D6F0001E1EC02F009017B35CB
:100E00007D6F7D377D37F80E7D177DC98DF9000127
:100E1000E1EC02F0C582C5B2FED70400090E006EF7
:100E2000002EFED700009B0E09018D6F0001E1EC42
:100E300002F0006AC6DF01C07CF9C584C5B4FED7E4
:100E400009017CC901F000011200050E09017B6F48
:100E50000001C5DF0150010B016E120009017B6B1F
:100E60000001BDDF015001C07AF909017A510D0876
:100E700001E14AD00801E45348E109017A510A0826
:100E800003E1255301E140D00801E55153081EE17B
:100E9000E65142081BE1E751440818E1E8515208C5
:100EA00015E1E951490812E1EA514E080FE1090143
:100EB0007A514708D8B402D0080108D0010E0801C1
:100EC000E26F0001F9DD09011FD0080109017A5123
:100ED0000A080DE1E50E2525E96E080EEA6ED8B088
:100EE000EA2AEF6A010E0801E46F09010DD02551CD
:100EF0003E080AE3E50E2525E96E080EEA6ED8B035
:100F0000EA2A7AC9EFFF252B08010001CAEF1BF07E
:100F10000901886B87C989F90001EFEC02F0120022
:100F20000900F5520CE0F6CF7EF9F7CF7FF9F5CF47
:100F300087F9EEDF7EC9F6FF7FC9F7FFF1D7120010
:100F40000701DD5101080BE30001B6DD460EF66E28
:100F5000040EF76EE5DF020E0701DD6F0CD1DD51E7
:100F6000020811E10801E42D0CD0E5514F0806E11B
:100F7000E6514B0803E10701DD2B080100019CDD70
:100F80000801FAD00701DD5103080AE1000194DDF0
:100F90004C0EF66E040EF76EC3DF0701DD2BEBD0AF
:100FA000DD51040811E10801E42D0CD0E5514F0892
:100FB00006E1E6514B0803E10701DD2B08010001C2
:100FC0007BDD0801D9D00701DD5105080AE10001E8
:100FD00073DD540EF66E040EF76EA2DF0701DD2BF3
:100FE000CAD0DD51060811E10801E42D0CD0E5510D
:100FF0004F0806E1E6514B0803E10701DD2B08012C
:1010000000015ADD0801B8D00701DD5107080EE1E3
:10101000000152DD010E0901266F620EF66E040E0C
:10102000F76E00017DDF0701DD2BA5D0DD5108083B
:1010300011E100010ADF015201E19ED009017B6B41
:101040000001CDDE015001C0DFF80801DE6B0701B1
:10105000DD2B91D0DD51090818E10001F6DE0152C7
:1010600001E18AD009017B6B0001B9DE015001501A
:101070000801DE27000EDF230701DD2B09012C6BA1
:101080002B6B2A6B296B77D00701DD510A0835E1FC
:101090000001DBDE015201E16FD00801DE5307E100
:1010A000DF5305E10701DD2B000166D008010901CE
:1010B0007B6B000194DE015001C07AF9DE0E09015C
:1010C0002925E96E070E2A21EA6E7AC9EFFF7A51C7
:1010D0002B27000E2C23292BD8B42A2B0801DE51F4
:1010E0000901295D08E10801DF5109012A5D03E1D9
:1010F0000701DD2B09013FD00701DD510B0811E18C
:101100000001A3DE015201E137D009017B6B000130
:1011100066DE015001C02AF90901296B0701DD2BA8
:101120002AD0DD510C0815E100018FDE015201E1EA
:1011300023D009017B6B000152DE015001500901EF
:101140002927000E2A230701DD2B0901266B13D066
:101150000701DD510D080FE1090129512B5D07E160
:101160002A512C5D04E1010E0701DC6F0901060123
:10117000C16B0701DD6B08010001D1EF1BF0090015
:10118000F6CF7FF9F7CF80F9F5CF87F9C1DE7FC9B8
:10119000F6FF80C9F7FF09017E2F01D002D00001C0
:1011A000EED7000112EF0AF0EACF86F9E9CF85F910
:1011B00009017F39F009816F8127E20F826F320FB9
:1011C000846F7F510F0B822782278427E90F836F5B
:1011D000832783277E390F0B832784278337843720
:1011E000841F84377E510F0B84278137070E806F51
:1011F0000A0E83078427FDE382078327FDE3810727
:101200008227FDE380078127FDE3090EEA6E800E49
:10121000E96E070E8515859DE926000EEA22E95044
:10122000840804E1EA50090801E1858DEF50006E61
:1012300008E185BD06D085B915D085B702D0200E4E
:1012400003D085878599300E0026EACF7FF9E9CF54
:101250007EF900C087F900015BDE7FC9EAFF7EC925
:10126000E9FF0901EE5085ADDAD7000119EF0AF068
:10127000090E09017F5F0CE3090EEA6E7F0EE96E2D
:10128000D890EF32EF5004E001D00400EF2EFDD7EC
:1012900000016AEF0AF07FC985F97EC984F9090166
:1012A000825302E1835323E081C9EAFF80C9E9FF49
:1012B000EF521DE085C903F08451842BD8B4852BEF
:1012C000866F03C087F981C9EAFF8051802BD8B4AB
:1012D000812BE96EEFCF88F903C0EAFF86C9E9FFE9
:1012E00088C9EFFF8251D8B483078207D9D78253C8
:1012F00002E183530DE085C9EAFF8451842BD8B401
:10130000852BE96EEF6A8251D8B483078207EFD745
:101310007EC901F07FC902F00001F2EF0AF0070177
:10132000D96BD86B0601C76B000112000601C753C9
:1013300002E1EED1EAD1C72D0BD000015CEC05F043
:10134000080EF66E040EF76EEBDD0601C72BDDD13D
:10135000C751020812E10801E42D0DD0E5514F08F4
:1013600006E1E6514B0803E10601C72B0801000125
:101370005CEC05F00801CAD10601C75103080BE176
:1013800000015CEC05F00E0EF66E040EF76EC8DD83
:101390000601C72BBAD1C751040812E10801E42D98
:1013A0000DD0E5514F0806E1E6514B0803E1060177
:1013B000C72B080100015CEC05F00801A7D106016C
:1013C000C75105080BE100015CEC05F0160EF66E46
:1013D000040EF76EA5DD0601C72B97D1C75106088D
:1013E00012E10801E42D0DD0E5514F0806E1E65168
:1013F0004B0803E10601C72B080100015CEC05F076
:10140000080184D10601C75107081BE100015CEC0B
:1014100005F0240EF66E040EF76E090E09017E6FBC
:101420000001ADD6100EE96ED9C77FF9D8C77EF995
:10143000BBD60D0E0901876F00016ADD0601C72BBF
:1014400064D1C75108081BE10801E42D16D0E5510D
:1014500052080FE1E65145080CE1E751410809E166
:10146000E851440806E1E951590803E10601C72B98
:10147000080100015CEC05F0080148D10601C751E4
:10148000090848E100015CEC05F009017D6B7C6B0B
:101490007B6B7A6B7B510701D95D2EE308E1D85154
:1014A00009017A5DD8A002D0070126D00701C80E35
:1014B00009017A25E96E060E7B21EA6EEFCF87F9E6
:1014C000000126DD0400020E09017E6FF70E7F6F1A
:1014D0000001CED609017E2FF9D7C80E7A25E96E14
:1014E000060E7B21EA6EEF507C27000E7D237A2BBF
:1014F000D8B47B2BCFD707017DC97EF97DC987F989
:10150000000106DD7CC97EF97CC987F901DD060191
:10151000C72BFBD0C7510A0811E10801E42D0CD0FC
:10152000E551300804E10601C72B05D00801000190
:101530005CEC05F006010801E9D00601C7510B0873
:1015400012E10801E42D0DD0E5514F0806E1E65106
:101550004B0803E10601C72B080100015CEC05F014
:101560000801D4D00601C7510C0813E10701DA5372
:1015700005E0DB5303E00601CBD0070100015CEC82
:1015800005F0320EF66E040EF76ECADC0601C72BAC
:10159000BCD0C7510D0843E10801E42D3ED0E55110
:1015A0002B0837E1E651530834E1E751420831E1B5
:1015B000E85144082EE1E95149082BE1EA51580865
:1015C00028E10601945310E1060E09017F6F940E85
:1015D0007E6F080E816FE50E806F836B290E826F20
:1015E000000159D60601BD6B0801EC5120080CE141
:1015F000ED512F0809E2ED51320806E30601C72B31
:101600000701DA6B05D008010601C72B0701DA2BA9
:10161000080100015CEC05F0080178D00601C75113
:101620000E0835E10801E42D0DD0E5514F0806E123
:10163000E6514B0803E10601C72B080100015CECF1
:1016400005F008010701DA5320E00C0E0601C76F10
:101650000701DA2D01D003D0DA51020803E1030EAD
:10166000DB6F13D0DA51030803E0DA51040803E119
:10167000150EDB6F0AD0DA51050803E1FB0EDB6FB4
:1016800004D00F0E0601C76F070141D00601C751F4
:101690000F080BE100015CEC05F03C0EF66E040E49
:1016A000F76E3EDC0601C72B30D0C751100811E1A0
:1016B0000801E42D0CD0E551300804E10601C72BE8
:1016C00005D0080100015CEC05F0060108011ED000
:1016D0000601C751110812E10801E42D0DD0E551B2
:1016E0004F0806E1E6514B0803E10601C72B08014C
:1016F00000015CEC05F0080109D00601C751120891
:1017000004E100015CEC05F00ADE080107010601B6
:101710000001DDEF1BF09EA8FED7AD6E94EF0BF03D
:10172000090190510001F7D7196AF2BE198EF29E95
:1017300090C99CF9A6EC01F019BEF28E0400440E8B
:10174000006E002EFED700D01200050190698F694F
:101750008D919D9A949A8B8A0400F20E006E002E51
:10176000FED78DC990F90001DBDF8EC990F9D8DF73
:10177000120090C58EF98FC58DF98EC990F9D0DF12
:101780008DC990F9CDDFADA2FED70400F20E006E38
:10179000002EFED747EC05F0949A8B9A05019069CC
:1017A0008F690001120005018DB104D0000E016E99
:1017B0000AD006D093AF04D095C594F5010E926F70
:1017C0008D91010E016E0001120082C98DF9040E87
:1017D00009018E6F0001B9DF84C987F984C990F9C6
:1017E0009FDF83C987F983C990F99ADF86C987F992
:1017F00086C990F995DF85C987F985C990F990DF89
:10180000B8DF0901825329E00001CDDF015219E15F
:10181000FF0E05018927D8A08A27D8A08B27D8A03A
:101820008C27895309E18A5307E18B5305E18C53D7
:10183000D8A402D0000105D0040000000901E4D7BB
:1018400000010501895308E18A5306E18B5304E145
:101850008C5302E10C0E946F090105018C6B010E93
:101860008B6F860E8A6FA00E896F94C501F0000100
:10187000120082C98DF9030E09018E6F000165DF28
:1018800084C987F984C990F94BDF83C987F983C973
:1018900090F946DF86C987F986C990F941DF85C985
:1018A00087F985C990F93CDF64DF0901825329E09B
:1018B000000179DF015219E1FF0E05018927D8A047
:1018C0008A27D8A08B27D8A08C27895309E18A536F
:1018D00007E18B5305E18C53D8A402D0000105D059
:1018E000040000000901E4D700010501895308E163
:1018F0008A5306E18B5304E18C5302E10C0E946F82
:10190000090105018C6B010E8B6F860E8A6FA00E8C
:10191000896F94C501F000011200090197519707E2
:10192000000A24E096C9EAFF9551952BD8B4962B6E
:10193000E96EEF50931B986B9851070816E393518B
:10194000010B006E036A005003100AE0D890943136
:101950009A6F9331010A936F9A51A00A946F03D042
:10196000D89094339333982BE7D7D8D793C901F005
:1019700094C902F000011200A4A8FED7796E1200EB
:10198000110E04016625020F0901916F926BD8B008
:10199000922B230E806F81C581F983C582F90901DD
:1019A00082C583F909018469120E856F92C986F98F
:1019B00091C987F969C488F9090168C489F90901DD
:1019C00067C47FF9956B7FC994F9976B0D0E966F7D
:1019D000000124EC04F001C093F9010E0901012477
:1019E000016E000E0220036E0150210FE96E000E01
:1019F0000320EA6EECCF8AF9ED52EFCF93F9956BA5
:101A00007FC994F9976B0D0E966F000124EC04F0DA
:101A100001C093F9010E09010124016E000E02209C
:101A2000036E0150210FE96E000E0320EA6EECCF29
:101A300094F9ED52EFCF8BF9956B7FC994F9976BC1
:101A40000D0E966F000124EC04F001C093F9050E11
:101A500009010124016E000E0220036E0150210FC6
:101A6000E96E000E0320EA6EEFCF93F9ECCF94F904
:101A7000ECCF95F9ECCF8CF9956B7FC994F9976B06
:101A80000D0E966F000124EC04F001C093F9050ED1
:101A900009010124016E000E0220036E0150210F86
:101AA000E96E000E0320EA6EEFCF93F9ECCF94F9C4
:101AB000ECCF8DF9ECCF96F9956B7FC994F9976BC4
:101AC0000D0E966F000124EC04F001C093F9050E91
:101AD00009010124016E000E0220036E0150210F46
:101AE000E96E000E0320EA6EEFCF93F9ECCF8EF98A
:101AF000ECCF95F9ECCF96F9956B7FC994F9976B7C
:101B00000D0E966F000124EC04F001C093F9050E50
:101B100009010124016E000E0220036E0150210F05
:101B2000E96E000E0320EA6EEFCF8FF9ECCF94F947
:101B3000ECCF95F9ECCF96F965C390F99469936968
:101B4000090E966F810E956F100E976F0001E5DEFE
:101B500002C07EF901C07DF97EC994F97DC993F96F
:101B6000030E0901966F660E956F66C497F9000122
:101B7000D4DE02C07EF901C07DF909017F6B7F517F
:101B800010080FE3036A7F51800FE96E090E0320EE
:101B9000EA6EEFCF93F993510001EEDE09017F2B3E
:101BA000EED77F6B0401665109017F5D0FE2660E7F
:101BB0007F25E96E030EEA6ED8B0EA2AEFCF93F9DB
:101BC00093510001D9DE09017F2BECD77EC993F92F
:101BD00093510001D1DE7DC993F9090193510001B0
:101BE000CBDE120082C98DF9010E09018E6F000152
:101BF000ACDD84C987F984C990F992DD83C987F97E
:101C000083C990F98DDD86C987F986C990F988DD89
:101C100085C987F985C990F983DDABDD0901825358
:101C200029E00001C0DD015219E1FF0E05018927FD
:101C3000D8A08A27D8A08B27D8A08C27895309E160
:101C40008A5307E18B5305E18C53D8A402D00001DD
:101C500005D0040000000901E4D700010501895303
:101C600008E18A5306E18B5304E18C5302E10C0E28
:101C7000946F090105018C6B010E8B6F860E8A6FC4
:101C8000A00E896F94C501F000011200C580C5B097
:101C9000FED70400090E006E002EFED7000082C998
:101CA0008DF9E1EC02F083C98DF9E1EC02F0C58217
:101CB000C5B2FED70400090E006E002EFED700004C
:101CC000090182510109876F8D6F0001E1EC02F07B
:101CD000090186518607010810E085C9EAFF84C919
:101CE000E9FF010E006E0001E1EC06F001C0EFFF1C
:101CF0000901842BD8B4852BECD785C9EAFF84C9A8
:101D0000E9FF006A0001E1EC06F001C0EFFFC584C5
:101D1000C5B4FED712000901772D06D0785304E12F
:101D200000018FEC09F00901775327E1785325E191
:101D300000018FEC09F00701D9C703F0D851D82B67
:101D4000D8B4D92B09017D6FC80E7D25E96E060E2A
:101D50000320EA6E36C9EFFF0701D9C703F0D85157
:101D6000D82BD8B4D92B09017D6FC80E7D25E96E1B
:101D7000060E0320EA6E35C9EFFF7A6B7A513F08F1
:101D8000D8A082D30400640E0301646F0901956B2F
:101D90007AC994F9976B0D0E966F000124EC04F04C
:101DA00002C07EF901C07DF9210E09010124E96E0E
:101DB000000E0220EA6EEF5001E164D3036A7A510B
:101DC000370FE96E090E0320EA6EEF2A036A7A5193
:101DD000370FE96E090E0320EA6EEFCF7DF9956BA0
:101DE0007AC994F9976B0D0E966F000124EC04F0FC
:101DF00002C07FF901C07EF9030E09010124016EC2
:101E0000000E0220036E0150210FE96E000E032028
:101E1000EA6EEF507D5D02E235D308D0036A7A5155
:101E2000370FE96E090E0320EA6EEF6A7AC967F48C
:101E300036C969F435C968F4956B7AC994F9976B1A
:101E40000D0E966F000124EC04F002C07EF901C073
:101E50007DF9210E09010124E96E000E0220EA6ECF
:101E6000EF500708D8A008D2956B7AC994F9976B00
:101E70000D0E966F000124EC04F002C07EF901C043
:101E80007DF90C0E09010124016E000E0220036E83
:101E90000150210FE96E000E0320EA6EEF50010899
:101EA00008E1A796190EAF6EA60EAC6E900EAB6E43
:101EB00007D0A7960C0EAF6EA20EAC6E900EAB6E56
:101EC000956B7AC994F9976B0D0E966F000124EC0F
:101ED00004F002C07EF901C07DF9210E0901012440
:101EE000E96E000E0220EA6EEF50030818E0956BD1
:101EF0007AC994F9976B0D0E966F000124EC04F0EB
:101F000002C080F901C07FF9210E09010124E96EA8
:101F1000000E0220EA6EEF500408D8A4FCD0956BA6
:101F20007AC994F9976B0D0E966F000124EC04F0BA
:101F300002C07EF901C07DF9210E09010124E96E7C
:101F4000000E0220EA6EEF50040863E1956B7AC937
:101F500094F9976B0D0E966F000124EC04F002C00B
:101F60007EF901C07DF9040E09010124016E000E05
:101F70000220036E0150210FE96E000E0320EA6E6D
:101F8000EFCF7DF9956B7AC994F9976B0D0E966F2B
:101F9000000124EC04F001C07EF9090E09010124BE
:101FA000016E000E0220036E0150210FE96E000E3B
:101FB0000320EA6EECCF7FF9ED52EFCF7EF9956BFF
:101FC0007AC994F9976B0D0E966F000124EC04F01A
:101FD00002C081F901C080F90B0E09010124016ED4
:101FE000000E0220036E0150210FE96E000E032047
:101FF000EA6EEFCF85F97DC982F97FC984F97EC980
:1020000083F9866B0001E5EC0BF001C065F362D04B
:102010000901956B7AC994F9976B0D0E966F0001C3
:1020200024EC04F002C07EF901C07DF9040E090120
:102030000124016E000E0220036E0150210FE96E93
:10204000000E0320EA6EEFCF7DF9956B7AC994F903
:10205000976B0D0E966F000124EC04F001C07EF921
:10206000090E09010124016E000E0220036E0150C9
:10207000210FE96E000E0320EA6EECCF7FF9ED52DE
:10208000EFCF7EF9956B7AC994F9976B0D0E966F29
:10209000000124EC04F002C081F901C080F90B0EAC
:1020A00009010124016E000E0220036E0150210F70
:1020B000E96E000E0320EA6EEFCF85F97DC982F943
:1020C0007FC984F97EC983F9866B000139EC0CF075
:1020D00001C065F3030165531CE1010E0501925D2A
:1020E0000401666F010E0501925D09017D6F030E0B
:1020F000EA6E660EE96E050EE26E960EE16E7D5199
:10210000016E04E0E6CFEEFF012EFCD7000138DCC3
:102110000301B0D00901956B7AC994F9976B0D0E44
:10212000966F000124EC04F002C07EF901C07DF935
:10213000210E09010124E96E000E0220EA6EEF5023
:10214000010818E0956B7AC994F9976B0D0E966F9C
:10215000000124EC04F002C080F901C07FF9210ED7
:1021600009010124E96E000E0220EA6EEF50020818
:10217000D8A481D0956B7AC994F9976B0D0E966FA0
:10218000000124EC04F002C07EF901C07DF9040EC8
:1021900009010124016E000E0220036E0150210F7F
:1021A000E96E000E0320EA6EEFCF7DF9956B7AC9D8
:1021B00094F9976B0D0E966F000124EC04F001C0AA
:1021C0007EF9090E09010124016E000E0220036E42
:1021D0000150210FE96E000E0320EA6EECCF7FF96B
:1021E000ED52EFCF7EF9956B7AC994F9976B0D0E8E
:1021F000966F000124EC04F002C081F901C080F95F
:102200000B0E09010124016E000E0220036E015025
:10221000210FE96E000E0320EA6EEFCF85F97DC92C
:1022200082F97FC984F97EC983F9866B0001DADC03
:1022300001C065F3030165531DE1010E0501925DC7
:102240000401666F010E0501925D09017D6F030EA9
:10225000EA6E660EE96E050EE26E960EE16E7D5137
:10226000016E04E0E6CFEEFF012EFCD70001C0ECCA
:102270000CF003010901B0D0956B7AC994F9976B02
:102280000D0E966F000124EC04F002C07EF901C02F
:102290007DF9210E09010124E96E000E0220EA6E8B
:1022A000EF501708D8A098D0956B7AC994F9976B1E
:1022B0000D0E966F000124EC04F002C07EF901C0FF
:1022C0007DF9210E09010124E96E000E0220EA6E5B
:1022D000EF501008D8A480D0956B7AC994F9976B09
:1022E0000D0E966F000124EC04F002C07EF901C0CF
:1022F0007DF9040E09010124016E000E0220036E17
:102300000150210FE96E000E0320EA6EEFCF7DF938
:10231000956B7AC994F9976B0D0E966F000124ECBA
:1023200004F001C07EF9090E09010124016E000EBE
:102330000220036E0150210FE96E000E0320EA6EA9
:10234000ECCF7FF9ED52EFCF7EF9956B7AC994F916
:10235000976B0D0E966F000124EC04F002C081F91A
:1023600001C080F90B0E09010124016E000E02204C
:10237000036E0150210FE96E000E0320EA6EEFCFCD
:1023800086F97DC982F97EC983F9030E856F660ED1
:10239000846F00017BDC0301656B0901956B7AC9D1
:1023A00094F9976B0D0E966F000124EC04F001C0B8
:1023B0007DF90B0E09010124016E000E0220036E4F
:1023C0000150210FE96E000E0320EA6EEFCF66F494
:1023D0000001C0EC0CF00901775354E1785352E14D
:1023E00003016553D8B402D009014CD00701D9C705
:1023F00003F0D851D82BD8B4D92B09017D6FC80E62
:102400007D25E96E060E0320EA6E7AC9EFFF07010B
:10241000D9C703F0D851D82BD8B4D92B09017D6F77
:10242000C80E7D25E96E060E0320EA6E66C4EFFF36
:102430007C6B7B6B7C5326E10401665109017B5D5B
:1024400021E20701D9C77EF9D851D82BD8B4D92BAE
:1024500009017D6FC80E7D25016E060E7E21036E7B
:10246000660E7B25E96E030E7C21EA6EEFCF81F9C3
:1024700003C0EAFF01C0E9FF81C9EFFF7B2BD8B49D
:102480007C2BD8D77A2B7AD477530EE178530CE192
:102490000701D85305E1D953D8A402D0090104D0CB
:1024A000010E0601C76F0901352BD8B4362B7753BF
:1024B0000DE178530BE1010E0501875D0901776F8E
:1024C000000E050188590901786F04D07751D8B4FE
:1024D000780777070001ECEF1BF009018951030829
:1024E000D8A06AD104E18851E708D8A065D1893124
:1024F000036E8831026E033202320332023202C0AE
:102500008DF98851070B8E6F8D51400803E2020E42
:10251000016ECED18E51F80FD8B04DD1080F000109
:102520005BEF14F00901956B8DC994F9976B0D0E53
:10253000966F000124EC04F002C090F901C08FF9FD
:10254000210E09010124E96E000E0220EA6E8C6B57
:10255000EFCF8BF930D10901956B8DC994F9976B49
:102560000D0E966F000124EC04F002C090F901C03A
:102570008FF9010E09010124016E000E0220036E85
:102580000150210FE96E000E0320EA6EECCF8CF9AA
:10259000ED52EFCF8BF90FD10901956B8DC994F9ED
:1025A000976B0D0E966F000124EC04F002C090F9B9
:1025B00001C08FF9030E09010124016E000E0220F3
:1025C000036E0150210FE96E000E0320EA6E8C6B42
:1025D000EFCF8BF9F0D00901956B8DC994F9976B0A
:1025E0000D0E966F000124EC04F002C090F901C0BA
:1025F0008FF9040E09010124016E000E0220036E02
:102600000150210FE96E000E0320EA6E8C6BEFCFB4
:102610008BF9D1D00901956B8DC994F9976B0D0E8B
:10262000966F000124EC04F001C08FF9050E09013A
:102630000124016E000E0220036E0150210FE96E8D
:10264000000E0320EA6EEFCF8FF9ECCF90F9ECCFBC
:1026500091F9ECCF93F9956B8DC994F9976B0D0EA9
:10266000966F000124EC04F001C094F9050E0901F5
:102670000124016E000E0220036E0150210FE96E4D
:10268000000E0320EA6EEFCF94F9ECCF95F9ECCF72
:1026900096F9ECCF97F996C998F993C98CF996C930
:1026A0008BF989D00901956B8DC994F9976B0D0E43
:1026B000966F000124EC04F001C08FF9050E0901AA
:1026C0000124016E000E0220036E0150210FE96EFD
:1026D000000E0320EA6EEFCF8FF9ECCF93F9ECCF29
:1026E00091F9ECCF92F9956B8DC994F9976B0D0E1A
:1026F000966F000124EC04F001C094F9050E090165
:102700000124016E000E0220036E0150210FE96EBC
:10271000000E0320EA6EEFCF94F9ECCF95F9ECCFE1
:1027200096F9ECCF97F994C998F993C98CF994C9A3
:102730008BF941D00901956B8DC994F9976B0D0EFA
:10274000966F000124EC04F002C090F901C08FF9EB
:10275000090E09010124016E000E0220036E0150D2
:10276000210FE96E000E0320EA6EECCF8CF9ED52DA
:10277000EFCF8BF920D00901956B8DC994F9976B38
:102780000D0E966F000124EC04F002C090F901C018
:102790008FF90B0E09010124016E000E0220036E59
:1027A0000150210FE96E000E0320EA6E8C6BEFCF13
:1027B0008BF901D0090163D08851006E8951036EF5
:1027C000030E035C05E1E80E005C000132E0090144
:1027D000030E035C05E1E90E005C00012FE0090136
:1027E000030E035C05E1EA0E005C00012DE0090127
:1027F000030E035C05E1EB0E005C00012AE0090119
:10280000030E035C05E1EC0E005C000126E009010B
:10281000030E035C05E1ED0E005C000123E00901FD
:10282000040E035C05E14C0E005C00011FE0090191
:1028300023D009018C6B81C58BF921D083C58CF91C
:1028400082C58BF909011BD009018C6B520E8B6F6D
:1028500016D009018C6B8B6B12D009018C6B340E76
:102860008B6F0DD009018C6B8B6B09D085C58CF9F2
:1028700084C58BF9090103D0020E016E19D06A0ECE
:102880008A25E96E040EEA6ED8B0EA2A8CC9EFFFF9
:10289000010E8A256A0FE96E040EEA6ED8B0EA2AA4
:1028A0008BC9EFFF020E05018027000E016E0901A2
:1028B000000188EF14F0E824F76AF736D10FF66EBE
:1028C000280EF7220A00F550FA6E0800F550F96E4E
:1028D000242556259825D6251426A4263427762780
:1028E0000901846B836B8251835D17E2845315E188
:1028F00083518025856F000E8121866FD8908335A6
:10290000876F86C989F985C988F98A6F0001E5D57D
:1029100001C084F90901832BE6D784C901F00001C5
:1029200066EF16F0030163531BE009018451E808C8
:1029300009E18551030806E186C981F5000E016EA3
:1029400083D10DD08451E9080AE18551030807E1DC
:1029500087C983F586C982F5000E016E75D1030122
:10296000090185510308D8A002D104E18451E70888
:10297000D8A0FDD08531036E8431026E033202325D
:102980000332023202C088F98451070B896F8851E3
:10299000400803E2020E016E57D18951F80FD8B0FA
:1029A000E5D0080F000127EF16F00901956B88C9E3
:1029B00094F9976B0D0E966F000124EC04F002C0A1
:1029C0008DF901C08CF9210E09010124E96E000E78
:1029D0000220EA6E86C9EFFFC9D00901956B88C94C
:1029E00094F9976B0D0E966F000124EC04F002C071
:1029F0008DF901C08CF9010E09010124016E000E50
:102A00000220036E0150210FE96E000E0320EA6ED2
:102A100087C9ECFFED5286C9EFFFA8D00901956B7D
:102A200088C994F9976B0D0E966F000124EC04F0A1
:102A300002C08DF901C08CF9030E09010124016E59
:102A4000000E0220036E0150210FE96E000E0320DC
:102A5000EA6E86C9EFFF8AD00901956B88C994F99F
:102A6000976B0D0E966F000124EC04F002C08DF9F7
:102A700001C08CF9040E09010124016E000E022030
:102A8000036E0150210FE96E000E0320EA6E86C925
:102A9000EFFF6CD087C98BF986C98AF9090166D026
:102AA0000901956B88C994F9976B0D0E966F00011B
:102AB00024EC04F001C08CF9050E09010124016E1B
:102AC000000E0220036E0150210FE96E000E03205C
:102AD000EA6EEE528AC9ECFF8BC9ECFFED52ED5263
:102AE000ED5286C9EFFF87C9ECFF00010901956B24
:102AF00088C994F9976B0D0E966F000124EC04F0D1
:102B000002C08DF901C08CF9090E09018C25016EF6
:102B1000000E8D21036E0150210FE96E000E03207F
:102B2000EA6E87C9ECFFED5286C9EFFF1FD009019D
:102B3000956B88C994F9976B0D0E966F000124EC84
:102B400004F002C08DF901C08CF90B0E09010124BB
:102B5000016E000E0220036E0150210FE96E000E7F
:102B60000320EA6E86C9EFFF01D0090169D08451C4
:102B7000006E8551036E040E035C05E14C0E005C93
:102B8000000122E00901070E035C05E1CD0E005CA7
:102B900000011FE00901070E035C05E1CE0E005C99
:102BA000000118E00901070E035C05E1CF0E005C8F
:102BB000000120E009014E0E035C05E11F0E005CE0
:102BC000000126E0090139D087C985F586C984F559
:102BD00038D0FF0009018651CE0803E1875107086C
:102BE00003E0030E016E30D000010FEC04F05EEC48
:102BF00004F027D00901862D02D0875303E0030E8D
:102C0000016E22D00001E5EC03F035EC04F019D0A0
:102C1000090186510A0803E18751070806E003010C
:102C2000636B030E016E09010FD0010E0301636F88
:102C3000C80E646F000105D00901020E016E04D0B8
:102C40000001000E016E090100018BEF16F0E8246F
:102C5000F76AF736690FF66E2C0EF7220A00F55068
:102C6000FA6E0800F550F96EAA29DA291C2A582AAA
:102C7000942AA02AEC2A2E2B0501806B7751006E36
:102C80007851036E035005E1030E005C000117E06C
:102C90000501035005E1040E005C000110E0050190
:102CA000035005E1060E005C000113E0050103502E
:102CB00005E1070E005C000131E0050131D07AC565
:102CC00081F979C580F97BC582F90AD601C07FF503
:102CD0002AD06A0E05017C25E96E040EEA6ED8B092
:102CE000EA2AEFCF80F9010E7C256A0FE96E040E07
:102CF000EA6ED8B0EA2AEFCF81F980C983F981C999
:102D000082F97AC585F979C584F980C987F981C9BD
:102D100086F9000107D601C07FF505D004D0050172
:102D2000010E7F6F806B00010EEF1BF082C98DF9E1
:102D3000020E09018E6F0001A5EC0BF084C987F922
:102D400084C990F990EC0BF083C987F983C990F995
:102D500090EC0BF086C987F986C990F990EC0BF0DE
:102D600085C987F985C990F990EC0BF0B9EC0BF0A7
:102D7000090182532AE00001D3EC0BF0015219E162
:102D8000FF0E05018927D8A08A27D8A08B27D8A0B5
:102D90008C27895309E18A5307E18B5305E18C5352
:102DA000D8A402D0000105D0040000000901E3D737
:102DB00000010501895308E18A5306E18B5304E1C0
:102DC0008C5302E10C0E946F090105018C6B010E0E
:102DD0008B6F860E8A6FA00E896F94C501F000017B
:102DE000DBEF18F083C98DF9050E09018E6F000124
:102DF000A5EC0BF085C987F985C990F990EC0BF02B
:102E000084C987F984C990F990EC0BF009018653C5
:102E100006E09069000190EC0BF005D00901906B81
:102E2000000190EC0BF00901906B000190EC0BF0AD
:102E3000B9EC0BF0090183532AE00001D3EC0BF04D
:102E4000015219E1FF0E05018927D8A08A27D8A0D1
:102E50008B27D8A08C27895309E18A5307E18B532C
:102E600005E18C53D8A402D0000105D00400000075
:102E70000901E3D700010501895308E18A5306E1FE
:102E80008B5304E18C5302E10C0E946F0901050190
:102E90008C6B010E8B6F860E8A6FA00E896F94C5A6
:102EA00001F000011CEF19F086C98DF9060E090129
:102EB0008E6F0001A5EC0BF088C98BF988C990F9D9
:102EC00090EC0BF087C98BF987C990F990EC0BF067
:102ED0008AC98BF98AC990F990EC0BF089C98BF9F2
:102EE00089C990F990EC0BF0B9EC0BF0090186530D
:102EF0002AE00001D3EC0BF0015219E1FF0E0501AD
:102F00008927D8A08A27D8A08B27D8A08C278953B7
:102F100009E18A5307E18B5305E18C53D8A402D011
:102F2000000105D0040000000901E3D700010501FC
:102F3000895308E18A5306E18B5304E18C5302E183
:102F40000C0E946F090105018C6B010E8B6F860EC0
:102F50008A6FA00E896F94C501F0000147EF19F048
:102F6000D89009018735026E883502C08CF984C972
:102F70008DF9100E8E6F0001A5EC0BF086C98DF94E
:102F800086C990F990EC0BF085C98DF985C990F947
:102F900090EC0BF088C98DF988C990F990EC0BF092
:102FA00087C98DF987C990F990EC0BF08CC990F91D
:102FB00090EC0BF009018B6B885303E187518B5D1B
:102FC00034E2036A8BC902F0D8900236033602500D
:102FD0008925E96E8A510320EA6EECCF8EF9ED5215
:102FE000EFCF8DF98DC98FF98DC990F9000190EC63
:102FF0000BF0036A09018BC902F0D8900236033640
:1030000002508925E96E8A510320EA6EECCF8EF9D1
:10301000ED52EFCF8DF98EC98FF98EC990F900016D
:1030200090EC0BF009018B2BC7D70001B9EC0BF02A
:10303000090184532AE00001D3EC0BF0015219E19D
:10304000FF0E05018927D8A08A27D8A08B27D8A0F2
:103050008C27895309E18A5307E18B5305E18C538F
:10306000D8A402D0000105D0040000000901E3D774
:1030700000010501895308E18A5306E18B5304E1FD
:103080008C5302E10C0E946F090105018C6B010E4B
:103090008B6F860E8A6FA00E896F94C501F00001B8
:1030A00066EF19F0C580C5B0FED70400090E006EAA
:1030B000002EFED7000088C98DF9E1EC02F089C925
:1030C0008DF9E1EC02F08BC98CF98BC98DF9E1EC3B
:1030D00002F08AC98CF98AC98DF9E1EC02F0C58445
:1030E000C5B4FED7FCEF19F005017853D8A428D158
:1030F00077510708D8A024D17751006E7851036E1C
:10310000035004E10052000135E00501035005E1E0
:10311000010E005C00012FE00501035005E1020EE5
:10312000005C00013CE00501035005E1030E005C7A
:10313000000148E00501035005E1040E005C0001B8
:1031400055E00501035005E1050E005C000162E059
:103150000501035006E1060E005C0001D8B473D0EF
:103160000501035006E1070E005C0001D8B496D0BB
:103170000501B4D045D175C582F97AC584F979C500
:1031800083F90901866B7BC585F90001F2EC0DF02E
:1031900001C07FF5010E0901806F05019FD075C543
:1031A00082F97AC584F979C583F90901866B7BC5F3
:1031B00085F90001BBD501C07FF5010E0901806FC3
:1031C00005018CD075C582F97AC584F979C583F972
:1031D0000901866B7BC585F9000139EC0CF001C053
:1031E0007FF5010E0901806F050178D075C582F960
:1031F0007AC584F979C583F90901866B7BC585F9A0
:103200000001E5EC0BF001C07FF5010E0901806FB4
:10321000050164D06A0E05017C25E96E040EEA6E94
:10322000D8B0EA2AEFCF86F975C583F97AC585F952
:1032300079C584F90001D6D501C07FF5020E0901D8
:10324000806F05014BD06A0E05017C25E96E040EE6
:10325000EA6ED8B0EA2AEFCF82F9010E7C256A0F18
:10326000E96E040EEA6ED8B0EA2AEFCF83F982C97C
:1032700085F983C984F975C586F97AC588F979C550
:1032800087F982C98AF983C989F900010DD601C07D
:103290007FF5020E0901806F0001B2D06A0E0501B0
:1032A0007C250901826F040E836FD8B0832B75C50E
:1032B00084F97AC586F979C585F9886B7BC587F964
:1032C00083C98AF982C989F900014AD601C07FF50C
:1032D000020E0901806F000193D005010901802DC4
:1032E0001DD005017F53D8B402D0090117D0010EBB
:1032F000925D806F010E925D0901826F040EEA6E8D
:103300006A0EE96E050EE26E960EE16E8251016E56
:1033100004E0E6CFEEFF012EFCD710D0805102086A
:103320000DE105017F53D8B402D0090107D0020E88
:10333000806F98C56AF499C56BF4090160D00501E6
:1033400078535EE1775117085BE37751100815E178
:10335000785313E175C582F979C583F9040E090123
:10336000856F6A0E846F7BC586F9000146EC0EF00E
:103370007BC580F505017F6B43D07751150840E18F
:1033800078533EE10901816B05017B510901815DA3
:1033900036E2D8908135050179250901826F000E4A
:1033A00005017A210901836FD890813505017C25BB
:1033B0006A0FE96E040EEA6ED8B0EA2AEFCF84F9FC
:1033C000D8900901813505017C25010F6A0FE96E4E
:1033D000040EEA6ED8B0EA2AEFCF85F984C987F9DE
:1033E00085C986F975C588F982C989F984C98BF9B7
:1033F00085C98AF9000156D60901812BC5D7050177
:10340000000112EF1BF0230E0901806F81C581F9C5
:1034100083C582F9090182C583F909018469140E03
:10342000856F0D0E05018025020F09018D6F8E6BD2
:10343000D8B08E2B8EC986F98DC987F970C588F9E9
:1034400009016FC589F909016EC58AF909016DC5C0
:103450008BF909017FC58CF994699369090E966F00
:10346000810E956F0C0E976F00018DEC0CF002C071
:103470008EF901C08DF98EC994F98DC993F9040EA6
:103480000901966F6A0E956F80C597F900018DEC62
:103490000CF002C08EF901C08DF99290898009016B
:1034A0008F6B8F510C0810E3036A8F51800FE96E08
:1034B000090E0320EA6EEFCF90F990510001BCECA9
:1034C0000CF009018F2BEDD78F6B0501805109019D
:1034D0008F5D10E26A0E8F25E96E040EEA6ED8B099
:1034E000EA2AEFCF90F990510001BCEC0CF00901F1
:1034F0008F2BEBD78EC990F990510001BCEC0CF0EA
:103500008DC990F9090190510001BCEC0CF00A0E34
:103510000901906F000145EC03F09290899013EF40
:103520001BF06EC46CF5020E05016C5D6A0FE96E4E
:10353000040EEA6ED8B0EA2AEFCF7EF5010E6C5D7C
:103540006A0FE96E040EEA6ED8B0EA2AEFCF7DF575
:10355000030E6C5D0901806F94699369040E966F88
:103560006B0E956F80C997F900018DEC0CF002C0CD
:103570007FF901C07EF905017D5109017E5D05E1FC
:1035800005017E5109017F5D01E04ED004016F51BC
:10359000130803E0090148D0040170C470F571C438
:1035A0006FF572C46EF573C46DF574C474F575C4AB
:1035B00073F576C472F577C471F578C476F579C47D
:1035C00075F57AC478F57BC477F57CC47AF57DC44B
:1035D00079F57EC47BF5150E05017C6F806B0901C2
:1035E0007D6B81C57CF982C57AF983C57BF90501BC
:1035F000715109017A5D14E10501725109017B5D88
:103600000FE10501735109017C5D0AE10501745167
:1036100009017D5D05E100013CEF16F003D00901D1
:10362000000162D5F0D609010001F2EF1BF0F86A43
:10363000D09E078E620ED36E9B6A646A206AB9863A
:10364000220E7B6E000E7C6EA60EBA6E900EA66EDB
:1036500094869488040EC86E280EC66EC79EC79CBA
:10366000A7960C0EAF6EA20EAC6E900EAB6E05015F
:103670008C6B010E8B6F860E8A6FA00E896F8D91F9
:103680008E6B0901286B276B0F015C51800B5C6FFF
:10369000000E5D6FC196C198C19A5E6B5F6B0AD0D8
:1036A00002001A0000FF469400FFC00095C00050C1
:1036B00049290000000EF86E360EF76EA00EF66E69
:1036C0000900F550006E000A13E00900F550016E84
:1036D000E8BE05D03F0BEA6E0900F5CFE9FF01BC5B
:1036E000090001AC0900F5CFEEFF004EE9D7F9D78C
:1036F000F86A00015DEF03F00901796B79519508D3
:1037000013E30400939A8A8A640E906F000145ECDB
:1037100003F0939A8A9A640E0901906F000145ECB8
:1037200003F00901792BEAD7C00EF21200010FEC69
:1037300004F05EEC04F0FAEF04F021EF05F050EF36
:1037400005F05CEC05F00400050186533CE008013F
:10375000E25301E0E26B0601945309E0C75307E12D
:10376000000106EF06F00601946BC65300E0080165
:10377000E45311E109012653D8B402D008010BD05B
:10378000000125EC07F00152D8A402D0080103D0B3
:103790002EEF07F008010601C12D04D00001A0EFB3
:1037A00007F00601C7530AE00701DD53D8B402D081
:1037B000060104D0000196EF09F006010701DC2D97
:1037C00001D0DC6B05010301615307E0616BC80E9A
:1037D000646F00018BEF0EF0030105016B5305E0F0
:1037E00000019FD6DCEC02F005010001ACD703001C
:020000040030CA
:0E00000015086727000991000FC000E00040BE
:00000001FF
;PIC18F25K80
;CRC=42A2  CREATED="06-Nov-23 02:43"
