:040000006AEF28F08B
:08000800046ED8CF05F0E0CF33
:1000100006F00001E9CF0CF0EACF07F0E1CF08F0DD
:10002000E2CF09F0D9CF0AF0DACF0BF0F3CF12F01C
:10003000F4CF13F0FACF14F0F5CF15F0F6CF16F099
:10004000F7CF17F000C00EF001C00FF002C010F0A3
:1000500003C011F09DA230EF00F09EB240EF02F01D
:100060009DAA36EF00F09EBA7AEF02F0A3AA3CEF09
:1000700000F0A4BA92EF03F0B6AE42EF00F0B7BEC4
:1000800057EF03F00EC000F00FC001F010C002F0F7
:1000900011C003F00CC0E9FF07C0EAFF078E08C0DB
:1000A000E1FF09C0E2FF0AC0D9FF0BC0DAFF12C0AE
:1000B000F3FF13C0F4FF14C0FAFF15C0F5FF16C01C
:1000C000F6FF17C0F7FF045006C0E0FF05C0D8FFD9
:1000D0001000F76AE20FF66E000EF7220900F550E5
:1000E000120000C1814001C0804101C0804100C1B7
:1000F000814001C0804100C1814000C1814001C0F8
:10010000804101C0804100C1814000C1814001C0E7
:10011000804100C1814001C0804101C0804100C1D7
:10012000814001C0804100C1814000C1814001C0C7
:10013000804100C1814001C0804101C0804100C1B7
:10014000814000C1814001C0804101C0804100C1A7
:10015000814001C0804100C1814000C1814001C097
:10016000804101C0804100C1814000C1814001C087
:10017000804100C1814001C0804101C0804100C177
:10018000814000C1814001C0804101C0804100C167
:10019000814001C0804100C1814000C1814001C057
:1001A000804100C1814001C0804101C0804100C147
:1001B000814001C0804100C1814000C1814001C037
:1001C000804101C0804100C1814000C1814001C027
:1001D000804100C1814001C0804101C0804100C117
:1001E0008140F76AF20FF66E010EF7220900F55012
:1001F000120000C0C101C30302C2C60607C705C57D
:10020000C404CC0C0DCD0FCFCE0E0ACACB0BC9093E
:1002100008C8D81819D91BDBDA1A1EDEDF1FDD1D4E
:100220001CDC14D4D515D71716D6D21213D311D17E
:10023000D010F03031F133F3F23236F6F737F535CE
:1002400034F43CFCFD3DFF3F3EFEFA3A3BFB39F9FE
:10025000F83828E8E929EB2B2AEAEE2E2FEF2DEDCE
:10026000EC2CE42425E527E7E62622E2E323E1213E
:1002700020E0A06061A163A3A26266A6A767A5654E
:1002800064A46CACAD6DAF6F6EAEAA6A6BAB69A9BE
:10029000A86878B8B979BB7B7ABABE7E7FBF7DBDCE
:1002A000BC7CB47475B577B7B67672B2B373B171FE
:1002B00070B05090915193535292965657975595CE
:1002C00094549C5C5D9D5F9F9E5E5A9A9B5B99597E
:1002D0005898884849894B8B8A4A4E8E8F4F8D4D4E
:1002E0004C8C4484854587474686824243834181BE
:1002F00080402320726561645F706172616D5F662A
:10030000696C6520435243206D69732D6D61746380
:10031000682E2057726974696E67206E6577206455
:10032000656661756C74210D0A0023206469736130
:10033000626C696E6720616C6C20646576696365C8
:10034000730D0A00232077726974655F64657669AE
:1003500063655F66696C6528290D0A002320726554
:1003600061645F6465766963655F66696C65206377
:1003700072633D25750D0A002320726561645F6418
:1003800065766963655F66696C6520435243206DDD
:1003900069732D6D617463682E2057726974696E7C
:1003A00067206E65772064656661756C74210D0A3F
:1003B0000000232064756D70696E6720616C6C208D
:1003C000656E61626C656420646576696365733A25
:1003D0000D0A00006465766963655B25755D0D0A2D
:1003E000000009747970653D25750D0A00000974D7
:1003F00072616E736D697445766572793D25750D10
:100400000A00096E6574776F726B4164647265737C
:10041000733D25750D0A00000973657269616C4EA4
:10042000756D6265723D30782530327825303278CE
:1004300025303278253032780D0A00000973746156
:10044000727452656769737465723D256C750D0A27
:100450000000096E5265676973746572733D257596
:100460000D0A00002320646F6E650D0A00009D9246
:1004700009019D5303E0CC6A9E929D820001120007
:100480000501905102080AE1915308E1925306E1F7
:100490008FB104D0020E945F8F8101D08F91926949
:1004A0009169906B09019D6B0001E1DF9E9242EF23
:1004B00000F09EAAFED7ABCF20F0AECF01F020A275
:1004C00002D0AB98AB8812000501925109019D1929
:1004D0009E6F036A9E510001FCDD016E0501915182
:1004E0000118926F036A09019E5100017ADEE8CF7C
:1004F00091F51200DEDF01C09CF905018FB12BD010
:10050000905308E1926991699CC993F5902B946B83
:10051000966B17D0902D04D09CC995F5902B11D0D7
:10052000905102080EE1943D02D0FE0E946F970E9A
:100530009425E96E050EEA6ED8B0EA2A9CC9EFFF51
:10054000942B9CC99DF90001BFDF010E09019D6F2D
:1005500000018DDF05019E9A000142EF00F023208B
:1005600073626469785F6D6F5F7374617475732013
:1005700020203D2025640A00232073626469785F8F
:100580006D6F5F6D736E2020202020203D20256C34
:10059000750A0000232073626469785F6D745F736D
:1005A00074617475732020203D2025640A00232087
:1005B00073626469785F6D745F6D736E20202020B4
:1005C00020203D20256C750A000023207362646999
:1005D000785F6D745F6C656E6774682020203D20C5
:1005E000256C750A0000232073626469785F6D745E
:1005F0005F7175657565642020203D2025640A00C3
:10060000415445300D004154264B300D00004154FB
:100610002B5342444D54413D310D000041542B4376
:100620005249530D0000415445300D004154264BB2
:10063000300D000041542B5342444D54413D310D87
:10064000000041542B53424457423D256C750D0028
:1006500041542B53424449580D0041542B534244BA
:1006600044300D00415445300D004154264B300DAF
:10067000000041542B5342444D54413D310D000084
:1006800041542B53424452420D0023206C3D256CB3
:100690007520723D256C750D0A0023206D745F6214
:1006A0007566665B256C755D3D25630D0A00090165
:1006B0002D2B2D5164081AE12D6B2E2BD8B42F2B26
:1006C0000501855109012F5D0CE305E10501845108
:1006D00009012E5D06E32F6B2E6B010E0301616F86
:1006E00009010701DD5301E0DD0709010301623D56
:1006F00001D001D0622B645303E1939A8A9A03D00C
:10070000939A8A8A6407B79E000142EF00F0A4AA78
:10071000FED7A6CF20F07ACF01F020A202D0A69873
:10072000A688120005016B5303E00001F0DF05010C
:10073000030162510A0803E205016A6B0301626B5F
:1007400005016A5338E131C930F932C931F933C989
:1007500032F934C933F90001DADF01C034F9090193
:100760003051230826E131510501815DD8B402D012
:1007700009011FD032C903F0090133510501825D1F
:10078000D8B402D0090115D00350835DD8B402D08B
:1007900009010FD09292898230C96AF431C96BF491
:1007A00032C96CF433C96DF434C96EF4050E6A6F46
:1007B00009011FD005016A516A2B6A0FE96E040E08
:1007C000EA6ED8B0EA2AEACF9FF9E9CF9EF9000194
:1007D0009EDF9FC9EAFF9EC9E9FF01C0EFFF040148
:1007E0006E5105016A5D04E192928972010E6B6F90
:1007F0000901A49A000142EF00F02320717565728F
:10080000795F6F7468657228290D0A00232071755D
:100810006572792066756E6374696F6E3D256C75BF
:100820000D0A0000232071756572795F6F74686529
:100830007220666F7220493243206E6574776F7242
:100840006B5F6164726573733D256C752C207374E6
:100850006172745F616464726573733D256C7520A9
:100860006E5F776F7264733D25750D0A000023205B
:100870004445565F545950455F4932435F524541A4
:10088000445F380D0A0023204445565F54595045B3
:100890005F4932435F57524954455F31360D0A0074
:1008A000232077726974696E672030782530346C44
:1008B0007820746F2049324320646576696365202F
:1008C00030782530327820617420616464726573F9
:1008D0007320256C750D0A002320756E2D696D70CF
:1008E0006C656D656E746564204932432071756571
:1008F00072792066756E6374696F6E0D0A0023202D
:1009000071756572795F73656C665F77726974651E
:100910005F72656769737465722061646472657380
:10092000733D256C752076616C75653D256C750D84
:100930000A00232077726974696E672064656661B6
:10094000756C742066696C65730D0A002320636FF3
:100950006E6669672E6C6976655F696E746572761E
:10096000616C3D256C750D0A00002320666163747F
:100970006F727920756E6C6F636B65640D0A000091
:10098000232071756572795F73656C665F7265614E
:10099000645F726567697374657228616464726507
:1009A00073733D256C752C206E3D25752C2072656A
:1009B00073756C743D256C752C2071756572792E7C
:1009C000726573756C744C656E6774683D25752926
:1009D0000D0A0000232071756572795F73656C667E
:1009E0005F726561645F72656769737465727320B5
:1009F00028616464726573733D256C752C206E529A
:100A000065676973746572733D2575290D0A000069
:100A1000232071756572795F73656C665F726561BD
:100A2000645F72656769737465727320726574754B
:100A3000726E696E6720653D25750D0A00002320E2
:100A400071756572795F73656C6628207175657262
:100A5000792E66756E6374696F6E3D256C752C20FA
:100A600071756572792E73746172745F61646472FA
:100A70006573733D256C752C2071756572792E6ECA
:100A80005F776F7264733D2575290D0A000023207E
:100A9000696E2071756572795F70726F63657373CB
:100AA00028290D0A000023204352432030782530A6
:100AB000346C5820213D2030782530346C58202863
:100AC0004C4F43414C290D0A000023206E6F7420C7
:100AD00071756572792074797065203139202E2EF8
:100AE0002E20646F6E2774206B6E6F7720686F778F
:100AF00020746F2068616E646C65210D0A002320EC
:100B000020206F75722073657269616C3D256325C5
:100B10006C750D0A0000232071756572792073656C
:100B20007269616C3D2563256C750D0A00002320F8
:100B30006932632064657669636520746F2071751E
:100B40006572790D0A006465766963655B25755D7C
:100B50000D0A000009747970653D25750D0A0000C5
:100B6000097472616E736D697445766572793D259D
:100B7000750D0A00096E6574776F726B416464725B
:100B80006573733D3078253032780D0A00000973A3
:100B9000657269616C4E756D6265723D30782530A5
:100BA00032782530327825303278253032780D0A87
:100BB00000000973746172745265676973746572B9
:100BC0003D256C750D0A0000096E526567697374E6
:100BD0006572733D25750D0A00002320726567203C
:100BE000616464725B3078253032785D3D30782501
:100BF00030327820282575290D0A000023206C6FDB
:100C000063616C2064657669636520746F2071751B
:100C10006572790D0A002320726454617020257377
:100C200020282563256C75290D0A0000342D4E6F90
:100C3000762D323300002320726573746172742044
:100C400063617573653A20005744542054494D45FB
:100C50004F5554004D434C522046524F4D20534C5B
:100C6000454550004D434C522046524F4D20525561
:100C70004E004E4F524D414C20504F57455220553B
:100C8000500042524F574E4F5554205245535441F5
:100C9000525400005744542046524F4D20534C4567
:100CA00045500000524553455420494E5354525527
:100CB0004354494F4E00554E4B4E4F574E21000066
:100CC00023207362642E72696E675F666C61673D94
:100CD000310D0A0023207362642E73626469785FA9
:100CE000726573706F6E73653D272573270D0A005B
:100CF00023206D74206D6573736167652072656371
:100D00006569766564210D0A0000232073746172A1
:100D100074696E672071756572795F70726F636553
:100D2000737328290D0A000023207374617274699B
:100D30006E672071756572795F72657365742829B5
:100D40000D0A000005016A6B6B6B00011200C69E64
:100D50009E968DC9C9FF020EC6BE05D09EA6FED7BF
:100D6000000EC5BC010E016E1200C580C5B0FED7D5
:100D70000400090E006E002EFED700009A0E090135
:100D80008D6F0001E4DF090188358A6F8A378A3761
:100D9000F80E8A178AC98DF90001D9DF89C98DF942
:100DA000D6DFC584C5B4FED71200030E0901886FD3
:100DB000800E896F0001D9DF0901886B7AC989F932
:100DC0000001D3DF010E0901886F896B0001CDDFBF
:100DD000030E0901886FBF0E896F0001C6DF020E86
:100DE0000901886F100E896F0001BFDF030E090132
:100DF000886F896F0001B9DF010E0901886F896B67
:100E00000001B3DF020E0901886F070E896F000130
:100E1000ACDF53EF07F0090EEA6E900EE96EEF506B
:100E200011E0020E016EBF0E006E0400002EFDD711
:100E3000012EF9D7960E006E002EFED700D00400CA
:100E4000EF2EEFD71200620ED36E9B6A646A0F0119
:100E50005C51800B5C6F000E5D6FC196C198C19AAA
:100E6000D1805D691F0E5C6FF00EBB1650174D17D9
:100E70004A174717949A8B9A780E0609886E4D0E7A
:100E8000A96EB68E010E0301616F6269636B646BBC
:100E9000000158DFA38A0501865306E0060E09010A
:100EA0007A6F000182D705010E0E0901906F0001D3
:100EB000B2DFCCEF28F00900F6CF93F9F7CF94F921
:100EC000F550A4A8FED7796E93C9F6FF94C9F7FF31
:100ED0000901922F01D002D00001EDD700011200CC
:100EE0000900F5520DE0F6CF8DF9F7CF8EF9F550E8
:100EF000A4A8FED7796E8DC9F6FF8EC9F7FFF0D78B
:100F00001200EACF97F9E9CF96F909019039F00973
:100F1000926F9227E20F936F320F956F90510F0BE4
:100F2000932793279527E90F946F942794278F3958
:100F30000F0B9427952794379537951F95378F5129
:100F40000F0B95279237070E916F0A0E940795277E
:100F5000FDE393079427FDE392079327FDE39107B1
:100F60009227FDE3090EEA6E910EE96E070E9615C3
:100F7000969DE926000EEA22E950950804E1EA5020
:100F8000090801E1968DEF50006E08E196BD06D08C
:100F900096B90CD096B702D0200E03D096879699BA
:100FA000300E00260050A4A8FED7796EEE5096AD04
:100FB000E3D7000112000901966B95C998F9945185
:100FC000D8B495079407976F975302E198533FE081
:100FD000040093C903F09251E96E03C0EAFFEFCF1A
:100FE00097F996C998F997C999F998519919016E85
:100FF00001C096F99151036E9051902BD8B4912B6A
:10100000976F03C098F99351036E9251922BD8B405
:10101000932BE96E03C0EAFFEFCF99F9F250006E0F
:10102000F29E98C975FF97C974FF99C973FF7F9C99
:101030007F9E7F840F01550E7E6EAA0E7E6E7F828C
:101040007FB2FED77F940050F2120901B6D796C93D
:1010500001F000011200050E09018E6F810E8D6FE7
:10106000916B040E906F8EC993F98DC992F9956BAF
:10107000080E946F00019FDF01C08CF9F250006EE2
:10108000F29E756A746A8CC973FF7F9C7F9E7F8411
:101090000F01550E7E6EAA0E7E6E7F827FB2FED746
:1010A0007F940050F21200011200960E0301646F4B
:1010B000410E0501816F120E836FC00E826F856B2A
:1010C0003C0E846F010E866F886B3C0E876F0001AB
:1010D000C2DF1200090194519603F3CF01F0F4CF5F
:1010E00000F09703F350002695519603F35000202B
:1010F000026E000112000901210E8E6F916B800EAD
:10110000906F936B8EC992F9030E956F400E946F9A
:10111000000151DF01C08DF9F250006EF29E756A38
:10112000020E746E8DC973FF7F9C7F9E7F840F01BA
:10113000550E7E6EAA0E7E6E7F827FB2FED77F94A2
:101140000050F21200011200960E0301646F2A0E85
:10115000F66E030EF76E0001C3DE09018C6B8C5135
:101160003F0812E3956B8CC994F9976B0D0E966F3F
:101170000001B0DF210E09010124E96E000E0220FA
:10118000EA6EEF6A8C2BEBD7100E216E7D0E236E6C
:10119000226A010E246E3E0E256E296A410E286ECB
:1011A000120E276EC10E266E2B6A2A6A060E2C6E50
:1011B000100E2E6E7D0E306E2F6A010E316E360EC1
:1011C000326E366A410E356E120E346EC20E336EBA
:1011D000386A376A200E396E100E3B6E7D0E3D6EFA
:1011E0003C6A010E3E6E380E3F6E436A410E426EFF
:1011F000120E416EC30E406E456A446A200E466E62
:10120000440EF66E030EF76E00016ADE74DF120004
:101210000901836B82C985F98151D8B4820781079E
:10122000846F845302E1855332E080C903F07F511B
:10123000E96E03C0EAFF7E51036E7D517D2BD8B469
:101240007E2B866F03C087F9F2CF88F9F29E87C99B
:1012500075FF86C974FF7F9C7F9E7F80735088BF17
:10126000F28EEF6E80C903F07F51E96E03C0EAFF92
:10127000EFCF84F983C998F984C999F998519919DC
:10128000016E01C083F97F2BD8B4802BC3D783C9EB
:1012900001F000011200050E09017C6F810E7B6FC9
:1012A0007E6B040E7D6F7CC980F97BC97FF9826BF0
:1012B000080E816F0001ACDF01C07AF9F2CF7BF933
:1012C000F29E756A746A7F9C7F9E7F8073500901CD
:1012D0007BBFF28E7A5D08E0F20EF66E020EF76EBC
:1012E0000001FEDDE2DE0901000175EF29F00901D0
:1012F0009251016A915D03E291C900F00CD0006A3D
:10130000080E936F913700369251005CD8B0006E92
:101310000136932FF7D70001120001508FC991F9C0
:10132000640E0901926F0001E2DF00C08FF90150E5
:10133000300E08E1090190A30ED090B70CD090B9FF
:10134000200E04D0090190979099908101260150B8
:10135000A4A8FED7796E8FC991F90A0E926F000189
:10136000C6DF00C08FF90150300E08E1090190B7C7
:101370000BD090A109D090B9200E00010126015098
:10138000A4A8FED7796E0901300E8F278F51A4A82B
:10139000FED7796E000112000901210E7B6F7E6B72
:1013A000800E7D6F806B7BC97FF9030E826F400ECC
:1013B000816F00012DDF01C07AF95C0EF66E030E1D
:1013C000F76E170E0901926F000175DD7AC98FF96A
:1013D0001B0E0901906F0001A0DF0D0EA4A8FED71F
:1013E000796E0A0EA4A8FED7796EF2CF7BF9F29E31
:1013F000756A020E746E7F9C7F9E7F807350090118
:101400007BBFF28E7A5D08E0780EF66E030EF76E03
:10141000000166DD99DE0901000177EF29F09EAA3F
:1014200003D059EC02F0FBD7AE50949A8B9A9D8A68
:101430001200949A8B9AF3DF480E0609CA6EF90ED1
:10144000CB6EC00EF21279EF29F0090193BF10D0D4
:101450000F0E006E923900160A0E005C03E2300E89
:10146000002602D0935100260050A4A8FED7796E22
:101470000F0E92170A0E925D02E2300E02D0939F79
:10148000935192279251A4A8FED7796E00011200C1
:10149000B20EF66E030EF76E23DD09017A6B7A51F8
:1014A0000F08D8A0D9D10400956B7AC994F9976B2D
:1014B0000D0E966F00010EDE02C07CF901C07BF9B3
:1014C000210E09010124E96E000E0220EA6EEF50A0
:1014D00001E1C0D1D40EF66E030EF76E070E926FC7
:1014E0000001E9DC7AC98FF91B0E0901906F000138
:1014F00014DFDD0EF66E030EF76E030E0901926F18
:101500000001D9DC0901956B7AC994F9976B0D0E2E
:10151000966F0001DFDD02C07CF901C07BF9210E6E
:1015200009010124E96E000E0220EA6EEFCF7DF979
:10153000E20EF66E030EF76E060E926F0001BBDC34
:101540007DC98FF91B0E0901906F0001E6DE0D0EBB
:10155000A4A8FED7796E0A0EA4A8FED7796E090159
:10156000956B7AC994F9976B0D0E966F0001B2DDF9
:1015700002C07CF901C07BF9030E09010124016E50
:10158000000E0220036E0150210FE96E000E0320B1
:10159000EA6EEFCF7BF9EE0EF66E030EF76E0F0ECE
:1015A000926F000188DC7BC98FF91B0E0901906FD7
:1015B0000001B3DE0D0EA4A8FED7796E0A0EA4A812
:1015C000FED7796E0901956B7AC994F9976B0D0E68
:1015D000966F00017FDD02C07CF901C07BF9040E2B
:1015E00009010124016E000E0220036E0150210F3B
:1015F000E96E000E0320EA6EEFCF7BF9020EF66E65
:10160000040EF76E100E926F000155DC7BC98FF946
:101610001B0E0901906F000180DE0D0EA4A8FED7FD
:10162000796E0A0EA4A8FED7796E0901956B7AC966
:1016300094F9976B0D0E966F00014CDD01C07BF99C
:10164000050E09010124016E000E0220036E0150F7
:10165000210FE96E000E0320EA6EEFCF7BF9ECCF8D
:101660007CF9ECCF7DF9ECCF7FF9956B7AC994F9D1
:10167000976B0D0E966F00012DDD01C080F9050EF0
:1016800009010124016E000E0220036E0150210F9A
:10169000E96E000E0320EA6EEFCF80F9ECCF81F9FE
:1016A000ECCF84F9ECCF83F9956B7AC994F9976BF9
:1016B0000D0E966F00010EDD01C085F9050E0901C2
:1016C0000124016E000E0220036E0150210FE96E0D
:1016D000000E0320EA6EEFCF85F9ECCF89F9ECCF4D
:1016E00087F9ECCF88F9956B7AC994F9976B0D0E51
:1016F000966F0001EFDC01C08AF9050E0901012493
:10170000016E000E0220036E0150210FE96E000EE3
:101710000320EA6EEFCF8EF9ECCF8BF9ECCF8CF98A
:10172000ECCF8DF9180EF66E040EF76E100E926F58
:1017300000015BEC07F07FC992F9570E0901936F26
:10174000000183DE84C992F9570E0901936F0001ED
:101750007CDE89C992F9570E0901936F000175DE8D
:101760008EC992F9570E0901936F00016EDE0D0EBE
:10177000A4A8FED7796E0A0EA4A8FED7796E090137
:10178000956B7AC994F9976B0D0E966F0001A2DCE8
:1017900001C07BF9090E09010124016E000E02202F
:1017A000036E0150210FE96E000E0320EA6EECCFAC
:1017B0007CF9ED52EFCF7BF93C0EF66E040EF76E1E
:1017C0000F0E926F00015BEC07F0100EE96E7CC902
:1017D00090F97BC98FF981EC07F00D0EA4A8FED714
:1017E000796E0A0EA4A8FED7796E0901956B7AC9A5
:1017F00094F9976B0D0E966F00016CDC02C07CF9BA
:1018000001C07BF90B0E09010124016E000E0220BC
:10181000036E0150210FE96E000E0320EA6EEFCF38
:101820007BF9520EF66E040EF76E0C0E926F0001ED
:101830005BEC07F07BC98FF91B0E0901906F00016B
:101840006CDD0D0EA4A8FED7796E0A0EA4A8FED7F3
:10185000796E09017A2B23D6640EF66E040EF76EAC
:10186000000170EC07F07BEF29F00801E66B09013D
:10187000276B00011200EF5210E0EACF7BF9E9CFAD
:101880007AF9EF50A4A8FED7796E7BC9EAFF7AC92E
:10189000E9FFE92AD8B4EA2AEED7A2EF29F07DC9F8
:1018A0007FF97CC97EF97FC9EAFF09017EC9E9FF9A
:1018B000EF5206E07E2BD8B47F2B0001F4D709014C
:1018C0007C517E5D006E7D517F59036E00C001F03A
:1018D000026E00015AEF0DF009017E6B7DC9EAFF2F
:1018E0007CC9E9FFEF50200804E17C2BD8B47D2BA4
:1018F000F5D77DC9EAFF7CC9E9FFEFCF7FF97F51BA
:101900002F0812E27F5139080FE37E510A0DF3CF01
:101910007EF97DC9EAFF7CC9E9FF300EEF5C7E27C6
:101920007C2BD8B47D2BE5D77EC901F000011200D5
:101930007FC9EAFF09017EC9E9FF8051EF5C12E02F
:101940007FC903F07EC9E9FF03C0EAFFEF5204E15B
:10195000000E016E026E0AD07E2BD8B47F2B0001E0
:10196000E7D709017EC901F07FC902F0000112002A
:1019700009017F6B7E6B7DC9EAFF7CC9E9FFEF50EF
:10198000200804E17C2BD8B47D2BF5D77DC9EAFF74
:101990007CC9E9FFEFCF80F980512F081FE2805109
:1019A00039081CE37FC995F97EC994F9976B0A0E33
:1019B000966F00016AEC08F002C07FF901C07EF961
:1019C0007DC9EAFF09017CC9E9FF300EEF5C7E2783
:1019D000000E7F237C2BD8B47D2BD8D77EC901F095
:1019E0007FC902F000011200200E09017DA9300E0E
:1019F0007E6F7CC900F000AE08D0001E002A00C037
:101A00007CF92D0E7E6F7D8F7D8101507CC991F90F
:101A1000640E926F00016BDC00C07CF9300E012473
:101A200009017F6F7CC991F90A0E926F00015FDC9A
:101A3000300E00240901816F300E0124806F7EC9B1
:101A400000F0300E7F5D04E07D837DBF7D8512D088
:101A50007EC97FF9200E7E6F300E805D04E07D81AF
:101A60007DBF7D8307D0D8A47D8104E17FC980F943
:101A7000200E7F6F7DB505D07DB307D07DB109D035
:101A80000CD07E51A4A8FED7796E7F51A4A8FED7B2
:101A9000796E8051A4A8FED7796E8151A4A8FED793
:101AA000796E00011200060E09017D6F960E7C6FA3
:101AB0000001F5D602C07DF901C07CF909017D5312
:101AC00003E17C5117080BE206019E512F08D8A0B4
:101AD00002D0090104D09E51390803E209013CD12A
:101AE0000601060E09017D6F9E0E7C6F0001F4DE7B
:101AF00001C0C0F6060E09017F6F9F0E7E6F2C0E8F
:101B0000806F000115DF02C07BF901C07AF909017D
:101B10007A5303E17B5301E11FD17A2BD8B47B2B9D
:101B20007BC97DF97AC97CF9000122DF02C0C2F6C7
:101B300001C0C1F6010E09017A257C6F000E7B21E0
:101B40007D6F7F6F7CC97EF92C0E806F0001F0DE07
:101B500002C07BF901C07AF909017A5303E17B5392
:101B600001E1FAD07A2BD8B47B2B7BC97DF97AC9F5
:101B70007CF90001B1DE01C0C3F6010E09017A252E
:101B80007C6F000E7B217D6F7F6F7CC97EF92C0EF0
:101B9000806F0001CDDE02C07BF901C07AF9090136
:101BA0007A5303E17B5301E1D7D07A2BD8B47B2B56
:101BB0007BC97DF97AC97CF90001DADE02C0C5F67D
:101BC00001C0C4F6010E09017A257C6F000E7B214D
:101BD0007D6F7F6F7CC97EF92C0E806F0001A8DEBF
:101BE00002C07BF901C07AF909017A5303E17B5302
:101BF00001E1B2D07A2BD8B47B2B7BC97DF97AC9AD
:101C00007CF90001B5DE02C0C7F601C0C6F6010EC0
:101C100009017A257C6F000E7B217D6F7F6F7CC967
:101C20007EF92C0E806F000183DE02C07BF901C0BB
:101C30007AF909017A5303E17B5301E18DD07A2BC4
:101C4000D8B47B2B7BC97DF97AC97CF9000144DECD
:101C500001C0C8F65E0EF66E050EF76E160E09018F
:101C6000926F00015BEC07F0C0C67CF9180E090109
:101C70007D6F0001B9DE0A0EA4A8FED7796E780E3A
:101C8000F66E050EF76E160E0901926F00015BEC01
:101C900007F0100EE96EC2C690F9C1C68FF981EC4B
:101CA00007F00A0EA4A8FED7796E940EF66E050E04
:101CB000F76E160E0901926F00015BEC07F0C3C6C8
:101CC0007CF9180E09017D6F00018EDE0A0EA4A8B2
:101CD000FED7796EAE0EF66E050EF76E160E090182
:101CE000926F00015BEC07F0100EE96EC5C690F92B
:101CF000C4C68FF981EC07F00A0EA4A8FED7796E4E
:101D0000CA0EF66E050EF76E160E0901926F0001EF
:101D10005BEC07F0100EE96EC7C690F9C6C68FF9E6
:101D200081EC07F00A0EA4A8FED7796EE60EF66ED7
:101D3000050EF76E160E0901926F00015BEC07F0BD
:101D4000C8C67CF9180E09017D6F00014DDE0A0E30
:101D5000A4A8FED7796E09010001AEEF29F0C69C58
:101D6000C586C5B6FED700B0C59A00A0C58AC5888D
:101D7000C5B8FED7C9CF01F01200C580C5B0FED7E7
:101D80000400090E006E002EFED700009A0E090115
:101D90008D6F0001A7EC06F009017B357D6F7D3763
:101DA0007D37F80E7D177DC98DF90001A7EC06F08F
:101DB000C582C5B2FED70400090E006E002EFED704
:101DC00000009B0E09018D6F0001A7EC06F0006A70
:101DD000C6DF01C07CF9C584C5B4FED709017CC942
:101DE00001F000011200050E09017B6F0001C5DF43
:101DF0000150010B016E120009017B6B0001BDDF78
:101E0000015001C07AF909017A510D0801E14AD067
:101E10000801E65348E109017A510A0803E1275312
:101E200001E140D00801E75153081EE1E8514208A2
:101E30001BE1E951440818E1EA51520815E1EB5160
:101E4000490812E1EC514E080FE109017A514708A7
:101E5000D8B402D0080108D0010E0801E46F0001D7
:101E600004DD09011FD0080109017A510A080DE1BA
:101E7000E70E2725E96E080EEA6ED8B0EA2AEF6A67
:101E8000010E0801E66F09010DD027513E080AE353
:101E9000E70E2725E96E080EEA6ED8B0EA2A7AC95D
:101EA000EFFF272B08010001C5EF29F00901886B1E
:101EB00087C989F90001B5EC06F012000900F55256
:101EC0000CE0F6CF7EF9F7CF7FF9F5CF87F9EEDF9B
:101ED0007EC9F6FF7FC9F7FFF1D712000701DF5176
:101EE00001080BE30001C1DC640EF66E060EF76E0E
:101EF000E5DF020E0701DF6F7CD1DF51020811E13F
:101F00000801E62D0CD0E7514F0806E1E8514B08D7
:101F100003E10701DF2B08010001A7DC08016AD1FA
:101F20000701DF5103080AE100019FDC6A0EF66E2B
:101F3000060EF76EC3DF0701DF2B5BD1DF5104080C
:101F400011E10801E62D0CD0E7514F0806E1E851F8
:101F50004B0803E10701DF2B0801000186DC0801C3
:101F600049D10701DF5105080AE100017EDC720E4C
:101F7000F66E060EF76EA2DF0701DF2B3AD1DF51B6
:101F8000060811E10801E62D0CD0E7514F0806E1E3
:101F9000E8514B0803E10701DF2B0801000165DC74
:101FA000080128D10701DF5107080EE100015DDCBF
:101FB000010E0901286F800EF66E060EF76E000105
:101FC0007DDF0701DF2B15D1DF51080811E100018A
:101FD0000ADF015201E10ED109017B6B0001CDDE68
:101FE000015001C0E1F80801E06B0701DF2B01D1CE
:101FF000DF51090818E10001F6DE015201E1FAD0D3
:1020000009017B6B0001B9DE015001500801E02796
:10201000000EE1230701DF2B09012C6B2B6B2A6BD0
:10202000296BE7D00701DF510A0835E10001DBDE4B
:10203000015201E1DFD00801E05307E1E15305E17E
:102040000701DF2B0001D6D0080109017B6B0001DD
:1020500094DE015001C07AF9E00E09012925E96EEC
:10206000070E2A21EA6E7AC9EFFF7A512B27000E5C
:102070002C23292BD8B42A2B0801E0510901295D12
:1020800008E10801E15109012A5D03E10701DF2BA5
:102090000901AFD00701DF510B0811E10001A3DEF8
:1020A000015201E1A7D009017B6B000166DE0150FE
:1020B00001C02AF90901296B0701DF2B9AD0DF51F2
:1020C0000C0815E100018FDE015201E193D00901F6
:1020D0007B6B000152DE0150015009012927000EDF
:1020E0002A230701DF2B0901286B83D00701DF5169
:1020F0000D08D8A47ED08A0EF66E060EF76E040E7A
:102100000901926F00015BEC07F0100EE96E2CC91B
:1021100090F92BC98FF981EC07F0910EF66E060E3F
:10212000F76E030E0901926F00015BEC07F0100ED1
:10213000E96E2AC990F929C98FF981EC07F00D0ED3
:10214000A4A8FED7796E0A0EA4A8FED7796E09015D
:1021500029512B5D49E12A512C5D46E1010E070111
:10216000DE6F09012A6B296B2A510801E15D3DE30D
:1021700008E1E0510901295DD8A002D0080135D05D
:102180000801E00E09012925E96E070E2A21EA6EF1
:10219000EFCF7BF99A0EF66E060EF76E0A0E926F6F
:1021A00000015BEC07F0100EE96E2AC990F929C90D
:1021B0008FF981EC07F05D0EA4A8FED7796E3D0E75
:1021C000A4A8FED7796E09017B51A4A8FED7796E29
:1021D0000D0EA4A8FED7796E0A0EA4A8FED7796EBC
:1021E000292BD8B42A2BC0D708010601C36B0701DD
:1021F000DF6B08010001CCEF29F00900F6CF7FF971
:10220000F7CF80F9F5CF87F951DE7FC9F6FF80C996
:10221000F7FF09017E2F01D002D00001EED70001A7
:1022200050EF12F0EACF86F9E9CF85F909017F393D
:10223000F009816F8127E20F826F320F846F7F5127
:102240000F0B822782278427E90F836F8327832739
:102250007E390F0B8327842783378437841F843785
:102260007E510F0B84278137070E806F0A0E83077C
:102270008427FDE382078327FDE381078227FDE3AF
:1022800080078127FDE3090EEA6E800EE96E070ED6
:102290008515859DE926000EEA22E950840804E1AF
:1022A000EA50090801E1858DEF50006E08E185BD17
:1022B00006D085B915D085B702D0200E03D085870A
:1022C0008599300E0026EACF7FF9E9CF7EF900C06C
:1022D00087F90001EBDD7FC9EAFF7EC9E9FF09014B
:1022E000EE5085ADDAD7000157EF12F0090E090163
:1022F0007F5F0CE3090EEA6E7F0EE96ED890EF3235
:10230000EF5004E001D00400EF2EFDD70001A8EF4C
:1023100012F07FC985F97EC984F90901825302E16F
:10232000835323E081C9EAFF80C9E9FFEF521DE032
:1023300085C903F08451842BD8B4852B866F03C0E4
:1023400087F981C9EAFF8051802BD8B4812BE96ECF
:10235000EFCF88F903C0EAFF86C9E9FF88C9EFFF1C
:102360008251D8B483078207D9D7825302E18353BD
:102370000DE085C9EAFF8451842BD8B4852BE96E22
:10238000EF6A8251D8B483078207EFD77EC901F084
:102390007FC902F0000130EF13F00701DB6BDA6B4D
:1023A0000601C96B000112000601C95302E1EFD119
:1023B000EBD1C92D0BD0000135EC0CF0260EF66EDA
:1023C000060EF76E7BDD0601C92BDED1C95102086E
:1023D00012E10801E62D0DD0E7514F0806E1E85162
:1023E0004B0803E10601C92B0801000135EC0CF094
:1023F0000801CBD10601C95103080BE1000135ECFE
:102400000CF02C0EF66E060EF76E58DD0601C92B89
:10241000BBD1C951040812E10801E62D0DD0E751E6
:102420004F0806E1E8514B0803E10601C92B0801FA
:10243000000135EC0CF00801A8D10601C9510508CE
:102440000BE1000135EC0CF0340EF66E060EF76E63
:1024500035DD0601C92B98D1C951060812E10801E2
:10246000E62D0DD0E7514F0806E1E8514B0803E196
:102470000601C92B0801000135EC0CF0080185D1DB
:102480000601C95107081BE1000135EC0CF0420EB2
:10249000F66E060EF76E090E09017E6F0001ADD6CD
:1024A000100EE96EDBC77FF9DAC77EF9BBD60D0ED9
:1024B0000901876F0001FADC0601C92B65D1C951FA
:1024C00008081BE10801E62D16D0E75152080FE17C
:1024D000E85145080CE1E951410809E1EA51440895
:1024E00006E1EB51590803E10601C92B080100017F
:1024F00035EC0CF0080149D10601C951090848E141
:10250000000135EC0CF009017D6B7C6B7B6B7A6B09
:102510007B510701DB5D2EE308E1DA5109017A5DA9
:10252000D8A002D0070126D00701CA0E09017A25DA
:10253000E96E060E7B21EA6EEFCF87F90001B6DC6B
:102540000400020E09017E6FF70E7F6F0001CED6E8
:1025500009017E2FF9D7CA0E7A25E96E060E7B2176
:10256000EA6EEF507C27000E7D237A2BD8B47B2BAC
:10257000CFD707017DC97EF97DC987F9000196DCB7
:102580007CC97EF97CC987F991DC0601C92BFCD096
:10259000C9510A0811E10801E62D0CD0E7513008B5
:1025A00004E10601C92B05D00801000135EC0CF04F
:1025B00006010801EAD00601C9510B0812E1080121
:1025C000E62D0DD0E7514F0806E1E8514B0803E135
:1025D0000601C92B0801000135EC0CF00801D5D02B
:1025E0000601C9510C0813E10701DC5305E0DD5376
:1025F00003E00601CCD00701000135EC0CF0500ED1
:10260000F66E060EF76E5ADC0601C92BBDD0C95115
:102610000D0843E10801E62D3ED0E7512B0837E1D4
:10262000E851530834E1E951420831E1EA514408E4
:102630002EE1EB5149082BE1EC51580828E1060145
:10264000965310E1060E09017F6F960E7E6F080EFD
:10265000816FE70E806F836B290E826F000159D660
:102660000601BF6B0801EE5120080CE1EF512F0865
:1026700009E2EF51320806E30601C92B0701DC6BC2
:1026800005D008010601C92B0701DC2B0801000158
:1026900035EC0CF0080179D00601C9510E0835E17E
:1026A0000801E62D0DD0E7514F0806E1E8514B082F
:1026B00003E10601C92B0801000135EC0CF008010B
:1026C0000701DC5320E00C0E0601C96F0701DC2D69
:1026D00001D003D0DC51020803E1030EDD6F13D0FB
:1026E000DC51030803E0DC51040803E1150EDD6F43
:1026F0000AD0DC51050803E1FB0EDD6F04D00F0E9C
:102700000601C96F070142D00601C9510F080CE14B
:10271000000135EC0CF05A0EF66E060EF76E5EEC0C
:102720000FF00601C92B30D0C951100811E1080182
:10273000E62D0CD0E751300804E10601C92B05D085
:102740000801000135EC0CF0060108011ED006015D
:10275000C951110812E10801E62D0DD0E7514F08CB
:1027600006E1E8514B0803E10601C92B080100010D
:1027700035EC0CF0080109D00601C951120804E13A
:10278000000135EC0CF009DE08010701060100012B
:10279000D8EF29F09EA8FED7AD6ED3EF13F0090154
:1027A00090510001F7D7196AF2BE198EF29E90C9B6
:1027B0009DF964EC02F019BEF28E0400440E006E26
:1027C000002EFED700D012000501926991698F9109
:1027D0009D9A949A8B8A0400F20E006E002EFED70A
:1027E0008DC990F90001DBDF8EC990F9D8DF1200A6
:1027F00092C58EF991C58DF98EC990F9D0DF8DC93A
:1028000090F9CDDFADA2FED70400F20E006E002ECF
:10281000FED70FEC0AF0949A8B9A050192699169A0
:102820000001120005018FB104D0000E016E0AD024
:1028300006D095AF04D097C596F5010E946F8F9191
:10284000010E016E0001120082C98DF9040E09010A
:102850008E6F0001B9DF84C987F984C990F99FDFC1
:1028600083C987F983C990F99ADF86C987F986C930
:1028700090F995DF85C987F985C990F990DFB8DFB0
:102880000901825329E00001CDDF015219E1FF0E59
:1028900005018B27D8A08C27D8A08D27D8A08E27FC
:1028A0008B5309E18C5307E18D5305E18E53D8A476
:1028B00002D0000105D0040000000901E4D70001A6
:1028C00005018B5308E18C5306E18D5304E18E53CF
:1028D00002E10C0E966F090105018E6B010E8D6FE2
:1028E000860E8C6FA00E8B6F96C501F00001120052
:1028F00082C98DF9030E09018E6F000165DF84C95D
:1029000087F984C990F94BDF83C987F983C990F9A6
:1029100046DF86C987F986C990F941DF85C987F9FD
:1029200085C990F93CDF64DF0901825329E0000189
:1029300079DF015219E1FF0E05018B27D8A08C2702
:10294000D8A08D27D8A08E278B5309E18C5307E19F
:102950008D5305E18E53D8A402D0000105D00400A8
:1029600000000901E4D7000105018B5308E18C53F5
:1029700006E18D5304E18E5302E10C0E966F0901BE
:1029800005018E6B010E8D6F860E8C6FA00E8B6F06
:1029900096C501F000011200090198519807000A3C
:1029A00024E097C9EAFF9651962BD8B4972BE96E8D
:1029B000EF50941B996B9951070816E39451010B42
:1029C000006E036A005003100AE0D89095319B6FA7
:1029D0009431010A946F9B51A00A956F03D0D8904F
:1029E00095339433992BE7D7D8D794C901F095C97B
:1029F00002F000011200A4A8FED7796E1200110E99
:102A000004016625020F0901926F936BD8B0932BD6
:102A1000230E816F81C582F983C583F9090182C5BF
:102A200084F909018569120E866F93C987F992C9E5
:102A300088F969C489F9090168C48AF9090167C478
:102A400080F9956B80C994F9976B0D0E966F000114
:102A50006AEC08F001C094F9010E09010124016E2D
:102A6000000E0220036E0150210FE96E000E0320BC
:102A7000EA6EECCF8BF9ED52EFCF94F9956B80C9EC
:102A800094F9976B0D0E966F00016AEC08F001C087
:102A900094F9010E09010124016E000E0220036E5B
:102AA0000150210FE96E000E0320EA6EECCF95F97C
:102AB000ED52EFCF8CF9956B80C994F9976B0D0EA1
:102AC000966F00016AEC08F001C094F9050E090147
:102AD0000124016E000E0220036E0150210FE96EE9
:102AE000000E0320EA6EEFCF94F9ECCF95F9ECCF0E
:102AF00096F9ECCF8DF9956B80C994F9976B0D0E13
:102B0000966F00016AEC08F001C094F9050E090106
:102B10000124016E000E0220036E0150210FE96EA8
:102B2000000E0320EA6EEFCF94F9ECCF95F9ECCFCD
:102B30008EF9ECCF97F9956B80C994F9976B0D0ED0
:102B4000966F00016AEC08F001C094F9050E0901C6
:102B50000124016E000E0220036E0150210FE96E68
:102B6000000E0320EA6EEFCF94F9ECCF8FF9ECCF93
:102B700096F9ECCF97F9956B80C994F9976B0D0E88
:102B8000966F00016AEC08F001C094F9050E090186
:102B90000124016E000E0220036E0150210FE96E28
:102BA000000E0320EA6EEFCF90F9ECCF95F9ECCF51
:102BB00096F9ECCF97F965C391F995699469090E77
:102BC000976F820E966F100E986F0001E5DE02C0BF
:102BD0007FF901C07EF97FC995F97EC994F9030E8A
:102BE0000901976F660E966F66C498F90001D4DEEE
:102BF00002C07FF901C07EF90901806B8051100885
:102C00000FE3036A8051810FE96E090E0320EA6E1B
:102C1000EFCF94F994510001EEDE0901802BEED73D
:102C2000806B040166510901805D0FE2660E80250C
:102C3000E96E030EEA6ED8B0EA2AEFCF94F9945108
:102C40000001D9DE0901802BECD77FC994F994519A
:102C50000001D1DE7EC994F9090194510001CBDE57
:102C6000120082C98DF9010E09018E6F0001ACDDE1
:102C700084C987F984C990F992DD83C987F983C92A
:102C800090F98DDD86C987F986C990F988DD85C9F7
:102C900087F985C990F983DDABDD0901825329E00D
:102CA0000001C0DD015219E1FF0E05018B27D8A0FC
:102CB0008C27D8A08D27D8A08E278B5309E18C5361
:102CC00007E18D5305E18E53D8A402D0000105D051
:102CD000040000000901E4D7000105018B5308E15D
:102CE0008C5306E18D5304E18E5302E10C0E966F76
:102CF000090105018E6B010E8D6F860E8C6FA00E83
:102D00008B6F96C501F000011200C580C5B0FED7DB
:102D10000400090E006E002EFED7000082C98DF956
:102D2000A7EC06F083C98DF9A7EC06F0C582C5B201
:102D3000FED70400090E006E002EFED70000090128
:102D400082510109876F8D6F0001A7EC06F0090120
:102D500086518607010810E085C9EAFF84C9E9FFAA
:102D6000010E006E0001AFEC0EF001C0EFFF090193
:102D7000842BD8B4852BECD785C9EAFF84C9E9FF39
:102D8000006A0001AFEC0EF001C0EFFFC584C5B4CE
:102D9000FED712000901772D06D0785304E1000117
:102DA000CDEC11F00901775327E1785325E10001BB
:102DB000CDEC11F00701DBC703F0DA51DA2BD8B400
:102DC000DB2B09017E6FCA0E7E25E96E060E0320FD
:102DD000EA6E36C9EFFF0701DBC703F0DA51DA2BE1
:102DE000D8B4DB2B09017E6FCA0E7E25E96E060E74
:102DF0000320EA6E35C9EFFF7A6B7A513F08D8A0FD
:102E0000F9EF1CF00400640E0301646F0901956B77
:102E10007AC994F9976B0D0E966F00016AEC08F071
:102E200002C07FF901C07EF9210E09010124E96E7B
:102E3000000E0220EA6EEF5002E1F6EF1CF0036A8A
:102E40007A51370FE96E090E0320EA6EEF2A036A02
:102E50007A51370FE96E090E0320EA6EEFCF7EF943
:102E6000956B7AC994F9976B0D0E966F00016AEC19
:102E700008F002C080F901C07FF9030E09010124A6
:102E8000016E000E0220036E0150210FE96E000E4C
:102E90000320EA6EEF507E5D03E2F6EF1CF008D0EF
:102EA000036A7A51370FE96E090E0320EA6EEF6A62
:102EB0007AC967F436C969F435C968F4956B7AC97B
:102EC00094F9976B0D0E966F00016AEC08F002C042
:102ED0007FF901C07EF9210E09010124E96E000E7F
:102EE0000220EA6EEF500708D8A002D2956B7AC98B
:102EF00094F9976B0D0E966F00016AEC08F002C012
:102F00007FF901C07EF90C0E09010124016E000E4B
:102F10000220036E0150210FE96E000E0320EA6EBD
:102F2000EF50010808E1A796190EAF6EA60EAC6E21
:102F3000900EAB6E07D0A7960C0EAF6EA20EAC6EC5
:102F4000900EAB6E956B7AC994F9976B0D0E966FD8
:102F500000016AEC08F002C07FF901C07EF9210E81
:102F600009010124E96E000E0220EA6EEF50030809
:102F700018E0956B7AC994F9976B0D0E966F000166
:102F80006AEC08F002C081F901C080F9210E090144
:102F90000124E96E000E0220EA6EEF500408D8A466
:102FA000F8D0956B7AC994F9976B0D0E966F000166
:102FB0006AEC08F002C07FF901C07EF9210E090118
:102FC0000124E96E000E0220EA6EEF50040861E170
:102FD000956B7AC994F9976B0D0E966F00016AECA8
:102FE00008F002C07FF901C07EF9040E0901012436
:102FF000016E000E0220036E0150210FE96E000EDB
:103000000320EA6EEFCF7EF9956B7AC994F9976B3E
:103010000D0E966F00016AEC08F001C07FF9090EF1
:1030200009010124016E000E0220036E0150210FE0
:10303000E96E000E0320EA6EECCF80F9ED52EFCF7F
:103040007FF9956B7AC994F9976B0D0E966F000115
:103050006AEC08F001C081F90B0E09010124016E30
:10306000000E0220036E0150210FE96E000E0320B6
:10307000EA6EEFCF85F97EC982F980C984F97FC9EC
:1030800083F9866B000124EC14F001C065F360D075
:103090000901956B7AC994F9976B0D0E966F000133
:1030A0006AEC08F002C07FF901C07EF9040E090144
:1030B0000124016E000E0220036E0150210FE96E03
:1030C000000E0320EA6EEFCF7EF9956B7AC994F972
:1030D000976B0D0E966F00016AEC08F001C07FF946
:1030E000090E09010124016E000E0220036E015039
:1030F000210FE96E000E0320EA6EECCF80F9ED524D
:10310000EFCF7FF9956B7AC994F9976B0D0E966F97
:1031100000016AEC08F001C081F90B0E09010124DD
:10312000016E000E0220036E0150210FE96E000EA9
:103130000320EA6EEFCF85F97EC982F980C984F950
:103140007FC983F9866B000178EC14F001C065F348
:10315000030165531CE1010E0501945D0401666FD6
:10316000010E0501945D09017E6F030EEA6E660E85
:10317000E96E050EE26E980EE16E7E51016E04E07E
:10318000E6CFEEFF012EFCD7000139DC0301AED003
:103190000901956B7AC994F9976B0D0E966F000132
:1031A0006AEC08F002C07FF901C07EF9210E090126
:1031B0000124E96E000E0220EA6EEF50010818E0CB
:1031C000956B7AC994F9976B0D0E966F00016AECB6
:1031D00008F002C081F901C080F9210E0901012423
:1031E000E96E000E0220EA6EEF500208D8A47FD0EC
:1031F000956B7AC994F9976B0D0E966F00016AEC86
:1032000008F002C07FF901C07EF9040E0901012413
:10321000016E000E0220036E0150210FE96E000EB8
:103220000320EA6EEFCF7EF9956B7AC994F9976B1C
:103230000D0E966F00016AEC08F001C07FF9090ECF
:1032400009010124016E000E0220036E0150210FBE
:10325000E96E000E0320EA6EECCF80F9ED52EFCF5D
:103260007FF9956B7AC994F9976B0D0E966F0001F3
:103270006AEC08F001C081F90B0E09010124016E0E
:10328000000E0220036E0150210FE96E000E032094
:10329000EA6EEFCF85F97EC982F980C984F97FC9CA
:1032A00083F9866B0001DDDC01C065F30301655322
:1032B0001DE1010E0501945D0401666F010E05011B
:1032C000945D09017E6F030EEA6E660EE96E050ECF
:1032D000E26E980EE16E7E51016E04E0E6CFEEFFE5
:1032E000012EFCD70001FFEC14F00301090128D3E3
:1032F000956B7AC994F9976B0D0E966F00016AEC85
:1033000008F002C07FF901C07EF9210E09010124F5
:10331000E96E000E0220EA6EEF501708D8A008D31D
:103320002E0EF66E0B0EF76E000170EC07F0460ED7
:10333000F66E0B0EF76E070E0901926F00015BEC43
:1033400007F07AC98FF91B0E0901906F00018DEC0F
:1033500009F04F0EF66E0B0EF76E030E0901926F19
:1033600000015BEC07F00901956B7AC994F9976B42
:103370000D0E966F00016AEC08F002C07FF901C0E3
:103380007EF9210E09010124E96E000E0220EA6E89
:10339000EFCF80F9540EF66E0B0EF76E060E926F9D
:1033A00000015BEC07F080C98FF91B0E0901906FDB
:1033B00000018DEC09F00D0EA4A8FED7796E0A0E5F
:1033C000A4A8FED7796E0901956B7AC994F9976B19
:1033D0000D0E966F00016AEC08F002C07FF901C083
:1033E0007EF9030E09010124016E000E0220036E16
:1033F0000150210FE96E000E0320EA6EEFCF7EF937
:10340000600EF66E0B0EF76E0F0E926F00015BEC06
:1034100007F07EC98FF91B0E0901906F00018DEC3A
:1034200009F00D0EA4A8FED7796E0A0EA4A8FED747
:10343000796E0901956B7AC994F9976B0D0E966FA9
:1034400000016AEC08F002C07FF901C07EF9040EA9
:1034500009010124016E000E0220036E0150210FAC
:10346000E96E000E0320EA6EEFCF7EF9740EF66E61
:103470000B0EF76E120E926F00015BEC07F07EC927
:1034800092F9570E0901936F000125EC0AF00D0E19
:10349000A4A8FED7796E0A0EA4A8FED7796E0901FA
:1034A000956B7AC994F9976B0D0E966F00016AECD3
:1034B00008F001C07EF9050E09010124016E000E1D
:1034C0000220036E0150210FE96E000E0320EA6E08
:1034D000EFCF7EF9ECCF7FF9ECCF80F9ECCF82F91A
:1034E000956B7AC994F9976B0D0E966F00016AEC93
:1034F00008F001C083F9050E09010124016E000ED8
:103500000220036E0150210FE96E000E0320EA6EC7
:10351000EFCF83F9ECCF84F9ECCF87F9ECCF86F9C4
:10352000956B7AC994F9976B0D0E966F00016AEC52
:1035300008F001C088F9050E09010124016E000E92
:103540000220036E0150210FE96E000E0320EA6E87
:10355000EFCF88F9ECCF8CF9ECCF8AF9ECCF8BF96F
:10356000956B7AC994F9976B0D0E966F00016AEC12
:1035700008F001C08DF9050E09010124016E000E4D
:103580000220036E0150210FE96E000E0320EA6E47
:10359000EFCF91F9ECCF8EF9ECCF8FF9ECCF90F91A
:1035A0008E0EF66E0B0EF76E100E926F00015BEC36
:1035B00007F082C992F9570E0901936F000125ECBB
:1035C0000AF087C992F9570E0901936F000125ECA3
:1035D0000AF08CC992F9570E0901936F000125EC8E
:1035E0000AF091C992F9570E0901936F000125EC79
:1035F0000AF00D0EA4A8FED7796E0A0EA4A8FED775
:10360000796E0901956B7AC994F9976B0D0E966FD7
:1036100000016AEC08F001C07EF9090E09010124DD
:10362000016E000E0220036E0150210FE96E000EA4
:103630000320EA6EECCF7FF9ED52EFCF7EF9B20EA8
:10364000F66E0B0EF76E0F0E926F00015BEC07F03B
:10365000100EE96E7FC990F97EC98FF981EC07F0F1
:103660000D0EA4A8FED7796E0A0EA4A8FED7796E17
:103670000901956B7AC994F9976B0D0E966F00014D
:103680006AEC08F002C07FF901C07EF90B0E090157
:103690000124016E000E0220036E0150210FE96E1D
:1036A000000E0320EA6EEFCF7EF9C80EF66E0B0E09
:1036B000F76E0C0E926F00015BEC07F07EC98FF97C
:1036C0001B0E0901906F00018DEC09F00D0EA4A8EE
:1036D000FED7796E0A0EA4A8FED7796E0901956B04
:1036E0007AC994F9976B0D0E966F00016AEC08F099
:1036F00002C07FF901C07EF9210E09010124E96EA3
:10370000000E0220EA6EEF501008D8A410D1956B7D
:103710007AC994F9976B0D0E966F00016AEC08F068
:1037200002C07FF901C07EF9040E09010124016E77
:10373000000E0220036E0150210FE96E000E0320DF
:10374000EA6EEFCF7EF9956B7AC994F9976B0D0EFF
:10375000966F00016AEC08F001C07FF9090E0901BB
:103760000124016E000E0220036E0150210FE96E4C
:10377000000E0320EA6EECCF80F9ED52EFCF7FF917
:10378000956B7AC994F9976B0D0E966F00016AECF0
:1037900008F001C081F90B0E09010124016E000E31
:1037A0000220036E0150210FE96E000E0320EA6E25
:1037B000EFCF86F97EC982F97FC983F9030E856F41
:1037C000660E846F000185EC16F00301656B09013C
:1037D000956B7AC994F9976B0D0E966F00016AECA0
:1037E00008F001C07EF90B0E09010124016E000EE4
:1037F0000220036E0150210FE96E000E0320EA6ED5
:10380000EFCF66F47D6B956B7AC994F9976B0D0ECB
:10381000966F00016AEC08F002C07FF901C07EF9E2
:103820000B0E09010124016E000E0220036E0150EF
:10383000210FE96E000E0320EA6EEF507D5D73E20A
:10384000956B7AC994F9976B0D0E966F00016AEC2F
:1038500008F001C07EF9090E09010124016E000E75
:103860000220036E0150210FE96E000E0320EA6E64
:10387000ECCF03F0ED52EF507D257E6F000E03205C
:103880007F6F660E7D25E96E030EEA6ED8B0EA2AD8
:10389000EFCF80F9660E7D25E96E030EEA6ED8B093
:1038A000EA2AEFCF81F9DA0EF66E0B0EF76E0D0EE7
:1038B000926F00015BEC07F07EC992F9570E090187
:1038C000936F000125EC0AF0EB0EF66E0B0EF76E0F
:1038D000040E0901926F00015BEC07F080C992F9B8
:1038E000570E0901936F000125EC0AF0200EA4A8E1
:1038F000FED7796E280EA4A8FED7796E81C98FF9FC
:103900001B0E0901906F00018DEC09F0F70EF66EA9
:103910000B0EF76E030E0901926F00015BEC07F0CE
:1039200009017D2B70D70001FFEC14F0090108D0CC
:10393000FC0EF66E0B0EF76E000170EC07F009013D
:10394000775354E1785352E103016553D8B402D060
:1039500009014CD00701DBC703F0DA51DA2BD8B4E8
:10396000DB2B09017E6FCA0E7E25E96E060E032051
:10397000EA6E7AC9EFFF0701DBC703F0DA51DA2BF1
:10398000D8B4DB2B09017E6FCA0E7E25E96E060EC8
:103990000320EA6E66C4EFFF7C6B7B6B7C5326E1F1
:1039A0000401665109017B5D21E20701DBC77FF954
:1039B000DA51DA2BD8B4DB2B09017E6FCA0E7E25D3
:1039C000016E060E7F21036E660E7B25E96E030EE7
:1039D0007C21EA6EEFCF82F903C0EAFF01C0E9FF64
:1039E00082C9EFFF7B2BD8B47C2BD8D77A2BFDEF85
:1039F00016F077530EE178530CE10701DA5305E135
:103A0000DB53D8A402D0090104D0010E0601C96F0E
:103A10000901352BD8B4362B77530DE178530BE1E0
:103A2000010E0501875D0901776F000E05018859B8
:103A30000901786F04D07751D8B47807770700016F
:103A4000EFEF29F0090189510308D8A06AD104E1F8
:103A50008851E708D8A065D18931036E8831026E9C
:103A6000033202320332023202C08DF98851070B51
:103A70008E6F8D51400803E2020E016E20D28E51EE
:103A8000F80FD8B04DD1080F000162EF1FF0090107
:103A9000956B8DC994F9976B0D0E966F00016AECCA
:103AA00008F002C090F901C08FF9210E090101242C
:103AB000E96E000E0220EA6E8C6BEFCF8BF930D1ED
:103AC0000901956B8DC994F9976B0D0E966F0001E6
:103AD0006AEC08F002C090F901C08FF9010E0901EB
:103AE0000124016E000E0220036E0150210FE96EC9
:103AF000000E0320EA6EECCF8CF9ED52EFCF8BF97C
:103B00000FD10901956B8DC994F9976B0D0E966FC6
:103B100000016AEC08F002C090F901C08FF9030EB1
:103B200009010124016E000E0220036E0150210FD5
:103B3000E96E000E0320EA6E8C6BEFCF8BF9F0D0AC
:103B40000901956B8DC994F9976B0D0E966F000165
:103B50006AEC08F002C090F901C08FF9040E090167
:103B60000124016E000E0220036E0150210FE96E48
:103B7000000E0320EA6E8C6BEFCF8BF9D1D00901D8
:103B8000956B8DC994F9976B0D0E966F00016AECD9
:103B900008F001C08FF9050E09010124016E000E25
:103BA0000220036E0150210FE96E000E0320EA6E21
:103BB000EFCF8FF9ECCF90F9ECCF91F9ECCF93F9EF
:103BC000956B8DC994F9976B0D0E966F00016AEC99
:103BD00008F001C094F9050E09010124016E000EE0
:103BE0000220036E0150210FE96E000E0320EA6EE1
:103BF000EFCF94F9ECCF95F9ECCF96F9ECCF97F99C
:103C000096C998F993C98CF996C98BF989D009019D
:103C1000956B8DC994F9976B0D0E966F00016AEC48
:103C200008F001C08FF9050E09010124016E000E94
:103C30000220036E0150210FE96E000E0320EA6E90
:103C4000EFCF8FF9ECCF93F9ECCF91F9ECCF92F95C
:103C5000956B8DC994F9976B0D0E966F00016AEC08
:103C600008F001C094F9050E09010124016E000E4F
:103C70000220036E0150210FE96E000E0320EA6E50
:103C8000EFCF94F9ECCF95F9ECCF96F9ECCF97F90B
:103C900094C998F993C98CF994C98BF941D0090159
:103CA000956B8DC994F9976B0D0E966F00016AECB8
:103CB00008F002C090F901C08FF9090E0901012432
:103CC000016E000E0220036E0150210FE96E000EFE
:103CD0000320EA6EECCF8CF9ED52EFCF8BF920D0B8
:103CE0000901956B8DC994F9976B0D0E966F0001C4
:103CF0006AEC08F002C090F901C08FF90B0E0901BF
:103D00000124016E000E0220036E0150210FE96EA6
:103D1000000E0320EA6E8C6BEFCF8BF901D0090106
:103D200063D08851006E8951036E030E035C05E178
:103D3000E80E005C000132E00901030E035C05E1BE
:103D4000E90E005C00012FE00901030E035C05E1B0
:103D5000EA0E005C00012DE00901030E035C05E1A1
:103D6000EB0E005C00012AE00901030E035C05E193
:103D7000EC0E005C000126E00901030E035C05E186
:103D8000ED0E005C000123E00901040E035C05E177
:103D90004C0E005C00011FE0090123D009018C6B6F
:103DA00081C58BF921D083C58CF982C58BF90901B6
:103DB0001BD009018C6B520E8B6F16D009018C6BD6
:103DC0008B6B12D009018C6B340E8B6F0DD00901F7
:103DD0008C6B8B6B09D085C58CF984C58BF9090177
:103DE00003D0020E016E6BD06A0E8A25E96E040EB6
:103DF000EA6ED8B0EA2A8CC9EFFF010E8A256A0F55
:103E0000E96E040EEA6ED8B0EA2A8BC9EFFF020E03
:103E100005018027800EF66E090EF76E230E09014C
:103E2000926F00015BEC07F0100EE96E89C990F902
:103E300088C98FF981EC07F0A60EF66E090EF76EB1
:103E4000040E0901926F00015BEC07F08AC98FF93B
:103E50001B0E0901906F00018DEC09F0AC0EF66E9F
:103E6000090EF76E090E0901926F00015BEC07F075
:103E7000100EE96E8CC990F98BC98FF981EC07F0AF
:103E8000B80EF66E090EF76E150E0901926F00015D
:103E90005BEC07F080C58FF91B0E0901906F0001E4
:103EA0008DEC09F0CF0EF66E090EF76E030E0901C8
:103EB000926F00015BEC07F0000E016E090100013A
:103EC000BDEF1FF0E824F76AF736DF0FF66E3E0EFF
:103ED000F7220A00F550FA6E0800F550F96E8E3A96
:103EE000C03A023B403B7E3B0E3C9E3CE03C09011D
:103EF000846BD40EF66E090EF76E250E926F0001DC
:103F00005BEC07F0100EE96E81C990F980C98FF95A
:103F100081EC07F0FC0EF66E090EF76E0D0E09012E
:103F2000926F00015BEC07F082C98FF91B0E09014B
:103F3000906F00018DEC09F00B0EF66E0A0EF76E15
:103F4000030E0901926F00015BEC07F00901836B1E
:103F50008251835D17E2845315E183518025856F7B
:103F6000000E8121866FD8908335876F86C989F9C5
:103F700085C988F98A6F000165D501C084F90901F6
:103F8000832BE6D7100EF66E0A0EF76E280E926F90
:103F900000015BEC07F084C98FF91B0E0901906FDB
:103FA00000018DEC09F00D0EA4A8FED7796E0A0E63
:103FB000A4A8FED7796E090184C901F0000147EF7A
:103FC00022F0FE0EF66E080EF76E240E0901926FB7
:103FD00000015BEC07F0100EE96E85C990F984C909
:103FE0008FF981EC07F0250EF66E090EF76E070EBD
:103FF0000901926F00015BEC07F0100EE96E87C9B2
:1040000090F986C98FF981EC07F00D0EA4A8FED7B0
:10401000796E0A0EA4A8FED7796E030163531BE0E4
:1040200009018451E80809E18551030806E186C9C0
:1040300081F5000E016EA9D10DD08451E9080AE185
:104040008551030807E187C983F586C982F5000E0B
:10405000016E9BD10301090185510308D8A002D14B
:1040600004E18451E708D8A0FDD08531036E843186
:10407000026E033202320332023202C088F98451E6
:10408000070B896F8851400803E2020E016E7DD153
:104090008951F80FD8B0E5D0080F0001C8EF21F022
:1040A0000901956B88C994F9976B0D0E966F000105
:1040B0006AEC08F002C08DF901C08CF9210E0901EB
:1040C0000124E96E000E0220EA6E86C9EFFFC9D016
:1040D0000901956B88C994F9976B0D0E966F0001D5
:1040E0006AEC08F002C08DF901C08CF9010E0901DB
:1040F0000124016E000E0220036E0150210FE96EB3
:10410000000E0320EA6E87C9ECFFED5286C9EFFF6F
:10411000A8D00901956B88C994F9976B0D0E966F1D
:1041200000016AEC08F002C08DF901C08CF9030EA1
:1041300009010124016E000E0220036E0150210FBF
:10414000E96E000E0320EA6E86C9EFFF8AD00901EE
:10415000956B88C994F9976B0D0E966F00016AEC08
:1041600008F002C08DF901C08CF9040E0901012488
:10417000016E000E0220036E0150210FE96E000E49
:104180000320EA6E86C9EFFF6CD087C98BF986C918
:104190008AF9090166D00901956B88C994F9976B72
:1041A0000D0E966F00016AEC08F001C08CF9050E47
:1041B00009010124016E000E0220036E0150210F3F
:1041C000E96E000E0320EA6EEE528AC9ECFF8BC93D
:1041D000ECFFED52ED52ED5286C9EFFF87C9ECFFBF
:1041E00000010901956B88C994F9976B0D0E966FC4
:1041F00000016AEC08F002C08DF901C08CF9090ECB
:1042000009018C25016E000E8D21036E0150210FD6
:10421000E96E000E0320EA6E87C9ECFFED5286C9F5
:10422000EFFF1FD00901956B88C994F9976B0D0EAC
:10423000966F00016AEC08F002C08DF901C08CF99C
:104240000B0E09010124016E000E0220036E0150C5
:10425000210FE96E000E0320EA6E86C9EFFF01D040
:1042600009018FD08451006E8551036E040E035CEA
:1042700005E14C0E005C000122E00901070E035C21
:1042800005E1CD0E005C00011FE00901070E035C93
:1042900005E1CE0E005C000118E00901070E035C89
:1042A00005E1CF0E005C000126E009014E0E035C23
:1042B00005E11F0E005C000146E009015FD087C9DF
:1042C00085F586C984F55ED0FF0009018651CE08C8
:1042D00003E18751070803E0030E016E56D0000189
:1042E00055EC08F0A4EC08F0320EF66E090EF76EED
:1042F00070EC07F047D00901862D02D0875303E008
:10430000030E016E42D000012BEC08F07BEC08F0AC
:104310004C0EF66E090EF76E170E0901926F000132
:104320005BEC07F0100EE96E85C590F984C58FF936
:1043300081EC07F00D0EA4A8FED7796E0A0EA4A892
:10434000FED7796E1FD0090186510A0803E1875113
:10435000070806E00301636B030E016E090115D027
:10436000010E0301636FC80E646F00010BD06A0E6B
:10437000F66E090EF76E70EC07F00901020E016E81
:1043800004D00001000E016E090100016CEF22F063
:10439000E824F76AF736AB0FF66E430EF7220A00F1
:1043A000F550FA6E0800F550F96EA040D040124169
:1043B0004E418A419641E24124423E0EF66E0A0E7B
:1043C000F76E1D0E0901926F00015BEC07F0100EF5
:1043D000E96E78C590F977C58FF981EC07F05E0E2C
:1043E000F66E0A0EF76E160E0901926F00015BEC75
:1043F00007F0100EE96E7AC590F979C58FF981EC56
:1044000007F0770EF66E0A0EF76E100E0901926F26
:1044100000015BEC07F07BC58FF91B0E0901906F63
:1044200000018DEC09F0890EF66E0A0EF76E030E90
:104430000901926F00015BEC07F00501806B775179
:10444000006E7851036E035005E1030E005C00011D
:1044500017E00501035005E1040E005C000110E0C7
:104460000501035005E1060E005C000113E00501A3
:10447000035005E1070E005C000131E0050131D079
:104480007AC581F979C580F97BC582F930D501C03B
:104490007FF52AD06A0E05017C25E96E040EEA6ECE
:1044A000D8B0EA2AEFCF80F9010E7C256A0FE96EB9
:1044B000040EEA6ED8B0EA2AEFCF81F980C983F9F9
:1044C00081C982F97AC585F979C584F980C987F9E6
:1044D00081C986F9000175D501C07FF505D004D0EA
:1044E0000501010E7F6F806B000162EF28F082C929
:1044F0008DF9020E09018E6F0001E4EC13F084C9FE
:1045000087F984C990F9CFEC13F083C987F983C97F
:1045100090F9CFEC13F086C987F986C990F9CFECF2
:1045200013F085C987F985C990F9CFEC13F0F8EC41
:1045300013F0090182532AE0000112EC14F0015239
:1045400019E1FF0E05018B27D8A08C27D8A08D2755
:10455000D8A08E278B5309E18C5307E18D5305E1D9
:104560008E53D8A402D0000105D004000000090138
:10457000E3D7000105018B5308E18C5306E18D530D
:1045800004E18E5302E10C0E966F090105018E6B5A
:10459000010E8D6F860E8C6FA00E8B6F96C501F08D
:1045A0000001DCEF24F083C98DF9050E09018E6F3F
:1045B0000001E4EC13F085C987F985C990F9CFECC7
:1045C00013F084C987F984C990F9CFEC13F009017D
:1045D000865306E090690001CFEC13F005D0090185
:1045E000906B0001CFEC13F00901906B0001CFEC50
:1045F00013F0F8EC13F0090183532AE0000112ECE8
:1046000014F0015219E1FF0E05018B27D8A08C2769
:10461000D8A08D27D8A08E278B5309E18C5307E1B2
:104620008D5305E18E53D8A402D0000105D00400BB
:1046300000000901E3D7000105018B5308E18C5309
:1046400006E18D5304E18E5302E10C0E966F0901D1
:1046500005018E6B010E8D6F860E8C6FA00E8B6F19
:1046600096C501F000011DEF25F086C98DF9060EF3
:1046700009018E6F0001E4EC13F088C98BF988C939
:1046800090F9CFEC13F087C98BF987C990F9CFEC7B
:1046900013F08AC98BF98AC990F9CFEC13F089C954
:1046A0008BF989C990F9CFEC13F0F8EC13F00901FC
:1046B00086532AE0000112EC14F0015219E1FF0EBA
:1046C00005018B27D8A08C27D8A08D27D8A08E27AE
:1046D0008B5309E18C5307E18D5305E18E53D8A428
:1046E00002D0000105D0040000000901E3D7000159
:1046F00005018B5308E18C5306E18D5304E18E5381
:1047000002E10C0E966F090105018E6B010E8D6F93
:10471000860E8C6FA00E8B6F96C501F0000148EFDE
:1047200025F0D89009018735026E883502C08CF9D2
:1047300084C98DF9100E8E6F0001E4EC13F086C968
:104740008DF986C990F9CFEC13F085C98DF985C92B
:1047500090F9CFEC13F088C98DF988C990F9CFECA6
:1047600013F087C98DF987C990F9CFEC13F08CC984
:1047700090F9CFEC13F009018B6B885303E187515B
:104780008B5D34E2036A8BC902F0D890023603369F
:1047900002508925E96E8A510320EA6EECCF8EF92A
:1047A000ED52EFCF8DF98DC98FF98DC990F90001C8
:1047B000CFEC13F0036A09018BC902F0D8900236DE
:1047C000033602508925E96E8A510320EA6EECCF48
:1047D0008EF9ED52EFCF8DF98EC98FF98EC990F910
:1047E0000001CFEC13F009018B2BC7D70001F8ECC7
:1047F00013F0090184532AE0000112EC14F0015275
:1048000019E1FF0E05018B27D8A08C27D8A08D2792
:10481000D8A08E278B5309E18C5307E18D5305E116
:104820008E53D8A402D0000105D004000000090175
:10483000E3D7000105018B5308E18C5306E18D534A
:1048400004E18E5302E10C0E966F090105018E6B97
:10485000010E8D6F860E8C6FA00E8B6F96C501F0CA
:10486000000167EF25F0C580C5B0FED70400090E32
:10487000006E002EFED7000088C98DF9A7EC06F067
:1048800089C98DF9A7EC06F08BC98CF98BC98DF914
:10489000A7EC06F08AC98CF98AC98DF9A7EC06F055
:1048A000C584C5B4FED7BBEF26F0FA0EF66E070E30
:1048B000F76E70EC07F00C0EF66E080EF76E110E28
:1048C0000901926F00015BEC07F0100EE96E78C5EC
:1048D00090F977C58FF981EC07F00D0EA4A8FED7EB
:1048E000796E0A0EA4A8FED7796E05017853D8A474
:1048F00028D177510708D8A024D17751006E78517C
:10490000036E035004E10052000135E0050103503D
:1049100005E1010E005C00012FE00501035005E1F7
:10492000020E005C00013CE00501035005E1030EAE
:10493000005C000148E00501035005E1040E005C45
:10494000000155E00501035005E1050E005C000182
:1049500062E00501035006E1060E005C0001D8B4D8
:1049600073D00501035006E1070E005C0001D8B4C6
:1049700096D00501B4D00DD275C582F97AC584F9F7
:1049800079C583F90901866B7BC585F9000131EC96
:1049900016F001C07FF5010E0901806F05019FD05F
:1049A00075C582F97AC584F979C583F90901866BE1
:1049B0007BC585F900019BD501C07FF5010E09017A
:1049C000806F05018CD075C582F97AC584F979C5E7
:1049D00083F90901866B7BC585F9000178EC14F039
:1049E00001C07FF5010E0901806F050178D075C502
:1049F00082F97AC584F979C583F90901866B7BC58B
:104A000085F9000124EC14F001C07FF5010E0901C5
:104A1000806F050164D06A0E05017C25E96E040EE5
:104A2000EA6ED8B0EA2AEFCF86F975C583F97AC560
:104A300085F979C584F90001B6D501C07FF5020E6C
:104A40000901806F05014BD06A0E05017C25E96ED6
:104A5000040EEA6ED8B0EA2AEFCF82F9010E7C2567
:104A60006A0FE96E040EEA6ED8B0EA2AEFCF83F936
:104A700082C985F983C984F975C586F97AC588F92B
:104A800079C587F982C98AF983C989F90001EDD509
:104A900001C07FF5020E0901806F00017AD16A0E14
:104AA00005017C250901826F040E836FD8B0832B2A
:104AB00075C584F97AC586F979C585F9886B7BC592
:104AC00087F983C98AF982C989F900012AD601C008
:104AD0007FF5020E0901806F00015BD1050109011C
:104AE000802D1DD005017F53D8B402D0090117D005
:104AF000010E945D806F010E945D0901826F040EBA
:104B0000EA6E6A0EE96E050EE26E980EE16E825153
:104B1000016E04E0E6CFEEFF012EFCD710D08051ED
:104B200002080DE105017F53D8B402D0090107D076
:104B3000020E806F9AC56AF49BC56BF4090129D1F6
:104B400005017853D8A424D177511708D8A020D1D3
:104B5000240EF66E080EF76E250E0901926F000105
:104B60005BEC07F0100EE96E76C590F975C58FF90C
:104B700081EC07F04C0EF66E080EF76E100E090170
:104B8000926F00015BEC07F0100EE96E7AC590F9A8
:104B900079C58FF981EC07F05F0EF66E080EF76E9F
:104BA000090E0901926F00015BEC07F07BC58FF9DC
:104BB0001B0E0901906F00018DEC09F00D0EA4A8E9
:104BC000FED7796E0A0EA4A8FED7796E050177513B
:104BD00010081CE178531AE16E0EF66E080EF76E9F
:104BE000000170EC07F075C582F979C583F9040EF0
:104BF0000901856F6A0E846F7BC586F9000185EC1B
:104C000016F07BC580F505017F6BC2D07751150882
:104C1000D8A4B6D07853D8A4B3D0860EF66E080EBA
:104C2000F76E000170EC07F00901816B05017B5103
:104C30000901815DD8B0A2D0D890813505017C25CD
:104C40006A0FE96E040EEA6ED8B0EA2AEFCF85F952
:104C5000D8900901813505017C25010F6A0FE96EA5
:104C6000040EEA6ED8B0EA2AEFCF84F9D890090191
:104C70008135050179250901866F000E05017A212C
:104C80000901876FA00EF66E080EF76E0C0E926F7C
:104C900000015BEC07F085C992F9570E0901936F8B
:104CA000000125EC0AF084C992F9570E0901936FAF
:104CB000000125EC0AF0B10EF66E080EF76E110E2B
:104CC0000901926F00015BEC07F075C592F9570E70
:104CD0000901936F000125EC0AF0C60EF66E080E6E
:104CE000F76E0C0E0901926F00015BEC07F0100EDD
:104CF000E96E87C990F986C98FF981EC07F00D0E2E
:104D0000A4A8FED7796E0A0EA4A8FED7796ED89013
:104D100009018135050179250901826F000E050120
:104D20007A210901836FD890813505017C256A0FAE
:104D3000E96E040EEA6ED8B0EA2AEFCF84F9D89073
:104D40000901813505017C25010F6A0FE96E040E0A
:104D5000EA6ED8B0EA2AEFCF85F984C987F985C908
:104D600086F975C588F982C989F984C98BF985C91D
:104D70008AF9000178D50901812B58D708D005019F
:104D8000D80EF66E080EF76E000170EC07F0050104
:104D90000901000167EF28F0230E0901806F81C52A
:104DA00081F983C582F9090182C583F90901846902
:104DB000140E856F0D0E05018025020F09018D6F00
:104DC0008E6BD8B08E2B8EC986F98DC987F970C5C8
:104DD00088F909016FC589F909016EC58AF90901C8
:104DE0006DC58BF909017FC58CF995699469090E28
:104DF000976F810E966F0C0E986F0001CCEC14F03B
:104E000002C08EF901C08DF98EC995F98DC994F94A
:104E1000040E0901976F6A0E966F80C598F900011C
:104E2000CCEC14F002C08EF901C08DF9929089800B
:104E300009018F6B8F510C0810E3036A8F51800FAB
:104E4000E96E090E0320EA6EEFCF90F99051000150
:104E5000FBEC14F009018F2BEDD78F6B050180510E
:104E600009018F5D10E26A0E8F25E96E040EEA6E6D
:104E7000D8B0EA2AEFCF90F990510001FBEC14F082
:104E800009018F2BEBD78EC990F990510001FBECF3
:104E900014F08DC990F9090190510001FBEC14F058
:104EA0000A0E0901906F00010BEC07F092908990B7
:104EB00068EF28F08E0EF66E0A0EF76E70EC07F0B3
:104EC0006EC46CF5020E05016C5D6A0FE96E040E8E
:104ED000EA6ED8B0EA2AEFCF7EF5010E6C5D6A0F5C
:104EE000E96E040EEA6ED8B0EA2AEFCF7DF5030E24
:104EF0006C5D0901806F95699469040E976F6B0E64
:104F0000966F80C998F90001CCEC14F002C07FF9CB
:104F100001C07EF905017D5109017E5D05E10501B4
:104F20007E5109017F5D3FE0A60EF66E0A0EF76E18
:104F3000080E926F00015BEC07F07EC592F9370E08
:104F40000901936F000125EC0AF07DC592F9370E37
:104F50000901936F000125EC0AF0B30EF66E0A0EFC
:104F6000F76E060E0901926F00015BEC07F07FC936
:104F700092F9370E0901936F000125EC0AF07EC902
:104F800092F9370E0901936F000125EC0AF0BE0E6D
:104F9000F66E0A0EF76E0A0E0901926F00015BECC5
:104FA00007F096D0090104016F51130809E0CA0EF9
:104FB000F66E0A0EF76E000170EC07F089D004015E
:104FC00070C470F571C46FF572C46EF573C46DF57D
:104FD00074C474F575C473F576C472F577C471F54D
:104FE00078C476F579C475F57AC478F57BC477F51D
:104FF0007CC47AF57DC479F57EC47BF5150E050178
:105000007C6F806B09017D6B81C57CF982C57AF963
:1050100083C57BF9FE0EF66E0A0EF76E0F0E926FC9
:1050200000015BEC07F005018151A4A8FED7796E61
:10503000100EE96E83C590F982C58FF9000181ECED
:1050400007F00D0EA4A8FED7796E0A0EA4A8FED70D
:10505000796E73C580F9160EF66E0B0EF76E0F0E95
:105060000901926F00015BEC07F009018051A4A8CF
:10507000FED7796E100EE96E72C590F971C58FF981
:10508000000181EC07F00D0EA4A8FED7796E0A0E80
:10509000A4A8FED7796E0501715109017A5D14E16A
:1050A0000501725109017B5D0FE105017351090191
:1050B0007C5D0AE10501745109017D5D05E1000196
:1050C000DDEF21F004D00901000155EF24F064D692
:1050D000FBEF29F0F86AD09E078E620ED36E9B6AB2
:1050E000646A206AB986220E7B6E000E7C6EA60E64
:1050F000BA6E900EA66E94869488040EC86E280E22
:10510000C66EC79EC79C05018A6B896BA7960C0E5D
:10511000AF6EA20EAC6E900EAB6E8E6B010E8D6FED
:10512000860E8C6FA00E8B6F8F91906B0F015C5170
:10513000800B5C6F000E5D6FC196C198C19A5E6B6B
:105140005F6B08D002001A0000FF469600FFC00007
:10515000E5C00000000EF86E510EF76E440EF66EBC
:105160000900F550006E000A13E00900F550016EC9
:10517000E8BE05D03F0BEA6E0900F5CFE9FF01BCA0
:10518000090001AC0900F5CFEEFF004EE9D7F9D7D1
:10519000F86A000123EF07F00901796B795195084E
:1051A00013E30400939A8A8A640E906F00010BEC5B
:1051B00007F0939A8A9A640E0901906F00010BEC34
:1051C00007F00901792BEAD7160EF66E0C0EF76E72
:1051D000080E926F00015BEC07F02C0EF66E0C0EC1
:1051E000F76E70EC07F0200EA4A8FED7796E280E9B
:1051F000A4A8FED7796E05018151A4A8FED7796EC7
:10520000100EE96E83C590F982C58FF9000181EC1B
:1052100007F0270EF66E0C0EF76E030E0901926F63
:1052200000015BEC07F0360EF66E0C0EF76E70ECBC
:1052300007F0070E005C12E00B0E005C16E00F0E8C
:10524000005C1AE00C0E005C1EE00E0E005C22E01A
:10525000030E005C26E000522BE031D0480EF66EC3
:105260000C0EF76E70EC07F030D0540EF66E0C0E8C
:10527000F76E70EC07F029D0640EF66E0C0EF76E28
:1052800070EC07F022D0720EF66E0C0EF76E70EC1A
:1052900007F01BD0820EF66E0C0EF76E70EC07F066
:1052A00014D0940EF66E0C0EF76E70EC07F00DD065
:1052B000A40EF66E0C0EF76E70EC07F006D0B60E6C
:1052C000F66E0C0EF76E70EC07F00D0EA4A8FED76C
:1052D000796E0A0EA4A8FED7796EC00EF21255ECB4
:1052E00008F0A4EC08F04BEF09F0CCEF09F019EF4F
:1052F0000AF048EF0AF035EC0CF004000501865383
:1053000065E00801E45309E0C00EF66E0C0EF76E7E
:10531000000170EC07F00801E46B0601965322E0EF
:10532000C95320E1D40EF66E0C0EF76E160E09016D
:10533000926F00015BEC07F0060EEA6E960EE96EC6
:105340003BEF0CF0EC0EF66E0C0EF76E030E09013F
:10535000926F00015BEC07F053EF0DF00601966BC6
:10536000C85300E00801E65311E109012853D8B4FD
:1053700002D008010BD00001F3EC0EF00152D8A4CA
:1053800002D0080103D0FCEF0EF008010601C32D86
:1053900004D000016EEF0FF00601C9530AE00701C7
:1053A000DF53D8B402D0060104D00001D4EF11F0CD
:1053B00006010701DE2D09D0F00EF66E0C0EF76E19
:1053C000000170EC07F00701DE6B0501030161537A
:1053D00007E0616BC80E646F0001CAEF16F00301AD
:1053E00005016B5311E00A0EF66E0D0EF76E00010B
:1053F00070EC07F05FD5280EF66E0D0EF76E70ECB0
:0E54000007F0A2EC06F00501000177D70300CB
:020000040030CA
:0E00000015086727000991000FC000E00040BE
:00000001FF
;PIC18F25K80
;CRC=6E0A  CREATED="04-Nov-23 19:15"
