:04000000FBEF15F00D
:08000800046ED8CF05F0E0CF33
:1000100006F00001E9CF0CF0EACF07F0E1CF08F0DD
:10002000E2CF09F0D9CF0AF0DACF0BF0F3CF12F01C
:10003000F4CF13F0FACF14F0F5CF15F0F6CF16F099
:10004000F7CF17F000C00EF001C00FF002C010F0A3
:1000500003C011F09DA230EF00F09EB2F9EF01F065
:100060009DAA36EF00F09EBA33EF02F0A3AA3CEF50
:1000700000F0A4BA9EEF02F0B6AE42EF00F0B7BEB9
:1000800068EF02F00EC000F00FC001F010C002F0E7
:1000900011C003F00CC0E9FF07C0EAFF078E08C0DB
:1000A000E1FF09C0E2FF0AC0D9FF0BC0DAFF12C0AE
:1000B000F3FF13C0F4FF14C0FAFF15C0F5FF16C01C
:1000C000F6FF17C0F7FF045006C0E0FF05C0D8FFD9
:1000D0001000F76AE20FF66E000EF7220900F550E5
:1000E000120000C1814001C0804101C0804100C1B7
:1000F000814001C0804100C1814000C1814001C0F8
:10010000804101C0804100C1814000C1814001C0E7
:10011000804100C1814001C0804101C0804100C1D7
:10012000814001C0804100C1814000C1814001C0C7
:10013000804100C1814001C0804101C0804100C1B7
:10014000814000C1814001C0804101C0804100C1A7
:10015000814001C0804100C1814000C1814001C097
:10016000804101C0804100C1814000C1814001C087
:10017000804100C1814001C0804101C0804100C177
:10018000814000C1814001C0804101C0804100C167
:10019000814001C0804100C1814000C1814001C057
:1001A000804100C1814001C0804101C0804100C147
:1001B000814001C0804100C1814000C1814001C037
:1001C000804101C0804100C1814000C1814001C027
:1001D000804100C1814001C0804101C0804100C117
:1001E0008140F76AF20FF66E010EF7220900F55012
:1001F000120000C0C101C30302C2C60607C705C57D
:10020000C404CC0C0DCD0FCFCE0E0ACACB0BC9093E
:1002100008C8D81819D91BDBDA1A1EDEDF1FDD1D4E
:100220001CDC14D4D515D71716D6D21213D311D17E
:10023000D010F03031F133F3F23236F6F737F535CE
:1002400034F43CFCFD3DFF3F3EFEFA3A3BFB39F9FE
:10025000F83828E8E929EB2B2AEAEE2E2FEF2DEDCE
:10026000EC2CE42425E527E7E62622E2E323E1213E
:1002700020E0A06061A163A3A26266A6A767A5654E
:1002800064A46CACAD6DAF6F6EAEAA6A6BAB69A9BE
:10029000A86878B8B979BB7B7ABABE7E7FBF7DBDCE
:1002A000BC7CB47475B577B7B67672B2B373B171FE
:1002B00070B05090915193535292965657975595CE
:1002C00094549C5C5D9D5F9F9E5E5A9A9B5B99597E
:1002D0005898884849894B8B8A4A4E8E8F4F8D4D4E
:1002E0004C8C4484854587474686824243834181BE
:1002F0008040232064697361626C696E6720616C61
:100300006C20646576696365730D0A00232077723B
:100310006974655F6465766963655F66696C6528A5
:10032000290D0A00232064756D70696E6720616C69
:100330006C20656E61626C656420646576696365D6
:10034000733A0D0A00006465766963655B25755D27
:100350000D0A000009747970653D25750D0A0000CD
:10036000097472616E736D697445766572793D25A5
:10037000750D0A00096E6574776F726B4164647263
:100380006573733D25750D0A000009736572696117
:100390006C4E756D6265723D30782530327825304F
:1003A000327825303278253032780D0A0000097312
:1003B0007461727452656769737465723D256C75FA
:1003C0000D0A0000096E5265676973746572733DAA
:1003D00025750D0A00002320646F6E650D0A00006C
:1003E0009D9205013F5303E0CC6A9E929D820001DD
:1003F00012000301ED5102080AE1EE5308E1EF5348
:1004000006E1ECB104D0020EF15FEC8101D0EC9179
:10041000EF69EE69ED6B05013F6B0001E1DF9E9234
:1004200042EF00F09EAAFED7ABCF20F0AECF01F096
:1004300020A202D0AB98AB8812000301EF51050156
:100440003F19406F036A4051000143DE016E030112
:10045000EE510118EF6F036A050140510001C1DE42
:10046000E8CFEEF31200DEDF01C03EF50301ECB190
:100470002BD0ED5308E1EF69EE693EC5F0F3ED2BAB
:10048000F16BF36B17D0ED2D04D03EC5F2F3ED2BDD
:1004900011D0ED5102080EE1F13D02D0FE0EF16FD8
:1004A000F40EF125E96E030EEA6ED8B0EA2A3EC5D5
:1004B000EFFFF12B3EC53FF50001BFDF010E050147
:1004C0003F6F00018DDF03019E9A000142EF00F0B3
:1004D0000401F32BF351640815E1F36BF42BD8B44A
:1004E000F52B0301E5510401F55D0CE305E1030182
:1004F000E4510401F45D06E3F56BF46B010E0101B8
:10050000C16F04010101C23D01D001D0C22BC4530F
:1005100003E1939A8A9A03D0939A8A8AC407B79E72
:10052000000142EF00F0A4AAFED7A6CF20F07ACFB8
:1005300001F020A202D0A698A68812000301CB5396
:1005400003E00001F0DF03010101C2510A0803E2E8
:100550000301CA6B0101C26B0301CA5336E1F7C440
:10056000F6F4F8C4F7F4F9C4F8F4FAC4F9F40001A5
:10057000DADF01C0FAF40401F651230824E1F7514F
:100580000301E15DD8B402D004011DD0F8C403F02A
:100590000401F9510301E25DD8B402D0040113D083
:1005A0000350E35DD8B402D004010DD0F6C4CAF202
:1005B000F7C4CBF2F8C4CCF2F9C4CDF2FAC4CEF24F
:1005C000050ECA6F04011DD00301CA51CA2BCA0F00
:1005D000E96E020EEA6ED8B0EA2AEACF41F5E9CF19
:1005E00040F50001A0DF41C5EAFF40C5E9FF01C0B9
:1005F000EFFF0201CE510301CA5D02E1010ECB6F94
:100600000401A49A000142EF00F0232072645461B7
:100610007020257320282563256C75290D0A00009C
:10062000372D4665622D32320000232072657374C7
:100630006172742063617573653A200057445420D9
:1006400054494D454F5554004D434C522046524F4E
:100650004D20534C454550004D434C522046524F7F
:100660004D2052554E004E4F524D414C20504F5749
:1006700045522055500042524F574E4F555420522C
:1006800045535441525400005744542046524F4D54
:1006900020534C4545500000524553455420494E87
:1006A000535452554354494F4E00554E4B4E4F579D
:1006B0004E21000023207374617274696E67206D8F
:1006C00061696E2829206C6F6F700D0A00002A0D79
:1006D0000A000301CA6BCB6B0001120093988A8851
:1006E00093908A8019EF04F0C69E9E9622C5C9FF9A
:1006F000020EC6BE05D09EA6FED7000EC5BC010EDA
:10070000016E1200C580C5B0FED70400090E006E50
:10071000002EFED700009A0E0501226F0001E4DFD3
:1007200005011F35216F21372137F80E211721C50B
:1007300022F50001D9DF20C522F5D6DFC584C5B476
:10074000FED71200030E05011F6F800E206F0001FF
:10075000D9DF05011F6B1EC520F50001D3DF010E97
:1007600005011F6F206B0001CDDF030E05011F6F18
:10077000BF0E206F0001C6DF020E05011F6F100EB5
:10078000206F0001BFDF030E05011F6F206F000106
:10079000B9DF010E05011F6F206B0001B3DF020EF0
:1007A00005011F6F070E206F0001ACDF1EEF04F084
:1007B000050EEA6E1E0EE96EEF5011E0020E016E9C
:1007C000BF0E006E0400002EFDD7012EF9D7960E45
:1007D000006E002EFED700D00400EF2EEFD71200DF
:1007E000620ED36E9B6A646A0F015C51800B5C6F72
:1007F000000E5D6FC196C198C19AD1805D691F0ED0
:100800005C6FF00EBB1650174D174A174717949A96
:100810008B9A780E0609886E4D0EA96EB68E010E63
:100820000101C16FC269C36BC46B000152DFA38AAF
:1008300055D7060E05011E6F000184D70E0E050167
:100840001E6F0001B5DF5AEF16F00900F6CF34F540
:10085000F7CF35F5F550A4A8FED7796E34C5F6FF6D
:1008600035C5F7FF0501332F01D002D00001EDD7C8
:10087000000112000900F5520DE0F6CF31F5F7CF77
:1008800032F5F550A4A8FED7796E31C5F6FF32C512
:10089000F7FFF0D71200EACF29F5E9CF28F50501D7
:1008A0002239F009246F2427E20F256F320F276FBA
:1008B00022510F0B252725272727E90F266F2627EB
:1008C000262721390F0B2627272726372737271FCB
:1008D000273721510F0B27272437070E236F0A0EC6
:1008E00026072727FDE325072627FDE324072527DD
:1008F000FDE323072427FDE3050EEA6E230EE96ED0
:10090000070E2815289DE926000EEA22E95027083F
:1009100004E1EA50050801E1288DEF50006E08E17E
:1009200028BD06D028B90CD028B702D0200E03D09D
:1009300028872899300E00260050A4A8FED7796E8B
:10094000EE5028ADE3D70001120005013A6B39C51E
:100950003CF53851D8B4390738073B6F3B5302E1B7
:100960003C533FE0040037C503F03651E96E03C045
:10097000EAFFEFCF3BF53AC53CF53BC53DF53C51B1
:100980003D19016E01C03AF53551036E3451342BD7
:10099000D8B4352B3B6F03C03CF53751036E36514D
:1009A000362BD8B4372BE96E03C0EAFFEFCF3DF505
:1009B000F250006EF29E3CC575FF3BC574FF3DC50D
:1009C00073FF7F9C7F9E7F840F01550E7E6EAA0E63
:1009D0007E6E7F827FB2FED77F940050F2120501B7
:1009E000B6D73AC501F000011200030E0501326FBF
:1009F000E10E316F356B040E346F32C537F531C5FA
:100A000036F5396B050E386F00019FDF01C030F5F8
:100A1000F250006EF29E756A746A30C573FF7F9C57
:100A20007F9E7F840F01550E7E6EAA0E7E6E7F82A2
:100A30007FB2FED77F940050F21200011200960E92
:100A40000101C46F5A0E0301E16F260EE36F930E8E
:100A5000E26FE56B0A0EE46F0001C7DF12000501CB
:100A600038513A03F3CF01F0F4CF00F03B03F350D9
:100A7000002639513A03F3500020026E00011200A3
:100A8000C00EF6163F0E006E08000D00002EFCD7BB
:100A900008000C0073EF05F0F250036EF29E7F8E9B
:100AA0007F840F01550E7E6EAA0E7E6E7F8200003F
:100AB0000350F212000112000501210E326F356B56
:100AC000800E346F376B32C536F5010E396FA00ECC
:100AD000386F00013ADF01C031F5D08CF86AF76A4F
:100AE000020EF66ECDD7020EF66E31C5F5FF0D0083
:100AF000F56A0C007F9C7F88CFDFCEDFF86AF86A4A
:100B00001200960E0101C46FF20EF66E020EF76E21
:100B10000001B0DE0501306B30511F0812E3396B64
:100B200030C538F53B6B0D0E3A6F000198DF210E92
:100B300005010124E96E000E0220EA6EEF6A302BF7
:100B4000EBD70C0EF66E030EF76E000193DEB4DFEA
:100B500012000501276B26C529F52551D8B42607B3
:100B60002507286F285302E1295332E024C503F0FA
:100B70002351E96E03C0EAFF2251036E2151212B5C
:100B8000D8B4222B2A6F03C02BF5F2CF2CF5F29E9E
:100B90002BC575FF2AC574FF7F9C7F9E7F80735095
:100BA0002CBFF28EEF6E24C503F02351E96E03C013
:100BB000EAFFEFCF28F527C53CF528C53DF53C51A8
:100BC0003D19016E01C027F5232BD8B4242BC3D7C0
:100BD00027C501F000011200030E0501206FE10E90
:100BE0001F6F226B040E216F20C524F51FC523F54E
:100BF000266B050E256F0001ACDF01C01EF5F2CF9C
:100C00001FF5F29EF86AF76AF66A0900F5500800C7
:100C1000F5CF03F0F86A05011FBFF28E1E5D02E1F9
:100C2000035203E000010BDF0501000103EF17F0A1
:100C30000501210E1F6F226B800E216F246B1FC5D3
:100C400023F5010E266FA00E256F000182DF01C083
:100C50001EF5F2CF1FF5F29EF86AF76A020EF66EE5
:100C60000900F5500800F5CF03F0F86A05011FBF31
:100C7000F28E1E5D02E1035203E0000142DF050136
:100C8000000105EF17F09EAA03D012EC02F0FBD78B
:100C9000AE50949A8B9A9D8A1200949A8B9AF3DFA5
:100CA000480E0609CA6EF90ECB6EC00EF21207EF9F
:100CB00017F005012551016A245D03E224C500F007
:100CC0000CD0006A080E266F243700362551005CD0
:100CD000D8B0006E0136262FF7D700011200015060
:100CE00022C524F5640E0501256F0001E2DF00C076
:100CF00022F50150300E08E1050123A30ED023B7E1
:100D00000CD023B9200E04D0050123972399238109
:100D100001260150A4A8FED7796E22C524F50A0E3B
:100D2000256F0001C6DF00C022F50150300E08E13A
:100D3000050123B70BD023A109D023B9200E000150
:100D400001260150A4A8FED7796E0501300E222796
:100D50002251A4A8FED7796E00011200050134BF0C
:100D600010D00F0E006E333900160A0E005C03E23D
:100D7000300E002602D0345100260050A4A8FED721
:100D8000796E0F0E33170A0E335D02E2300E02D079
:100D9000349F345133273351A4A8FED7796E000114
:100DA0001200240EF66E030EF76E64DD05011E6B55
:100DB0001E510F08D8A0D8D10400396B1EC538F5D4
:100DC0003B6B0D0E3A6F00014ADE02C020F501C0F8
:100DD0001FF5210E05010124E96E000E0220EA6EC6
:100DE000EF5001E1BFD1460EF66E030EF76E070E0F
:100DF000336F00012ADD1EC522F51B0E0501236F8E
:100E000000016DDF4F0EF66E030EF76E030E050147
:100E1000336F00011ADD0501396B1EC538F53B6BD8
:100E20000D0E3A6F00011BDE02C020F501C01FF558
:100E3000210E05010124E96E000E0220EA6EEFCFBB
:100E400021F5540EF66E030EF76E060E336F000199
:100E5000FCDC21C522F51B0E0501236F00013FDFDD
:100E60000D0EA4A8FED7796E0A0EA4A8FED7796E3F
:100E70000501396B1EC538F53B6B0D0E3A6F00014D
:100E8000EEDD02C020F501C01FF5030E05010124AF
:100E9000016E000E0220036E0150210FE96E000E5C
:100EA0000320EA6EEFCF1FF5600EF66E030EF76EAD
:100EB0000F0E336F0001C9DC1FC522F51B0E0501A3
:100EC000236F00010CDF0D0EA4A8FED7796E0A0E69
:100ED000A4A8FED7796E0501396B1EC538F53B6BAA
:100EE0000D0E3A6F0001BBDD02C020F501C01FF5F9
:100EF000040E05010124016E000E0220036E015054
:100F0000210FE96E000E0320EA6EEFCF1FF5740E7D
:100F1000F66E030EF76E100E336F000196DC1FC5E0
:100F200022F51B0E0501236F0001D9DE0D0EA4A8CA
:100F3000FED7796E0A0EA4A8FED7796E0501396B2B
:100F40001EC538F53B6B0D0E3A6F000188DD01C000
:100F50001FF5050E05010124016E000E0220036E2F
:100F60000150210FE96E000E0320EA6EEFCF1FF54E
:100F7000ECCF20F5ECCF21F5ECCF23F5396B1EC576
:100F800038F53B6B0D0E3A6F000169DD01C024F5A9
:100F9000050E05010124016E000E0220036E0150B2
:100FA000210FE96E000E0320EA6EEFCF24F5ECCF9F
:100FB00025F5ECCF28F5ECCF27F5396B1EC538F5B4
:100FC0003B6B0D0E3A6F00014ADD01C029F5050E9D
:100FD00005010124016E000E0220036E0150210F55
:100FE000E96E000E0320EA6EEFCF29F5ECCF2DF568
:100FF000ECCF2BF5ECCF2CF5396B1EC538F53B6BE0
:101000000D0E3A6F00012BDD01C02EF5050E050116
:101010000124016E000E0220036E0150210FE96EC3
:10102000000E0320EA6EEFCF32F5ECCF2FF5ECCFB8
:1010300030F5ECCF31F58A0EF66E030EF76E100E1A
:10104000336F000102DC23C533F5570E0501346F01
:10105000000184DE28C533F5570E0501346F000109
:101060007DDE2DC533F5570E0501346F000176DEA8
:1010700032C533F5570E0501346F00016FDE0D0EDA
:10108000A4A8FED7796E0A0EA4A8FED7796E050132
:10109000396B1EC538F53B6B0D0E3A6F0001DFDC76
:1010A00001C01FF5090E05010124016E000E02208A
:1010B000036E0150210FE96E000E0320EA6EECCFA3
:1010C00020F5ED52EFCF1FF5AE0EF66E030EF76E64
:1010D0000F0E336F000125EC04F0100EE96E20C5F1
:1010E00022F51FC521F54BEC04F00D0EA4A8FED788
:1010F000796E0A0EA4A8FED7796E0501396B1EC55C
:1011000038F53B6B0D0E3A6F0001A9DC02C020F5EB
:1011100001C01FF50B0E05010124016E000E022017
:10112000036E0150210FE96E000E0320EA6EEFCF2F
:101130001FF5C40EF66E030EF76E0C0E336F000132
:1011400025EC04F01FC522F51B0E0501236F0001DD
:10115000C6DD0D0EA4A8FED7796E0A0EA4A8FED790
:10116000796E05011E2B24D6D60EF66E030EF76E91
:1011700000013AEC04F009EF17F09EA8FED7AD6E1F
:10118000C6EF08F0050133510001F7D7196AF2BE26
:10119000198EF29E33C53FF51DEC02F019BEF28E9A
:1011A0000400440E006E002EFED700D01200030192
:1011B000EF69EE69EC919D9A949A8B8A0400F20E85
:1011C000006E002EFED730C533F50001DBDF31C5E0
:1011D00033F5D8DF1200EFC331F5EEC330F531C57A
:1011E00033F5D0DF30C533F5CDDFADA2FED7040037
:1011F000F20E006E002EFED746DD949A8B9A030104
:10120000EF69EE69000112000301ECB104D0000E99
:10121000016E0AD006D0F2AF04D0F4C3F3F3010E8E
:10122000F16FEC91010E016E0001120025C530F541
:10123000040E0501316F0001BADF27C52AF527C565
:1012400033F5A0DF26C52AF526C533F59BDF29C572
:101250002AF529C533F596DF28C52AF528C533F5C3
:1012600091DFB9DF0501255329E00001CDDF0152EF
:1012700019E1FF0E0301E827D8A0E927D8A0EA2743
:10128000D8A0EB27E85309E1E95307E1EA5305E168
:10129000EB53D8A402D0000105D0040000000501E2
:1012A000E4D700010301E85308E1E95306E1EA53FA
:1012B00004E1EB5302E10C0EF36F05010301EB6B4C
:1012C000010EEA6F860EE96FA00EE86FF3C301F01E
:1012D0000001120025C530F5030E0501316F000134
:1012E00066DF27C52AF527C533F54CDF26C52AF565
:1012F00026C533F547DF29C52AF529C533F542DF71
:1013000028C52AF528C533F53DDF65DF05012553DE
:1013100029E0000179DF015219E1FF0E0301E827FE
:10132000D8A0E927D8A0EA27D8A0EB27E85309E1FD
:10133000E95307E1EA5305E1EB53D8A402D00001D9
:1013400005D0040000000501E4D700010301E853C3
:1013500008E1E95306E1EA5304E1EB5302E10C0E24
:10136000F36F05010301EB6B010EEA6F860EE96F67
:10137000A00EE86FF3C301F000011200050139511E
:101380003907000A24E038C5EAFF3751372BD8B4B3
:10139000382BE96EEF50351B3A6B3A51070816E3CC
:1013A0003551010B006E036A005003100AE0D8901B
:1013B00036313C6F3531010A356F3C51A00A366F2A
:1013C00003D0D890363335333A2BE7D7D8D735C545
:1013D00001F036C502F000011200A4A8FED7796E14
:1013E0001200110E0201C625020F0501336F346B86
:1013F000D8B0342B230E226FE1C323F5E3C324F5C9
:101400000501E2C325F505012669120E276F34C5D3
:1014100028F533C529F5C9C22AF50501C8C22BF53F
:101420000501C7C221F5396B21C538F53B6B0D0E9F
:101430003A6F00012FEC05F001C035F5010E0501F2
:101440000124016E000E0220036E0150210FE96E8F
:10145000000E0320EA6EECCF2CF5ED52EFCF35F500
:10146000396B21C538F53B6B0D0E3A6F00012FEC3F
:1014700005F001C035F5010E05010124016E000ED5
:101480000220036E0150210FE96E000E0320EA6E68
:10149000ECCF36F5ED52EFCF2DF5396B21C538F590
:1014A0003B6B0D0E3A6F00012FEC05F001C035F5D6
:1014B000050E05010124016E000E0220036E01508D
:1014C000210FE96E000E0320EA6EEFCF35F5ECCF69
:1014D00036F5ECCF37F5ECCF2EF5396B21C538F565
:1014E0003B6B0D0E3A6F00012FEC05F001C035F596
:1014F000050E05010124016E000E0220036E01504D
:10150000210FE96E000E0320EA6EEFCF35F5ECCF28
:1015100036F5ECCF2FF5ECCF38F5396B21C538F522
:101520003B6B0D0E3A6F00012FEC05F001C035F555
:10153000050E05010124016E000E0220036E01500C
:10154000210FE96E000E0320EA6EEFCF35F5ECCFE8
:1015500030F5ECCF37F5ECCF38F5396B21C538F5E0
:101560003B6B0D0E3A6F00012FEC05F001C035F515
:10157000050E05010124016E000E0220036E0150CC
:10158000210FE96E000E0320EA6EEFCF31F5ECCFAC
:1015900036F5ECCF37F5ECCF38F5C5C132F5366905
:1015A0003569050E386F230E376F100E396F000145
:1015B000E5DE02C020F501C01FF520C536F51FC5C8
:1015C00035F5010E0501386FC60E376FC6C239F505
:1015D0000001D4DE02C020F501C01FF50501216B1A
:1015E000215110080FE3036A2151220FE96E050E05
:1015F0000320EA6EEFCF35F535510001EEDE05012F
:10160000212BEED7216B0201C6510501215D0FE2AE
:10161000C60E2125E96E010EEA6ED8B0EA2AEFCF98
:1016200035F535510001D9DE0501212BECD720C558
:1016300035F535510001D1DE1FC535F505013551B0
:101640000001CBDE120025C530F5010E0501316F1A
:101650000001ADDD27C52AF527C533F593DD26C585
:101660002AF526C533F58EDD29C52AF529C533F5BA
:1016700089DD28C52AF528C533F584DDACDD0501F3
:10168000255329E00001C0DD015219E1FF0E0301DD
:10169000E827D8A0E927D8A0EA27D8A0EB27E85365
:1016A00009E1E95307E1EA5305E1EB53D8A402D07D
:1016B000000105D0040000000501E4D7000103018A
:1016C000E85308E1E95306E1EA5304E1EB5302E190
:1016D0000C0EF36F05010301EB6B010EEA6F860E32
:1016E000E96FA00EE86FF3C301F0000112000501DD
:1016F0001E6B1E511F08D8A060D20400640E0101A9
:10170000C46F0501396B1EC538F53B6B0D0E3A6F82
:1017100000012FEC05F002C020F501C01FF5210EDD
:1017200005010124E96E000E0220EA6EEF5001E18E
:1017300042D2036A1E51FD0FE96E040E0320EA6EC9
:10174000EF2A036A1E51FD0FE96E040E0320EA6EB4
:10175000EFCF1FF5396B1EC538F53B6B0D0E3A6F99
:1017600000012FEC05F002C021F501C020F5030EA9
:1017700005010124016E000E0220036E0150210FAD
:10178000E96E000E0320EA6EEF501F5D02E213D2F5
:1017900008D0036A1E51FD0FE96E040E0320EA6EA5
:1017A000EF6A396B1EC538F53B6B0D0E3A6F0001C1
:1017B0002FEC05F002C020F501C01FF50C0E05014D
:1017C0000124016E000E0220036E0150210FE96E0C
:1017D000000E0320EA6EEF50010808E1A796190EEB
:1017E000AF6EA60EAC6E900EAB6E07D0A7960C0E29
:1017F000AF6EA20EAC6E900EAB6E1EC5C7F2FCC4EF
:10180000C9F2FBC4C8F2396B1EC538F53B6B0D0E2F
:101810003A6F00012FEC05F002C020F501C01FF562
:10182000210E05010124E96E000E0220EA6EEF5040
:10183000030818E0396B1EC538F53B6B0D0E3A6F87
:1018400000012FEC05F002C022F501C021F5210EA8
:1018500005010124E96E000E0220EA6EEF50040833
:10186000D8A4FAD0396B1EC538F53B6B0D0E3A6F14
:1018700000012FEC05F002C020F501C01FF5210E7C
:1018800005010124E96E000E0220EA6EEF50040803
:1018900062E1396B1EC538F53B6B0D0E3A6F0001E6
:1018A0002FEC05F002C020F501C01FF5040E050164
:1018B0000124016E000E0220036E0150210FE96E1B
:1018C000000E0320EA6EEFCF1FF5396B1EC538F509
:1018D0003B6B0D0E3A6F00012FEC05F001C020F5B7
:1018E000090E05010124016E000E0220036E015055
:1018F000210FE96E000E0320EA6EECCF21F5ED52C8
:10190000EFCF20F5396B1EC538F53B6B0D0E3A6FE6
:1019100000012FEC05F002C023F501C022F50B0EEB
:1019200005010124016E000E0220036E0150210FFB
:10193000E96E000E0320EA6EEFCF28F51FC525F5EE
:1019400021C527F520C526F5296B00016FDC01C0F4
:10195000C5F161D00501396B1EC538F53B6B0D0E25
:101960003A6F00012FEC05F002C020F501C01FF511
:10197000040E05010124016E000E0220036E0150C9
:10198000210FE96E000E0320EA6EEFCF1FF5396BD1
:101990001EC538F53B6B0D0E3A6F00012FEC05F0BC
:1019A00001C020F5090E05010124016E000E022080
:1019B000036E0150210FE96E000E0320EA6EECCF9A
:1019C00021F5ED52EFCF20F5396B1EC538F53B6B95
:1019D0000D0E3A6F00012FEC05F002C023F501C097
:1019E00022F50B0E05010124016E000E0220036E8C
:1019F0000150210FE96E000E0320EA6EEFCF28F5AB
:101A00001FC525F521C527F520C526F5296B000141
:101A100061DC01C0C5F10101C5531CE1010E0301E8
:101A2000F15D0201C66F010E0301F15D05011F6F3B
:101A3000010EEA6EC60EE96E030EE26EF50EE16E61
:101A40001F51016E04E0E6CFEEFF012EFCD700012E
:101A5000C8DC0101AFD00501396B1EC538F53B6B01
:101A60000D0E3A6F00012FEC05F002C020F501C009
:101A70001FF5210E05010124E96E000E0220EA6E19
:101A8000EF50010818E0396B1EC538F53B6B0D0EA1
:101A90003A6F00012FEC05F002C022F501C021F5DC
:101AA000210E05010124E96E000E0220EA6EEF50BE
:101AB0000208D8A480D0396B1EC538F53B6B0D0EDB
:101AC0003A6F00012FEC05F002C020F501C01FF5B0
:101AD000040E05010124016E000E0220036E015068
:101AE000210FE96E000E0320EA6EEFCF1FF5396B70
:101AF0001EC538F53B6B0D0E3A6F00012FEC05F05B
:101B000001C020F5090E05010124016E000E02201E
:101B1000036E0150210FE96E000E0320EA6EECCF38
:101B200021F5ED52EFCF20F5396B1EC538F53B6B33
:101B30000D0E3A6F00012FEC05F002C023F501C035
:101B400022F50B0E05010124016E000E0220036E2A
:101B50000150210FE96E000E0320EA6EEFCF28F549
:101B60001FC525F521C527F520C526F5296B0001E0
:101B70006ADD01C0C5F10101C5531CE1010E03017D
:101B8000F15D0201C66F010E0301F15D05011F6FDA
:101B9000010EEA6EC60EE96E030EE26EF50EE16E00
:101BA0001F51016E04E0E6CFEEFF012EFCD70001CD
:101BB00018DC010105011E2B9CD50401FB2BD8B4B8
:101BC000FC2B0101C46B000119EF17F005012D5129
:101BD0000308D8A06AD104E12C51E708D8A065D148
:101BE0002D31036E2C31026E033202320332023287
:101BF00002C031F52C51070B326F3151200803E23E
:101C0000020E016ECED13251F80FD8B04DD1080F6F
:101C10000001D4EF0FF00501396B31C538F53B6B8E
:101C20000D0E3A6F00012FEC05F002C034F501C033
:101C300033F5210E05010124E96E000E0220EA6E43
:101C4000306BEFCF2FF530D10501396B31C538F549
:101C50003B6B0D0E3A6F00012FEC05F002C034F51E
:101C600001C033F5010E05010124016E000E0220B2
:101C7000036E0150210FE96E000E0320EA6EECCFD7
:101C800030F5ED52EFCF2FF50FD10501396B31C58E
:101C900038F53B6B0D0E3A6F00012FEC05F002C0DA
:101CA00034F501C033F5030E05010124016E000E69
:101CB0000220036E0150210FE96E000E0320EA6E30
:101CC000306BEFCF2FF5F0D00501396B31C538F50A
:101CD0003B6B0D0E3A6F00012FEC05F002C034F59E
:101CE00001C033F5040E05010124016E000E02202F
:101CF000036E0150210FE96E000E0320EA6E306B77
:101D0000EFCF2FF5D1D00501396B31C538F53B6BDD
:101D10000D0E3A6F00012FEC05F001C033F5050EF2
:101D200005010124016E000E0220036E0150210FF7
:101D3000E96E000E0320EA6EEFCF33F5ECCF34F5F9
:101D4000ECCF35F5ECCF37F5396B31C538F53B6B5A
:101D50000D0E3A6F00012FEC05F001C038F5050EAD
:101D600005010124016E000E0220036E0150210FB7
:101D7000E96E000E0320EA6EEFCF38F5ECCF39F5AF
:101D8000ECCF3AF5ECCF3BF53AC53CF537C530F52D
:101D90003AC52FF589D00501396B31C538F53B6B54
:101DA0000D0E3A6F00012FEC05F001C033F5050E62
:101DB00005010124016E000E0220036E0150210F67
:101DC000E96E000E0320EA6EEFCF33F5ECCF37F566
:101DD000ECCF35F5ECCF36F5396B31C538F53B6BCB
:101DE0000D0E3A6F00012FEC05F001C038F5050E1D
:101DF00005010124016E000E0220036E0150210F27
:101E0000E96E000E0320EA6EEFCF38F5ECCF39F51E
:101E1000ECCF3AF5ECCF3BF538C53CF537C530F59E
:101E200038C52FF541D00501396B31C538F53B6B0D
:101E30000D0E3A6F00012FEC05F002C034F501C021
:101E400033F5090E05010124016E000E0220036E18
:101E50000150210FE96E000E0320EA6EECCF30F541
:101E6000ED52EFCF2FF520D00501396B31C538F594
:101E70003B6B0D0E3A6F00012FEC05F002C034F5FC
:101E800001C033F50B0E05010124016E000E022086
:101E9000036E0150210FE96E000E0320EA6E306BD5
:101EA000EFCF2FF501D0050163D02C51006E2D51DD
:101EB000036E030E035C05E1E80E005C000132E0F6
:101EC0000501030E035C05E1E90E005C00012FE053
:101ED0000501030E035C05E1EA0E005C00012DE044
:101EE0000501030E035C05E1EB0E005C00012AE036
:101EF0000501030E035C05E1EC0E005C000126E029
:101F00000501030E035C05E1ED0E005C000123E01A
:101F10000501040E035C05E14C0E005C00011FE0AE
:101F2000050123D00501306BE1C32FF521D0E3C3B8
:101F300030F5E2C32FF505011BD00501306B520EC1
:101F40002F6F16D00501306B2F6B12D00501306B4F
:101F5000340E2F6F0DD00501306B2F6B09D0E5C308
:101F600030F5E4C32FF5050103D0020E016E19D040
:101F7000CA0E2E25E96E020EEA6ED8B0EA2A30C5E6
:101F8000EFFF010E2E25CA0FE96E020EEA6ED8B0E1
:101F9000EA2A2FC5EFFF020E0301E027000E016EB3
:101FA0000501000101EF10F0E824F76AF736C30FCE
:101FB000F66E1F0EF7220A00F550FA6E0800F55073
:101FC000F96E161C481C8A1CC81C061D961D261E70
:101FD000681E0501286B276B2651275D17E22853E1
:101FE00015E127512425296F000E25212A6FD8904D
:101FF00027352B6F2AC52DF529C52CF52E6F00012D
:10200000E5D501C028F50501272BE6D728C501F045
:102010000001DFEF11F00101C3531BE0050128515E
:10202000E80809E12951030806E12AC5E1F3000E99
:10203000016E83D10DD02851E9080AE12951030826
:1020400007E12BC5E3F32AC5E2F3000E016E75D15B
:102050000101050129510308D8A002D104E128514A
:10206000E708D8A0FDD02931036E2831026E033273
:1020700002320332023202C02CF52851070B2D6FB9
:102080002C51200803E2020E016E57D12D51F80F9A
:10209000D8B0E5D0080F0001A0EF11F00501396BB1
:1020A0002CC538F53B6B0D0E3A6F00012FEC05F097
:1020B00002C031F501C030F5210E05010124E96EA1
:1020C000000E0220EA6E2AC5EFFFC9D00501396B68
:1020D0002CC538F53B6B0D0E3A6F00012FEC05F067
:1020E00002C031F501C030F5010E05010124016E79
:1020F000000E0220036E0150210FE96E000E032036
:10210000EA6E2BC5ECFFED522AC5EFFFA8D0050102
:10211000396B2CC538F53B6B0D0E3A6F00012FEC77
:1021200005F002C031F501C030F5030E05010124B0
:10213000016E000E0220036E0150210FE96E000EA9
:102140000320EA6E2AC5EFFF8AD00501396B2CC542
:1021500038F53B6B0D0E3A6F00012FEC05F002C015
:1021600031F501C030F5040E05010124016E000EA9
:102170000220036E0150210FE96E000E0320EA6E6B
:102180002AC5EFFF6CD02BC52FF52AC52EF505010A
:1021900066D00501396B2CC538F53B6B0D0E3A6FD7
:1021A00000012FEC05F001C030F5050E05010124FA
:1021B000016E000E0220036E0150210FE96E000E29
:1021C0000320EA6EEE522EC5ECFF2FC5ECFFED5258
:1021D000ED52ED522AC5EFFF2BC5ECFF00010501C2
:1021E000396B2CC538F53B6B0D0E3A6F00012FECA7
:1021F00005F002C031F501C030F5090E05013025AA
:10220000016E000E3121036E0150210FE96E000EA8
:102210000320EA6E2BC5ECFFED522AC5EFFF1FD05D
:102220000501396B2CC538F53B6B0D0E3A6F00017B
:102230002FEC05F002C031F501C030F50B0E0501A1
:102240000124016E000E0220036E0150210FE96E81
:10225000000E0320EA6E2AC5EFFF01D0050169D008
:102260002851006E2951036E040E035C05E14C0EEB
:10227000005C000122E00501070E035C05E1CD0EC4
:10228000005C00011FE00501070E035C05E1CE0EB6
:10229000005C000118E00501070E035C05E1CF0EAC
:1022A000005C000120E005014E0E035C05E11F0EFD
:1022B000005C000126E0050139D02BC5E5F32AC5F5
:1022C000E4F338D0FF0005012A51CE0803E12B5179
:1022D000070803E0030E016E30D000011FEC05F08B
:1022E00081EC05F027D005012A2D02D02B5303E005
:1022F000030E016E22D00001F5EC04F05CEC05F059
:1023000019D005012A510A0803E12B51070806E0FC
:102310000101C36B030E016E05010FD0010E010117
:10232000C36FC80EC46F000105D00501020E016E17
:1023300004D00001000E016E0501000104EF12F04F
:10234000E824F76AF7365B0FF66E230EF7220A00D1
:10235000F550FA6E0800F550F96E9C20CC200E2145
:102360004A2186219221DE2120220301E06BD751F0
:10237000006ED851036E035005E1030E005C0001AE
:1023800017E00301035005E1040E005C000110E0BA
:102390000301035005E1060E005C000113E0030198
:1023A000035005E1070E005C000131E0030131D06C
:1023B000DAC325F5D9C324F5DBC326F50AD601C057
:1023C000DFF32AD0CA0E0301DC25E96E020EEA6EA5
:1023D000D8B0EA2AEFCF24F5010EDC25CA0FE96E4A
:1023E000020EEA6ED8B0EA2AEFCF25F524C527F50C
:1023F00025C526F5DAC329F5D9C328F524C52BF55B
:1024000025C52AF5000107D601C0DFF305D004D0A9
:102410000301010EDF6FE06B0001F2EF15F025C53F
:1024200030F5020E0501316F0001D7EC08F027C529
:102430002AF527C533F5C2EC08F026C52AF526C5CE
:1024400033F5C2EC08F029C52AF529C533F5C2ECED
:1024500008F028C52AF528C533F5C2EC08F0EBECE6
:1024600008F0050125532AE0000104EC09F00152AF
:1024700019E1FF0E0301E827D8A0E927D8A0EA2731
:10248000D8A0EB27E85309E1E95307E1EA5305E156
:10249000EB53D8A402D0000105D0040000000501D0
:1024A000E3D700010301E85308E1E95306E1EA53E9
:1024B00004E1EB5302E10C0EF36F05010301EB6B3A
:1024C000010EEA6F860EE96FA00EE86FF3C301F00C
:1024D00000012BEF14F026C530F5050E0501316F14
:1024E0000001D7EC08F028C52AF528C533F5C2EC61
:1024F00008F027C52AF527C533F5C2EC08F0050119
:10250000295306E033690001C2EC08F005D005014B
:10251000336B0001C2EC08F00501336B0001C2EC23
:1025200008F0EBEC08F0050126532AE0000104EC6A
:1025300009F0015219E1FF0E0301E827D8A0E927AD
:10254000D8A0EA27D8A0EB27E85309E1E95307E12F
:10255000EA5305E1EB53D8A402D0000105D00400F2
:1025600000000501E3D700010301E85308E1E95346
:1025700006E1EA5304E1EB5302E10C0EF36F0501AF
:102580000301EB6B010EEA6F860EE96FA00EE86F98
:10259000F3C301F000016CEF14F029C530F5060E0D
:1025A0000501316F0001D7EC08F02BC52EF52BC5C6
:1025B00033F5C2EC08F02AC52EF52AC533F5C2EC76
:1025C00008F02DC52EF52DC533F5C2EC08F02CC54D
:1025D0002EF52CC533F5C2EC08F0EBEC08F0050144
:1025E00029532AE0000104EC09F0015219E1FF0E21
:1025F0000301E827D8A0E927D8A0EA27D8A0EB272D
:10260000E85309E1E95307E1EA5305E1EB53D8A4A4
:1026100002D0000105D0040000000501E3D700014D
:102620000301E85308E1E95306E1EA5304E1EB53FF
:1026300002E10C0EF36F05010301EB6B010EEA6F73
:10264000860EE96FA00EE86FF3C301F0000197EF6B
:1026500014F0D89005012A35026E2B3502C02FF5F3
:1026600027C530F5100E316F0001D7EC08F029C5F1
:1026700030F529C533F5C2EC08F028C530F528C57A
:1026800033F5C2EC08F02BC530F52BC533F5C2ECA1
:1026900008F02AC530F52AC533F5C2EC08F02FC57D
:1026A00033F5C2EC08F005012E6B2B5303E12A51E0
:1026B0002E5D34E2036A2EC502F0D890023603364E
:1026C00002502C25E96E2D510320EA6EECCF31F536
:1026D000ED52EFCF30F530C532F530C533F500019E
:1026E000C2EC08F0036A05012EC502F0D89002364C
:1026F000033602502C25E96E2D510320EA6EECCFF3
:1027000031F5ED52EFCF30F531C532F531C533F546
:102710000001C2EC08F005012E2BC7D70001EBEC3D
:1027200008F0050127532AE0000104EC09F00152EA
:1027300019E1FF0E0301E827D8A0E927D8A0EA276E
:10274000D8A0EB27E85309E1E95307E1EA5305E193
:10275000EB53D8A402D0000105D00400000005010D
:10276000E3D700010301E85308E1E95306E1EA5326
:1027700004E1EB5302E10C0EF36F05010301EB6B77
:10278000010EEA6F860EE96FA00EE86FF3C301F049
:102790000001B6EF14F00301D751006ED851036E5B
:1027A000035004E10052000135E00301035005E14C
:1027B000010E005C00012FE00301035005E1020E51
:1027C000005C00013CE00301035005E1030E005CE6
:1027D000000148E00301035005E1040E005C000124
:1027E00055E00301035005E1050E005C000162E0C5
:1027F0000301035006E1060E005C0001D8B473D05B
:102800000301035006E1070E005C0001D8B496D026
:102810000301B4D0E3D0D5C325F5DAC327F5D9C376
:1028200026F50501296BDBC328F5000123EC0BF02D
:1028300001C0DFF3010E0501246F03019FD0D5C352
:1028400025F5DAC327F5D9C326F50501296BDBC3C6
:1028500028F50001E4D501C0DFF3010E0501246F66
:1028600003018CD0D5C325F5DAC327F5D9C326F5E6
:102870000501296BDBC328F500016AEC09F001C0F2
:10288000DFF3010E0501246F030178D0D5C325F5D0
:10289000DAC327F5D9C326F50501296BDBC328F573
:1028A000000116EC09F001C0DFF3010E0501246FF1
:1028B000030164D0CA0E0301DC25E96E020EEA6E44
:1028C000D8B0EA2AEFCF29F5D5C326F5DAC328F523
:1028D000D9C327F50001FFD501C0DFF3020E0501C2
:1028E000246F03014BD0CA0E0301DC25E96E020EF2
:1028F000EA6ED8B0EA2AEFCF25F5010EDC25CA0F23
:10290000E96E020EEA6ED8B0EA2AEFCF26F525C5A9
:1029100028F526C527F5D5C329F5DAC32BF5D9C384
:102920002AF525C52DF526C52CF5000136D601C0A2
:10293000DFF3020E0501246F000150D0CA0E03011F
:10294000DC250501256F020E266FD8B0262BD5C3D6
:1029500027F5DAC329F5D9C328F52B6BDBC32AF594
:1029600026C52DF525C52CF5000173D601C0DFF372
:10297000020E0501246F000131D003010501242D51
:102980001DD00301DF53D8B402D0050117D0010ECA
:10299000F15DE06F010EF15D0501256F020EEA6E3B
:1029A000CA0EE96E030EE26EF50EE16E2551016E60
:1029B00004E0E6CFEEFF012EFCD710D02451020830
:1029C0000DE10301DF53D8B402D0050107D0020E98
:1029D000E06FF7C3CAF2F8C3CBF205010001F6EFCE
:1029E00015F0230E0501246FE1C325F5E3C326F599
:1029F0000501E2C327F505012869140E296F0D0EA4
:102A00000301E025020F0501316F326BD8B0322B84
:102A100032C52AF531C52BF5D0C32CF50501CFC33E
:102A20002DF50501CEC32EF50501CDC32FF505010A
:102A3000DFC330F536693569050E386F250E376FFF
:102A40000C0E396F0001BEEC09F002C032F501C076
:102A500031F532C536F531C535F5020E0501386F51
:102A6000CA0E376FE0C339F50001BEEC09F002C0B1
:102A700032F501C031F50501336B33510C0810E319
:102A8000036A3351240FE96E050E0320EA6EEFCF7F
:102A900034F534510001EDEC09F00501332BEDD78D
:102AA000336B0301E0510501335D10E2CA0E33259B
:102AB000E96E020EEA6ED8B0EA2AEFCF34F534514F
:102AC0000001EDEC09F00501332BEBD732C534F5ED
:102AD00034510001EDEC09F031C534F505013451F4
:102AE0000001EDEC09F0F7EF15F0CEC2CCF3020EC9
:102AF0000301CC5DCA0FE96E020EEA6ED8B0EA2A75
:102B0000EFCFDEF3010ECC5DCA0FE96E020EEA6E66
:102B1000D8B0EA2AEFCFDDF3030ECC5D0501246FB8
:102B200036693569020E386FCB0E376F24C539F51B
:102B30000001BEEC09F002C023F501C022F503013B
:102B4000DD510501225D05E10301DE510501235D33
:102B500001E04ED00201CF51130803E0050148D037
:102B60000201D0C2D0F3D1C2CFF3D2C2CEF3D3C2CE
:102B7000CDF3D4C2D4F3D5C2D3F3D6C2D2F3D7C2E5
:102B8000D1F3D8C2D6F3D9C2D5F3DAC2D8F3DBC2B7
:102B9000D7F3DCC2DAF3DDC2D9F3DEC2DBF3150E04
:102BA0000301DC6FE06B0501216BE1C320F5E2C39B
:102BB0001EF5E3C31FF50301D15105011E5D14E1AC
:102BC0000301D25105011F5D0FE10301D35105013E
:102BD000205D0AE10301D4510501215D05E10001F9
:102BE000B5EF11F003D005010001D5D5FAD60501E6
:102BF00000011FEF17F0F86AD09E078E620ED36EA9
:102C00009B6A646A206AB986220E7B6E000E7C6E17
:102C1000A60EBA6E900EA66E94869488040EC86EA8
:102C2000280EC66EC79EC79C0301E76BE66BA7968E
:102C30000C0EAF6EA20EAC6E900EAB6EEB6B010E77
:102C4000EA6F860EE96FA00EE86FEC91ED6B0F0155
:102C50005C51800B5C6F000E5D6FC196C198C19A8C
:102C60005E6B5F6B05D002001A00002A44F300007F
:102C7000000EF86E2C0EF76E660EF66E0900F5501B
:102C8000006E000A13E00900F550016EE8BE05D0A1
:102C90003F0BEA6E0900F5CFE9FF01BC090001AC6A
:102CA0000900F5CFEEFF004EE9D7F9D7F86A000129
:102CB000F0EF03F005011D6B1D51090813E304003B
:102CC000939A8A8A640E1E6F0001D8EC03F0939ADF
:102CD0008A9A640E05011E6F0001D8EC03F005010D
:102CE0001D2BEAD70A0EF66E060EF76E080E336F2E
:102CF000000125EC04F0200EF66E060EF76E3AEC9D
:102D000004F0200EA4A8FED7796E280EA4A8FED742
:102D1000796E0301E151A4A8FED7796E100EE96E19
:102D2000E3C322F5E2C321F500014BEC04F01B0ED6
:102D3000F66E060EF76E030E0501336F000125ECEB
:102D400004F02A0EF66E060EF76E3AEC04F0070E4B
:102D5000005C12E00B0E005C16E00F0E005C1AE047
:102D60000C0E005C1EE00E0E005C22E0030E005C08
:102D700026E000522BE031D03C0EF66E060EF76EC8
:102D80003AEC04F030D0480EF66E060EF76E3AECD0
:102D900004F029D0580EF66E060EF76E3AEC04F0E9
:102DA00022D0660EF66E060EF76E3AEC04F01BD0DB
:102DB000760EF66E060EF76E3AEC04F014D0880E1E
:102DC000F66E060EF76E3AEC04F00DD0980EF66E25
:102DD000060EF76E3AEC04F006D0AA0EF66E060E5A
:102DE000F76E3AEC04F00D0EA4A8FED7796E0A0E29
:102DF000A4A8FED7796EC00EF2121FEC05F081EC8C
:102E000005F0ECEF05F018EF06F04DEF06F0D1EF0E
:102E100006F0B40EF66E060EF76E3AEC04F00400FF
:102E20000101C15307E0C16B320EC46F000177EF9F
:102E30000BF001010301CB5305E0000156D669EC0C
:102E400003F00301CE0EF66E060EF76E00013AECAB
:062E500004F0E5D70300C9
:020000040030CA
:0E00000015086727000991000FC000E00040BE
:00000001FF
;PIC18F25K80
;CRC=5527  CREATED="07-Feb-22 11:29"
