:04000000C9EF1FF035
:08000800046ED8CF05F0E0CF33
:1000100006F00001E9CF0CF0EACF07F0E1CF08F0DD
:10002000E2CF09F0D9CF0AF0DACF0BF0F3CF12F01C
:10003000F4CF13F0FACF14F0F5CF15F0F6CF16F099
:10004000F7CF17F000C00EF001C00FF002C010F0A3
:1000500003C011F09DA230EF00F09EB282EF01F0DC
:100060009DAA36EF00F09EBABCEF01F0A3AA3CEFC8
:1000700000F0A4BA5AEF03F0B6AE42EF00F0B7BEFC
:100080001FEF03F00EC000F00FC001F010C002F02F
:1000900011C003F00CC0E9FF07C0EAFF078E08C0DB
:1000A000E1FF09C0E2FF0AC0D9FF0BC0DAFF12C0AE
:1000B000F3FF13C0F4FF14C0FAFF15C0F5FF16C01C
:1000C000F6FF17C0F7FF045006C0E0FF05C0D8FFD9
:1000D0001000F76AE20FF66E000EF7220900F550E5
:1000E000120000C1814001C0804101C0804100C1B7
:1000F000814001C0804100C1814000C1814001C0F8
:10010000804101C0804100C1814000C1814001C0E7
:10011000804100C1814001C0804101C0804100C1D7
:10012000814001C0804100C1814000C1814001C0C7
:10013000804100C1814001C0804101C0804100C1B7
:10014000814000C1814001C0804101C0804100C1A7
:10015000814001C0804100C1814000C1814001C097
:10016000804101C0804100C1814000C1814001C087
:10017000804100C1814001C0804101C0804100C177
:10018000814000C1814001C0804101C0804100C167
:10019000814001C0804100C1814000C1814001C057
:1001A000804100C1814001C0804101C0804100C147
:1001B000814001C0804100C1814000C1814001C037
:1001C000804101C0804100C1814000C1814001C027
:1001D000804100C1814001C0804101C0804100C117
:1001E0008140F76AF20FF66E010EF7220900F55012
:1001F000120000C0C101C30302C2C60607C705C57D
:10020000C404CC0C0DCD0FCFCE0E0ACACB0BC9093E
:1002100008C8D81819D91BDBDA1A1EDEDF1FDD1D4E
:100220001CDC14D4D515D71716D6D21213D311D17E
:10023000D010F03031F133F3F23236F6F737F535CE
:1002400034F43CFCFD3DFF3F3EFEFA3A3BFB39F9FE
:10025000F83828E8E929EB2B2AEAEE2E2FEF2DEDCE
:10026000EC2CE42425E527E7E62622E2E323E1213E
:1002700020E0A06061A163A3A26266A6A767A5654E
:1002800064A46CACAD6DAF6F6EAEAA6A6BAB69A9BE
:10029000A86878B8B979BB7B7ABABE7E7FBF7DBDCE
:1002A000BC7CB47475B577B7B67672B2B373B171FE
:1002B00070B05090915193535292965657975595CE
:1002C00094549C5C5D9D5F9F9E5E5A9A9B5B99597E
:1002D0005898884849894B8B8A4A4E8E8F4F8D4D4E
:1002E0004C8C4484854587474686824243834181BE
:1002F00080409D9209019C5303E0CC6A9E929D82AE
:10030000000112000501905102080AE1915308E131
:10031000925306E18FB104D0020E945F8F8101D019
:100320008F9192699169906B09019C6B0001E1DFEB
:100330009E9242EF00F09EAAFED7ABCF20F0AECF48
:1003400001F020A202D0AB98AB88120005019251B7
:1003500009019C199D6F036A9D510001BADE016E6F
:10036000050191510118926F036A09019D51000125
:1003700038DFE8CF91F51200DEDF01C09BF90501FF
:100380008FB12BD0905308E1926991699BC993F585
:10039000902B946B966B17D0902D04D09BC995F53C
:1003A000902B11D0905102080EE1943D02D0FE0E28
:1003B000946F970E9425E96E050EEA6ED8B0EA2A7E
:1003C0009BC9EFFF942B9BC99CF90001BFDF010E75
:1003D00009019C6F00018DDF05019E9A000142EF2B
:1003E00000F023206972696469756D5F73626469E6
:1003F000785F706172736528293A0D0A0000232026
:10040000202073626469785F6D6F5F7374617475C7
:10041000732020203D2025640A00232020207362C1
:100420006469785F6D6F5F6D736E202020202020DF
:100430003D20256C750A000023202020736264692A
:10044000785F6D745F7374617475732020203D2034
:1004500025640A002320202073626469785F6D742C
:100460005F6D736E2020202020203D20256C750AB2
:1004700000002320202073626469785F6D745F6CD4
:10048000656E6774682020203D20256C750A000089
:100490002320202073626469785F6D745F717565D5
:1004A0007565642020203D2025640A0023207561A5
:1004B00072745F676574633D253032780D0A000001
:1004C00023206972696469756D5F72696E67696E10
:1004D000672829207362642E72696E675F73746186
:1004E00074653D25750D0A00415445300D00415499
:1004F000264B300D000041542B5342444D54413D96
:10050000310D000041542B435249530D000041541A
:1005100045300D004154264B300D000041542B5303
:1005200042444D54413D310D000041542B5342444F
:1005300057423D256C750D0041542B534244495898
:100540000D0041542B53424444300D002320697266
:10055000696469756D5F6D745F7265636569766501
:100560002829207362642E6D745F73746174653D15
:1005700025750D0A0000415445300D004154264BAD
:10058000300D000041542B5342444D54413D310D38
:10059000000041542B53424452420D002320697203
:1005A000696469756D5F6D745F72656365697665B1
:1005B000282920636865636B73756D206C3D256C1D
:1005C0007520723D256C750D0A00232069726964DF
:1005D00069756D5F6D745F726563656976652829FD
:1005E000206D745F72656164793D312C206865729D
:1005F00065206973206F7572206D6573736167651F
:100600003A0D0A0023206D745F627566665B256C87
:10061000755D3D25630D0A00232069726964697563
:100620006D5F6D745F726563656976652829206703
:100630006F742066696E616C204F4B0D0A000901D2
:100640002F2B2F5164081AE12F6B302BD8B4312B8C
:10065000050187510901315D0CE305E10501865172
:100660000901305D06E3316B306B010E0301616FF0
:1006700009010701DD5301E0DD0709010301623DC6
:1006800001D001D0622B645303E1939A8A9A03D07C
:10069000939A8A8A6407B79E000142EF00F0A4AAE9
:1006A000FED7A6CF20F07ACF01F020A202D0A698E4
:1006B000A688120005016D5303E00001F0DF05017B
:1006C000030162510A0803E205016C6B0301626BCE
:1006D00005016C5338E133C932F934C933F935C9EE
:1006E00034F936C935F90001DADF01C036F90901FC
:1006F0003251230826E133510501835DD8B402D07D
:1007000009011FD034C903F0090135510501845D89
:10071000D8B402D0090115D00350855DD8B402D0F9
:1007200009010FD09292898232C96CF433C96DF4F9
:1007300034C96EF435C96FF436C970F4050E6C6FA8
:1007400009011FD005016C516C2B6C0FE96E040E72
:10075000EA6ED8B0EA2AEACF9EF9E9CF9DF9000106
:100760009EDF9EC9EAFF9DC9E9FF01C0EFFF0401BA
:10077000705105016C5D04E192928972010E6D6FFA
:100780000901A49A000142EF00F023206465766914
:10079000636551756572792829206E6578742063C8
:1007A00079636C652077696C6C20626520534244E4
:1007B000207472616E736D6974206379636C652E49
:1007C0000D0A0000232064657669636551756572C2
:1007D0007928292074686973206379636C652069BE
:1007E0007320616E20534244207472616E736D6990
:1007F00074206379636C652E0D0A00002320646504
:100800007669636551756572792829206164646928
:100810006E6720746F207362642E6D6F5F62756601
:10082000662073696E63652071627566662E724517
:100830007863657074696F6E3D300D0A0000232087
:1008400064657669636551756572792829207365D9
:100850007474696E67207362642E6D6F5F73746168
:1008600074653D310D0A000023206D61696E2829F1
:10087000207374617274757020626C696E6B696E3E
:100880006720646F6E650D0A000023207264546156
:1008900070202573202573720A0030392D41707243
:1008A0002D32340031383A33313A303800002320C9
:1008B000726573746172742063617573653A2000A8
:1008C0005744542054494D454F5554004D434C52C4
:1008D0002046524F4D20534C454550004D434C52FD
:1008E0002046524F4D2052554E004E4F524D414CD6
:1008F00020504F5745522055500042524F574E4FAF
:1009000055542052455354415254000057445420EA
:1009100046524F4D20534C454550000052455345DB
:100920005420494E535452554354494F4E00554E4E
:100930004B4E4F574E21000023206D61696E2829D0
:10094000207362642E72696E675F666C61673D3109
:100950000D0A000023207362642E73626469785F5D
:10096000726573706F6E73653D272573270D0A00DE
:1009700023207362642E73626469785F6D745F71A3
:100980007565756564203E203020286973202575C3
:10099000290D0A0023207362642E73626469785FF4
:1009A0006D745F7374617475733D310D0A0023209B
:1009B0007362642E6D745F72656164793D310D0AF6
:1009C000000005016C6B6D6B00011200C69E9E96C7
:1009D0008DC9C9FF020EC6BE05D0C7B4FED7000E32
:1009E000C5BC010E016E1200C580C5B0FED7040063
:1009F000090E006E002EFED700009A0E09018D6FC1
:100A00000001E4DF090188358A6F8A378A37F80EDA
:100A10008A178AC98DF90001D9DF89C98DF9D6DF16
:100A2000C584C5B4FED71200030E0901886F800E7D
:100A3000896F0001D9DF0901886B7AC989F9000142
:100A4000D3DF010E0901886F896B0001CDDF030E32
:100A50000901886FBF0E896F0001C6DF020E090110
:100A6000886F100E896F0001BFDF030E0901886FC8
:100A7000896F0001B9DF010E0901886F896B0001E0
:100A8000B3DF020E0901886F070E896F0001ACDF2A
:100A900094EF05F0090EEA6E900EE96EEF5011E04A
:100AA000020E016EBF0E006E0400002EFDD7012E57
:100AB000F9D7960E006E002EFED700D00400EF2E60
:100AC000EFD71200620ED36E9B6A646A0F015C510D
:100AD000800B5C6F000E5D6FC196C198C19AD1808A
:100AE0005D691F0E5C6FF00EBB1650174D174A174D
:100AF0004717949A8B9A780E0609886E4D0EA96E48
:100B0000B68E010E0301616F666B656F6269636B80
:100B1000646B000156DFA38A0501885306E0060EC8
:100B200009017A6F000180D705010E0E0901906F4F
:100B30000001B0DF2EEF20F00900F5520DE0F6CFF6
:100B40007DF9F7CF7EF9F550A4A8FED7796E7DC95F
:100B5000F6FF7EC9F7FFF0D712000900F6CF7DF946
:100B6000F7CF7EF9F550A4A8FED7796E7DC9F6FFC0
:100B70007EC9F7FF09017C2F01D002D00001EDD71B
:100B8000000112000901966B95C998F99451D8B4E7
:100B900095079407976F975302E198533FE004003D
:100BA00093C903F09251E96E03C0EAFFEFCF97F9C2
:100BB00096C998F997C999F998519919016E01C088
:100BC00096F99151036E9051902BD8B4912B976F59
:100BD00003C098F99351036E9251922BD8B4932B82
:100BE000E96E03C0EAFFEFCF99F9F250006EF29E72
:100BF00098C975FF97C974FF99C973FF7F9C7F9E41
:100C00007F840F01550E7E6EAA0E7E6E7F827FB2AC
:100C1000FED77F940050F2120901B6D796C901F0B1
:100C200000011200050E09018E6F830E8D6F916B0E
:100C3000040E906F8EC993F98DC992F9956B080EC9
:100C4000946F00019FDF01C08CF9F250006EF29E9C
:100C5000756A746A8CC973FF7F9C7F9E7F840F01C5
:100C6000550E7E6EAA0E7E6E7F827FB2FED77F9477
:100C70000050F21200011200960E0301646F410E43
:100C80000501836F120E856FD40E846F876B0A0E79
:100C9000866F010E886F8A6B5A0E896F0001C2DF62
:100CA0001200090194519603F3CF01F0F4CF00F044
:100CB0009703F350002695519603F3500020026EDF
:100CC000000112000901210E8E6F916B800E906F52
:100CD000936B8EC992F9030E956F400E946F0001CD
:100CE00051DF01C08DF9F250006EF29E756A020E5E
:100CF000746E8DC973FF7F9C7F9E7F840F01550E9C
:100D00007E6EAA0E7E6E7F827FB2FED77F940050E9
:100D1000F21200011200960E0301646F09018C6B40
:100D20008C513F0812E3956B8CC994F9976B0D0EAB
:100D3000966F0001B6DF210E09010124E96E000E55
:100D40000220EA6EEF6A8C2BEBD7100E216E7D0E1F
:100D5000236E226A010E246E3E0E256E296A410E14
:100D6000286E120E276ED50E266E2B6A2A6A060E84
:100D70002C6E100E2E6E7D0E306E2F6A010E316EAF
:100D8000360E326E366A410E356E120E346ED60E47
:100D9000336E386A376A200E396E100E3B6E7D0E48
:100DA0003D6E3C6A010E3E6E380E3F6E436A410E48
:100DB000426E120E416ED70E406E456A446A200E96
:100DC000466E00017FDF12000901836B82C985F93D
:100DD0008151D8B482078107846F845302E185531F
:100DE00032E080C903F07F51E96E03C0EAFF7E5113
:100DF000036E7D517D2BD8B47E2B866F03C087F99F
:100E0000F2CF88F9F29E87C975FF86C974FF7F9C6F
:100E10007F9E7F80735088BFF28EEF6E80C903F093
:100E20007F51E96E03C0EAFFEFCF84F983C998F9D7
:100E300084C999F998519919016E01C083F97F2BE2
:100E4000D8B4802BC3D783C901F000011200050E6E
:100E500009017C6F830E7B6F7E6B040E7D6F7CC9F6
:100E600080F97BC97FF9826B080E816F0001ACDFCE
:100E700001C07AF9F2CF7BF9F29E756A746A7F9CA1
:100E80007F9E7F80735009017BBFF28E7A5D03E005
:100E90000001F2DE09010001D2EF20F00901210E6C
:100EA0007B6F7E6B800E7D6F806B7BC97FF9030E3D
:100EB000826F400E816F000187DF01C07AF9F2CFA7
:100EC0007BF9F29E756A020E746E7F9C7F9E7F8016
:100ED000735009017BBFF28E7A5D03E000011BDFD6
:100EE00009010001D4EF20F09EAA03D09BEC01F091
:100EF000FBD7AE50949A8B9A9D8A1200949A8B9A43
:100F0000F3DF480E0609CA6EF90ECB6EC00EF21260
:100F1000D7EF20F00801E66B0901276B00011200F2
:100F2000EF5210E0EACF7BF9E9CF7AF9EF50A4A8AD
:100F3000FED7796E7BC9EAFF7AC9E9FFE92AD8B4FE
:100F4000EA2AEED703EF21F07DC97FF97CC97EF94B
:100F50007FC9EAFF09017EC9E9FFEF5206E07E2B57
:100F6000D8B47F2B0001F4D709017C517E5D006E5F
:100F70007D517F59036E00C001F0026E00011EEF2B
:100F800009F009017E6B7DC9EAFF7CC9E9FFEF50DA
:100F9000200804E17C2BD8B47D2BF5D77DC9EAFF6E
:100FA0007CC9E9FFEFCF7FF97F512F0812E27F5113
:100FB00039080FE37E510A0DF3CF7EF97DC9EAFFB0
:100FC0007CC9E9FF300EEF5C7E277C2BD8B47D2BEB
:100FD000E5D77EC901F0000112007FC9EAFF0901CF
:100FE0007EC9E9FF8051EF5C12E07FC903F07EC942
:100FF000E9FF03C0EAFFEF5204E1000E016E026E4A
:101000000AD07E2BD8B47F2B0001E7D709017EC917
:1010100001F07FC902F00001120009017F6B7E6BB5
:101020007DC9EAFF7CC9E9FFEF50200804E17C2B71
:10103000D8B47D2BF5D77DC9EAFF7CC9E9FFEFCF96
:1010400080F980512F081EE2805139081BE37FC9C7
:1010500095F97EC994F9976B0A0E966F000121DE0F
:1010600002C07FF901C07EF97DC9EAFF09017CC990
:10107000E9FF300EEF5C7E27000E7F237C2BD8B477
:101080007D2BD9D77EC901F07FC902F00001120083
:1010900009018351016A825D03E282C900F00CD02C
:1010A000006A080E846F823700368351005CD8B026
:1010B000006E0136842FF7D700011200200E0901BF
:1010C0007DA9300E7E6F7CC900F000AE08D0001EF6
:1010D000002A00C07CF92D0E7E6F7D8F7D8101502E
:1010E0007CC982F9640E836F0001D2DF00C07CF9F5
:1010F000300E012409017F6F7CC982F90A0E836FCB
:101100000001C6DF300E00240901816F300E01247A
:10111000806F7EC900F0300E7F5D04E07D837DBF6F
:101120007D8512D07EC97FF9200E7E6F300E805DE6
:1011300004E07D817DBF7D8307D0D8A47D8104E15B
:101140007FC980F9200E7F6F7DB505D07DB307D0B4
:101150007DB109D00CD07E51A4A8FED7796E7F5105
:10116000A4A8FED7796E8051A4A8FED7796E8151CC
:10117000A4A8FED7796E00011200EACF84F9E9CF66
:1011800083F909017D39F0097F6F7F27E20F806FB6
:10119000320F826F7D510F0B802780278227E90F46
:1011A000816F812781277C390F0B81278227813727
:1011B0008237821F82377C510F0B82277F37070EC1
:1011C0007E6F0A0E81078227FDE380078127FDE3FA
:1011D0007F078027FDE37E077F27FDE3090EEA6E88
:1011E0007E0EE96E070E8315839DE926000EEA2226
:1011F000E950820804E1EA50090801E1838DEF50CB
:10120000006E08E183BD06D083B90CD083B702D04D
:10121000200E03D083878399300E00260050A4A8A7
:10122000FED7796EEE5083ADE3D700011200060EB3
:1012300009017D6F960E7C6F000186D602C07DF994
:1012400001C07CF909017D5303E17C5117080BE2D1
:1012500006019E512F08D8A002D0090104D09E514A
:10126000390803E209013FD10601060E09017D6F2D
:101270009E0E7C6F000185DE01C0C0F6060E0901DE
:101280007F6F9F0E7E6F2C0E806F0001A6DE02C066
:101290007BF901C07AF909017A5303E17B5301E13B
:1012A00022D17A2BD8B47B2B7BC97DF97AC97CF902
:1012B0000001B3DE02C0C2F601C0C1F6010E090191
:1012C0007A257C6F000E7B217D6F7F6F7CC97EF954
:1012D0002C0E806F000181DE02C07BF901C07AF91B
:1012E00009017A5303E17B5301E1FDD07A2BD8B495
:1012F0007B2B7BC97DF97AC97CF9000142DE01C0F4
:10130000C3F6010E09017A257C6F000E7B217D6FEB
:101310007F6F7CC97EF92C0E806F00015EDE02C0FB
:101320007BF901C07AF909017A5303E17B5301E1AA
:10133000DAD07A2BD8B47B2B7BC97DF97AC97CF9BA
:1013400000016BDE02C0C5F601C0C4F6010E090142
:101350007A257C6F000E7B217D6F7F6F7CC97EF9C3
:101360002C0E806F000139DE02C07BF901C07AF9D2
:1013700009017A5303E17B5301E1B5D07A2BD8B44C
:101380007B2B7BC97DF97AC97CF9000146DE02C05E
:10139000C7F601C0C6F6010E09017A257C6F000E62
:1013A0007B217D6F7F6F7CC97EF92C0E806F0001E1
:1013B00014DE02C07BF901C07AF909017A5303E116
:1013C0007B5301E190D07A2BD8B47B2B7BC97DF97C
:1013D0007AC97CF90001D5DD01C0C8F6E20EF66ECF
:1013E000030EF76E9CEC05F0FE0EF66E030EF76E24
:1013F000180E09017C6F0001ADEC05F0C0C67CF948
:10140000180E09017D6F000159DE0A0EA4A8FED74F
:10141000796E1A0EF66E040EF76E180E09017C6FC7
:101420000001ADEC05F0100EE96EC2C67DF9C1C633
:101430007CF9A3DE0A0EA4A8FED7796E380EF66EEC
:10144000040EF76E180E09017C6F0001ADEC05F07B
:10145000C3C67CF9180E09017D6F00012FDE0A0E4C
:10146000A4A8FED7796E540EF66E040EF76E180E11
:1014700009017C6F0001ADEC05F0100EE96EC5C6E8
:101480007DF9C4C67CF979DE0A0EA4A8FED7796E70
:10149000720EF66E040EF76E180E09017C6F0001D5
:1014A000ADEC05F0100EE96EC7C67DF9C6C67CF935
:1014B00064DE0A0EA4A8FED7796E900EF66E040EB6
:1014C000F76E180E09017C6F0001ADEC05F0C8C67F
:1014D0007CF9180E09017D6F0001F0DD0A0EA4A849
:1014E000FED7796E090100010FEF21F001507BC991
:1014F00082F9640E0901836F0001CADD00C07BF927
:101500000150300E08E109017CA30ED07CB70CD04D
:101510007CB9200E04D009017C977C997C8101263E
:101520000150A4A8FED7796E7BC982F90A0E836F99
:101530000001AEDD00C07BF90150300E08E1090169
:101540007CB70BD07CA109D07CB9200E000101260C
:101550000150A4A8FED7796E0901300E7B277B517C
:10156000A4A8FED7796E00011200C69CC586C5B638
:10157000FED700B0C59A00A0C58AC588C5B8FED7F9
:10158000C9CF01F01200C580C5B0FED70400090E16
:10159000006E002EFED700009A0E09018D6F00012B
:1015A000E6EC04F009017B357D6F7D377D37F80E61
:1015B0007D177DC98DF90001E6EC04F0C582C5B246
:1015C000FED70400090E006E002EFED700009B0E11
:1015D00009018D6F0001E6EC04F0006AC6DF01C06E
:1015E0007CF9C584C5B4FED709017CC901F00001AE
:1015F0001200050E09017B6F0001C5DF0150010BD0
:10160000016E120009017CBF10D00F0E006E7B39F5
:1016100000160A0E005C03E2300E002602D07C5158
:1016200000260050A4A8FED7796E0F0E7B170A0E75
:101630007B5D02E2300E02D07C9F7C517B277B5188
:10164000A4A8FED7796E00013EEF0BF009017B6B79
:10165000000199DF015001C07AF9AC0EF66E040E5C
:10166000F76E0C0E09017C6F0001ADEC05F07AC934
:101670007BF9570E09017C6F0001C4D70D0EA4A899
:10168000FED7796E0A0EA4A8FED7796E09017A51A9
:101690000D0801E14AD00801E65348E109017A51F9
:1016A0000A0803E1275301E140D00801E75153083C
:1016B0001EE1E85142081BE1E951440818E1EA51F2
:1016C000520815E1EB51490812E1EC514E080FE1C7
:1016D00009017A514708D8B402D0080108D0010E98
:1016E0000801E46F000116DC09011FD0080109019F
:1016F0007A510A080DE1E70E2725E96E080EEA6E19
:10170000D8B0EA2AEF6A010E0801E66F09010DD090
:1017100027513E080AE3E70E2725E96E080EEA6E18
:10172000D8B0EA2A7AC9EFFF272B0801000147EF5A
:1017300021F00901886B87C989F90001F4EC04F0F4
:1017400012000900F5520CE0F6CF7EF9F7CF7FF9D1
:10175000F5CF87F9EEDF7EC9F6FF7FC9F7FFF1D736
:1017600012004C0EF66E050EF76E240E09017C6F0A
:101770000001ADEC05F0DFC77BF91B0E09017C6FA2
:101780000001B4DE0D0EA4A8FED7796E0A0EA4A83F
:10179000FED7796E0701DF5101080CE300018AECE6
:1017A00007F0760EF66E050EF76ECBDF020E070120
:1017B000DF6FABD1DF51020812E10801E62D0DD039
:1017C000E7514F0806E1E8514B0803E10701DF2B21
:1017D000080100018AEC07F0080197D10701DF51E9
:1017E00003080BE100018AEC07F07C0EF66E050E93
:1017F000F76EA7DF0701DF2B88D1DF51040812E164
:101800000801E62D0DD0E7514F0806E1E8514B08DD
:1018100003E10701DF2B080100018AEC07F0080152
:1018200074D10701DF5105080BE100018AEC07F0D4
:10183000840EF66E050EF76E84DF0701DF2B65D18F
:10184000DF51060812E10801E62D0DD0E7514F08DF
:1018500006E1E8514B0803E10701DF2B0801000115
:101860008AEC07F0080151D10701DF5107080FE1A9
:1018700000018AEC07F0010E0901286F920EF66E46
:10188000050EF76E00015DDF0701DF2B3ED1DF5152
:10189000080811E10001ADDE015201E137D1090173
:1018A0007B6B000170DE015001C0E1F80801E06BC4
:1018B0000701DF2B2AD1DF51090818E1000199DE69
:1018C000015201E123D109017B6B00015CDE015073
:1018D00001500801E027000EE1230701DF2B090179
:1018E0002E6B2D6B2C6B2B6B11D10701DF510A086E
:1018F00035E100017EDE015201E108D10801E0532B
:1019000007E1E15305E10701DF2B0001FFD00801EA
:1019100009017B6B000137DE015001C07AF9E00E4E
:1019200009012B25E96E070E2C21EA6E7AC9EFFF1B
:101930007A512D27000E2E232B2BD8B42C2B0801E7
:10194000E05109012B5D08E10801E15109012C5D1D
:1019500003E10701DF2B0901D9D00701DF510B0893
:1019600011E1000146DE015201E1D0D009017B6B9B
:10197000000109DE015001C02CF909012B6B0701A0
:10198000DF2BC3D0DF510C0815E1000132DE01521C
:1019900001E1BCD009017B6B0001F5DD0150015074
:1019A00009012B27000E2C230701DF2B0901286BCF
:1019B000ADD00701DF510D08D8A484D09C0EF66E7F
:1019C000050EF76E220E09017C6F0001ADEC05F0EB
:1019D000100EE96E2EC97DF92DC97CF9BDEC08F019
:1019E000C10EF66E050EF76E030E09017C6F000145
:1019F000ADEC05F0100EE96E2CC97DF92BC97CF910
:101A0000BDEC08F00D0EA4A8FED7796E0A0EA4A8AE
:101A1000FED7796E09012B512D5D50E12C512E5DC1
:101A20004DE1010E0701DE6FCA0EF66E050EF76E70
:101A300000019CEC05F009012C6B2B6B2C5108016B
:101A4000E15D3DE308E1E05109012B5DD8A002D042
:101A5000080135D00801E00E09012B25E96E070EBB
:101A60002C21EA6EEFCF7BF9040EF66E060EF76EB0
:101A70000A0E7C6F0001ADEC05F0100EE96E2CC96A
:101A80007DF92BC97CF9BDEC08F05D0EA4A8FED74A
:101A9000796E3D0EA4A8FED7796E09017B51A4A8EA
:101AA000FED7796E0D0EA4A8FED7796E0A0EA4A8F3
:101AB000FED7796E2B2BD8B42C2BC0D70801070189
:101AC000DF2B23D0DF510E0819E10801E62D14D0D9
:101AD000E7514F080DE1E8514B080AE10701DF2B00
:101AE000180EF66E060EF76E00019CEC05F008016C
:101AF00000018AEC07F0080108D00701DF510F0848
:101B000004E10601C36B0701DF6B0901000154EF1B
:101B100021F00900F6CF7FF9F7CF80F9F5CF87F9EB
:101B200008DE7FC9F6FF80C9F7FF09017E2F01D0CB
:101B300002D00001EED70001DCEF0EF0EACF86F90B
:101B4000E9CF85F909017F39F009816F8127E20F1B
:101B5000826F320F846F7F510F0B82278227842779
:101B6000E90F836F832783277E390F0B8327842711
:101B700083378437841F84377E510F0B8427813746
:101B8000070E806F0A0E83078427FDE382078327F1
:101B9000FDE381078227FDE380078127FDE3090E2E
:101BA000EA6E800EE96E070E8515859DE926000E0A
:101BB000EA22E950840804E1EA50090801E1858D30
:101BC000EF50006E08E185BD06D085B915D085B708
:101BD00002D0200E03D085878599300E0026EACFEB
:101BE0007FF9E9CF7EF900C087F90001A2DD7FC946
:101BF000EAFF7EC9E9FF0901EE5085ADDAD70001A1
:101C0000E3EF0EF0090E09017F5F0CE3090EEA6EA7
:101C10007F0EE96ED890EF32EF5004E001D004005F
:101C2000EF2EFDD7000134EF0FF07FC985F97EC993
:101C300084F90901825302E1835323E081C9EAFF59
:101C400080C9E9FFEF521DE085C903F08451842B60
:101C5000D8B4852B866F03C087F981C9EAFF80510C
:101C6000802BD8B4812BE96EEFCF88F903C0EAFF4F
:101C700086C9E9FF88C9EFFF8251D8B4830782077C
:101C8000D9D7825302E183530DE085C9EAFF84511D
:101C9000842BD8B4852BE96EEF6A8251D8B48307C0
:101CA0008207EFD77EC901F07FC902F00001B8EFCB
:101CB0000FF00701DB6BDA6B0601C96B0001120044
:101CC0000601C95302E1EED1EAD1C92D0BD00001C2
:101CD0008AEC07F00E0EF66E050EF76E32DD060189
:101CE000C92BDDD1C951020812E10801E62D0DD042
:101CF000E7514F0806E1E8514B0803E10601C92B03
:101D0000080100018AEC07F00801CAD10601C95197
:101D100003080BE100018AEC07F0140EF66E050EC5
:101D2000F76E0FDD0601C92BBAD1C951040812E1C3
:101D30000801E62D0DD0E7514F0806E1E8514B08A8
:101D400003E10601C92B080100018AEC07F0080134
:101D5000A7D10601C95105080BE100018AEC07F083
:101D60001C0EF66E050EF76EECDC0601C92B97D142
:101D7000C951060812E10801E62D0DD0E7514F08C0
:101D800006E1E8514B0803E10601C92B08010001F7
:101D90008AEC07F0080184D10601C95107081BE14C
:101DA00000018AEC07F02A0EF66E050EF76E090E9A
:101DB00009017E6F0001ADD6100EE96EDBC77FF919
:101DC000DAC77EF9BBD60D0E0901876F0001B1DCC1
:101DD0000601C92B64D1C95108081BE10801E62D91
:101DE00016D0E75152080FE1E85145080CE1E951DE
:101DF000410809E1EA51440806E1EB51590803E1C1
:101E00000601C92B080100018AEC07F0080148D13E
:101E10000601C951090844E100018AEC07F00901F3
:101E20007D6B7C6B7B6B7A6B7B510701DB5D2EE3FB
:101E300008E1DA5109017A5DD8A002D0070126D065
:101E40000701CA0E09017A25E96E060E7B21EA6EAA
:101E5000EFCF87F900016DDC0400020E09017E6FEF
:101E6000F70E7F6F0001CED609017E2FF9D7CA0E7B
:101E70007A25E96E060E7B21EA6EEF507C27000E74
:101E80007D237A2BD8B47B2BCFD707017DC987F967
:101E900000014FDC7CC987F94CDC0601C92BFFD05F
:101EA000C9510A0811E10801E62D0CD0E7513008AC
:101EB00004E10601C92B05D0080100018AEC07F0F6
:101EC00006010801EDD00601C9510B0812E1080115
:101ED000E62D0DD0E7514F0806E1E8514B0803E12C
:101EE0000601C92B080100018AEC07F00801D8D0CF
:101EF0000601C9510C0813E10701DC5305E0DD536D
:101F000003E00601CFD0070100018AEC07F0380E8C
:101F1000F66E050EF76E15DC0601C92BC0D0C9514F
:101F20000D0846E10801E62D41D0E7512B083AE1C2
:101F3000E851530837E1E951420834E1EA514408D5
:101F400031E1EB5149082EE1EC5158082BE1060133
:101F5000965310E1060E09017F6F960E7E6F080EF4
:101F6000816FE70E806F836B290E826F00015DD653
:101F70000601BF6B0801EE5120080FE1EF512F0859
:101F80000CE2EF51320809E3F0512C0806E106019A
:101F9000C92B0701DC6B05D008010601C92B07011D
:101FA000DC2B080100018AEC07F0080179D006015A
:101FB000C9510E0835E10801E62D0DD0E7514F0853
:101FC00006E1E8514B0803E10601C92B08010001B5
:101FD0008AEC07F008010701DC5320E00C0E060133
:101FE000C96F0701DC2D01D003D0DC51020803E1E9
:101FF000030EDD6F13D0DC51030803E0DC5104084D
:1020000003E1150EDD6F0AD0DC51050803E1FB0E7C
:10201000DD6F04D00F0E0601C96F070142D0060123
:10202000C9510F080CE100018AEC07F0420EF66E70
:10203000050EF76EA1EC0BF00601C92B30D0C9518B
:10204000100811E10801E62D0CD0E751300804E139
:102050000601C92B05D0080100018AEC07F0060132
:1020600008011ED00601C951110812E10801E62D30
:102070000DD0E7514F0806E1E8514B0803E1060196
:10208000C92B080100018AEC07F0080109D00601FC
:10209000C951120804E100018AEC07F00ADE0801C8
:1020A00007010601000160EF21F09EA8FED7AD6E8A
:1020B0005EEF10F0090190510001F7D7196AF2BEE6
:1020C000198EF29E90C99CF9A6EC01F019BEF28E11
:1020D0000400440E006E002EFED700D01200050151
:1020E000926991698F919D9A949A8B8A0400F20E5D
:1020F000006E002EFED78DC990F90001DBDF8EC97E
:1021000090F9D8DF120092C58EF991C58DF98EC96C
:1021100090F9D0DF8DC990F9CDDFADA2FED70400D4
:10212000F20E006E002EFED774EC07F0949A8B9A94
:102130000501926991690001120005018FB104D077
:10214000000E016E0AD006D095AF04D097C596F563
:10215000010E946F8F91010E016E0001120082C971
:102160008DF9040E09018E6F0001B9DF84C990F961
:10217000A1DF83C990F99EDF86C990F99BDF85C9ED
:1021800090F998DFC0DF0901825329E00001D5DF13
:10219000015219E1FF0E05018B27D8A08C27D8A08A
:1021A0008D27D8A08E278B5309E18C5307E18D53DF
:1021B00005E18E53D8A402D0000105D00400000030
:1021C0000901E4D7000105018B5308E18C5306E1B6
:1021D0008D5304E18E5302E10C0E966F0901050147
:1021E0008E6B010E8D6F860E8C6FA00E8B6F96C559
:1021F00001F00001120082C98DF9030E09018E6FF2
:1022000000016DDF84C990F955DF83C990F952DF71
:1022100086C990F94FDF85C990F94CDF74DF090159
:10222000825329E0000189DF015219E1FF0E050107
:102230008B27D8A08C27D8A08D27D8A08E278B538A
:1022400009E18C5307E18D5305E18E53D8A402D0E8
:10225000000105D0040000000901E4D700010501D8
:102260008B5308E18C5306E18D5304E18E5302E158
:102270000C0E966F090105018E6B010E8D6F860E97
:102280008C6FA00E8B6F96C501F000011200090142
:1022900097519707000A24E096C9EAFF9551952BBC
:1022A000D8B4962BE96EEF50931B986B98510708A2
:1022B00016E39351010B006E036A005003100AE00D
:1022C000D89094319A6F9331010A936F9A51A00A72
:1022D000946F03D0D89094339333982BE7D7D8D703
:1022E00093C901F094C902F000011200A4A8FED71E
:1022F000796E1200110E04016825020F0901916F19
:10230000926BD8B0922B230E806F83C581F985C55F
:1023100082F9090184C583F909018469120E856F68
:1023200092C986F991C987F96BC488F909016AC411
:1023300089F9090169C47FF9956B7FC994F9976B95
:102340000D0E966F000151EC06F001C093F9010EDD
:1023500009010124016E000E0220036E0150210FBD
:10236000E96E000E0320EA6EECCF8AF9ED52EFCF52
:1023700093F9956B7FC994F9976B0D0E966F0001D9
:1023800051EC06F001C093F9010E09010124016E20
:10239000000E0220036E0150210FE96E000E032093
:1023A000EA6EECCF94F9ED52EFCF8BF9956B7FC9C4
:1023B00094F9976B0D0E966F000151EC06F001C079
:1023C00093F9050E09010124016E000E0220036E2F
:1023D0000150210FE96E000E0320EA6EEFCF93F952
:1023E000ECCF94F9ECCF95F9ECCF8CF9956B7FC9D4
:1023F00094F9976B0D0E966F000151EC06F001C039
:1024000093F9050E09010124016E000E0220036EEE
:102410000150210FE96E000E0320EA6EEFCF93F911
:10242000ECCF94F9ECCF8DF9ECCF96F9956B7FC991
:1024300094F9976B0D0E966F000151EC06F001C0F8
:1024400093F9050E09010124016E000E0220036EAE
:102450000150210FE96E000E0320EA6EEFCF93F9D1
:10246000ECCF8EF9ECCF95F9ECCF96F9956B7FC94F
:1024700094F9976B0D0E966F000151EC06F001C0B8
:1024800093F9050E09010124016E000E0220036E6E
:102490000150210FE96E000E0320EA6EEFCF8FF995
:1024A000ECCF94F9ECCF95F9ECCF96F967C390F99E
:1024B00094699369090E966F810E956F100E976F50
:1024C0000001E5DE02C07EF901C07DF97EC994F904
:1024D0007DC993F9030E0901966F680E956F68C464
:1024E00097F90001D4DE02C07EF901C07DF909012F
:1024F0007F6B7F5110080FE3036A7F51800FE96EF5
:10250000090E0320EA6EEFCF93F993510001EEDE3E
:1025100009017F2BEED77F6B0401685109017F5DB4
:102520000FE2680E7F25E96E030EEA6ED8B0EA2A44
:10253000EFCF93F993510001D9DE09017F2BECD73E
:102540007EC993F993510001D1DE7DC993F9090148
:1025500093510001CBDE120082C98DF9010E0901F1
:102560008E6F0001BCDD84C990F9A4DD83C990F9A8
:10257000A1DD86C990F99EDD85C990F99BDDC3DD9B
:102580000901825329E00001D8DD015219E1FF0E53
:1025900005018B27D8A08C27D8A08D27D8A08E27FF
:1025A0008B5309E18C5307E18D5305E18E53D8A479
:1025B00002D0000105D0040000000901E4D70001A9
:1025C00005018B5308E18C5306E18D5304E18E53D2
:1025D00002E10C0E966F090105018E6B010E8D6FE5
:1025E000860E8C6FA00E8B6F96C501F00001120055
:1025F000C580C5B0FED70400090E006E002EFED7C0
:10260000000082C98DF9E6EC04F083C98DF9E6EC8F
:1026100004F0C582C5B2FED70400090E006E002E7C
:10262000FED70000090182510109876F8D6F0001FB
:10263000E6EC04F0090186518607010810E085C91F
:10264000EAFF84C9E9FF010E006E0001B5EC0AF053
:1026500001C0EFFF0901842BD8B4852BECD785C9C5
:10266000EAFF84C9E9FF006A0001B5EC0AF001C085
:10267000EFFFC584C5B4FED712000301652D0CD051
:1026800066530AE18A0EF66E070EF76E00019CECA7
:1026900005F059EC0EF0030165532EE166532CE171
:1026A000C40EF66E070EF76E00019CEC05F059ECB7
:1026B0000EF00701DBC703F0DA51DA2BD8B4DB2BBD
:1026C00009017D6FCA0E7D25E96E060E0320EA6EB4
:1026D00038C9EFFF0701DBC703F0DA51DA2BD8B4B2
:1026E000DB2B09017D6FCA0E7D25E96E060E0320E6
:1026F000EA6E37C9EFFF030109017A6B7A513F088F
:10270000D8A088D30400640E0301646F0901956B9F
:102710007AC994F9976B0D0E966F000151EC06F093
:1027200002C07EF901C07DF9210E09010124E96E84
:10273000000E0220EA6EEF5001E168D3036A7A517D
:10274000390FE96E090E0320EA6EEF2A036A7A5107
:10275000390FE96E090E0320EA6EEFCF7DF9956B14
:102760007AC994F9976B0D0E966F000151EC06F043
:1027700002C07FF901C07EF9030E09010124016E38
:10278000000E0220036E0150210FE96E000E03209F
:10279000EA6EEF507D5D02E239D308D0036A7A51C8
:1027A000390FE96E090E0320EA6EEF6A7AC969F4FF
:1027B00038C96BF437C96AF4956B7AC994F9976B89
:1027C0000D0E966F000151EC06F002C07EF901C0BB
:1027D0007DF9210E09010124E96E000E0220EA6E46
:1027E000EF500708D8A008D2956B7AC994F9976B77
:1027F0000D0E966F000151EC06F002C07EF901C08B
:102800007DF90C0E09010124016E000E0220036EF9
:102810000150210FE96E000E0320EA6EEF5001080F
:1028200008E1A796190EAF6EA60EAC6E900EAB6EB9
:1028300007D0A7960C0EAF6EA20EAC6E900EAB6ECC
:10284000956B7AC994F9976B0D0E966F000151EC58
:1028500006F002C07EF901C07DF9210E09010124B4
:10286000E96E000E0220EA6EEF50030818E0956B47
:102870007AC994F9976B0D0E966F000151EC06F032
:1028800002C080F901C07FF9210E09010124E96E1F
:10289000000E0220EA6EEF500408D8A4FCD0956B1D
:1028A0007AC994F9976B0D0E966F000151EC06F002
:1028B00002C07EF901C07DF9210E09010124E96EF3
:1028C000000E0220EA6EEF50040863E1956B7AC9AE
:1028D00094F9976B0D0E966F000151EC06F002C053
:1028E0007EF901C07DF9040E09010124016E000E7C
:1028F0000220036E0150210FE96E000E0320EA6EE4
:10290000EFCF7DF9956B7AC994F9976B0D0E966FA1
:10291000000151EC06F001C07EF9090E0901012405
:10292000016E000E0220036E0150210FE96E000EB1
:102930000320EA6EECCF7FF9ED52EFCF7EF9956B75
:102940007AC994F9976B0D0E966F000151EC06F061
:1029500002C081F901C080F90B0E09010124016E4A
:10296000000E0220036E0150210FE96E000E0320BD
:10297000EA6EEFCF85F97DC982F97FC984F97EC9F6
:1029800083F9866B0001AFEC10F001C067F362D0F1
:102990000901956B7AC994F9976B0D0E966F00013A
:1029A00051EC06F002C07EF901C07DF9040E090168
:1029B0000124016E000E0220036E0150210FE96E0A
:1029C000000E0320EA6EEFCF7DF9956B7AC994F97A
:1029D000976B0D0E966F000151EC06F001C07EF969
:1029E000090E09010124016E000E0220036E015040
:1029F000210FE96E000E0320EA6EECCF7FF9ED5255
:102A0000EFCF7EF9956B7AC994F9976B0D0E966F9F
:102A1000000151EC06F002C081F901C080F90B0EF3
:102A200009010124016E000E0220036E0150210FE6
:102A3000E96E000E0320EA6EEFCF85F97DC982F9B9
:102A40007FC984F97EC983F9866B0001FBEC10F025
:102A500001C067F3030167531CE1010E0501945D9A
:102A60000401686F010E0501945D09017D6F030E7D
:102A7000EA6E680EE96E050EE26E980EE16E7D510B
:102A8000016E04E0E6CFEEFF012EFCD7000132DC40
:102A90000301B0D00901956B7AC994F9976B0D0EBB
:102AA000966F000151EC06F002C07EF901C07DF97D
:102AB000210E09010124E96E000E0220EA6EEF509A
:102AC000010818E0956B7AC994F9976B0D0E966F13
:102AD000000151EC06F002C080F901C07FF9210E1F
:102AE00009010124E96E000E0220EA6EEF5002088F
:102AF000D8A481D0956B7AC994F9976B0D0E966F17
:102B0000000151EC06F002C07EF901C07DF9040E0F
:102B100009010124016E000E0220036E0150210FF5
:102B2000E96E000E0320EA6EEFCF7DF9956B7AC94E
:102B300094F9976B0D0E966F000151EC06F001C0F1
:102B40007EF9090E09010124016E000E0220036EB8
:102B50000150210FE96E000E0320EA6EECCF7FF9E1
:102B6000ED52EFCF7EF9956B7AC994F9976B0D0E04
:102B7000966F000151EC06F002C081F901C080F9A6
:102B80000B0E09010124016E000E0220036E01509C
:102B9000210FE96E000E0320EA6EEFCF85F97DC9A3
:102BA00082F97FC984F97EC983F9866B0001D4DC80
:102BB00001C067F3030167531DE1010E0501945D38
:102BC0000401686F010E0501945D09017D6F030E1C
:102BD000EA6E680EE96E050EE26E980EE16E7D51AA
:102BE000016E04E0E6CFEEFF012EFCD700017AEC87
:102BF00011F003010901B0D0956B7AC994F9976B74
:102C00000D0E966F000151EC06F002C07EF901C076
:102C10007DF9210E09010124E96E000E0220EA6E01
:102C2000EF501708D8A098D0956B7AC994F9976B94
:102C30000D0E966F000151EC06F002C07EF901C046
:102C40007DF9210E09010124E96E000E0220EA6ED1
:102C5000EF501008D8A480D0956B7AC994F9976B7F
:102C60000D0E966F000151EC06F002C07EF901C016
:102C70007DF9040E09010124016E000E0220036E8D
:102C80000150210FE96E000E0320EA6EEFCF7DF9AF
:102C9000956B7AC994F9976B0D0E966F000151EC04
:102CA00006F001C07EF9090E09010124016E000E33
:102CB0000220036E0150210FE96E000E0320EA6E20
:102CC000ECCF7FF9ED52EFCF7EF9956B7AC994F98D
:102CD000976B0D0E966F000151EC06F002C081F962
:102CE00001C080F90B0E09010124016E000E0220C3
:102CF000036E0150210FE96E000E0320EA6EEFCF44
:102D000086F97DC982F97EC983F9030E856F680E45
:102D1000846F00016DDC0301676B0901956B7AC953
:102D200094F9976B0D0E966F000151EC06F001C0FF
:102D30007DF90B0E09010124016E000E0220036EC5
:102D40000150210FE96E000E0320EA6EEFCF68F408
:102D500000017AEC11F009010301655358E1665353
:102D600056E1675354E1FC0EF66E070EF76E000154
:102D70009CEC05F00701DBC703F0DA51DA2BD8B47D
:102D8000DB2B09017D6FCA0E7D25E96E060E03203F
:102D9000EA6E7AC9EFFF0701DBC703F0DA51DA2BDD
:102DA000D8B4DB2B09017D6FCA0E7D25E96E060EB6
:102DB0000320EA6E68C4EFFF7C6B7B6B7C5326E1DB
:102DC0000401685109017B5D21E20701DBC77EF93F
:102DD000DA51DA2BD8B4DB2B09017D6FCA0E7D25C1
:102DE000016E060E7E21036E680E7B25E96E030ED2
:102DF0007C21EA6EEFCF81F903C0EAFF01C0E9FF51
:102E000081C9EFFF7B2BD8B47C2BD8D703010901F4
:102E10007A2B74D40301655315E1665313E107015E
:102E2000DA5305E1DB53D8A402D003010BD03E0EE8
:102E3000F66E080EF76E00019CEC05F0010E06011F
:102E4000C96F03010901372BD8B4382B030165532F
:102E50000DE166530BE1010E0501895D0301656F0C
:102E6000000E05018A590301666F04D06551D8B47C
:102E700066076507000180EF21F009018951030809
:102E8000D8A06ED104E18851E708D8A069D1893172
:102E9000036E8831026E033202320332023202C004
:102EA0008DF98851070B8E6F8D51400803E2020E99
:102EB000016ED2D18E51F80FD8B051D1080F000158
:102EC0002FEF19F00901956B8DC994F9976B0D0ED1
:102ED000966F000151EC06F002C090F901C08FF925
:102EE000210E09010124E96E000E0220EA6E8C6BAE
:102EF000EFCF8BF934D10901956B8DC994F9976B9C
:102F00000D0E966F000151EC06F002C090F901C061
:102F10008FF9010E09010124016E000E0220036EDB
:102F20000150210FE96E000E0320EA6EECCF8CF900
:102F3000ED52EFCF8BF913D10901956B8DC994F93F
:102F4000976B0D0E966F000151EC06F002C090F9E0
:102F500001C08FF9030E09010124016E000E022049
:102F6000036E0150210FE96E000E0320EA6E8C6B98
:102F7000EFCF8BF9F4D00901956B8DC994F9976B5C
:102F80000D0E966F000151EC06F002C090F901C0E1
:102F90008FF9040E09010124016E000E0220036E58
:102FA0000150210FE96E000E0320EA6E8C6BEFCF0B
:102FB0008BF9D5D00901956B8DC994F9976B0D0EDE
:102FC000966F000151EC06F001C08FF9050E090162
:102FD0000124016E000E0220036E0150210FE96EE4
:102FE000000E0320EA6EEFCF8FF9ECCF90F9ECCF13
:102FF00091F9ECCF92F992C993F9956B8DC994F937
:10300000976B0D0E966F000151EC06F001C094F91C
:10301000050E09010124016E000E0220036E01500D
:10302000210FE96E000E0320EA6EEFCF94F9ECCF8A
:1030300095F9ECCF96F9ECCF97F996C998F992C922
:103040008CF996C98BF98BD00901956B8DC994F9D0
:10305000976B0D0E966F000151EC06F001C08FF9D1
:10306000050E09010124016E000E0220036E0150BD
:10307000210FE96E000E0320EA6EEFCF8FF9ECCF3F
:1030800090F9ECCF91F9ECCF92F990C993F9956B47
:103090008DC994F9976B0D0E966F000151EC06F0F7
:1030A00001C094F9050E09010124016E000E0220F1
:1030B000036E0150210FE96E000E0320EA6EEFCF80
:1030C00094F9ECCF95F9ECCF96F9ECCF97F994C938
:1030D00098F990C98CF994C98BF941D00901956B85
:1030E0008DC994F9976B0D0E966F000151EC06F0A7
:1030F00002C090F901C08FF9090E09010124016E87
:10310000000E0220036E0150210FE96E000E032015
:10311000EA6EECCF8CF9ED52EFCF8BF920D009019C
:10312000956B8DC994F9976B0D0E966F000151EC5C
:1031300006F002C090F901C08FF90B0E09010124BD
:10314000016E000E0220036E0150210FE96E000E89
:103150000320EA6E8C6BEFCF8BF901D0090163D0AD
:103160008851006E8951036E030E035C05E1E80E81
:10317000005C000132E00901030E035C05E1E90E89
:10318000005C00012FE00901030E035C05E1EA0E7B
:10319000005C00012DE00901030E035C05E1EB0E6C
:1031A000005C00012AE00901030E035C05E1EC0E5E
:1031B000005C000126E00901030E035C05E1ED0E51
:1031C000005C000123E00901040E035C05E14C0EE4
:1031D000005C00011FE0090123D009018C6B83C54D
:1031E0008BF921D085C58CF984C58BF909011BD0D9
:1031F00009018C6B520E8B6F16D009018C6B8B6B97
:1032000012D009018C6B340E8B6F0DD009018C6BC1
:103210008B6B09D087C58CF986C58BF9090103D062
:10322000020E016E19D06C0E8A25E96E040EEA6E4C
:10323000D8B0EA2A8CC9EFFF010E8A256C0FE96E1F
:10324000040EEA6ED8B0EA2A8BC9EFFF020E050120
:103250008227000E016E090100015CEF19F0E824DD
:10326000F76AF736790FF66E320EF7220A00F5503C
:10327000FA6E0800F550F96EC42EF62E382F762F10
:10328000B42F4830DC301E310901846B836B8251CE
:10329000835D17E2845315E183518025856F000E0D
:1032A0008121866FD8908335876F86C989F985C952
:1032B00088F98A6F0001E1D501C084F90901832BE7
:1032C000E6D784C901F000013DEF1BF00301635311
:1032D0001BE009018451E80809E18551030806E172
:1032E00086C983F5000E016E86D10DD08451E908A0
:1032F0000AE18551030807E187C985F586C984F588
:10330000000E016E78D10301090185510308D8A090
:1033100004D104E18451E708D8A0FFD08531036EC1
:103320008431026E033202320332023202C088F963
:103330008451070B896F8851400803E2020E016E29
:103340005AD18951F80FD8B0E7D0080F0001FEEF2D
:103350001AF00901956B88C994F9976B0D0E966F59
:10336000000151EC06F002C08DF901C08CF9210E6C
:1033700009010124E96E000E0220EA6E86C9EFFF02
:10338000CBD00901956B88C994F9976B0D0E966F98
:10339000000151EC06F002C08DF901C08CF9010E5C
:1033A00009010124016E000E0220036E0150210F5D
:1033B000E96E000E0320EA6E87C9ECFFED5286C964
:1033C000EFFFAAD00901956B88C994F9976B0D0E90
:1033D000966F000151EC06F002C08DF901C08CF926
:1033E000030E09010124016E000E0220036E01503C
:1033F000210FE96E000E0320EA6E86C9EFFF8CD024
:103400000901956B88C994F9976B0D0E966F0001B1
:1034100051EC06F002C08DF901C08CF9040E0901CF
:103420000124016E000E0220036E0150210FE96E8F
:10343000000E0320EA6E86C9EFFF6ED087C98BF9B4
:1034400086C98AF9090168D00901956B88C994F980
:10345000976B0D0E966F000151EC06F002C08DF9CE
:1034600001C08CF9050E09010124016E000E022035
:10347000036E0150210FE96E000E0320EA6EEE523A
:103480008AC9ECFF8BC9ECFFED52ED52ED5286C9B3
:10349000EFFF87C9ECFF40D00901956B88C994F90B
:1034A000976B0D0E966F000151EC06F002C08DF97E
:1034B00001C08CF9090E09010124016E000E0220E1
:1034C000036E0150210FE96E000E0320EA6E87C9DA
:1034D000ECFFED5286C9EFFF1FD00901956B88C93B
:1034E00094F9976B0D0E966F000151EC06F002C037
:1034F0008DF901C08CF90B0E09010124016E000E3B
:103500000220036E0150210FE96E000E0320EA6EC7
:1035100086C9EFFF01D009016AD08451006E855140
:10352000036E040E035C05E14C0E005C000122E01A
:103530000901070E035C05E1CD0E005C00011FE0F0
:103540000901070E035C05E1CE0E005C000119E0E5
:103550000901070E035C05E1CF0E005C000121E0CC
:1035600009014E0E035C05E11F0E005C000127E01F
:1035700009013AD087C987F586C986F539D0FF0099
:1035800037D009018651CE0803E18751070803E0CF
:10359000030E016E30D000013CEC06F08BEC06F01F
:1035A00027D00901862D02D0875303E0030E016E58
:1035B00022D0000112EC06F062EC06F019D00901ED
:1035C00086510A0803E18751070806E00301636B8F
:1035D000030E016E09010FD0010E0301636FC80EC7
:1035E000646F000105D00901020E016E04D00001D4
:1035F000000E016E0901000162EF1BF0E824F76A7A
:10360000F736170FF66E360EF7220A00F550FA6EEF
:103610000800F550F96E52338233C43300343C3421
:1036200048349834DA340501826B7951006E7A514E
:10363000036E035005E1030E005C000117E0050175
:10364000035005E1040E005C000110E00501035089
:1036500005E1060E005C000113E00501035005E1E1
:10366000070E005C000131E0050131D07CC581F915
:103670007BC580F97DC582F907D601C081F52AD0C6
:103680006C0E05017E25E96E040EEA6ED8B0EA2ABA
:10369000EFCF80F9010E7E256C0FE96E040EEA6E05
:1036A000D8B0EA2AEFCF81F980C983F981C982F9BC
:1036B0007CC585F97BC584F980C987F981C986F9FC
:1036C000000104D601C081F505D004D00501010E2A
:1036D000816F826B0001C0EF1FF082C98DF9020E6D
:1036E00009018E6F00016FEC10F084C990F95AEC5B
:1036F00010F083C990F95AEC10F086C990F95AEC91
:1037000010F085C990F95AEC10F083EC10F0090123
:1037100082532AE000019DEC10F0015219E1FF0EE6
:1037200005018B27D8A08C27D8A08D27D8A08E275D
:103730008B5309E18C5307E18D5305E18E53D8A4D7
:1037400002D0000105D0040000000901E3D7000108
:1037500005018B5308E18C5306E18D5304E18E5330
:1037600002E10C0E966F090105018E6B010E8D6F43
:10377000860E8C6FA00E8B6F96C501F000018AEF4C
:103780001DF083C98DF9050E09018E6F00016FECE4
:1037900010F085C990F95AEC10F084C990F95AECF0
:1037A00010F00901865306E0906900015AEC10F010
:1037B00005D00901906B00015AEC10F00901906BE3
:1037C00000015AEC10F083EC10F0090183532AE059
:1037D00000019DEC10F0015219E1FF0E05018B274D
:1037E000D8A08C27D8A08D27D8A08E278B5309E18D
:1037F0008C5307E18D5305E18E53D8A402D000010C
:1038000005D0040000000901E3D7000105018B5336
:1038100008E18C5306E18D5304E18E5302E10C0E56
:10382000966F090105018E6B010E8D6F860E8C6FF0
:10383000A00E8B6F96C501F00001CBEF1DF086C97D
:103840008DF9060E09018E6F00016FEC10F088C92A
:1038500090F95AEC10F087C990F95AEC10F08AC927
:1038600090F95AEC10F089C990F95AEC10F083ECF9
:1038700010F0090186532AE000019DEC10F001527E
:1038800019E1FF0E05018B27D8A08C27D8A08D2722
:10389000D8A08E278B5309E18C5307E18D5305E1A6
:1038A0008E53D8A402D0000105D004000000090105
:1038B000E3D7000105018B5308E18C5306E18D53DA
:1038C00004E18E5302E10C0E966F090105018E6B27
:1038D000010E8D6F860E8C6FA00E8B6F96C501F05A
:1038E0000001F6EF1DF0D89009018735026E88358A
:1038F00002C08CF984C98DF9100E8E6F00016FEC37
:1039000010F086C990F95AEC10F085C990F95AEC7C
:1039100010F088C990F95AEC10F087C990F95AEC68
:1039200010F08CC990F95AEC10F009018B6B885398
:1039300003E187518B5D2CE2036A8BC902F0D890BA
:103940000236033602508925E96E8A510320EA6E59
:10395000ECCF8EF9ED52EFCF90F900015AEC10F058
:10396000036A09018BC902F0D8900236033602506F
:103970008925E96E8A510320EA6EECCF90F9ED5269
:10398000EFCF8DF900015AEC10F009018B2BCFD746
:10399000000183EC10F0090184532AE000019DEC42
:1039A00010F0015219E1FF0E05018B27D8A08C27DA
:1039B000D8A08D27D8A08E278B5309E18C5307E11F
:1039C0008D5305E18E53D8A402D0000105D0040028
:1039D00000000901E3D7000105018B5308E18C5376
:1039E00006E18D5304E18E5302E10C0E966F09013E
:1039F00005018E6B010E8D6F860E8C6FA00E8B6F86
:103A000096C501F0000115EF1EF0C580C5B0FED7C8
:103A10000400090E006E002EFED7000088C98DF943
:103A2000E6EC04F089C98DF9E6EC04F08BC98DF958
:103A3000E6EC04F08AC98DF9E6EC04F0C584C5B45F
:103A4000FED7ABEF1EF005017A53D8A428D17951E7
:103A50000708D8A024D17951006E7A51036E035023
:103A600004E10052000135E00501035005E1010EBB
:103A7000005C00012FE00501035005E1020E005C2F
:103A800000013CE00501035005E1030E005C00016C
:103A900048E00501035005E1040E005C000155E01B
:103AA0000501035005E1050E005C000162E005011F
:103AB000035006E1060E005C0001D8B473D0050186
:103AC000035006E1070E005C0001D8B496D0050152
:103AD000B4D048D177C582F97CC584F97BC583F918
:103AE0000901866B7DC585F90001ACEC12F001C0BF
:103AF00081F5010E0901806F05019FD077C582F91C
:103B00007CC584F97BC583F90901866B7DC585F980
:103B10000001E3D501C081F5010E0901806F0501A7
:103B20008CD077C582F97CC584F97BC583F90901FE
:103B3000866B7DC585F90001FBEC10F001C081F5B5
:103B4000010E0901806F050178D077C582F97CC527
:103B500084F97BC583F90901866B7DC585F9000170
:103B6000AFEC10F001C081F5010E0901806F050175
:103B700064D06C0E05017E25E96E040EEA6ED8B0A5
:103B8000EA2AEFCF86F977C583F97CC585F97BC52D
:103B900084F90001F6D501C081F5020E0901806F9C
:103BA00005014BD06C0E05017E25E96E040EEA6E10
:103BB000D8B0EA2AEFCF82F9010E7E256C0FE96EAC
:103BC000040EEA6ED8B0EA2AEFCF83F982C985F9EC
:103BD00083C984F977C586F97CC588F97BC587F9DF
:103BE00082C98AF983C989F9000129D601C081F502
:103BF000020E0901806F0001B5D06C0E05017E2513
:103C00000901826F040E836FD8B0832B77C584F9C6
:103C10007CC586F97BC585F9886B7DC587F983C925
:103C20008AF982C989F900015ED601C081F5020EC8
:103C30000901806F000196D005010901802D1DD07A
:103C400005018153D8B402D0090117D0010E945D4B
:103C5000826F010E945D0901826F040EEA6E6C0E94
:103C6000E96E050EE26E980EE16E8251016E04E07F
:103C7000E6CFEEFF012EFCD710D0805102080DE1F7
:103C800005018153D8B402D0090107D0020E826F1A
:103C90009AC56CF49BC56DF4090163D005017A5394
:103CA00061E1795117085EE37951100815E17A5303
:103CB00013E177C582F97BC583F9040E0901856F8D
:103CC0006C0E846F7DC586F90001F8EC12F07DC59D
:103CD00082F50501816B46D07951150843E17A538D
:103CE00041E10901816B05017D510901815D39E2E5
:103CF000D890813505017B250901826F000E0501F1
:103D00007C210901836FD890813505017E256C0FD8
:103D1000E96E040EEA6ED8B0EA2AEFCF84F9D890A3
:103D20000901813505017E25010F6C0FE96E040E36
:103D3000EA6ED8B0EA2AEFCF85F984C987F985C938
:103D400086F977C588F982C989F984C98BF985C94B
:103D50008AF900015AD60501826B816B0901812B1A
:103D6000C2D705010001C4EF1FF0230E0901806FC7
:103D700083C581F985C582F9090184C583F90901E3
:103D80008469140E856F0D0E05018225020F09014D
:103D90008D6F8E6BD8B08E2B8EC986F98DC987F941
:103DA00072C588F9090171C589F9090170C58AF9D7
:103DB00009016FC58BF9090181C58CF99469936973
:103DC000090E966F810E956F0C0E976F000147ECF0
:103DD00011F002C08EF901C08DF98EC994F98DC918
:103DE00093F9040E0901966F6C0E956F82C597F9D1
:103DF000000147EC11F002C08EF901C08DF99290DC
:103E0000898009018F6B8F510C0810E3036A8F5171
:103E1000800FE96E090E0320EA6EEFCF90F9905102
:103E2000000176EC11F009018F2BEDD78F6B0501A6
:103E3000825109018F5D10E26C0E8F25E96E040E30
:103E4000EA6ED8B0EA2AEFCF90F99051000176ECF3
:103E500011F009018F2BEBD78EC990F99051000119
:103E600076EC11F08DC990F909019051000176ECC2
:103E700011F00A0E0901906F00014AEC05F09290D2
:103E80008990C5EF1FF070C46EF5020E05016E5DDE
:103E90006C0FE96E040EEA6ED8B0EA2AEFCF80F517
:103EA000010E6E5D6C0FE96E040EEA6ED8B0EA2A60
:103EB000EFCF7FF5030E6E5D0901806F9469936902
:103EC000040E966F6D0E956F80C997F9000147EC4F
:103ED00011F002C07FF901C07EF905017F5109018F
:103EE0007E5D05E10501805109017F5D01E04ED055
:103EF00004017151130803E0090148D0040172C4A0
:103F000072F573C471F574C470F575C46FF576C439
:103F100076F577C475F578C474F579C473F57AC409
:103F200078F57BC477F57CC47AF57DC479F57EC4D9
:103F30007CF57FC47BF580C47DF5150E05017E6F91
:103F4000826B09017D6B83C57CF984C57AF985C5CF
:103F50007BF90501735109017A5D14E10501745182
:103F600009017B5D0FE10501755109017C5D0AE1E5
:103F70000501765109017D5D05E1000113EF1BF09C
:103F800003D0090100015FD5F0D60901000186EFD9
:103F900021F0F86AD09E078E620ED36E9B6A646A27
:103FA000206AB986220E7B6E000E7C6EA60EBA6E5B
:103FB000900EA66E94869488040EC86E280EC66E67
:103FC000C79EC79CA7960C0EAF6EA20EAC6E900E4D
:103FD000AB6E05018E6B010E8D6F860E8C6FA00E81
:103FE0008B6F8F91906B09012A6B296B0F015C51CC
:103FF000800B5C6F000E5D6FC196C198C19A5E6BBD
:104000005F6B0AD002001A0000FF469600FFC00056
:1040100095C0004E492B0000000EF86E400EF76E62
:10402000040EF66E0900F550006E000A13E0090058
:10403000F550016EE8BE05D03F0BEA6E0900F5CFE2
:10404000E9FF01BC090001AC0900F5CFEEFF004E0D
:10405000E9D7F9D7F86A000162EF05F00901796B39
:104060007951310813E30400939A8A8A640E906FA1
:1040700000014AEC05F0939A8A9A640E0901906F48
:1040800000014AEC05F00901792BEAD7680EF66EBB
:10409000080EF76E00019CEC05F08A0EF66E080E15
:1040A000F76E080E09017C6F0001ADEC05F09A0E69
:1040B000F66E080EF76E9CEC05F0200EA4A8FED755
:1040C000796EA40EF66E080EF76E9CEC05F0720E7B
:1040D000A4A8FED7796E0A0EA4A8FED7796EAE0EFC
:1040E000F66E080EF76E9CEC05F0070E005C12E011
:1040F0000B0E005C16E00F0E005C1AE00C0E005C6C
:104100001EE00E0E005C22E0030E005C26E0005272
:104110002BE031D0C00EF66E080EF76E9CEC05F069
:1041200030D0CC0EF66E080EF76E9CEC05F029D060
:10413000DC0EF66E080EF76E9CEC05F022D0EA0E4F
:10414000F66E080EF76E9CEC05F01BD0FA0EF66EBC
:10415000080EF76E9CEC05F014D00C0EF66E090EEE
:10416000F76E9CEC05F00DD01C0EF66E090EF76E86
:104170009CEC05F006D02E0EF66E090EF76E9CEC48
:1041800005F00D0EA4A8FED7796E0A0EA4A8FED7DE
:10419000796E0400C00EF2123CEC06F08BEC06F0D7
:1041A00027EF07F04EEF07F004007EEF07F08AECF0
:1041B00007F0040005018853D8B499D00801E453EE
:1041C0000DE0380EF66E090EF76E00019CEC05F05E
:1041D0000301666B010E656F0801E46B06019653DF
:1041E00043E0C95341E1540EF66E090EF76E160E08
:1041F00009017C6F0001ADEC05F0060EEA6E960E2B
:10420000E96E90EF07F06C0EF66E090EF76E030E76
:1042100009017C6F0001ADEC05F017EF09F0060114
:10422000966BC85321E00301666B010E656F700E3B
:10423000F66E090EF76E1E0E09017C6F0001ADECE3
:1042400005F0C8C67BF91B0E09017C6F000176ECF6
:104250000AF0900EF66E090EF76E030E09017C6FE0
:104260000001ADEC05F006010801E65311E109017A
:104270002853D8B402D008010BD00001F9EC0AF0A1
:104280000152D8A402D0080103D026EF0BF0080198
:104290000601C32D0AD0940EF66E090EF76E0001CA
:1042A0009CEC05F0B1EF0BF00601C9530AE00701E1
:1042B000DF53D8B402D0060104D0000160EF0EF045
:1042C00006010701DE2D12D0AE0EF66E090EF76E56
:1042D00000019CEC05F00701DE6B0601C85305E008
:1042E0000301666B010E656F0601070105010301FD
:1042F000615307E0616BC80E646F00013DEF13F07E
:10430000030105016D5305E00001BDD5E1EC04F0AA
:08431000050100014ED7030076
:020000040030CA
:0E0000001508672B000991000FC00FE00F409C
:00000001FF
;PIC18F25K80
;CRC=5D2F  CREATED="09-Apr-24 18:31"
