:0400000000EF1BF002
:08000800046ED8CF05F0E0CF33
:1000100006F00001E9CF0CF0EACF07F0E1CF08F0DD
:10002000E2CF09F0D9CF0AF0DACF0BF0F3CF12F01C
:10003000F4CF13F0FACF14F0F5CF15F0F6CF16F099
:10004000F7CF17F000C00EF001C00FF002C010F0A3
:1000500003C011F09DA230EF00F09EB282EF01F0DC
:100060009DAA36EF00F09EBABCEF01F0A3AA3CEFC8
:1000700000F0A4BA71EF02F0B6AE42EF00F0B7BEE6
:1000800036EF02F00EC000F00FC001F010C002F019
:1000900011C003F00CC0E9FF07C0EAFF078E08C0DB
:1000A000E1FF09C0E2FF0AC0D9FF0BC0DAFF12C0AE
:1000B000F3FF13C0F4FF14C0FAFF15C0F5FF16C01C
:1000C000F6FF17C0F7FF045006C0E0FF05C0D8FFD9
:1000D0001000F76AE20FF66E000EF7220900F550E5
:1000E000120000C1814001C0804101C0804100C1B7
:1000F000814001C0804100C1814000C1814001C0F8
:10010000804101C0804100C1814000C1814001C0E7
:10011000804100C1814001C0804101C0804100C1D7
:10012000814001C0804100C1814000C1814001C0C7
:10013000804100C1814001C0804101C0804100C1B7
:10014000814000C1814001C0804101C0804100C1A7
:10015000814001C0804100C1814000C1814001C097
:10016000804101C0804100C1814000C1814001C087
:10017000804100C1814001C0804101C0804100C177
:10018000814000C1814001C0804101C0804100C167
:10019000814001C0804100C1814000C1814001C057
:1001A000804100C1814001C0804101C0804100C147
:1001B000814001C0804100C1814000C1814001C037
:1001C000804101C0804100C1814000C1814001C027
:1001D000804100C1814001C0804101C0804100C117
:1001E0008140F76AF20FF66E010EF7220900F55012
:1001F000120000C0C101C30302C2C60607C705C57D
:10020000C404CC0C0DCD0FCFCE0E0ACACB0BC9093E
:1002100008C8D81819D91BDBDA1A1EDEDF1FDD1D4E
:100220001CDC14D4D515D71716D6D21213D311D17E
:10023000D010F03031F133F3F23236F6F737F535CE
:1002400034F43CFCFD3DFF3F3EFEFA3A3BFB39F9FE
:10025000F83828E8E929EB2B2AEAEE2E2FEF2DEDCE
:10026000EC2CE42425E527E7E62622E2E323E1213E
:1002700020E0A06061A163A3A26266A6A767A5654E
:1002800064A46CACAD6DAF6F6EAEAA6A6BAB69A9BE
:10029000A86878B8B979BB7B7ABABE7E7FBF7DBDCE
:1002A000BC7CB47475B577B7B67672B2B373B171FE
:1002B00070B05090915193535292965657975595CE
:1002C00094549C5C5D9D5F9F9E5E5A9A9B5B99597E
:1002D0005898884849894B8B8A4A4E8E8F4F8D4D4E
:1002E0004C8C4484854587474686824243834181BE
:1002F00080409D9209019C5303E0CC6A9E929D82AE
:10030000000112000501905102080AE1915308E131
:10031000925306E18FB104D0020E945F8F8101D019
:100320008F9192699169906B09019C6B0001E1DFEB
:100330009E9242EF00F09EAAFED7ABCF20F0AECF48
:1003400001F020A202D0AB98AB88120005019251B7
:1003500009019C199D6F036A9D510001BADE016E6F
:10036000050191510118926F036A09019D51000125
:1003700038DFE8CF91F51200DEDF01C09BF90501FF
:100380008FB12BD0905308E1926991699BC993F585
:10039000902B946B966B17D0902D04D09BC995F53C
:1003A000902B11D0905102080EE1943D02D0FE0E28
:1003B000946F970E9425E96E050EEA6ED8B0EA2A7E
:1003C0009BC9EFFF942B9BC99CF90001BFDF010E75
:1003D00009019C6F00018DDF05019E9A000142EF2B
:1003E00000F0415445300D004154264B300D0000C3
:1003F00041542B5342444D54413D310D0000415472
:100400002B435249530D0000415445300D004154D7
:10041000264B300D000041542B5342444D54413D76
:10042000310D000041542B53424457423D256C7519
:100430000D0041542B53424449580D0041542B5355
:10044000424444300D00415445300D004154264B88
:10045000300D000041542B5342444D54413D310D69
:10046000000041542B53424452420D0009012F2BEE
:100470002F5164081AE12F6B302BD8B4312B0501B2
:1004800087510901315D0CE305E105018651090140
:10049000305D06E3316B306B010E0301616F0901C2
:1004A0000701DD5301E0DD0709010301623D01D0D1
:1004B00001D0622B645303E1939A8A9A03D0939AF2
:1004C0008A8A6407B79E000142EF00F0A4AAFED713
:1004D000A6CF20F07ACF01F020A202D0A698A6885D
:1004E000120005016D5303E00001F0DF0501030177
:1004F00062510A0803E205016C6B0301626B05019E
:100500006C5338E133C932F934C933F935C934F998
:1005100036C935F90001DADF01C036F90901325177
:10052000230826E133510501835DD8B402D00901C7
:100530001FD034C903F0090135510501845DD8B4D9
:1005400002D0090115D00350855DD8B402D009014D
:100550000FD09292898232C96CF433C96DF434C9D8
:100560006EF435C96FF436C970F4050E6C6F09016D
:100570001FD005016C516C2B6C0FE96E040EEA6EF6
:10058000D8B0EA2AEACF9EF9E9CF9DF900019EDFB3
:100590009EC9EAFF9DC9E9FF01C0EFFF0401705148
:1005A00005016C5D04E192928972010E6D6F090183
:1005B000A49A000142EF00F005016C6B6D6B000125
:1005C0001200C69E9E968DC9C9FF020EC6BE05D0FA
:1005D000C7B4FED7000EC5BC010E016E1200C58067
:1005E000C5B0FED70400090E006E002EFED7000035
:1005F0009A0E09018D6F0001E4DF090188358A6FC9
:100600008A378A37F80E8A178AC98DF90001D9DF2F
:1006100089C98DF9D6DFC584C5B4FED71200030E93
:100620000901886F800E896F0001D9DF0901886B8D
:100630007AC989F90001D3DF010E0901886F896B3E
:100640000001CDDF030E0901886FBF0E896F000125
:10065000C6DF020E0901886F100E896F0001BFDF2F
:10066000030E0901886F896F0001B9DF010E0901CE
:10067000886F896B0001B3DF020E0901886F070ED6
:10068000896F0001ACDF8FEF03F0090EEA6E900E68
:10069000E96EEF5011E0020E016EBF0E006E040015
:1006A000002EFDD7012EF9D7960E006E002EFED734
:1006B00000D00400EF2EEFD71200620ED36E9B6ABB
:1006C000646A0F015C51800B5C6F000E5D6FC19618
:1006D000C198C19AD1805D691F0E5C6FF00EBB1688
:1006E00050174D174A174717949A8B9A780E060998
:1006F000886E4D0EA96EB68E010E0301616F666B9A
:10070000656F6269636B646B000156DFA38A050144
:10071000885306E0060E09017A6F000180D70501B3
:100720000E0E0901906F0001B0DF65EF1BF00901AB
:10073000966B95C998F99451D8B495079407976F1B
:10074000975302E198533FE0040093C903F092519C
:10075000E96E03C0EAFFEFCF97F996C998F997C9F8
:1007600099F998519919016E01C096F99151036E4A
:100770009051902BD8B4912B976F03C098F9935157
:10078000036E9251922BD8B4932BE96E03C0EAFF0B
:10079000EFCF99F9F250006EF29E98C975FF97C994
:1007A00074FF99C973FF7F9C7F9E7F840F01550E54
:1007B0007E6EAA0E7E6E7F827FB2FED77F9400503F
:1007C000F2120901B6D796C901F000011200050E18
:1007D00009018E6F830E8D6F916B040E906F8EC921
:1007E00093F98DC992F9956B080E946F00019FDF04
:1007F00001C08CF9F250006EF29E756A746A8CC961
:1008000073FF7F9C7F9E7F840F01550E7E6EAA0E24
:100810007E6E7F827FB2FED77F940050F21200017D
:100820001200960E0301646F410E0501836F120ED4
:10083000856FD40E846F876B0A0E866F010E886FEA
:100840008A6B5A0E896F0001C2DF120009019451B0
:100850009603F3CF01F0F4CF00F09703F350002696
:1008600095519603F3500020026E00011200090119
:10087000210E8E6F916B800E906F936B8EC992F9E3
:10088000030E956F400E946F000151DF01C08DF98A
:10089000F250006EF29E756A020E746E8DC973FF7F
:1008A0007F9C7F9E7F840F01550E7E6EAA0E7E6E0A
:1008B0007F827FB2FED77F940050F21200011200B7
:1008C000960E0301646F09018C6B8C513F0812E393
:1008D000956B8CC994F9976B0D0E966F0001B6DF7E
:1008E000210E09010124E96E000E0220EA6EEF6A72
:1008F0008C2BEBD7100E216E7D0E236E226A010E1B
:10090000246E3E0E256E296A410E286E120E276E49
:10091000D50E266E2B6A2A6A060E2C6E100E2E6ECF
:100920007D0E306E2F6A010E316E360E326E366AD3
:10093000410E356E120E346ED60E336E386A376A3B
:10094000200E396E100E3B6E7D0E3D6E3C6A010E20
:100950003E6E380E3F6E436A410E426E120E416E7D
:10096000D70E406E456A446A200E466E00017FDF56
:1009700012000901836B82C985F98151D8B48207BD
:100980008107846F845302E1855332E080C903F00C
:100990007F51E96E03C0EAFF7E51036E7D517D2BCE
:1009A000D8B47E2B866F03C087F9F2CF88F9F29E08
:1009B00087C975FF86C974FF7F9C7F9E7F807350B7
:1009C00088BFF28EEF6E80C903F07F51E96E03C0DD
:1009D000EAFFEFCF84F983C998F984C999F998514E
:1009E0009919016E01C083F97F2BD8B4802BC3D72E
:1009F00083C901F000011200050E09017C6F830E0E
:100A00007B6F7E6B040E7D6F7CC980F97BC97FF99B
:100A1000826B080E816F0001ACDF01C07AF9F2CF62
:100A20007BF9F29E756A746A7F9C7F9E7F8073500B
:100A300009017BBFF28E7A5D03E00001F2DE09015D
:100A4000000187EF1BF00901210E7B6F7E6B800E8A
:100A50007D6F806B7BC97FF9030E826F400E816FC3
:100A6000000187DF01C07AF9F2CF7BF9F29E756A47
:100A7000020E746E7F9C7F9E7F80735009017BBF46
:100A8000F28E7A5D03E000011BDF0901000189EFAE
:100A90001BF09EAA02D04FDCFCD7AE50949A8B9AE2
:100AA0009D8A1200949A8B9AF4DF480E0609CA6E4A
:100AB000F90ECB6EC00EF2128CEF1BF00801E66B44
:100AC0000901276B000112007DC97FF97CC97EF9FD
:100AD0007FC9EAFF09017EC9E9FFEF5206E07E2BDC
:100AE000D8B47F2B0001F4D709017C517E5D006EE4
:100AF0007D517F59036E00C001F0026E00010FEFBF
:100B000006F009017E6B7DC9EAFF7CC9E9FFEF5061
:100B1000200804E17C2BD8B47D2BF5D77DC9EAFFF2
:100B20007CC9E9FFEFCF7FF97F512F0812E27F5197
:100B300039080FE37E510A0DF3CF7EF97DC9EAFF34
:100B40007CC9E9FF300EEF5C7E277C2BD8B47D2B6F
:100B5000E5D77EC901F0000112007FC9EAFF090153
:100B60007EC9E9FF8051EF5C12E07FC903F07EC9C6
:100B7000E9FF03C0EAFFEF5204E1000E016E026ECE
:100B80000AD07E2BD8B47F2B0001E7D709017EC99C
:100B900001F07FC902F00001120009017F6B7E6B3A
:100BA0007DC9EAFF7CC9E9FFEF50200804E17C2BF6
:100BB000D8B47D2BF5D77DC9EAFF7CC9E9FFEFCF1B
:100BC00080F980512F081EE2805139081BE37FC94C
:100BD00095F97EC994F9976B0A0E966F000136DE7F
:100BE00002C07FF901C07EF97DC9EAFF09017CC915
:100BF000E9FF300EEF5C7E27000E7F237C2BD8B4FC
:100C00007D2BD9D77EC901F07FC902F00001120007
:100C1000060E09017D6F960E7C6F000155D702C04C
:100C20007DF901C07CF909017D5303E17C5117086E
:100C30000BE206019E512F08D8A002D0090104D072
:100C40009E51390803E20901BBD00601060E0901D5
:100C50007D6F9E0E7C6F000154DF01C0C0F6060E52
:100C600009017F6F9F0E7E6F2C0E806F000175DF74
:100C700002C07BF901C07AF909017A5303E17B5381
:100C800001E19ED07A2BD8B47B2B7BC97DF97AC940
:100C90007CF9000182DF02C0C2F601C0C1F6010E7C
:100CA00009017A257C6F000E7B217D6F7F6F7CC9E7
:100CB0007EF92C0E806F000150DF02C07BF901C06D
:100CC0007AF909017A5303E17B5301E179D07A2B58
:100CD000D8B47B2B7BC97DF97AC97CF9000111DF7F
:100CE00001C0C3F6010E09017A257C6F000E7B213D
:100CF0007D6F7F6F7CC97EF92C0E806F00012DDF28
:100D000002C07BF901C07AF909017A5303E17B53F0
:100D100001E156D07A2BD8B47B2B7BC97DF97AC9F7
:100D20007CF900013ADF02C0C5F601C0C4F6010E2D
:100D300009017A257C6F000E7B217D6F7F6F7CC956
:100D40007EF92C0E806F000108DF02C07BF901C024
:100D50007AF909017A5303E17B5301E131D07A2B0F
:100D6000D8B47B2B7BC97DF97AC97CF9000115DFEA
:100D700002C0C7F601C0C6F6010E09017A257C6FD4
:100D8000000E7B217D6F7F6F7CC97EF92C0E806FFA
:100D90000001E3DE02C07BF901C07AF909017A5350
:100DA00003E17B5301E10CD07A2BD8B47B2B7BC9B8
:100DB0007DF97AC97CF90001A4DE01C0C8F60901F9
:100DC0000001A3EF1BF0C69CC586C5B6FED700B0D8
:100DD000C59A00A0C58AC588C5B8FED7C9CF01F09D
:100DE0001200C580C5B0FED70400090E006E002EAB
:100DF000FED700009A0E09018D6F0001E1EC02F0B0
:100E000009017B357D6F7D377D37F80E7D177DC9F4
:100E10008DF90001E1EC02F0C582C5B2FED70400F5
:100E2000090E006E002EFED700009B0E09018D6F8B
:100E30000001E1EC02F0006AC6DF01C07CF9C58464
:100E4000C5B4FED709017CC901F000011200050EEE
:100E500009017B6F0001C5DF0150010B016E12001B
:100E600009017B6B0001BDDF015001C07AF9090166
:100E70007A510D0801E14AD00801E65348E1090121
:100E80007A510A0803E1275301E140D00801E751F4
:100E900053081EE1E85142081BE1E951440818E1FA
:100EA000EA51520815E1EB51490812E1EC514E08A4
:100EB0000FE109017A514708D8B402D0080108D0DF
:100EC000010E0801E46F0001F9DD09011FD00801DE
:100ED00009017A510A080DE1E70E2725E96E080E8F
:100EE000EA6ED8B0EA2AEF6A010E0801E66F09013E
:100EF0000DD027513E080AE3E70E2725E96E080EBC
:100F0000EA6ED8B0EA2A7AC9EFFF272B0801000160
:100F1000BFEF1BF00901886B87C989F90001EFEC6D
:100F200002F012000900F5520CE0F6CF7EF9F7CF7F
:100F30007FF9F5CF87F9EEDF7EC9F6FF7FC9F7FFAE
:100F4000F1D712000701DF5101080BE30001B6DD04
:100F5000460EF66E040EF76EE5DF020E0701DF6F38
:100F600026D1DF51020811E10801E62D0CD0E7512E
:100F70004F0806E1E8514B0803E10701DF2B0801A8
:100F800000019CDD080113D10701DF5103080AE1CC
:100F9000000194DD4C0EF66E040EF76EC3DF070100
:100FA000DF2B05D1DF51040811E10801E62D0CD03B
:100FB000E7514F0806E1E8514B0803E10701DF2B39
:100FC000080100017BDD0801F2D00701DF510508AF
:100FD0000AE1000173DD540EF66E040EF76EA2DF17
:100FE0000701DF2BE4D0DF51060811E10801E62DEF
:100FF0000CD0E7514F0806E1E8514B0803E1070127
:10100000DF2B080100015ADD0801D1D00701DF51B3
:1010100007080EE1000152DD010E0901286F620E82
:10102000F66E040EF76E00017DDF0701DF2BBFD0E7
:10103000DF51080811E100010ADF015201E1B8D0D7
:1010400009017B6B0001CDDE015001C0E1F8080110
:10105000E06B0701DF2BABD0DF51090818E100017D
:10106000F6DE015201E1A4D009017B6B0001B9DE7B
:10107000015001500801E027000EE1230701DF2B9A
:1010800009012E6B2D6B2C6B2B6B92D00701DF515E
:101090000A0835E10001DBDE015201E189D00801D7
:1010A000E05307E1E15305E10701DF2B000180D0A8
:1010B000080109017B6B000194DE015001C07AF93F
:1010C000E00E09012B25E96E070E2C21EA6E7AC984
:1010D000EFFF7A512D27000E2E232B2BD8B42C2B6B
:1010E0000801E05109012B5D08E10801E151090106
:1010F0002C5D03E10701DF2B09015AD00701DF5105
:101100000B0811E10001A3DE015201E151D00901F8
:101110007B6B000166DE015001C02CF909012B6BCD
:101120000701DF2B44D0DF510C0815E100018FDEF1
:10113000015201E13DD009017B6B000152DE0150FB
:10114000015009012B27000E2C230701DF2B090179
:10115000286B2ED00701DF510D080EE109012B513C
:101160002D5D07E12C512E5D04E1010E0701DE6FBC
:1011700009010701DF2B1BD0DF510E0811E1080127
:10118000E62D0CD0E7514F0806E1E8514B0803E18A
:101190000701DF2B0801000191DC080108D00701DD
:1011A000DF510F0804E10601C36B0701DF6B090182
:1011B0000001C6EF1BF00900F6CF7FF9F7CF80F9E9
:1011C000F5CF87F9A7DE7FC9F6FF80C9F7FF0901D0
:1011D0007E2F01D002D00001EED700012EEF0AF0E1
:1011E000EACF86F9E9CF85F909017F39F009816FE6
:1011F0008127E20F826F320F846F7F510F0B82279E
:1012000082278427E90F836F832783277E390F0B7B
:101210008327842783378437841F84377E510F0BBD
:1012200084278137070E806F0A0E83078427FDE32A
:1012300082078327FDE381078227FDE3800781275B
:10124000FDE3090EEA6E800EE96E070E8515859D99
:10125000E926000EEA22E950840804E1EA50090870
:1012600001E1858DEF50006E08E185BD06D085B99E
:1012700015D085B702D0200E03D085878599300E12
:101280000026EACF7FF9E9CF7EF900C087F9000197
:1012900041DE7FC9EAFF7EC9E9FF0901EE5085AD55
:1012A000DAD7000135EF0AF0090E09017F5F0CE380
:1012B000090EEA6E7F0EE96ED890EF32EF5004E02F
:1012C00001D00400EF2EFDD7000186EF0AF07FC9A0
:1012D00085F97EC984F90901825302E1835323E031
:1012E00081C9EAFF80C9E9FFEF521DE085C903F01B
:1012F0008451842BD8B4852B866F03C087F981C9AC
:10130000EAFF8051802BD8B4812BE96EEFCF88F9AA
:1013100003C0EAFF86C9E9FF88C9EFFF8251D8B44C
:1013200083078207D9D7825302E183530DE085C931
:10133000EAFF8451842BD8B4852BE96EEF6A825181
:10134000D8B483078207EFD77EC901F07FC902F0C6
:1013500000010AEF0BF00701DB6BDA6B0601C96BCA
:10136000000112000601C95302E1EDD1E9D1C92DF6
:101370000BD000015EEC05F0080EF66E040EF76E61
:10138000D1DD0601C92BDCD1C951020812E10801E7
:10139000E62D0DD0E7514F0806E1E8514B0803E177
:1013A0000601C92B080100015EEC05F00801C9D156
:1013B0000601C95103080BE100015EEC05F00E0EB9
:1013C000F66E040EF76EAEDD0601C92BB9D1C95118
:1013D000040812E10801E62D0DD0E7514F0806E19F
:1013E000E8514B0803E10601C92B080100015EEC3E
:1013F00005F00801A6D10601C95105080BE100015D
:101400005EEC05F0160EF66E040EF76E8BDD06012F
:10141000C92B96D1C951060812E10801E62D0DD05D
:10142000E7514F0806E1E8514B0803E10601C92BDB
:10143000080100015EEC05F0080183D10601C951E5
:1014400007081BE100015EEC05F0240EF66E040EA9
:10145000F76E090E09017E6F0001ADD6100EE96E20
:10146000DBC77FF9DAC77EF9BBD60D0E0901876F9E
:10147000000150DD0601C92B63D1C95108081BE1E9
:101480000801E62D16D0E75152080FE1E851450852
:101490000CE1E951410809E1EA51440806E1EB5148
:1014A000590803E10601C92B080100015EEC05F0B3
:1014B000080147D10601C951090844E100015EEC69
:1014C00005F009017D6B7C6B7B6B7A6B7B510701AF
:1014D000DB5D2EE308E1DA5109017A5DD8A002D084
:1014E000070126D00701CA0E09017A25E96E060E0A
:1014F0007B21EA6EEFCF87F900010CDD0400020EBC
:1015000009017E6FF70E7F6F0001CED609017E2F95
:10151000F9D7CA0E7A25E96E060E7B21EA6EEF50E6
:101520007C27000E7D237A2BD8B47B2BCFD70701E5
:101530007DC987F90001EEDC7CC987F9EBDC060187
:10154000C92BFED0C9510A0811E10801E62D0CD0C3
:10155000E751300804E10601C92B05D0080100015C
:101560005EEC05F006010801ECD00601C9510B083C
:1015700012E10801E62D0DD0E7514F0806E1E851D0
:101580004B0803E10601C92B080100015EEC05F0E0
:101590000801D7D00601C9510C0813E10701DC533B
:1015A00005E0DD5303E00601CED0070100015EEC4B
:1015B00005F0320EF66E040EF76EB4DC0601C92B90
:1015C000BFD0C9510D0846E10801E62D41D0E751D1
:1015D0002B083AE1E851530837E1E951420834E178
:1015E000EA51440831E1EB5149082EE1EC51580829
:1015F0002BE10601965310E1060E09017F6F960E4E
:101600007E6F080E816FE70E806F836B290E826FED
:1016100000015DD60601BF6B0801EE5120080FE105
:10162000EF512F080CE2EF51320809E3F0512C087A
:1016300006E10601C92B0701DC6B05D00801060194
:10164000C92B0701DC2B080100015EEC05F0080145
:1016500078D00601C9510E0835E10801E62D0DD0FC
:10166000E7514F0806E1E8514B0803E10601C92B99
:10167000080100015EEC05F008010701DC5320E0E1
:101680000C0E0601C96F0701DC2D01D003D0DC511F
:10169000020803E1030EDD6F13D0DC51030803E001
:1016A000DC51040803E1150EDD6F0AD0DC5105089A
:1016B00003E1FB0EDD6F04D00F0E0601C96F0701B9
:1016C00041D00601C9510F080BE100015EEC05F0A5
:1016D0003C0EF66E040EF76E25DC0601C92B30D0E9
:1016E000C951100811E10801E62D0CD0E75130086E
:1016F00004E10601C92B05D0080100015EEC05F0EC
:10170000060108011ED00601C951110812E10801A5
:10171000E62D0DD0E7514F0806E1E8514B0803E1F3
:101720000601C92B080100015EEC05F0080109D093
:101730000601C951120804E100015EEC05F00BDE60
:101740000801070106010001D2EF1BF09EA8FED799
:10175000AD6EAFEF0BF0090190510001F7D7196A98
:10176000F2BE198EF29E90C99CF9A6EC01F019BE4A
:10177000F28E0400440E006E002EFED700D0120040
:101780000501926991698F919D9A949A8B8A0400C0
:10179000F20E006E002EFED78DC990F90001DBDF3E
:1017A0008EC990F9D8DF120092C58EF991C58DF9D6
:1017B0008EC990F9D0DF8DC990F9CDDFADA2FED7EB
:1017C0000400F20E006E002EFED749EC05F0949A4C
:1017D0008B9A0501926991690001120005018FB190
:1017E00004D0000E016E0AD006D095AF04D097C584
:1017F00096F5010E946F8F91010E016E000112009B
:1018000082C98DF9040E09018E6F0001B9DF84C908
:1018100090F9A1DF83C990F99EDF86C990F99BDF1B
:1018200085C990F998DFC0DF0901825329E00001E2
:10183000D5DF015219E1FF0E05018B27D8A08C27B7
:10184000D8A08D27D8A08E278B5309E18C5307E1B0
:101850008D5305E18E53D8A402D0000105D00400B9
:1018600000000901E4D7000105018B5308E18C5306
:1018700006E18D5304E18E5302E10C0E966F0901CF
:1018800005018E6B010E8D6F860E8C6FA00E8B6F17
:1018900096C501F00001120082C98DF9030E0901FD
:1018A0008E6F00016DDF84C990F955DF83C990F90F
:1018B00052DF86C990F94FDF85C990F94CDF74DF9C
:1018C0000901825329E0000189DF015219E1FF0E6D
:1018D00005018B27D8A08C27D8A08D27D8A08E27CC
:1018E0008B5309E18C5307E18D5305E18E53D8A446
:1018F00002D0000105D0040000000901E4D7000176
:1019000005018B5308E18C5306E18D5304E18E539E
:1019100002E10C0E966F090105018E6B010E8D6FB1
:10192000860E8C6FA00E8B6F96C501F00001120021
:10193000090197519707000A24E096C9EAFF9551DB
:10194000952BD8B4962BE96EEF50931B986B98515A
:10195000070816E39351010B006E036A0050031051
:101960000AE0D89094319A6F9331010A936F9A519B
:10197000A00A946F03D0D89094339333982BE7D771
:10198000D8D793C901F094C902F000011200A4A8AD
:10199000FED7796E1200110E04016825020F0901AD
:1019A000916F926BD8B0922B230E806F83C581F913
:1019B00085C582F9090184C583F909018469120E7C
:1019C000856F92C986F991C987F96BC488F90901B5
:1019D0006AC489F9090169C47FF9956B7FC994F9D3
:1019E000976B0D0E966F000126EC04F001C093F981
:1019F000010E09010124016E000E0220036E015048
:101A0000210FE96E000E0320EA6EECCF8AF9ED5249
:101A1000EFCF93F9956B7FC994F9976B0D0E966F85
:101A2000000126EC04F001C093F9010E0901012424
:101A3000016E000E0220036E0150210FE96E000EB0
:101A40000320EA6EECCF94F9ED52EFCF8BF9956B52
:101A50007FC994F9976B0D0E966F000126EC04F088
:101A600001C093F9050E09010124016E000E022048
:101A7000036E0150210FE96E000E0320EA6EEFCFD6
:101A800093F9ECCF94F9ECCF95F9ECCF8CF9956BF9
:101A90007FC994F9976B0D0E966F000126EC04F048
:101AA00001C093F9050E09010124016E000E022008
:101AB000036E0150210FE96E000E0320EA6EEFCF96
:101AC00093F9ECCF94F9ECCF8DF9ECCF96F9956BB7
:101AD0007FC994F9976B0D0E966F000126EC04F008
:101AE00001C093F9050E09010124016E000E0220C8
:101AF000036E0150210FE96E000E0320EA6EEFCF56
:101B000093F9ECCF8EF9ECCF95F9ECCF96F9956B74
:101B10007FC994F9976B0D0E966F000126EC04F0C7
:101B200001C093F9050E09010124016E000E022087
:101B3000036E0150210FE96E000E0320EA6EEFCF15
:101B40008FF9ECCF94F9ECCF95F9ECCF96F967C308
:101B500090F994699369090E966F810E956F100E36
:101B6000976F0001E5DE02C07EF901C07DF97EC9F4
:101B700094F97DC993F9030E0901966F680E956F6C
:101B800068C497F90001D4DE02C07EF901C07DF976
:101B900009017F6B7F5110080FE3036A7F51800FAB
:101BA000E96E090E0320EA6EEFCF93F9935100011D
:101BB000EEDE09017F2BEED77F6B0401685109012E
:101BC0007F5D0FE2680E7F25E96E030EEA6ED8B0E6
:101BD000EA2AEFCF93F993510001D9DE09017F2B57
:101BE000ECD77EC993F993510001D1DE7DC993F9F9
:101BF000090193510001CBDE120082C98DF9010E5B
:101C000009018E6F0001BCDD84C990F9A4DD83C990
:101C100090F9A1DD86C990F99EDD85C990F99BDD1B
:101C2000C3DD0901825329E00001D8DD015219E129
:101C3000FF0E05018B27D8A08C27D8A08D27D8A010
:101C40008E278B5309E18C5307E18D5305E18E53A9
:101C5000D8A402D0000105D0040000000901E4D797
:101C6000000105018B5308E18C5306E18D5304E11B
:101C70008E5302E10C0E966F090105018E6B010E69
:101C80008D6F860E8C6FA00E8B6F96C501F00001D4
:101C90001200C580C5B0FED70400090E006E002EEC
:101CA000FED7000082C98DF9E1EC02F083C98DF9FD
:101CB000E1EC02F0C582C5B2FED70400090E006E49
:101CC000002EFED70000090182510109876F8D6F38
:101CD0000001E1EC02F0090186518607010810E0DD
:101CE00085C9EAFF84C9E9FF010E006E0001E3EC3B
:101CF00006F001C0EFFF0901842BD8B4852BECD787
:101D000085C9EAFF84C9E9FF006A0001E3EC06F037
:101D100001C0EFFFC584C5B4FED712000301652DD5
:101D200006D0665304E10001ABEC09F003016553F2
:101D300028E1665326E10001ABEC09F00701DBC79F
:101D400003F0DA51DA2BD8B4DB2B09017D6FCA0E10
:101D50007D25E96E060E0320EA6E38C9EFFF070104
:101D6000DBC703F0DA51DA2BD8B4DB2B09017D6F26
:101D7000CA0E7D25E96E060E0320EA6E37C9EFFF15
:101D8000030109017A6B7A513F08D8A081D304007E
:101D9000640E0301646F0901956B7AC994F9976B1E
:101DA0000D0E966F000126EC04F002C07EF901C012
:101DB0007DF9210E09010124E96E000E0220EA6E70
:101DC000EF5001E161D3036A7A51390FE96E090ED0
:101DD0000320EA6EEF2A036A7A51390FE96E090E81
:101DE0000320EA6EEFCF7DF9956B7AC994F9976B72
:101DF0000D0E966F000126EC04F002C07FF901C0C1
:101E00007EF9030E09010124016E000E0220036E0B
:101E10000150210FE96E000E0320EA6EEF507D5D48
:101E200002E232D308D0036A7A51390FE96E090E03
:101E30000320EA6EEF6A7AC969F438C96BF437C9CE
:101E40006AF4956B7AC994F9976B0D0E966F000141
:101E500026EC04F002C07EF901C07DF9210E0901D3
:101E60000124E96E000E0220EA6EEF500708D8A0A8
:101E700008D2956B7AC994F9976B0D0E966F000195
:101E800026EC04F002C07EF901C07DF90C0E0901B8
:101E90000124016E000E0220036E0150210FE96E35
:101EA000000E0320EA6EEF50010808E1A796190E14
:101EB000AF6EA60EAC6E900EAB6E07D0A7960C0E52
:101EC000AF6EA20EAC6E900EAB6E956B7AC994F9A4
:101ED000976B0D0E966F000126EC04F002C07EF9A0
:101EE00001C07DF9210E09010124E96E000E0220D6
:101EF000EA6EEF50030818E0956B7AC994F9976B76
:101F00000D0E966F000126EC04F002C080F901C0AE
:101F10007FF9210E09010124E96E000E0220EA6E0C
:101F2000EF500408D8A4FCD0956B7AC994F9976B4C
:101F30000D0E966F000126EC04F002C07EF901C080
:101F40007DF9210E09010124E96E000E0220EA6EDE
:101F5000EF50040863E1956B7AC994F9976B0D0E05
:101F6000966F000126EC04F002C07EF901C07DF9F5
:101F7000040E09010124016E000E0220036E0150BF
:101F8000210FE96E000E0320EA6EEFCF7DF9956B0D
:101F90007AC994F9976B0D0E966F000126EC04F048
:101FA00001C07EF9090E09010124016E000E022014
:101FB000036E0150210FE96E000E0320EA6EECCF94
:101FC0007FF9ED52EFCF7EF9956B7AC994F9976B53
:101FD0000D0E966F000126EC04F002C081F901C0DD
:101FE00080F90B0E09010124016E000E0220036E20
:101FF0000150210FE96E000E0320EA6EEFCF85F944
:102000007DC982F97FC984F97EC983F9866B000195
:1020100000EC0CF001C067F362D00901956B7AC93E
:1020200094F9976B0D0E966F000126EC04F002C038
:102030007EF901C07DF9040E09010124016E000E34
:102040000220036E0150210FE96E000E0320EA6E9C
:10205000EFCF7DF9956B7AC994F9976B0D0E966F5A
:10206000000126EC04F001C07EF9090E09010124EB
:10207000016E000E0220036E0150210FE96E000E6A
:102080000320EA6EECCF7FF9ED52EFCF7EF9956B2E
:102090007AC994F9976B0D0E966F000126EC04F047
:1020A00002C081F901C080F90B0E09010124016E03
:1020B000000E0220036E0150210FE96E000E032076
:1020C000EA6EEFCF85F97DC982F97FC984F97EC9AF
:1020D00083F9866B00014CEC0CF001C067F303013F
:1020E00067531CE1010E0501945D0401686F010E48
:1020F0000501945D09017D6F030EEA6E680EE96EBD
:10210000050EE26E980EE16E7D51016E04E0E6CFA1
:10211000EEFF012EFCD700013EDC0301B0D0090127
:10212000956B7AC994F9976B0D0E966F000126ECAA
:1021300004F002C07EF901C07DF9210E09010124DD
:10214000E96E000E0220EA6EEF50010818E0956B70
:102150007AC994F9976B0D0E966F000126EC04F086
:1021600002C080F901C07FF9210E09010124E96E46
:10217000000E0220EA6EEF500208D8A481D0956BC1
:102180007AC994F9976B0D0E966F000126EC04F056
:1021900002C07EF901C07DF9040E09010124016E1F
:1021A000000E0220036E0150210FE96E000E032085
:1021B000EA6EEFCF7DF9956B7AC994F9976B0D0EA6
:1021C000966F000126EC04F001C07EF9090E0901AA
:1021D0000124016E000E0220036E0150210FE96EF2
:1021E000000E0320EA6EECCF7FF9ED52EFCF7EF9BF
:1021F000956B7AC994F9976B0D0E966F000126ECDA
:1022000004F002C081F901C080F90B0E090101241C
:10221000016E000E0220036E0150210FE96E000EC8
:102220000320EA6EEFCF85F97DC982F97FC984F971
:102230007EC983F9866B0001E0DC01C067F303010E
:1022400067531DE1010E0501945D0401686F010EE5
:102250000501945D09017D6F030EEA6E680EE96E5B
:10226000050EE26E980EE16E7D51016E04E0E6CF40
:10227000EEFF012EFCD70001CBEC0CF003010901AD
:10228000B0D0956B7AC994F9976B0D0E966F0001DB
:1022900026EC04F002C07EF901C07DF9210E09018F
:1022A0000124E96E000E0220EA6EEF501708D8A054
:1022B00098D0956B7AC994F9976B0D0E966F0001C3
:1022C00026EC04F002C07EF901C07DF9210E09015F
:1022D0000124E96E000E0220EA6EEF501008D8A427
:1022E00080D0956B7AC994F9976B0D0E966F0001AB
:1022F00026EC04F002C07EF901C07DF9040E09014C
:102300000124016E000E0220036E0150210FE96EC0
:10231000000E0320EA6EEFCF7DF9956B7AC994F930
:10232000976B0D0E966F000126EC04F001C07EF94C
:10233000090E09010124016E000E0220036E0150F6
:10234000210FE96E000E0320EA6EECCF7FF9ED520B
:10235000EFCF7EF9956B7AC994F9976B0D0E966F56
:10236000000126EC04F002C081F901C080F90B0ED7
:1023700009010124016E000E0220036E0150210F9D
:10238000E96E000E0320EA6EEFCF86F97DC982F96F
:102390007EC983F9030E856F680E846F000179DCB6
:1023A0000301676B0901956B7AC994F9976B0D0E60
:1023B000966F000126EC04F001C07DF90B0E0901B7
:1023C0000124016E000E0220036E0150210FE96E00
:1023D000000E0320EA6EEFCF68F40001CBEC0CF0A6
:1023E00009010301655351E166534FE167534DE124
:1023F0000701DBC703F0DA51DA2BD8B4DB2B090174
:102400007D6FCA0E7D25E96E060E0320EA6E7AC93D
:10241000EFFF0701DBC703F0DA51DA2BD8B4DB2B6F
:1024200009017D6FCA0E7D25E96E060E0320EA6E56
:1024300068C4EFFF7C6B7B6B7C5326E10401685121
:1024400009017B5D21E20701DBC77EF9DA51DA2B56
:10245000D8B4DB2B09017D6FCA0E7D25016E060EF7
:102460007E21036E680E7B25E96E030E7C21EA6EE9
:10247000EFCF81F903C0EAFF01C0E9FF81C9EFFF97
:102480007B2BD8B47C2BD8D7030109017A2B7BD4C2
:10249000030165530EE166530CE10701DA5305E1D0
:1024A000DB53D8A402D0030104D0010E0601C96F8A
:1024B00003010901372BD8B4382B030165530DE113
:1024C00066530BE1010E0501895D0301656F000E86
:1024D00005018A590301666F04D06551D8B46607B7
:1024E00065070001EAEF1BF0090189510308D8A034
:1024F0006ED104E18851E708D8A069D18931036E13
:102500008831026E033202320332023202C08DF988
:102510008851070B8E6F8D51400803E2020E016E49
:10252000D2D18E51F80FD8B051D1080F000166EF0B
:1025300014F00901956B8DC994F9976B0D0E966F88
:10254000000126EC04F002C090F901C08FF9210EC1
:1025500009010124E96E000E0220EA6E8C6BEFCFB8
:102560008BF934D10901956B8DC994F9976B0D0ED8
:10257000966F000126EC04F002C090F901C08FF9BB
:10258000010E09010124016E000E0220036E0150AC
:10259000210FE96E000E0320EA6EECCF8CF9ED52AC
:1025A000EFCF8BF913D10901956B8DC994F9976B16
:1025B0000D0E966F000126EC04F002C090F901C0E8
:1025C0008FF9030E09010124016E000E0220036E33
:1025D0000150210FE96E000E0320EA6E8C6BEFCFE5
:1025E0008BF9F4D00901956B8DC994F9976B0D0E99
:1025F000966F000126EC04F002C090F901C08FF93B
:10260000040E09010124016E000E0220036E015028
:10261000210FE96E000E0320EA6E8C6BEFCF8BF971
:10262000D5D00901956B8DC994F9976B0D0E966FF6
:10263000000126EC04F001C08FF9050E0901012408
:10264000016E000E0220036E0150210FE96E000E94
:102650000320EA6EEFCF8FF9ECCF90F9ECCF91F930
:10266000ECCF92F992C993F9956B8DC994F9976B58
:102670000D0E966F000126EC04F001C094F9050ED2
:1026800009010124016E000E0220036E0150210F8A
:10269000E96E000E0320EA6EEFCF94F9ECCF95F9C6
:1026A000ECCF96F9ECCF97F996C998F992C98CF9C5
:1026B00096C98BF98BD00901956B8DC994F9976BED
:1026C0000D0E966F000126EC04F001C08FF9050E87
:1026D00009010124016E000E0220036E0150210F3A
:1026E000E96E000E0320EA6EEFCF8FF9ECCF90F980
:1026F000ECCF91F9ECCF92F990C993F9956B8DC914
:1027000094F9976B0D0E966F000126EC04F001C052
:1027100094F9050E09010124016E000E0220036EDA
:102720000150210FE96E000E0320EA6EEFCF94F9FD
:10273000ECCF95F9ECCF96F9ECCF97F994C998F9CD
:1027400090C98CF994C98BF941D00901956B8DC959
:1027500094F9976B0D0E966F000126EC04F002C001
:1027600090F901C08FF9090E09010124016E000ED4
:102770000220036E0150210FE96E000E0320EA6E65
:10278000ECCF8CF9ED52EFCF8BF920D00901956B8E
:102790008DC994F9976B0D0E966F000126EC04F02D
:1027A00002C090F901C08FF90B0E09010124016EDE
:1027B000000E0220036E0150210FE96E000E03206F
:1027C000EA6E8C6BEFCF8BF901D0090163D0885191
:1027D000006E8951036E030E035C05E1E80E005C98
:1027E000000132E00901030E035C05E1E90E005C23
:1027F00000012FE00901030E035C05E1EA0E005C15
:1028000000012DE00901030E035C05E1EB0E005C05
:1028100000012AE00901030E035C05E1EC0E005CF7
:10282000000126E00901030E035C05E1ED0E005CEA
:10283000000123E00901040E035C05E14C0E005C7D
:1028400000011FE0090123D009018C6B83C58BF9BE
:1028500021D085C58CF984C58BF909011BD00901EC
:102860008C6B520E8B6F16D009018C6B8B6B12D058
:1028700009018C6B340E8B6F0DD009018C6B8B6B47
:1028800009D087C58CF986C58BF9090103D0020EE2
:10289000016E19D06C0E8A25E96E040EEA6ED8B06E
:1028A000EA2A8CC9EFFF010E8A256C0FE96E040E2F
:1028B000EA6ED8B0EA2A8BC9EFFF020E0501822723
:1028C000000E016E0901000193EF14F0E824F76A8D
:1028D000F736E70FF66E280EF7220A00F550FA6E6B
:1028E0000800F550F96E32256425A625E425222638
:1028F000B6264A278C270901846B836B8251835D3E
:1029000017E2845315E183518025856F000E8121E4
:10291000866FD8908335876F86C989F985C988F90C
:102920008A6F0001E1D501C084F90901832BE6D744
:1029300084C901F0000174EF16F0030163531BE03A
:1029400009018451E80809E18551030806E186C9B7
:1029500083F5000E016E86D10DD08451E9080AE19D
:102960008551030807E187C985F586C984F5000EFE
:10297000016E78D10301090185510308D8A004D163
:1029800004E18451E708D8A0FFD08531036E84317B
:10299000026E033202320332023202C088F98451DD
:1029A000070B896F8851400803E2020E016E5AD16D
:1029B0008951F80FD8B0E7D0080F000135EF16F0B5
:1029C0000901956B88C994F9976B0D0E966F0001FC
:1029D00026EC04F002C08DF901C08CF9210E09012A
:1029E0000124E96E000E0220EA6E86C9EFFFCBD00B
:1029F0000901956B88C994F9976B0D0E966F0001CC
:102A000026EC04F002C08DF901C08CF9010E090119
:102A10000124016E000E0220036E0150210FE96EA9
:102A2000000E0320EA6E87C9ECFFED5286C9EFFF66
:102A3000AAD00901956B88C994F9976B0D0E966F12
:102A4000000126EC04F002C08DF901C08CF9030EE0
:102A500009010124016E000E0220036E0150210FB6
:102A6000E96E000E0320EA6E86C9EFFF8CD00901E3
:102A7000956B88C994F9976B0D0E966F000126EC43
:102A800004F002C08DF901C08CF9040E0901012483
:102A9000016E000E0220036E0150210FE96E000E40
:102AA0000320EA6E86C9EFFF6ED087C98BF986C90D
:102AB0008AF9090168D00901956B88C994F9976B67
:102AC0000D0E966F000126EC04F002C08DF901C0D6
:102AD0008CF9050E09010124016E000E0220036E1F
:102AE0000150210FE96E000E0320EA6EEE528AC9F2
:102AF000ECFF8BC9ECFFED52ED52ED5286C9EFFFB2
:102B000087C9ECFF40D00901956B88C994F9976B90
:102B10000D0E966F000126EC04F002C08DF901C085
:102B20008CF9090E09010124016E000E0220036ECA
:102B30000150210FE96E000E0320EA6E87C9ECFFF9
:102B4000ED5286C9EFFF1FD00901956B88C994F932
:102B5000976B0D0E966F000126EC04F002C08DF904
:102B600001C08CF90B0E09010124016E000E022038
:102B7000036E0150210FE96E000E0320EA6E86C934
:102B8000EFFF01D009016AD08451006E8551036EB8
:102B9000040E035C05E14C0E005C000122E009011B
:102BA000070E035C05E1CD0E005C00011FE009018A
:102BB000070E035C05E1CE0E005C000119E009017F
:102BC000070E035C05E1CF0E005C000121E0090166
:102BD0004E0E035C05E11F0E005C000127E00901B9
:102BE0003AD087C987F586C986F539D0FF0037D036
:102BF00009018651CE0803E18751070803E0030E5F
:102C0000016E30D0000111EC04F060EC04F027D02C
:102C10000901862D02D0875303E0030E016E22D0F6
:102C20000001E7EC03F037EC04F019D009018651FC
:102C30000A0803E18751070806E00301636B030EEE
:102C4000016E09010FD0010E0301636FC80E646F9E
:102C5000000105D00901020E016E04D00001000E32
:102C6000016E0901000199EF16F0E824F76AF736C2
:102C7000850FF66E2C0EF7220A00F550FA6E08004A
:102C8000F550F96EC029F029322A6E2AAA2AB62AEE
:102C9000062B482B0501826B7951006E7A51036E29
:102CA000035005E1030E005C000117E0050103502D
:102CB00005E1040E005C000110E00501035005E190
:102CC000060E005C000113E00501035005E1070E4C
:102CD000005C000131E0050131D07CC581F97BC584
:102CE00080F97DC582F907D601C081F52AD06C0E26
:102CF00005017E25E96E040EEA6ED8B0EA2AEFCF10
:102D000080F9010E7E256C0FE96E040EEA6ED8B0D4
:102D1000EA2AEFCF81F980C983F981C982F97CC59C
:102D200085F97BC584F980C987F981C986F90001D5
:102D300004D601C081F505D004D00501010E816FD4
:102D4000826B0001F7EF1AF082C98DF9020E0901BA
:102D50008E6F0001C0EC0BF084C990F9ABEC0BF066
:102D600083C990F9ABEC0BF086C990F9ABEC0BF092
:102D700085C990F9ABEC0BF0D4EC0BF00901825350
:102D80002AE00001EEEC0BF0015219E1FF0E050103
:102D90008B27D8A08C27D8A08D27D8A08E278B531F
:102DA00009E18C5307E18D5305E18E53D8A402D07D
:102DB000000105D0040000000901E3D7000105016E
:102DC0008B5308E18C5306E18D5304E18E5302E1ED
:102DD0000C0E966F090105018E6B010E8D6F860E2C
:102DE0008C6FA00E8B6F96C501F00001C1EF18F03B
:102DF00083C98DF9050E09018E6F0001C0EC0BF03F
:102E000085C990F9ABEC0BF084C990F9ABEC0BF0F1
:102E10000901865306E090690001ABEC0BF005D088
:102E20000901906B0001ABEC0BF00901906B000104
:102E3000ABEC0BF0D4EC0BF0090183532AE000015A
:102E4000EEEC0BF0015219E1FF0E05018B27D8A023
:102E50008C27D8A08D27D8A08E278B5309E18C53BF
:102E600007E18D5305E18E53D8A402D0000105D0AF
:102E7000040000000901E3D7000105018B5308E1BC
:102E80008C5306E18D5304E18E5302E10C0E966FD4
:102E9000090105018E6B010E8D6F860E8C6FA00EE1
:102EA0008B6F96C501F0000102EF19F086C98DF90C
:102EB000060E09018E6F0001C0EC0BF088C990F975
:102EC000ABEC0BF087C990F9ABEC0BF08AC990F929
:102ED000ABEC0BF089C990F9ABEC0BF0D4EC0BF038
:102EE000090186532AE00001EEEC0BF0015219E1D2
:102EF000FF0E05018B27D8A08C27D8A08D27D8A03E
:102F00008E278B5309E18C5307E18D5305E18E53D6
:102F1000D8A402D0000105D0040000000901E3D7C5
:102F2000000105018B5308E18C5306E18D5304E148
:102F30008E5302E10C0E966F090105018E6B010E96
:102F40008D6F860E8C6FA00E8B6F96C501F0000101
:102F50002DEF19F0D89009018735026E883502C02F
:102F60008CF984C98DF9100E8E6F0001C0EC0BF046
:102F700086C990F9ABEC0BF085C990F9ABEC0BF07E
:102F800088C990F9ABEC0BF087C990F9ABEC0BF06A
:102F90008CC990F9ABEC0BF009018B6B885303E102
:102FA00087518B5D2CE2036A8BC902F0D890023600
:102FB000033602508925E96E8A510320EA6EECCF70
:102FC0008EF9ED52EFCF90F90001ABEC0BF0036AF4
:102FD00009018BC902F0D8900236033602508925C8
:102FE000E96E8A510320EA6EECCF90F9ED52EFCFF3
:102FF0008DF90001ABEC0BF009018B2BCFD7000151
:10300000D4EC0BF0090184532AE00001EEEC0BF044
:10301000015219E1FF0E05018B27D8A08C27D8A0FB
:103020008D27D8A08E278B5309E18C5307E18D5350
:1030300005E18E53D8A402D0000105D004000000A1
:103040000901E3D7000105018B5308E18C5306E128
:103050008D5304E18E5302E10C0E966F09010501B8
:103060008E6B010E8D6F860E8C6FA00E8B6F96C5CA
:1030700001F000014CEF19F0C580C5B0FED7040087
:10308000090E006E002EFED7000088C98DF9E1EC14
:1030900002F089C98DF9E1EC02F08BC98DF9E1EC00
:1030A00002F08AC98DF9E1EC02F0C584C5B4FED7FF
:1030B000E2EF19F005017A53D8A428D17951070815
:1030C000D8A024D17951006E7A51036E035004E1E7
:1030D0000052000135E00501035005E1010E005CDE
:1030E00000012FE00501035005E1020E005C000124
:1030F0003CE00501035005E1030E005C000148E0DF
:103100000501035005E1040E005C000155E00501D6
:10311000035005E1050E005C000162E0050103506B
:1031200006E1060E005C0001D8B473D0050103501F
:1031300006E1070E005C0001D8B496D00501B4D0BA
:1031400048D177C582F97CC584F97BC583F909012B
:10315000866B7DC585F90001FDEC0DF001C081F5A0
:10316000010E0901806F05019FD077C582F97CC5EA
:1031700084F97BC583F90901866B7DC585F900015A
:10318000E3D501C081F5010E0901806F05018CD0E6
:1031900077C582F97CC584F97BC583F90901866B03
:1031A0007DC585F900014CEC0CF001C081F5010EE4
:1031B0000901806F050178D077C582F97CC584F953
:1031C0007BC583F90901866B7DC585F9000100EC9B
:1031D0000CF001C081F5010E0901806F050164D07A
:1031E0006C0E05017E25E96E040EEA6ED8B0EA2A5F
:1031F000EFCF86F977C583F97CC585F97BC584F95E
:103200000001F6D501C081F5020E0901806F0501AC
:103210004BD06C0E05017E25E96E040EEA6ED8B027
:10322000EA2AEFCF82F9010E7E256C0FE96E040EBB
:10323000EA6ED8B0EA2AEFCF83F982C985F983C94B
:1032400084F977C586F97CC588F97BC587F982C979
:103250008AF983C989F9000129D601C081F5020ED6
:103260000901806F0001B5D06C0E05017E250901B2
:10327000826F040E836FD8B0832B77C584F97CC529
:1032800086F97BC585F9886B7DC587F983C98AF97D
:1032900082C989F900015ED601C081F5020E0901DB
:1032A000806F000196D005010901802D1DD0050118
:1032B0008153D8B402D0090117D0010E945D826FFA
:1032C000010E945D0901826F040EEA6E6C0EE96EC8
:1032D000050EE26E980EE16E8251016E04E0E6CFBB
:1032E000EEFF012EFCD710D0805102080DE1050140
:1032F0008153D8B402D0090107D0020E826F9AC55B
:103300006CF49BC56DF4090163D005017A5361E14A
:10331000795117085EE37951100815E17A5313E1EA
:1033200077C582F97BC583F9040E0901856F6C0EA0
:10333000846F7DC586F9000149EC0EF07DC582F5EC
:103340000501816B46D07951150843E17A5341E17B
:103350000901816B05017D510901815D39E2D89038
:10336000813505017B250901826F000E05017C2155
:103370000901836FD890813505017E256C0FE96EB8
:10338000040EEA6ED8B0EA2AEFCF84F9D89009018A
:10339000813505017E25010F6C0FE96E040EEA6E82
:1033A000D8B0EA2AEFCF85F984C987F985C986F9AB
:1033B00077C588F982C989F984C98BF985C98AF9E1
:1033C00000015AD60501826B816B0901812BC2D79E
:1033D00005010001FBEF1AF0230E0901806F83C580
:1033E00081F985C582F9090184C583F909018469D8
:1033F000140E856F0D0E05018225020F09018D6FD8
:103400008E6BD8B08E2B8EC986F98DC987F972C59F
:1034100088F9090171C589F9090170C58AF909019D
:103420006FC58BF9090181C58CF994699369090EFF
:10343000966F810E956F0C0E976F000198EC0CF053
:1034400002C08EF901C08DF98EC994F98DC993F926
:10345000040E0901966F6C0E956F82C597F90001F5
:1034600098EC0CF002C08EF901C08DF99290898021
:1034700009018F6B8F510C0810E3036A8F51800F85
:10348000E96E090E0320EA6EEFCF90F9905100012A
:10349000C7EC0CF009018F2BEDD78F6B0501825122
:1034A00009018F5D10E26C0E8F25E96E040EEA6E45
:1034B000D8B0EA2AEFCF90F990510001C7EC0CF098
:1034C00009018F2BEBD78EC990F990510001C7EC01
:1034D0000CF08DC990F9090190510001C7EC0CF076
:1034E0000A0E0901906F000145EC03F0929089905B
:1034F000FCEF1AF070C46EF5020E05016E5D6C0FE4
:10350000E96E040EEA6ED8B0EA2AEFCF80F5010E1C
:103510006E5D6C0FE96E040EEA6ED8B0EA2AEFCF4A
:103520007FF5030E6E5D0901806F94699369040E47
:10353000966F6D0E956F80C997F9000198EC0CF0AD
:1035400002C07FF901C07EF905017F5109017E5D4E
:1035500005E10501805109017F5D01E04ED00401C4
:103560007151130803E0090148D0040172C472F5D7
:1035700073C471F574C470F575C46FF576C476F5CF
:1035800077C475F578C474F579C473F57AC478F5A1
:103590007BC477F57CC47AF57DC479F57EC47CF56F
:1035A0007FC47BF580C47DF5150E05017E6F826BAF
:1035B00009017D6B83C57CF984C57AF985C57BF9E2
:1035C0000501735109017A5D14E105017451090186
:1035D0007B5D0FE10501755109017C5D0AE1050183
:1035E000765109017D5D05E100014AEF16F003D037
:1035F000090100015FD5F0D609010001F0EF1BF0D1
:10360000F86AD09E078E620ED36E9B6A646A206A47
:10361000B986220E7B6E000E7C6EA60EBA6E900EE0
:10362000A66E94869488040EC86E280EC66EC79E39
:10363000C79CA7960C0EAF6EA20EAC6E900EAB6E32
:1036400005018E6B010E8D6F860E8C6FA00E8B6F39
:103650008F91906B09012A6B296B0F015C51800BD4
:103660005C6F000E5D6FC196C198C19A5E6B5F6B17
:103670000AD002001A0000FF469600FFC00095C065
:10368000004E492B0000000EF86E360EF76E720EDB
:10369000F66E0900F550006E000A13E00900F550BF
:1036A000016EE8BE05D03F0BEA6E0900F5CFE9FFD9
:1036B00001BC090001AC0900F5CFEEFF004EE9D7CF
:1036C000F9D7F86A00015DEF03F00901796B7951D0
:1036D000950813E30400939A8A8A640E906F0001A0
:1036E00045EC03F0939A8A9A640E0901906F0001E9
:1036F00045EC03F00901792BEAD70400C00EF21261
:10370000000111EC04F060EC04F0FCEF04F023EF96
:1037100005F0040052EF05F05EEC05F00400050131
:1037200088534FE00801E45306E00301666B010E85
:10373000656F0801E46B060196530EE0C9530CE176
:10374000000108EF06F00601966BC85305E003017F
:10375000666B010E656F06010801E65311E1090170
:103760002853D8B402D008010BD0000127EC07F091
:103770000152D8A402D0080103D030EF07F00801AD
:103780000601C32D04D00001A2EF07F00601C953C2
:103790000AE00701DF53D8B402D0060104D00001CB
:1037A000B2EF09F006010701DE2D0AD0DE6B06013B
:1037B000C85305E00301666B010E656F0601070142
:1037C00005010301615307E0616BC80E646F0001DE
:1037D0008EEF0EF0030105016D5305E000018AD65E
:0C37E000DCEC02F00501000199D70300A9
:020000040030CA
:0E0000001508672B000991000FC00FE00F409C
:00000001FF
;PIC18F25K80
;CRC=A64E  CREATED="09-Apr-24 21:32"
