:0400000008EF09F00C
:08000800046ED8CF05F0E0CF33
:1000100006F00001E9CF0CF0EACF07F0E1CF08F0DD
:10002000E2CF09F0D9CF0AF0DACF0BF0F3CF12F01C
:10003000F4CF13F0FACF14F0F5CF15F0F6CF16F099
:10004000F7CF17F000C00EF001C00FF002C010F0A3
:1000500003C011F09DA230EF00F09EB240EF02F01D
:100060009DAA36EF00F09EBA7BEF02F0A3AA3CEF08
:1000700000F0A4BAE6EF02F0B6AE42EF00F0B7BE71
:10008000B0EF02F00EC000F00FC001F010C002F09F
:1000900011C003F00CC0E9FF07C0EAFF078E08C0DB
:1000A000E1FF09C0E2FF0AC0D9FF0BC0DAFF12C0AE
:1000B000F3FF13C0F4FF14C0FAFF15C0F5FF16C01C
:1000C000F6FF17C0F7FF045006C0E0FF05C0D8FFD9
:1000D0001000F76AE20FF66E000EF7220900F550E5
:1000E000120000C1814001C0804101C0804100C1B7
:1000F000814001C0804100C1814000C1814001C0F8
:10010000804101C0804100C1814000C1814001C0E7
:10011000804100C1814001C0804101C0804100C1D7
:10012000814001C0804100C1814000C1814001C0C7
:10013000804100C1814001C0804101C0804100C1B7
:10014000814000C1814001C0804101C0804100C1A7
:10015000814001C0804100C1814000C1814001C097
:10016000804101C0804100C1814000C1814001C087
:10017000804100C1814001C0804101C0804100C177
:10018000814000C1814001C0804101C0804100C167
:10019000814001C0804100C1814000C1814001C057
:1001A000804100C1814001C0804101C0804100C147
:1001B000814001C0804100C1814000C1814001C037
:1001C000804101C0804100C1814000C1814001C027
:1001D000804100C1814001C0804101C0804100C117
:1001E0008140F76AF20FF66E010EF7220900F55012
:1001F000120000C0C101C30302C2C60607C705C57D
:10020000C404CC0C0DCD0FCFCE0E0ACACB0BC9093E
:1002100008C8D81819D91BDBDA1A1EDEDF1FDD1D4E
:100220001CDC14D4D515D71716D6D21213D311D17E
:10023000D010F03031F133F3F23236F6F737F535CE
:1002400034F43CFCFD3DFF3F3EFEFA3A3BFB39F9FE
:10025000F83828E8E929EB2B2AEAEE2E2FEF2DEDCE
:10026000EC2CE42425E527E7E62622E2E323E1213E
:1002700020E0A06061A163A3A26266A6A767A5654E
:1002800064A46CACAD6DAF6F6EAEAA6A6BAB69A9BE
:10029000A86878B8B979BB7B7ABABE7E7FBF7DBDCE
:1002A000BC7CB47475B577B7B67672B2B373B171FE
:1002B00070B05090915193535292965657975595CE
:1002C00094549C5C5D9D5F9F9E5E5A9A9B5B99597E
:1002D0005898884849894B8B8A4A4E8E8F4F8D4D4E
:1002E0004C8C4484854587474686824243834181BE
:1002F00080402320726561645F706172616D5F662A
:10030000696C6520435243206D69732D6D61746380
:10031000682E2057726974696E67206E6577206455
:10032000656661756C74210D0A0023206469736130
:10033000626C696E6720616C6C20646576696365C8
:10034000730D0A00232077726974655F64657669AE
:1003500063655F66696C6528290D0A002320726554
:1003600061645F6465766963655F66696C65206377
:1003700072633D25750D0A002320726561645F6418
:1003800065766963655F66696C6520435243206DDD
:1003900069732D6D617463682E2057726974696E7C
:1003A00067206E65772064656661756C74210D0A3F
:1003B0000000232064756D70696E6720616C6C208D
:1003C000656E61626C656420646576696365733A25
:1003D0000D0A00006465766963655B25755D0D0A2D
:1003E000000009747970653D25750D0A00000974D7
:1003F00072616E736D697445766572793D25750D10
:100400000A00096E6574776F726B4164647265737C
:10041000733D25750D0A00000973657269616C4EA4
:10042000756D6265723D30782530327825303278CE
:1004300025303278253032780D0A00000973746156
:10044000727452656769737465723D256C750D0A27
:100450000000096E5265676973746572733D257596
:100460000D0A00002320646F6E650D0A00009D9246
:100470000501375303E0CC6A9E929D820001120071
:100480000301ED5102080AE1EE5308E1EF5306E1E2
:10049000ECB104D0020EF15FEC8101D0EC91EF6978
:1004A000EE69ED6B0501376B0001E1DF9E9242EFD3
:1004B00000F09EAAFED7ABCF20F0AECF01F020A275
:1004C00002D0AB98AB8812000301EF510501371938
:1004D000386F036A38510001FCDD016E0301EE51F3
:1004E0000118EF6F036A0501385100017ADEE8CF89
:1004F000EEF3A6EF02F0DDDF01C036F50301ECB14B
:100500002BD0ED5308E1EF69EE6936C5F0F3ED2B22
:10051000F16BF36B17D0ED2D04D036C5F2F3ED2B54
:1005200011D0ED5102080EE1F13D02D0FE0EF16F47
:10053000F40EF125E96E030EEA6ED8B0EA2A36C54C
:10054000EFFFF12B36C537F50001BED7010E0501CF
:10055000376F00018CDF03019E9A000142EF00F02B
:100560000401F32BF351640815E1F36BF42BD8B4B9
:10057000F52B0301E5510401F55D0CE305E10301F1
:10058000E4510401F45D06E3F56BF46B010E010127
:10059000C16F04010101C23D01D001D0C22BC4537F
:1005A00003E1939A8A9A03D0939A8A8AC407B79EE2
:1005B000000142EF00F0A4AAFED7A6CF20F07ACF28
:1005C00001F020A202D0A698A68812000301CB5306
:1005D00003E00001F0DF03010101C2510A0803E258
:1005E0000301CA6B0101C26B0301CA5336E1F7C4B0
:1005F000F6F4F8C4F7F4F9C4F8F4FAC4F9F4000115
:10060000DADF01C0FAF40401F651230824E1F751BE
:100610000301E15DD8B402D004011DD0F8C403F099
:100620000401F9510301E25DD8B402D0040113D0F2
:100630000350E35DD8B402D004010DD0F6C4CAF271
:10064000F7C4CBF2F8C4CCF2F9C4CDF2FAC4CEF2BE
:10065000050ECA6F04011DD00301CA51CA2BCA0F6F
:10066000E96E020EEA6ED8B0EA2AEACF39F5E9CF90
:1006700038F50001A0DF39C5EAFF38C5E9FF01C040
:10068000EFFF0201CE510301CA5D02E1010ECB6F03
:100690000401A49A000142EF00F023207264546127
:1006A0007020257320282563256C75290D0A00000C
:1006B000372D4665622D3232000023207265737437
:1006C0006172742063617573653A20005744542049
:1006D00054494D454F5554004D434C522046524FBE
:1006E0004D20534C454550004D434C522046524FEF
:1006F0004D2052554E004E4F524D414C20504F57B9
:1007000045522055500042524F574E4F555420529B
:1007100045535441525400005744542046524F4DC3
:1007200020534C4545500000524553455420494EF6
:10073000535452554354494F4E00554E4B4E4F570C
:100740004E21000023207374617274696E67206DFE
:1007500061696E2829206C6F6F700D0A000003011B
:10076000CA6BCB6B00015EEF04F093988A8893907C
:100770008A8060EF04F0C69E9E9622C5C9FF020ED5
:10078000C6BE05D09EA6FED7000EC5BC010E016EEA
:100790001200C580C5B0FED70400090E006E002E01
:1007A000FED700009A0E0501226F0001E4DF05016B
:1007B0001F35216F21372137F80E211721C522F56A
:1007C0000001D9DF20C522F5D6DFC584C5B4FED728
:1007D0001200030E05011F6F800E206F0001D9DF8C
:1007E00005011F6B1EC520F50001D3DF010E0501B9
:1007F0001F6F206B0001CDDF030E05011F6FBF0EC1
:10080000206F0001C6DF020E05011F6F100E206F62
:100810000001BFDF030E05011F6F206F0001B9DF6C
:10082000010E05011F6F206B0001B3DF020E0501F1
:100830001F6F070E206F0001ACDF65EF04F0050E9F
:10084000EA6E1E0EE96EEF5011E0020E016EBF0E51
:10085000006E0400002EFDD7012EF9D7960E006E13
:10086000002EFED700D00400EF2EEFD71200620E4C
:10087000D36E9B6A646A0F015C51800B5C6F000E43
:100880005D6FC196C198C19AD1805D691F0E5C6F82
:10089000F00EBB1650174D174A174717949A8B9AAC
:1008A000780E0609886E4D0EA96EB68E010E0101F6
:1008B000C16FC269C36BC46B000151D7A38A55D7FE
:1008C000060E05011E6F000184D70E0E05011E6F76
:1008D0000001B5DF67EF09F00900F6CF34F5F7CF77
:1008E00035F5F550A4A8FED7796E34C5F6FF35C5A9
:1008F000F7FF0501332F01D002D00001EDD7000131
:1009000012000900F5520DE0F6CF20F5F7CF21F5E2
:10091000F550A4A8FED7796E20C5F6FF21C5F7FFD4
:10092000F0D71200EACF29F5E9CF28F505012239E1
:10093000F009246F2427E20F256F320F276F225111
:100940000F0B252725272727E90F266F2627262780
:1009500021390F0B2627272726372737271F273729
:1009600021510F0B27272437070E236F0A0E260766
:100970002727FDE325072627FDE324072527FDE399
:1009800023072427FDE3050EEA6E230EE96E070E0A
:100990002815289DE926000EEA22E950270804E1DF
:1009A000EA50050801E1288DEF50006E08E128BDEE
:1009B00006D028B90CD028B702D0200E03D0288743
:1009C0002899300E00260050A4A8FED7796EEE506C
:1009D00028ADE3D7000112000501296B28C52BF5CE
:1009E0002751D8B4280727072A6F2A5302E12B532F
:1009F0003FE0040026C503F02551E96E03C0EAFF7D
:100A0000EFCF2AF529C52BF52AC52CF52B512C192A
:100A1000016E01C029F52451036E2351232BD8B454
:100A2000242B2A6F03C02BF52651036E2551252B4D
:100A3000D8B4262BE96E03C0EAFFEFCF2CF5F250B5
:100A4000006EF29E2BC575FF2AC574FF2CC573FF7F
:100A50007F9C7F9E7F840F01550E7E6EAA0E7E6E58
:100A60007F827FB2FED77F940050F2120501B6D785
:100A700029C501F000011200030E0501216FE10EEE
:100A8000206F246B040E236F21C526F520C525F5A4
:100A9000286B050E276F00019FDF01C01FF5F25084
:100AA000006EF29E756A746A1FC573FF7F9C7F9EFD
:100AB0007F840F01550E7E6EAA0E7E6E7F827FB2FE
:100AC000FED77F940050F212000176EF05F0960EEB
:100AD0000101C46F5A0E0301E16F260EE36F930EFE
:100AE000E26FE56B0A0EE46F0001C6D71200050144
:100AF0002E513003F3CF01F0F4CF00F03103F35067
:100B000000262F513003F3500020026E0001120026
:100B10000501210E216F246B800E236F266B21C5EA
:100B200025F5010E286FA00E276F000155DF01C0CB
:100B300020F5F250006EF29E756A020E746E20C5AA
:100B400073FF7F9C7F9E7F840F01550E7E6EAA0EE1
:100B50007E6E7F827FB2FED77F940050F21200013A
:100B6000D9EF05F0960E0101C46F2A0EF66E030E42
:100B7000F76E0001C6DE05011F6B1F511F0812E34F
:100B80002F6B1FC52EF5316B0D0E306F0001AFDFDF
:100B9000210E05010124E96E000E0220EA6EEF6AC3
:100BA0001F2BEBD7440EF66E030EF76E0001A9DE85
:100BB000AFD712000501276B26C529F52551D8B4FA
:100BC00026072507286F285302E1295332E024C560
:100BD00003F02351E96E03C0EAFF2251036E215155
:100BE000212BD8B4222B2A6F03C02BF5F2CF2CF582
:100BF000F29E2BC575FF2AC574FF7F9C7F9E7F8068
:100C000073502CBFF28EEF6E24C503F02351E96EB2
:100C100003C0EAFFEFCF28F527C52BF528C52CF533
:100C20002B512C19016E01C027F5232BD8B4242B8E
:100C3000C3D727C501F000011200030E0501206F84
:100C4000E10E1F6F226B040E216F20C524F51FC516
:100C500023F5266B050E256F0001ACDF01C01EF5E4
:100C6000F2CF1FF5F29E756A746A7F9C7F9E7F802B
:100C7000735005011FBFF28E1E5D08E0F20EF66E86
:100C8000020EF76E00013DDE22DF050100010FEFCD
:100C90000AF005012551016A245D03E224C500F034
:100CA0000CD0006A080E266F243700362551005CF0
:100CB000D8B0006E0136262FF7D700011200015080
:100CC00022C524F5640E0501256F0001E2DF00C096
:100CD00022F50150300E08E1050123A30ED023B701
:100CE0000CD023B9200E04D005012397239923812A
:100CF00001260150A4A8FED7796E22C524F50A0E5C
:100D0000256F0001C6DF00C022F50150300E08E15A
:100D1000050123B70BD023A109D023B9200E000170
:100D200001260150A4A8FED7796E0501300E2227B6
:100D30002251A4A8FED7796E000112000501210EF0
:100D40001F6F226B800E216F246B1FC523F5010ED0
:100D5000266FA00E256F00012DDF01C01EF55C0E71
:100D6000F66E030EF76E170E0501336F0001B4DD4A
:100D70001EC522F51B0E0501236F0001A0DF0D0E1D
:100D8000A4A8FED7796E0A0EA4A8FED7796EF2CF7A
:100D90001FF5F29E756A020E746E7F9C7F9E7F80A7
:100DA000735005011FBFF28E1E5D08E0780EF66ECF
:100DB000030EF76E0001A5DDD5DE0501000110EF81
:100DC0000AF09EAA03D059EC02F0FBD7AE50949AD9
:100DD0008B9A9D8AEFEF06F0949A8B9AF2D7480E81
:100DE0000609CA6EF90ECB6EC00EF21211EF0AF0B0
:100DF000050134BF10D00F0E006E333900160A0EF5
:100E0000005C03E2300E002602D034510026005070
:100E1000A4A8FED7796E0F0E33170A0E335D02E2D7
:100E2000300E02D0349F345133273351A4A8FED75B
:100E3000796E00011200B20EF66E030EF76E61DDE0
:100E400005011E6B1E510F08D8A0D9D104002F6BCD
:100E50001EC52EF5316B0D0E306F000148DE02C04D
:100E600020F501C01FF5210E05010124E96E000ED9
:100E70000220EA6EEF5001E1C0D1D40EF66E030EEF
:100E8000F76E070E336F000127DD1EC522F51B0E1E
:100E90000501236F000113DFDD0EF66E030EF76E02
:100EA000030E0501336F000117DD05012F6B1EC511
:100EB0002EF5316B0D0E306F000119DE02C020F5EA
:100EC00001C01FF5210E05010124E96E000E02206C
:100ED000EA6EEFCF21F5E20EF66E030EF76E060E08
:100EE000336F0001F9DC21C522F51B0E0501236FCC
:100EF0000001E5DE0D0EA4A8FED7796E0A0EA4A8A7
:100F0000FED7796E05012F6B1EC52EF5316B0D0EC8
:100F1000306F0001ECDD02C020F501C01FF5030EAB
:100F200005010124016E000E0220036E0150210F05
:100F3000E96E000E0320EA6EEFCF1FF5EE0EF66E9F
:100F4000030EF76E0F0E336F0001C6DC1FC522F5CE
:100F50001B0E0501236F0001B2DE0D0EA4A8FED703
:100F6000796E0A0EA4A8FED7796E05012F6B1EC5F7
:100F70002EF5316B0D0E306F0001B9DD02C020F58A
:100F800001C01FF5040E05010124016E000E0220B0
:100F9000036E0150210FE96E000E0320EA6EEFCFC1
:100FA0001FF5020EF66E040EF76E100E336F000181
:100FB00093DC1FC522F51B0E0501236F00017FDEA8
:100FC0000D0EA4A8FED7796E0A0EA4A8FED7796EDE
:100FD00005012F6B1EC52EF5316B0D0E306F000114
:100FE00086DD01C01FF5050E05010124016E000E0E
:100FF0000220036E0150210FE96E000E0320EA6EFD
:10100000EFCF1FF5ECCF20F5ECCF21F5ECCF23F59A
:101010002F6B1EC52EF5316B0D0E306F000167DD95
:1010200001C024F5050E05010124016E000E022009
:10103000036E0150210FE96E000E0320EA6EEFCF20
:1010400024F5ECCF25F5ECCF28F5ECCF27F52F6B69
:101050001EC52EF5316B0D0E306F000148DD01C04D
:1010600029F5050E05010124016E000E0220036E14
:101070000150210FE96E000E0320EA6EEFCF29F533
:10108000ECCF2DF5ECCF2BF5ECCF2CF52F6B1EC54F
:101090002EF5316B0D0E306F000129DD01C02EF5EC
:1010A000050E05010124016E000E0220036E0150A1
:1010B000210FE96E000E0320EA6EEFCF32F5ECCF80
:1010C0002FF5ECCF30F5ECCF31F5180EF66E040E9F
:1010D000F76E100E336F00016CEC04F023C533F58E
:1010E000570E0501346F000183DE28C533F5570E16
:1010F0000501346F00017CDE2DC533F5570E050167
:10110000346F000175DE32C533F5570E0501346FBB
:1011100000016EDE0D0EA4A8FED7796E0A0EA4A8FB
:10112000FED7796E05012F6B1EC52EF5316B0D0EA6
:10113000306F0001DCDC01C01FF5090E0501012440
:10114000016E000E0220036E0150210FE96E000EA9
:101150000320EA6EECCF20F5ED52EFCF1FF53C0EE9
:10116000F66E040EF76E0F0E336F00016CEC04F098
:10117000100EE96E20C522F51FC521F592EC04F092
:101180000D0EA4A8FED7796E0A0EA4A8FED7796E1C
:1011900005012F6B1EC52EF5316B0D0E306F000152
:1011A000A6DC02C020F501C01FF50B0E05010124CD
:1011B000016E000E0220036E0150210FE96E000E39
:1011C0000320EA6EEFCF1FF5520EF66E040EF76E97
:1011D0000C0E336F00016CEC04F01FC522F51B0EE2
:1011E0000501236F00016BDD0D0EA4A8FED7796EFB
:1011F0000A0EA4A8FED7796E05011E2B23D6640E15
:10120000F66E040EF76E000181EC04F012EF0AF0A6
:10121000F86AD09E078E620ED36E9B6A646A206A5B
:10122000B986220E7B6E000E7C6EA60EBA6E900EF4
:10123000A66E94869488040EC86E280EC66EC79E4D
:10124000C79C0301E76BE66BA7960C0EAF6EA20E70
:10125000AC6E900EAB6EEB6B010EEA6F860EE96F13
:10126000A00EE86FEC91ED6B0F015C51800B5C6F91
:10127000000E5D6FC196C198C19A5E6B5F6B05D021
:1012800002001A00002A44F30000000EF86E120E4D
:10129000F76E800EF66E0900F550006E000A13E03E
:1012A0000900F550016EE8BE05D03F0BEA6E09005B
:1012B000F5CFE9FF01BC090001AC0900F5CFEEFF55
:1012C000004EE9D7F9D7F86A000137EF04F00501BD
:1012D0001D6B1D51090813E30400939A8A8A640E5A
:1012E0001E6F00011FEC04F0939A8A9A640E0501A8
:1012F0001E6F00011FEC04F005011D2BEAD79A0EAA
:10130000F66E060EF76E080E336F00016CEC04F0FB
:10131000B00EF66E060EF76E81EC04F0200EA4A857
:10132000FED7796E280EA4A8FED7796E0301E1518D
:10133000A4A8FED7796E100EE96EE3C322F5E2C3CE
:1013400021F5000192EC04F0AB0EF66E060EF76E7E
:10135000030E0501336F00016CEC04F0BA0EF66E5B
:10136000060EF76E81EC04F0070E005C12E00B0E27
:10137000005C16E00F0E005C1AE00C0E005C1EE034
:101380000E0E005C22E0030E005C26E000522BE013
:1013900031D0CC0EF66E060EF76E81EC04F030D034
:1013A000D80EF66E060EF76E81EC04F029D0E80E2A
:1013B000F66E060EF76E81EC04F022D0F60EF66E95
:1013C000060EF76E81EC04F01BD0060EF66E070ECB
:1013D000F76E81EC04F014D0180EF66E070EF76E5F
:1013E00081EC04F00DD0280EF66E070EF76E81EC3E
:1013F00004F006D03A0EF66E070EF76E81EC04F09C
:101400000D0EA4A8FED7796E0A0EA4A8FED7796E99
:10141000C00EF21267EC05F0B2EC05F00ED48ED4DB
:10142000DBD409D5440EF66E070EF76E81EC04F09E
:101430000400140E0101C46F640E05011E6F00014B
:101440001FEC04F005011D511D2B1E6F226F1B0E9A
:10145000236F000134DC0D0EA4A8FED7796E0A0EAE
:0A146000A4A8FED7796EE4D70300BC
:020000040030CA
:0E00000015086727000991000FC000E00040BE
:00000001FF
;PIC18F25K80
;CRC=C947  CREATED="07-Feb-22 12:10"
