:040800000AEF17F0F4
:08080800046ED8CF05F0E0CF2B
:1008100006F00001E9CF0CF0EACF07F0E1CF08F0D5
:10082000E2CF09F0D9CF0AF0DACF0BF0F3CF12F014
:10083000F4CF13F0FACF14F0F5CF15F0F6CF16F091
:10084000F7CF17F000C00EF001C00FF002C010F09B
:1008500003C011F09DA230EF04F09EB2E0EF05F06E
:100860009DAA36EF04F09EBA1AEF06F0A3AA3CEF59
:1008700004F0A4BA8FEF06F0A3A642EF04F0A4B6EA
:100880004FEF06F00EC000F00FC001F010C002F0F4
:1008900011C003F00CC0E9FF07C0EAFF078E08C0D3
:1008A000E1FF09C0E2FF0AC0D9FF0BC0DAFF12C0A6
:1008B000F3FF13C0F4FF14C0FAFF15C0F5FF16C014
:1008C000F6FF17C0F7FF045006C0E0FF05C0D8FFD1
:1008D0001000F76AE20FF66E080EF7220900F550D5
:1008E000120000C1814001C0804101C0804100C1AF
:1008F000814001C0804100C1814000C1814001C0F0
:10090000804101C0804100C1814000C1814001C0DF
:10091000804100C1814001C0804101C0804100C1CF
:10092000814001C0804100C1814000C1814001C0BF
:10093000804100C1814001C0804101C0804100C1AF
:10094000814000C1814001C0804101C0804100C19F
:10095000814001C0804100C1814000C1814001C08F
:10096000804101C0804100C1814000C1814001C07F
:10097000804100C1814001C0804101C0804100C16F
:10098000814000C1814001C0804101C0804100C15F
:10099000814001C0804100C1814000C1814001C04F
:1009A000804100C1814001C0804101C0804100C13F
:1009B000814001C0804100C1814000C1814001C02F
:1009C000804101C0804100C1814000C1814001C01F
:1009D000804100C1814001C0804101C0804100C10F
:1009E0008140F76AF20FF66E090EF7220900F55002
:1009F000120000C0C101C30302C2C60607C705C575
:100A0000C404CC0C0DCD0FCFCE0E0ACACB0BC90936
:100A100008C8D81819D91BDBDA1A1EDEDF1FDD1D46
:100A20001CDC14D4D515D71716D6D21213D311D176
:100A3000D010F03031F133F3F23236F6F737F535C6
:100A400034F43CFCFD3DFF3F3EFEFA3A3BFB39F9F6
:100A5000F83828E8E929EB2B2AEAEE2E2FEF2DEDC6
:100A6000EC2CE42425E527E7E62622E2E323E12136
:100A700020E0A06061A163A3A26266A6A767A56546
:100A800064A46CACAD6DAF6F6EAEAA6A6BAB69A9B6
:100A9000A86878B8B979BB7B7ABABE7E7FBF7DBDC6
:100AA000BC7CB47475B577B7B67672B2B373B171F6
:100AB00070B05090915193535292965657975595C6
:100AC00094549C5C5D9D5F9F9E5E5A9A9B5B995976
:100AD0005898884849894B8B8A4A4E8E8F4F8D4D46
:100AE0004C8C4484854587474686824243834181B6
:100AF0008040232064756D70696E6720616C6C2086
:100B0000656E61626C656420646576696365733ADD
:100B10000D0A00006465766963655B25755D0D0AE5
:100B2000000009747970653D25750D0A000009748F
:100B300072616E736D697445766572793D25750DC8
:100B40000A00096E6574776F726B41646472657335
:100B5000733D25750D0A00000973657269616C4E5D
:100B6000756D6265723D3078253032782530327887
:100B700025303278253032780D0A0000097374610F
:100B8000727452656769737465723D256C750D0AE0
:100B90000000096E5265676973746572733D25754F
:100BA0000D0A00002320646F6E650D0A00009D92FF
:100BB0000701015303E0CC6A9E929D82000112005E
:100BC00005018E5102080AE18F5308E1905306E1B6
:100BD0008DB104D0020E925F8D8101D08D9190690C
:100BE0008F698E6B0701016B0001E1DF9E9242EF7E
:100BF00004F09EAAFED7ACCF20F0AFCF01F020A228
:100C000002D0AC98AC88120005019051070101197F
:100C1000026F036A025100015CDE016E05018F5113
:100C20000118906F036A070102510001DADEE8CF74
:100C30008FF51200DEDF01C000F705018DB12BD06A
:100C40008E5308E190698F6900C791F58E2B926BE6
:100C5000946B17D08E2D04D000C793F58E2B11D036
:100C60008E5102080EE1923D02D0FE0E926F950E5B
:100C70009225E96E050EEA6ED8B0EA2A00C7EFFFAA
:100C8000922B00C701F70001BFDF010E0701016FC2
:100C900000018DDF05019E9A000142EF04F006017C
:100CA000942B9451640815E1946B952BD8B4962B32
:100CB000050186510601965D0CE305E105018551AC
:100CC0000601955D06E3966B956B010E0301616F5E
:100CD00006010301623D01D003D0622B93968A7610
:100CE000645303E193988A9803D093988A886407A1
:100CF000655303E1939A8A9A03D0939A8A8A650787
:100D0000A496000142EF04F0A4AAFED79CCF20F0E5
:100D1000AACF01F020A202D09C989C881200939444
:100D20008A8405016C5305E00001EEDF93948A94F8
:100D30000501030162510A0805E205016B6B939AF4
:100D40008A7A0301626B05016B5336E198C697F608
:100D500099C698F69AC699F69BC69AF60001D4DF12
:100D600001C09BF606019751230824E19851050123
:100D7000825DD8B402D006011DD099C603F00601E9
:100D80009A510501835DD8B402D0060113D00350F7
:100D9000845DD8B402D006010DD097C66BF498C616
:100DA0006CF499C66DF49AC66EF49BC66FF4050E8A
:100DB0006B6F06011DD005016B516B2B6B0FE96E3C
:100DC000040EEA6ED8B0EA2AEACF03F7E9CF02F7B9
:100DD00000019ADF03C7EAFF02C7E9FF01C0EFFF86
:100DE00004016F5105016B5D02E1010E6C6F06019C
:100DF00093948A94A49A000142EF04F02320727322
:100E00005461702E632028706C616E657450726539
:100E1000636973696F6E2920257320282563256C0B
:100E200075290D0A0000362D4665622D323200000C
:100E300005016B6B6C6B000112009B6A730ED36E25
:100E4000D350C290FF0E0F01486FC29CC29E495101
:100E5000E00B1F09496F780E0609766E4D0E776E0E
:100E6000A386010E0301616F6269636B646B656B3E
:100E70000001DEDFA38A6CEF17F0F250036EF29EE2
:100E8000A6840F01550EA76EAA0EA76EA6820000BB
:100E90000350F21200011200C00EF6163F0E006E53
:100EA00008000D00002EFCD708000C0012000601FF
:100EB000FA6BFC6BFB6BFC6BFB6BFC51F95D40E36D
:100EC00003E1F851FB5D3CE20400F7C603F0F65184
:100ED000E96E03C0EAFFEFCFFDF6FAC6FEF6FDC6E7
:100EE000FFF6FE51FF19016E01C0FAF6D890FB35EE
:100EF000026EFC35036E0250F425FD6F0350F521A0
:100F0000FE6FF7C6EAFFF6C6E9FFEFCFFFF6D08C1B
:100F1000F86AF76EFDC6F6FF0001BEDFFDC6F6FFFC
:100F2000FFC6F5FF0D00F56A0C00A7DFF86AF86A46
:100F30000601F62BD8B4F72BFB2BD8B4FC2BBDD76E
:100F4000FAC601F000011200D08CF86A040EF76EA8
:100F5000F66AA68892DFF86AD08CF86A060EF76EF9
:100F6000F66AA6888ADFF86A050E0601F26F820E1D
:100F7000F16F040EF56F020EF46FF2C6F7F6F1C6CC
:100F8000F6F6F96B050EF86F000191DF01C0F0F67F
:100F9000D08CF86A040EF76EF66A7EDFF66AF0C649
:100FA000F5FF0D00F56A0C0068DFF86AF86A1200B8
:100FB000960E0301656F410E0501826F0F0E846F5F
:100FC000A10E836F866B0A0E856F0001BDDF1200D4
:100FD0000601F851FA03F3CF01F0F4CF00F0FB0360
:100FE000F3500026F951FA03F3500020026E00017D
:100FF0001200D08CF86A380EF76EF66AA6883DDFCC
:10100000F86AD08CF86A3A0EF76EF66AA68835DF71
:10101000F86A0601210EF26F380EF56F020EF46FBA
:10102000F76BF2C6F6F6030EF96F400EF86F00018B
:101030003EDF01C0F1F6D08CF86A380EF76EF66A22
:101040002BDFF66AF1C6F5FF0D00F56A0C0015DF1F
:10105000F86AF86A1200960E0301656F0601F06BDC
:10106000F0513F0812E3F96BF0C6F8F6FB6B0D0E7A
:10107000FA6F0001ADDF210E06010124E96E000EBA
:101080000220EA6EEF6AF02BEBD7040E216E236A82
:10109000640E226E010E246E180E256E296A410E12
:1010A000286E0E0E276EA30E266E2B6A2A6A2E0E4F
:1010B0002C6E030E2E6E7D0E306E020E2F6E010E04
:1010C000316E640E326E366A356A346A336A020EE5
:1010D000386E376A0A0E396E030E3B6E7D0E3D6E1A
:1010E0003C6A010E3E6E640E3F6E436A426A416A7C
:1010F000010E406E030E456E446A080E466E0001F6
:1011000078DF12000601E76BE96BE86BE96BE86BCF
:10111000E951E65D3BE303E1E551E85D37E20400B8
:10112000E4C6EAFFE3C6E9FFD890E835026EE93588
:10113000036E0250E125EC6F0350E221F2CFEEF690
:10114000F29EF86AF76EECC6F6FF0900F55008004B
:10115000F5CF03F0F86AEEBFF28EEF6EE4C603F04F
:10116000E351E96E03C0EAFFEFCFEAF6E7C6FEF609
:10117000EAC6FFF6FE51FF19016E01C0E7F6E32B48
:10118000D8B4E42BE82BD8B4E92BC2D7E7C601F0DA
:1011900000011200050E0601E06F820EDF6F040EE3
:1011A000E26F020EE16FE0C6E4F6DFC6E3F6E66B3F
:1011B000050EE56F0001A6DF01C0DEF6F2CFDFF617
:1011C000F29EF86A040EF76EF66A0900F550080000
:1011D000F5CF03F0F86A0601DFBFF28EDE5D02E1B3
:1011E000035203E00001E4DE0601000174EF17F092
:1011F0000601210EDF6F380EE26F020EE16FE46B25
:10120000DFC6E3F6030EE66F400EE56F00017ADFFE
:1012100001C0DEF6F2CFDFF6F29EF86A380EF76E06
:10122000F66A0900F5500800F5CF03F0F86A0601E8
:10123000DFBFF28EDE5D02E1035203E000010BDF4F
:101240000601000176EF17F00900F6CFDFF6F7CFC1
:10125000E0F6F550A4A8FED7A96EDFC6F6FFE0C6FB
:10126000F7FF0601DE2F01D002D00001EDD700010B
:1012700012000900F5520DE0F6CFDEF6F7CFDFF6EB
:10128000F550A4A8FED7A96EDEC6F6FFDFC6F7FFAD
:10129000F0D786EF17F0EACFE6F6E9CFE5F60601DC
:1012A000DF39F009E16FE127E20FE26F320FE46FFF
:1012B000DF510F0BE227E227E427E90FE36FE32773
:1012C000E327DE390F0BE327E427E337E437E41F96
:1012D000E437DE510F0BE427E137070EE06F0A0E0B
:1012E000E307E427FDE3E207E327FDE3E107E22765
:1012F000FDE3E007E127FDE3060EEA6EE00EE96E8E
:10130000070EE515E59DE926000EEA22E950E408FE
:1013100004E1EA50060801E1E58DEF50006E08E1B6
:10132000E5BD06D0E5B90CD0E5B702D0200E03D05C
:10133000E587E599300E00260050A4A8FED7A96ED7
:10134000EE50E5ADE3D700019CEF17F09EAA02D066
:1013500050DCFCD7AF50929089909D8A12009292F7
:101360008992F4DF480E0609CA6EF90ECB6EC00EE4
:10137000F212A8EF17F0060EEA6EDE0EE96EEF50DD
:1013800011E0020E016EBF0E006E0400002EFDD7AC
:10139000012EF9D7960E006E002EFED700D0040065
:1013A000EF2EEFD712009EA8FED7AE6EDCEF09F04D
:1013B0000601F3510001F7D7196AF2BE198EF29EA9
:1013C000F3C601F721DC19BEF28E0400440E006E54
:1013D000002EFED700D01200050190698F698D9113
:1013E0009D9A929289820400F20E006E002EFED722
:1013F000F0C6F3F60001DCDFF1C6F3F6D9DF120028
:1014000090C5F1F68FC5F0F6F1C6F3F6D1DFF0C660
:10141000F3F6CEDFADA2FED70400F20E006E002E72
:10142000FED794DF92928992050190698F6900013D
:10143000120005018DB104D0000E016E0AD006D055
:1014400093AF04D095C594F5010E926F8D91010E66
:10145000016E00011200E5C6F0F6040E0601F16F00
:101460000001BADFE7C6EAF6E7C6F3F6A1DFE6C693
:10147000EAF6E6C6F3F69CDFE9C6EAF6E9C6F3F655
:1014800097DFE8C6EAF6E8C6F3F692DFB9DF0601B1
:10149000E55329E00001CDDF015219E1FF0E0501FE
:1014A0008927D8A08A27D8A08B27D8A08C27895332
:1014B00009E18A5307E18B5305E18C53D8A402D08C
:1014C000000105D0040000000601E4D70001050179
:1014D000895308E18A5306E18B5304E18C5302E1FE
:1014E0000C0E946F060105018C6B010E8B6F860E3E
:1014F0008A6FA00E896F94C501F000011200E5C645
:10150000F0F6030E0601F16F000166DFE7C6EAF6AA
:10151000E7C6F3F64DDFE6C6EAF6E6C6F3F648DFC1
:10152000E9C6EAF6E9C6F3F643DFE8C6EAF6E8C636
:10153000F3F63EDF65DF0601E55329E0000179DFC0
:10154000015219E1FF0E05018927D8A08A27D8A0EA
:101550008B27D8A08C27895309E18A5307E18B5345
:1015600005E18C53D8A402D0000105D0040000008E
:101570000601E4D700010501895308E18A5306E119
:101580008B5304E18C5302E10C0E946F06010501AC
:101590008C6B010E8B6F860E8A6FA00E896F94C5BF
:1015A00001F0000112000601F951F907000A24E0D8
:1015B000F8C6EAFFF751F72BD8B4F82BE96EEF50D5
:1015C000F51BFA6BFA51070816E3F551010B006E93
:1015D000036A005003100AE0D890F631FC6FF53131
:1015E000010AF56FFC51A00AF66F03D0D890F633CC
:1015F000F533FA2BE7D7D8D7F5C601F0F6C602F0D7
:1016000000011200A4A8FED7A96E1200110E040159
:101610006725020F0601F36FF46BD8B0F42B230E8D
:10162000E26F82C5E3F684C5E4F6060183C5E5F6FC
:101630000601E669120EE76FF4C6E8F6F3C6E9F6AE
:101640006AC4EAF6060169C4EBF6060168C4E1F66D
:10165000F96BE1C6F8F6FB6B0D0EFA6F0001B8DC12
:1016600001C0F5F6010E06010124016E000E0220F4
:10167000036E0150210FE96E000E0320EA6EECCFDD
:10168000ECF6ED52EFCFF5F6F96BE1C6F8F6FB6B31
:101690000D0EFA6F00019CDC01C0F5F6010E06018B
:1016A0000124016E000E0220036E0150210FE96E2D
:1016B000000E0320EA6EECCFF6F6ED52EFCFEDF61A
:1016C000F96BE1C6F8F6FB6B0D0EFA6F000180DCDA
:1016D00001C0F5F6050E06010124016E000E022080
:1016E000036E0150210FE96E000E0320EA6EEFCF6A
:1016F000F5F6ECCFF6F6ECCFF7F6ECCFEEF6F96BAD
:10170000E1C6F8F6FB6B0D0EFA6F000161DC01C05B
:10171000F5F6050E06010124016E000E0220036E8F
:101720000150210FE96E000E0320EA6EEFCFF5F6AF
:10173000ECCFF6F6ECCFEFF6ECCFF8F6F96BE1C6AE
:10174000F8F6FB6B0D0EFA6F000142DC01C0F5F6F6
:10175000050E06010124016E000E0220036E0150E9
:10176000210FE96E000E0320EA6EEFCFF5F6ECCF05
:10177000F0F6ECCFF7F6ECCFF8F6F96BE1C6F8F639
:10178000FB6B0D0EFA6F000123DC01C0F5F6050EB0
:1017900006010124016E000E0220036E0150210F8C
:1017A000E96E000E0320EA6EEFCFF1F6ECCFF6F60D
:1017B000ECCFF7F6ECCFF8F666C3F2F6F669F5690A
:1017C000060EF86FE30EF76F100EF96F0001EBDEF7
:1017D00002C0E0F601C0DFF6E0C6F6F6DFC6F5F6B9
:1017E000030E0601F86F670EF76F67C4F9F6000184
:1017F000DADE02C0E0F601C0DFF60601E16BE1517E
:1018000010080FE3036AE151E20FE96E060E0320B0
:10181000EA6EEFCFF5F6F5510001F4DE0601E12B9B
:10182000EED7E16B040167510601E15D0FE2670E3F
:10183000E125E96E030EEA6ED8B0EA2AEFCFF5F69D
:10184000F5510001DFDE0601E12BECD7E0C6F5F62D
:10185000F5510001D7DEDFC6F5F60601F5510001AE
:10186000D1DE1200E5C6F0F6010E0601F16F0001AF
:10187000B3DDE7C6EAF6E7C6F3F69ADDE6C6EAF6B2
:10188000E6C6F3F695DDE9C6EAF6E9C6F3F690DDBD
:10189000E8C6EAF6E8C6F3F68BDDB2DD0601E553ED
:1018A00029E00001C6DD015219E1FF0E050189277B
:1018B000D8A08A27D8A08B27D8A08C27895309E1E4
:1018C0008A5307E18B5305E18C53D8A402D0000161
:1018D00005D0040000000601E4D70001050189538A
:1018E00008E18A5306E18B5304E18C5302E10C0EAC
:1018F000946F060105018C6B010E8B6F860E8A6F4B
:10190000A00E896F94C501F0000112000601DE6B84
:10191000DE513F08D8A060D20400640E0301646F5A
:101920000601F96BDEC6F8F6FB6B0D0EFA6F0001CF
:10193000E8EC07F002C0E0F601C0DFF6210E060178
:101940000124E96E000E0220EA6EEF5001E142D25E
:10195000036ADE519E0FE96E060E0320EA6EEF2A3F
:10196000036ADE519E0FE96E060E0320EA6EEFCF8A
:10197000DFF6F96BDEC6F8F6FB6B0D0EFA6F0001B1
:10198000E8EC07F002C0E1F601C0E0F6030E060144
:101990000124016E000E0220036E0150210FE96E3A
:1019A000000E0320EA6EEF50DF5D02E213D208D092
:1019B000036ADE519E0FE96E060E0320EA6EEF6A9F
:1019C000F96BDEC6F8F6FB6B0D0EFA6F0001E8EC62
:1019D00007F002C0E0F601C0DFF60C0E060101249C
:1019E000016E000E0220036E0150210FE96E000E01
:1019F0000320EA6EEF50010808E17E96190EB06EE2
:101A0000A60EAD6E900EAC6E07D07E960C0EB06E2C
:101A1000A20EAD6E900EAC6EDEC668F49DC66AF482
:101A20009CC669F4F96BDEC6F8F6FB6B0D0EFA6F17
:101A30000001E8EC07F002C0E0F601C0DFF6210E7D
:101A400006010124E96E000E0220EA6EEF50030841
:101A500018E0F96BDEC6F8F6FB6B0D0EFA6F0001AD
:101A6000E8EC07F002C0E2F601C0E1F6210E060143
:101A70000124E96E000E0220EA6EEF500408D8A49B
:101A8000FAD0F96BDEC6F8F6FB6B0D0EFA6F0001AB
:101A9000E8EC07F002C0E0F601C0DFF6210E060117
:101AA0000124E96E000E0220EA6EEF50040862E1A4
:101AB000F96BDEC6F8F6FB6B0D0EFA6F0001E8EC71
:101AC00007F002C0E0F601C0DFF6040E06010124B3
:101AD000016E000E0220036E0150210FE96E000E10
:101AE0000320EA6EEFCFDFF6F96BDEC6F8F6FB6B8C
:101AF0000D0EFA6F0001E8EC07F001C0E0F6090EE8
:101B000006010124016E000E0220036E0150210F18
:101B1000E96E000E0320EA6EECCFE1F6ED52EFCF56
:101B2000E0F6F96BDEC6F8F6FB6B0D0EFA6F0001FE
:101B3000E8EC07F002C0E3F601C0E2F60B0E060186
:101B40000124016E000E0220036E0150210FE96E88
:101B5000000E0320EA6EEFCFE8F6DFC6E5F6E1C639
:101B6000E7F6E0C6E6F6E96B000175DC01C066F356
:101B700061D00601F96BDEC6F8F6FB6B0D0EFA6F4D
:101B80000001E8EC07F002C0E0F601C0DFF6040E49
:101B900006010124016E000E0220036E0150210F88
:101BA000E96E000E0320EA6EEFCFDFF6F96BDEC6BA
:101BB000F8F6FB6B0D0EFA6F0001E8EC07F001C0C0
:101BC000E0F6090E06010124016E000E0220036EEC
:101BD0000150210FE96E000E0320EA6EECCFE1F612
:101BE000ED52EFCFE0F6F96BDEC6F8F6FB6B0D0EAB
:101BF000FA6F0001E8EC07F002C0E3F601C0E2F67C
:101C00000B0E06010124016E000E0220036E01502E
:101C1000210FE96E000E0320EA6EEFCFE8F6DFC673
:101C2000E5F6E1C6E7F6E0C6E6F6E96B000167DC3B
:101C300001C066F3030166531CE1010E0501925DCC
:101C40000401676F010E0501925D0601DF6F030E4F
:101C5000EA6E670EE96E050EE26E960EE16EDF51DA
:101C6000016E04E0E6CFEEFF012EFCD70001CEDCD2
:101C70000301AFD00601F96BDEC6F8F6FB6B0D0E63
:101C8000FA6F0001E8EC07F002C0E0F601C0DFF6F1
:101C9000210E06010124E96E000E0220EA6EEF50CB
:101CA000010818E0F96BDEC6F8F6FB6B0D0EFA6F53
:101CB0000001E8EC07F002C0E2F601C0E1F6210EF7
:101CC00006010124E96E000E0220EA6EEF500208C0
:101CD000D8A480D0F96BDEC6F8F6FB6B0D0EFA6F58
:101CE0000001E8EC07F002C0E0F601C0DFF6040EE8
:101CF00006010124016E000E0220036E0150210F27
:101D0000E96E000E0320EA6EEFCFDFF6F96BDEC658
:101D1000F8F6FB6B0D0EFA6F0001E8EC07F001C05E
:101D2000E0F6090E06010124016E000E0220036E8A
:101D30000150210FE96E000E0320EA6EECCFE1F6B0
:101D4000ED52EFCFE0F6F96BDEC6F8F6FB6B0D0E49
:101D5000FA6F0001E8EC07F002C0E3F601C0E2F61A
:101D60000B0E06010124016E000E0220036E0150CD
:101D7000210FE96E000E0320EA6EEFCFE8F6DFC612
:101D8000E5F6E1C6E7F6E0C6E6F6E96B00016ADDD6
:101D900001C066F3030166531CE1010E0501925D6B
:101DA0000401676F010E0501925D0601DF6F030EEE
:101DB000EA6E670EE96E050EE26E960EE16EDF5179
:101DC000016E04E0E6CFEEFF012EFCD700011EDC21
:101DD00003010601DE2B9CD59C2BD8B49D2B03015F
:101DE000646B0001C8EF17F00601ED510308D8A09D
:101DF0006AD104E1EC51E708D8A065D1ED31036E5A
:101E0000EC31026E033202320332023202C0F1F6CA
:101E1000EC51070BF26FF151400803E2020E016E24
:101E2000CED1F251F80FD8B04DD1080F0001E2EF3A
:101E300010F00601F96BF1C6F8F6FB6B0D0EFA6FA8
:101E40000001E8EC07F002C0F4F601C0F3F6210E41
:101E500006010124E96E000E0220EA6EF06BEFCF5E
:101E6000EFF630D10601F96BF1C6F8F6FB6B0D0EFB
:101E7000FA6F0001E8EC07F002C0F4F601C0F3F6D7
:101E8000010E06010124016E000E0220036E0150B6
:101E9000210FE96E000E0320EA6EECCFF0F6ED5252
:101EA000EFCFEFF60FD10601F96BF1C6F8F6FB6B39
:101EB0000D0EFA6F0001E8EC07F002C0F4F601C065
:101EC000F3F6030E06010124016E000E0220036EDC
:101ED0000150210FE96E000E0320EA6EF06BEFCF88
:101EE000EFF6F0D00601F96BF1C6F8F6FB6B0D0EBC
:101EF000FA6F0001E8EC07F002C0F4F601C0F3F657
:101F0000040E06010124016E000E0220036E015032
:101F1000210FE96E000E0320EA6EF06BEFCFEFF6B3
:101F2000D1D00601F96BF1C6F8F6FB6B0D0EFA6F16
:101F30000001E8EC07F001C0F3F6050E06010124EC
:101F4000016E000E0220036E0150210FE96E000E9B
:101F50000320EA6EEFCFF3F6ECCFF4F6ECCFF5F614
:101F6000ECCFF7F6F96BF1C6F8F6FB6B0D0EFA6FD6
:101F70000001E8EC07F001C0F8F6050E06010124A7
:101F8000016E000E0220036E0150210FE96E000E5B
:101F90000320EA6EEFCFF8F6ECCFF9F6ECCFFAF6C5
:101FA000ECCFFBF6FAC6FCF6F7C6F0F6FAC6EFF68B
:101FB00089D00601F96BF1C6F8F6FB6B0D0EFA6FCE
:101FC0000001E8EC07F001C0F3F6050E060101245C
:101FD000016E000E0220036E0150210FE96E000E0B
:101FE0000320EA6EEFCFF3F6ECCFF7F6ECCFF5F681
:101FF000ECCFF6F6F96BF1C6F8F6FB6B0D0EFA6F47
:102000000001E8EC07F001C0F8F6050E0601012416
:10201000016E000E0220036E0150210FE96E000ECA
:102020000320EA6EEFCFF8F6ECCFF9F6ECCFFAF634
:10203000ECCFFBF6F8C6FCF6F7C6F0F6F8C6EFF6FE
:1020400041D00601F96BF1C6F8F6FB6B0D0EFA6F85
:102050000001E8EC07F002C0F4F601C0F3F6090E47
:1020600006010124016E000E0220036E0150210FB3
:10207000E96E000E0320EA6EECCFF0F6ED52EFCFE2
:10208000EFF620D00601F96BF1C6F8F6FB6B0D0EEA
:10209000FA6F0001E8EC07F002C0F4F601C0F3F6B5
:1020A0000B0E06010124016E000E0220036E01508A
:1020B000210FE96E000E0320EA6EF06BEFCFEFF612
:1020C00001D0060163D0EC51006EED51036E030E9A
:1020D000035C05E1E80E005C000132E00601030E3E
:1020E000035C05E1E90E005C00012FE00601030E30
:1020F000035C05E1EA0E005C00012DE00601030E21
:10210000035C05E1EB0E005C00012AE00601030E12
:10211000035C05E1EC0E005C000126E00601030E05
:10212000035C05E1ED0E005C000123E00601040EF6
:10213000035C05E14C0E005C00011FE0060123D0AA
:102140000601F06B82C5EFF621D084C5F0F683C599
:10215000EFF606011BD00601F06B520EEF6F16D0A2
:102160000601F06BEF6B12D00601F06B340EEF6FCF
:102170000DD00601F06BEF6B09D086C5F0F685C572
:10218000EFF6060103D0020E016E19D06B0EEE259C
:10219000E96E040EEA6ED8B0EA2AF0C6EFFF010E2F
:1021A000EE256B0FE96E040EEA6ED8B0EA2AEFC690
:1021B000EFFF020E05018127000E016E06010001EE
:1021C0000FEF11F0E824F76AF736DF0FF66E210EF5
:1021D000F7220A00F550FA6E0800F550F96E321E2B
:1021E000641EA61EE41E221FB21F42208420060188
:1021F000E86BE76BE651E75D17E2E85315E1E7515D
:10220000E425E96F000EE521EA6FD890E735EB6F22
:10221000EAC6EDF6E9C6ECF6EE6F0001E5D501C0C1
:10222000E8F60601E72BE6D7E8C601F00001EEEF7D
:1022300012F0030163531BE00601E851E80809E1CD
:10224000E951030806E1EAC682F5000E016E84D169
:102250000DD0E851E9080AE1E951030807E1EBC6AE
:1022600084F5EAC683F5000E016E76D103010601FE
:10227000E9510308D8A002D104E1E851E708D8A049
:10228000FDD0E931036EE831026E033202320332CF
:10229000023202C0ECF6E851070BED6FEC5140083A
:1022A00003E2020E016E58D1ED51F80FD8B0E5D01F
:1022B000080F0001AFEF12F00601F96BECC6F8F65B
:1022C000FB6B0D0EFA6F0001E8EC07F002C0F1F6AF
:1022D00001C0F0F6210E06010124E96E000E022075
:1022E000EA6EEAC6EFFFC9D00601F96BECC6F8F654
:1022F000FB6B0D0EFA6F0001E8EC07F002C0F1F67F
:1023000001C0F0F6010E06010124016E000E02204C
:10231000036E0150210FE96E000E0320EA6EEBC63A
:10232000ECFFED52EAC6EFFFA8D00601F96BECC650
:10233000F8F6FB6B0D0EFA6F0001E8EC07F002C037
:10234000F1F601C0F0F6030E06010124016E000E45
:102350000220036E0150210FE96E000E0320EA6E89
:10236000EAC6EFFF8AD00601F96BECC6F8F6FB6B04
:102370000D0EFA6F0001E8EC07F002C0F1F601C0A3
:10238000F0F6040E06010124016E000E0220036E19
:102390000150210FE96E000E0320EA6EEAC6EFFF3E
:1023A0006CD0EBC6EFF6EAC6EEF6060166D0060183
:1023B000F96BECC6F8F6FB6B0D0EFA6F0001E8EC5A
:1023C00007F001C0F0F6050E06010124016E000EB3
:1023D0000220036E0150210FE96E000E0320EA6E09
:1023E000EE52EEC6ECFFEFC6ECFFED52ED52ED52B1
:1023F000EAC6EFFFEBC6ECFF00010601F96BECC685
:10240000F8F6FB6B0D0EFA6F0001E8EC07F002C066
:10241000F1F601C0F0F6090E0601F025016E000E7E
:10242000F121036E0150210FE96E000E0320EA6EC8
:10243000EBC6ECFFED52EAC6EFFF1FD00601F96BC9
:10244000ECC6F8F6FB6B0D0EFA6F0001E8EC07F036
:1024500002C0F1F601C0F0F60B0E06010124016E78
:10246000000E0220036E0150210FE96E000E0320C2
:10247000EA6EEAC6EFFF01D006016AD0E851006EAD
:10248000E951036E040E035C05E14C0E005C000193
:1024900022E00601070E035C05E1CD0E005C0001A1
:1024A0001FE00601070E035C05E1CE0E005C000193
:1024B00018E00601070E035C05E1CF0E005C000189
:1024C00020E006014E0E035C05E11F0E005C0001DA
:1024D00026E006013AD0EBC686F5EAC685F539D086
:1024E000FF000601EA51CE0803E1EB51070803E0C3
:1024F000030E016E31D00001D8EC07F02BEC08F090
:1025000028D00601EA2D02D0EB5303E0030E016E42
:1025100023D00001A4EC07F0F9EC07F01AD0060173
:10252000EA510A0803E1EB51070806E00301636B77
:10253000030E016E060110D0010E0301636FC80E79
:10254000646F656B000105D00601020E016E04D0B8
:102550000001000E016E0601000113EF13F0E824E4
:10256000F76AF736790FF66E250EF7220A00F55056
:10257000FA6E0800F550F96EB822E8222A23662385
:10258000A223AE23FA233C240501816B7851006E0F
:102590007951036E035005E1030E005C000117E062
:1025A0000501035005E1040E005C000110E0050187
:1025B000035005E1060E005C000113E00501035025
:1025C00005E1070E005C000131E0050131D07BC55B
:1025D000E5F67AC5E4F67CC5E6F609D601C080F5D5
:1025E0002AD06B0E05017D25E96E040EEA6ED8B087
:1025F000EA2AEFCFE4F6010E7D256B0FE96E040E9B
:10260000EA6ED8B0EA2AEFCFE5F6E4C6E7F6E5C60B
:10261000E6F67BC5E9F67AC5E8F6E4C6EBF6E5C66C
:10262000EAF6000106D601C080F505D004D0050108
:10263000010E806F816B000101EF17F0E5C6F0F627
:10264000020E0601F16F0001ECEC09F0E7C6EAF6B4
:10265000E7C6F3F6D8EC09F0E6C6EAF6E6C6F3F606
:10266000D8EC09F0E9C6EAF6E9C6F3F6D8EC09F0C9
:10267000E8C6EAF6E8C6F3F6D8EC09F000EC0AF092
:102680000601E5532AE0000119EC0AF0015219E1B4
:10269000FF0E05018927D8A08A27D8A08B27D8A0AC
:1026A0008C27895309E18A5307E18B5305E18C5349
:1026B000D8A402D0000105D0040000000601E3D731
:1026C00000010501895308E18A5306E18B5304E1B7
:1026D0008C5302E10C0E946F060105018C6B010E08
:1026E0008B6F860E8A6FA00E896F94C501F0000172
:1026F0003AEF15F0E6C6F0F6050E0601F16F00019F
:10270000ECEC09F0E8C6EAF6E8C6F3F6D8EC09F016
:10271000E7C6EAF6E7C6F3F6D8EC09F00601E95396
:1027200006E0F3690001D8EC09F005D00601F36B6F
:102730000001D8EC09F00601F36B0001D8EC09F0B8
:1027400000EC0AF00601E6532AE0000119EC0AF059
:10275000015219E1FF0E05018927D8A08A27D8A0C8
:102760008B27D8A08C27895309E18A5307E18B5323
:1027700005E18C53D8A402D0000105D0040000006C
:102780000601E3D700010501895308E18A5306E1F8
:102790008B5304E18C5302E10C0E946F060105018A
:1027A0008C6B010E8B6F860E8A6FA00E896F94C59D
:1027B00001F000017BEF15F0E9C6F0F6060E060108
:1027C000F16F0001ECEC09F0EBC6EEF6EBC6F3F6A8
:1027D000D8EC09F0EAC6EEF6EAC6F3F6D8EC09F052
:1027E000EDC6EEF6EDC6F3F6D8EC09F0ECC6EEF663
:1027F000ECC6F3F6D8EC09F000EC0AF00601E95358
:102800002AE0000119EC0AF0015219E1FF0E05015E
:102810008927D8A08A27D8A08B27D8A08C278953AE
:1028200009E18A5307E18B5305E18C53D8A402D008
:10283000000105D0040000000601E3D700010501F6
:10284000895308E18A5306E18B5304E18C5302E17A
:102850000C0E946F060105018C6B010E8B6F860EBA
:102860008A6FA00E896F94C501F00001A6EF15F0E4
:10287000D8900601EA35026EEB3502C0EFF6E7C6E6
:10288000F0F6100EF16F0001ECEC09F0E9C6F0F67D
:10289000E9C6F3F6D8EC09F0E8C6F0F6E8C6F3F6B8
:1028A000D8EC09F0EBC6F0F6EBC6F3F6D8EC09F07D
:1028B000EAC6F0F6EAC6F3F6D8EC09F0EFC6F3F68E
:1028C000D8EC09F00601EE6BEB5303E1EA51EE5D43
:1028D00034E2036AEEC602F0D890023603360250A4
:1028E000EC25E96EED510320EA6EECCFF1F6ED52E6
:1028F000EFCFF0F6F0C6F2F6F0C6F3F60001D8EC32
:1029000009F0036A0601EEC602F0D89002360336DB
:102910000250EC25E96EED510320EA6EECCFF1F6A2
:10292000ED52EFCFF0F6F1C6F2F6F1C6F3F6000184
:10293000D8EC09F00601EE2BC7D7000100EC0AF035
:102940000601E7532AE0000119EC0AF0015219E1EF
:10295000FF0E05018927D8A08A27D8A08B27D8A0E9
:102960008C27895309E18A5307E18B5305E18C5386
:10297000D8A402D0000105D0040000000601E3D76E
:1029800000010501895308E18A5306E18B5304E1F4
:102990008C5302E10C0E946F060105018C6B010E45
:1029A0008B6F860E8A6FA00E896F94C501F00001AF
:1029B000C5EF15F005017851006E7951036E035093
:1029C00004E10052000135E00501035005E1010E6C
:1029D000005C00012FE00501035005E1020E005CE0
:1029E00000013CE00501035005E1030E005C00011D
:1029F00048E00501035005E1040E005C000155E0CC
:102A00000501035005E1050E005C000162E00501CF
:102A1000035006E1060E005C0001D8B473D0050136
:102A2000035006E1070E005C0001D8B496D0050102
:102A3000B4D0E3D076C5E5F67BC5E7F67AC5E6F611
:102A40000601E96B7CC5E8F6000132EC0CF001C030
:102A500080F5010E0601E46F05019FD076C5E5F60D
:102A60007BC5E7F67AC5E6F60601E96B7CC5E8F6B4
:102A70000001E4D501C080F5010E0601E46F0501F7
:102A80008CD076C5E5F67BC5E7F67AC5E6F6060195
:102A9000E96B7CC5E8F600017FEC0AF001C080F527
:102AA000010E0601E46F050178D076C5E5F67BC519
:102AB000E7F67AC5E6F60601E96B7CC5E8F60001A3
:102AC0002BEC0AF001C080F5010E0601E46F050150
:102AD00064D06B0E05017D25E96E040EEA6ED8B058
:102AE000EA2AEFCFE9F676C5E6F67BC5E8F67AC5C1
:102AF000E7F60001FFD501C080F5020E0601E46F84
:102B000005014BD06B0E05017D25E96E040EEA6EC2
:102B1000D8B0EA2AEFCFE5F6010E7D256B0FE96EFE
:102B2000040EEA6ED8B0EA2AEFCFE6F6E5C6E8F67C
:102B3000E6C6E7F676C5E9F67BC5EBF67AC5EAF6B2
:102B4000E5C6EDF6E6C6ECF6000136D601C080F526
:102B5000020E0601E46F000150D06B0E05017D25C9
:102B60000601E56F040EE66FD8B0E62B76C5E7F6F2
:102B70007BC5E9F67AC5E8F6EB6B7CC5EAF6E6C6F6
:102B8000EDF6E5C6ECF6000173D601C080F5020E45
:102B90000601E46F000131D005010601E42D1DD0CE
:102BA00005018053D8B402D0060117D0010E925D02
:102BB000816F010E925D0601E56F040EEA6E6B0EE9
:102BC000E96E050EE26E960EE16EE551016E04E0CF
:102BD000E6CFEEFF012EFCD710D0E45102080DE144
:102BE00005018053D8B402D0060107D0020E816FD0
:102BF00098C56BF499C56CF40601000105EF17F058
:102C0000230E0601E46F82C5E5F684C5E6F60601EB
:102C100083C5E7F60601E869140EE96F0D0E05019C
:102C20008125020F0601F16FF26BD8B0F22BF2C6CC
:102C3000EAF6F1C6EBF671C5ECF6060170C5EDF6E5
:102C400006016FC5EEF606016EC5EFF6060180C5FA
:102C5000F0F6F669F569060EF86FE50EF76F0C0EE3
:102C6000F96F0001D3EC0AF002C0F2F601C0F1F6F0
:102C7000F2C6F6F6F1C6F5F6040E0601F86F6B0E15
:102C8000F76F81C5F9F60001D3EC0AF002C0F2F645
:102C900001C0F1F60601F36BF3510C0810E3036A6F
:102CA000F351E40FE96E060E0320EA6EEFCFF4F65F
:102CB000F451000102EC0BF00601F32BEDD7F36B9E
:102CC000050181510601F35D10E26B0EF325E96EFB
:102CD000040EEA6ED8B0EA2AEFCFF4F6F451000100
:102CE00002EC0BF00601F32BEBD7F2C6F4F6F4512D
:102CF000000102EC0BF0F1C6F4F60601F4510001FC
:102D000002EC0BF006EF17F06FC46DF5020E050133
:102D10006D5D6B0FE96E040EEA6ED8B0EA2AEFCF54
:102D20007FF5010E6D5D6B0FE96E040EEA6ED8B093
:102D3000EA2AEFCF7EF5030E6D5D0601E46FF669BA
:102D4000F569040EF86F6C0EF76FE4C6F9F6000132
:102D5000D3EC0AF002C0E3F601C0E2F605017E51B1
:102D60000601E25D05E105017F510601E35D01E039
:102D70004ED004017051130803E0060148D004014D
:102D800071C471F572C470F573C46FF574C46EF5D7
:102D900075C475F576C474F577C473F578C472F5A7
:102DA00079C477F57AC476F57BC479F57CC478F577
:102DB0007DC47BF57EC47AF57FC47CF5150E0501D4
:102DC0007D6F816B0601E16B82C5E0F683C5DEF69F
:102DD00084C5DFF6050172510601DE5D14E10501CF
:102DE00073510601DF5D0FE1050174510601E05DDD
:102DF0000AE1050175510601E15D05E10001C4EF3D
:102E000012F003D006010001D5D5FAD60601000163
:102E1000CEEF17F0F86AD09E078E0E01550EA76E02
:102E2000AA0EA76EFF910C0EF66F050ED16F550E10
:102E3000A76EAA0EA76EFF81206A7C86220EAB6E5B
:102E4000000E7D6EA60EA86E900E9C6E0501886B1E
:102E5000876B7E960C0EB06EA20EAD6E900EAC6EB1
:102E60008C6B010E8B6F860E8A6FA00E896F8D9111
:102E70008E6BFF0E0F01486FC29CC29E4951E00B42
:102E80001F09496F070EB46E05D002001A00004AF0
:102E900046940000000EF86E2E0EF76E8A0EF66E47
:102EA0000900F550006E000A13E00900F550016EAC
:102EB000E8BE05D03F0BEA6E0900F5CFE9FF01BC83
:102EC000090001AC0900F5CFEEFF004EE9D7F9D7B4
:102ED000F86A00011DEF07F0C00EF212D8EC07F0FF
:102EE0002BEC08F0CAEF08F0F8EF08F0FC0EF66ED5
:102EF0000D0EF76E1C0E0601DE6F000124EC09F0CA
:102F0000260EF66E0E0EF76E39EF09F0200EA4A80D
:102F1000FED7A96E280EA4A8FED7A96E050182517E
:102F2000A4A8FED7A96E100EE96E84C5DFF683C58E
:102F3000DEF600014BEF09F0210EF66E0E0EF76E75
:102F4000030E0601DE6F000124EC09F0AFEF09F07B
:102F50000A0E0301656F640E0601DE6F0001BBEC13
:102F600009F00A0E0301646F640E0601DE6F0001B2
:102F7000BBEC09F00301656B646B93948A949390A6
:102F80008A800400615305E0616B000186EF0CF05C
:102F9000030105016C5305E00001B6D618EC07F0FB
:082FA00005010301EED7FFD784
:083FF80000F4DFFFFFF9CFF137
:00000001FF
;PIC18F24J11
;CRC=EAEC  CREATED="06-Feb-22 20:03"
