:04000000A7EF10F066
:08000800046ED8CF05F0E0CF33
:1000100006F00001E9CF0CF0EACF07F0E1CF08F0DD
:10002000E2CF09F0D9CF0AF0DACF0BF0F3CF12F01C
:10003000F4CF13F0FACF14F0F5CF15F0F6CF16F099
:10004000F7CF17F000C00EF001C00FF002C010F0A3
:1000500003C011F09DA230EF00F09EB240EF02F01D
:100060009DAA36EF00F09EBA7AEF02F0A3AA3CEF09
:1000700000F0A4BA00EF03F0B6AE42EF00F0B7BE56
:10008000C7EF02F00EC000F00FC001F010C002F088
:1000900011C003F00CC0E9FF07C0EAFF078E08C0DB
:1000A000E1FF09C0E2FF0AC0D9FF0BC0DAFF12C0AE
:1000B000F3FF13C0F4FF14C0FAFF15C0F5FF16C01C
:1000C000F6FF17C0F7FF045006C0E0FF05C0D8FFD9
:1000D0001000F76AE20FF66E000EF7220900F550E5
:1000E000120000C1814001C0804101C0804100C1B7
:1000F000814001C0804100C1814000C1814001C0F8
:10010000804101C0804100C1814000C1814001C0E7
:10011000804100C1814001C0804101C0804100C1D7
:10012000814001C0804100C1814000C1814001C0C7
:10013000804100C1814001C0804101C0804100C1B7
:10014000814000C1814001C0804101C0804100C1A7
:10015000814001C0804100C1814000C1814001C097
:10016000804101C0804100C1814000C1814001C087
:10017000804100C1814001C0804101C0804100C177
:10018000814000C1814001C0804101C0804100C167
:10019000814001C0804100C1814000C1814001C057
:1001A000804100C1814001C0804101C0804100C147
:1001B000814001C0804100C1814000C1814001C037
:1001C000804101C0804100C1814000C1814001C027
:1001D000804100C1814001C0804101C0804100C117
:1001E0008140F76AF20FF66E010EF7220900F55012
:1001F000120000C0C101C30302C2C60607C705C57D
:10020000C404CC0C0DCD0FCFCE0E0ACACB0BC9093E
:1002100008C8D81819D91BDBDA1A1EDEDF1FDD1D4E
:100220001CDC14D4D515D71716D6D21213D311D17E
:10023000D010F03031F133F3F23236F6F737F535CE
:1002400034F43CFCFD3DFF3F3EFEFA3A3BFB39F9FE
:10025000F83828E8E929EB2B2AEAEE2E2FEF2DEDCE
:10026000EC2CE42425E527E7E62622E2E323E1213E
:1002700020E0A06061A163A3A26266A6A767A5654E
:1002800064A46CACAD6DAF6F6EAEAA6A6BAB69A9BE
:10029000A86878B8B979BB7B7ABABE7E7FBF7DBDCE
:1002A000BC7CB47475B577B7B67672B2B373B171FE
:1002B00070B05090915193535292965657975595CE
:1002C00094549C5C5D9D5F9F9E5E5A9A9B5B99597E
:1002D0005898884849894B8B8A4A4E8E8F4F8D4D4E
:1002E0004C8C4484854587474686824243834181BE
:1002F00080402320726561645F706172616D5F662A
:10030000696C6520435243206D69732D6D61746380
:10031000682E2057726974696E67206E6577206455
:10032000656661756C74210D0A0023206469736130
:10033000626C696E6720616C6C20646576696365C8
:10034000730D0A00232077726974655F64657669AE
:1003500063655F66696C6528290D0A002320726554
:1003600061645F6465766963655F66696C65206377
:1003700072633D25750D0A002320726561645F6418
:1003800065766963655F66696C6520435243206DDD
:1003900069732D6D617463682E2057726974696E7C
:1003A00067206E65772064656661756C74210D0A3F
:1003B0000000232064756D70696E6720616C6C208D
:1003C000656E61626C656420646576696365733A25
:1003D0000D0A00006465766963655B25755D0D0A2D
:1003E000000009747970653D25750D0A00000974D7
:1003F00072616E736D697445766572793D25750D10
:100400000A00096E6574776F726B4164647265737C
:10041000733D25750D0A00000973657269616C4EA4
:10042000756D6265723D30782530327825303278CE
:1004300025303278253032780D0A00000973746156
:10044000727452656769737465723D256C750D0A27
:100450000000096E5265676973746572733D257596
:100460000D0A00002320646F6E650D0A00009D9246
:100470000801635303E0CC6A9E929D820001120042
:100480000501905102080AE1915308E1925306E1F7
:100490008FB104D0020E945F8F8101D08F91926949
:1004A0009169906B0801636B0001E1DF9E9242EF5E
:1004B00000F09EAAFED7ABCF20F0AECF01F020A275
:1004C00002D0AB98AB881200050192510801631964
:1004D000646F036A64510001FCDD016E05019151F6
:1004E0000118926F036A0801645100017ADEE8CFB7
:1004F00091F51200DEDF01C062F805018FB12BD04B
:10050000905308E19269916962C893F5902B946BBE
:10051000966B17D0902D04D062C895F5902B11D012
:10052000905102080EE1943D02D0FE0E946F970E9A
:100530009425E96E050EEA6ED8B0EA2A62C8EFFF8C
:10054000942B62C863F80001BFDF010E0801636FDE
:1005500000018DDF05019E9A000142EF00F0415439
:1005600045300D004154264B300D000041542B53B3
:10057000424457423D256C750D0041542B53424473
:1005800049580D0041542B53424444300D0007019B
:10059000F42BF451640818E1F46BF52BD8B4F62B66
:1005A000050185510701F65D0CE305E10501845164
:1005B0000701F55D06E3F66BF56B010E0301616F54
:1005C0000701B05301E0B0070301623D01D001D043
:1005D000622B645303E1939A8A9A03D0939A8A8A8E
:1005E0006407B79E000142EF00F0A4AAFED7A6CF91
:1005F00020F07ACF01F020A202D0A698A68812009F
:1006000005016B5303E00001F0DF050103016251B6
:100610000A0803E205016A6B0301626B05016A5374
:1006200036E1F8C7F7F7F9C7F8F7FAC7F9F7FBC7E4
:10063000FAF70001DADF01C0FBF70701F7512308E1
:1006400024E1F8510501815DD8B402D007011DD025
:10065000F9C703F00701FA510501825DD8B402D051
:10066000070113D00350835DD8B402D007010DD029
:10067000F7C76AF4F8C76BF4F9C76CF4FAC76DF4FE
:10068000FBC76EF4050E6A6F07011DD005016A51A4
:100690006A2B6A0FE96E040EEA6ED8B0EA2AEACF36
:1006A00065F8E9CF64F80001A0DF65C8EAFF64C817
:1006B000E9FF01C0EFFF04016E5105016A5D02E12F
:1006C000010E6B6F0701A49A000142EF00F00501D3
:1006D0006A6B6B6B000116EF04F093988A88939015
:1006E0008A8018EF04F0C69E9E9652C8C9FF020E7B
:1006F000C6BE05D09EA6FED7000EC5BC010E016E7B
:100700001200C580C5B0FED70400090E006E002E91
:10071000FED700009A0E0801526F0001E4DF0801C5
:100720004F35516F51375137F80E511751C852F8A4
:100730000001D9DF50C852F8D6DFC584C5B4FED752
:100740001200030E08014F6F800E506F0001D9DFB9
:1007500008014F6B41C850F80001D3DF010E0801BA
:100760004F6F506B0001CDDF030E08014F6FBF0EBE
:10077000506F0001C6DF020E08014F6F100E506F60
:100780000001BFDF030E08014F6F506F0001B9DF9A
:10079000010E08014F6F506B0001B3DF020E08011C
:1007A0004F6F070E506F0001ACDF1DEF04F0080E15
:1007B000EA6E410EE96EEF5011E0020E016EBF0EBF
:1007C000006E0400002EFDD7012EF9D7960E006EA4
:1007D000002EFED700D00400EF2EEFD71200620EDD
:1007E000D36E9B6A646A0F015C51800B5C6F000ED4
:1007F0005D6FC196C198C19AD1805D691F0E5C6F13
:10080000F00EBB1650174D174A174717949A8B9A3C
:10081000780E0609886E4D0EA96EB68E010E030184
:10082000616F6269636B646B000151D7A38A55D70E
:10083000060E0801416F000184D70E0E0801416FBA
:100840000001B5DF08EF11F008014C6B4BC84EF802
:100850004A51D8B44B074A074D6F4D5302E14E53EE
:100860003FE0040049C803F04851E96E03C0EAFFC5
:10087000EFCF4DF84CC84EF84DC84FF84E514F19B8
:10088000016E01C04CF84751036E4651462BD8B457
:10089000472B4D6F03C04EF84951036E4851482B0A
:1008A000D8B4492BE96E03C0EAFFEFCF4FF8F250FE
:1008B000006EF29E4EC875FF4DC874FF4FC873FF9F
:1008C0007F9C7F9E7F840F01550E7E6EAA0E7E6EEA
:1008D0007F827FB2FED77F940050F2120801B6D714
:1008E0004CC801F000011200050E0801446F810E92
:1008F000436F476B040E466F44C849F843C848F835
:100900004B6B080E4A6F00019FDF01C042F8F250A6
:10091000006EF29E756A746A42C873FF7F9C7F9E68
:100920007F840F01550E7E6EAA0E7E6E7F827FB28F
:10093000FED77F940050F2120001B3EF04F0960E40
:100940000301646F5A0E0501816F260E836F930EAB
:10095000826F856B3C0E846F050E866F886B0A0E66
:10096000876F0001C1D712000900F5520DE0F6CFE4
:1009700043F8F7CF44F8F550A4A8FED7796E43C8E2
:10098000F6FF44C8F7FFF0D7120008015A515C0384
:10099000F3CF01F0F4CF00F05D03F35000265B517C
:1009A0005C03F3500020026E000112000801210ECA
:1009B000446F476B800E466F496B44C848F8030E7E
:1009C0004B6F400E4A6F00013FDF01C043F8F25009
:1009D000006EF29E756A020E746E43C873FF7F9CB0
:1009E0007F9E7F840F01550E7E6EAA0E7E6E7F82E3
:1009F0007FB2FED77F940050F212000163EF05F042
:100A0000960E0301646F2A0EF66E030EF76E000158
:100A1000ABDF0801426B42513F0812E35B6B42C8F7
:100A20005AF85D6B0D0E5C6F0001AFDF210E0801FF
:100A30000124E96E000E0220EA6EEF6A422BEBD72A
:100A4000100E216E7D0E236E226A010E246E3E0E64
:100A5000256E296A410E286E120E276EB60E266E7E
:100A60002B6A2A6A060E2C6E100E2E6E7D0E306ECC
:100A70002F6A010E316E360E326E366A410E356EB9
:100A8000120E346EB70E336E386A376A200E396E26
:100A9000100E3B6E7D0E3D6E3C6A010E3E6E380EB2
:100AA0003F6E436A410E426E120E416EB80E406EAA
:100AB000456A446A200E466E440EF66E030EF76ECB
:100AC000000152DF73D7120008014A6B49C84CF885
:100AD0004851D8B4490748074B6F4B5302E14C5378
:100AE00032E047C803F04651E96E03C0EAFF4551C2
:100AF000036E4451442BD8B4452B4D6F03C04EF8C0
:100B0000F2CF4FF8F29E4EC875FF4DC874FF7F9C20
:100B10007F9E7F8073504FBFF28EEF6E47C803F009
:100B20004651E96E03C0EAFFEFCF4BF84AC84EF8D2
:100B30004BC84FF84E514F19016E01C04AF8462B71
:100B4000D8B4472BC3D74AC801F000011200050EE4
:100B50000801436F810E426F456B040E446F43C81A
:100B600047F842C846F8496B080E486F0001ACDFF1
:100B700001C041F8F2CF42F8F29E756A746A7F9C18
:100B80007F9E7F807350080142BFF28E415D08E076
:100B9000F20EF66E020EF76E0001E6DED0DE080100
:100BA000000129EF11F00900F6CF43F8F7CF44F820
:100BB000F550A4A8FED7796E43C8F6FF44C8F7FFE6
:100BC0000801422F01D002D00001EDD7000159EFFA
:100BD00006F008014551016A445D03E244C800F093
:100BE0000CD0006A080E466F443700364551005C51
:100BF000D8B0006E0136462FF7D700011200015021
:100C000042C844F8640E0801456F0001E2DF00C0ED
:100C100042F80150300E08E1080143A30ED043B75B
:100C20000CD043B9200E04D0080143974399438167
:100C300001260150A4A8FED7796E42C844F80A0ED6
:100C4000456F0001C6DF00C042F80150300E08E1D8
:100C5000080143B70BD043A109D043B9200E0001CE
:100C600001260150A4A8FED7796E0801300E422754
:100C70004251A4A8FED7796E000160EF06F008018A
:100C8000210E426F456B800E446F476B42C846F899
:100C9000030E496F400E486F000116DF01C041F896
:100CA0005C0EF66E030EF76E170E0801426F000120
:100CB0007AD741C842F81B0E0801436F00019FD745
:100CC0000D0EA4A8FED7796E0A0EA4A8FED7796EE1
:100CD000F2CF42F8F29E756A020E746E7F9C7F9E80
:100CE0007F807350080142BFF28E415D08E0780EAC
:100CF000F66E030EF76E000137DE82DE080100019A
:100D00002BEF11F09EAA03D059EC02F0FBD7AE50A6
:100D1000949A8B9A9D8A1200949A8B9AF3DF480ECC
:100D20000609CA6EF90ECB6EC00EF2122DEF11F04D
:100D30000701B26BF36B00011200C69CC586C5B6F5
:100D4000FED700B0C59A00A0C58AC588C5B8FED731
:100D5000C9CF01F01200C580C5B0FED70400090E4E
:100D6000006E002EFED700009A0E0801526F00019F
:100D7000BADC08014235446F44374437F80E441753
:100D800044C852F80001AFDCC582C5B2FED70400EA
:100D9000090E006E002EFED700009B0E0801526F58
:100DA0000001A1DC006AC9DF01C043F8C584C5B4F5
:100DB000FED7080143C801F000011200050E08012A
:100DC000426F0001C8DF0150010B016E39EF11F0D5
:100DD0000801426B0001BFDF015001C041F808016A
:100DE00041510D0801E12ED00701B2532AE108015B
:100DF00041510A0808E10701F353D8B402D00801B1
:100E000002D008011FD041510A080DE1B30E0701BD
:100E1000F325E96E070EEA6ED8B0EA2AEF6A010EF2
:100E2000B26F08010FD00701F3513E080AE3B30E79
:100E3000F325E96E070EEA6ED8B0EA2A41C8EFFF43
:100E4000F32B0801000140EF11F0010E0501865D52
:100E5000FB0F19E2050F000145EF07F09290898022
:100E6000050111D09292898205010DD09294898456
:100E7000050109D092968986050105D0929A898A42
:100E8000050101D0050100011200E824F76AF736D8
:100E9000A50FF66E0E0EF7220A00F550FA6E080046
:100EA000F550F96E5C0E640E6C0E740E7C0E08012B
:100EB0004F6B4EC850F8000124DC12000900F552B7
:100EC0000CE0F6CF45F8F7CF46F8F5CF4EF8EFDF58
:100ED00045C8F6FF46C8F7FFF1D712000900F6CF64
:100EE00046F8F7CF47F8F5CF4EF8E1DF46C8F6FFF2
:100EF00047C8F7FF0801452F01D002D00001EED707
:100F0000000175EF08F0EACF4DF8E9CF4CF8080181
:100F10004639F009486F4827E20F496F320F4B6F8F
:100F200046510F0B492749274B27E90F4A6F4A279C
:100F30004A2745390F0B4A274B274A374B374B1F58
:100F40004B3745510F0B4B274837070E476F0A0E9B
:100F50004A074B27FDE349074A27FDE3480749278E
:100F6000FDE347074827FDE3080EEA6E470EE96EEA
:100F7000070E4C154C9DE926000EEA22E9504B085D
:100F800004E1EA50080801E14C8DEF50006E08E1E1
:100F90004CBD06D04CB915D04CB702D0200E03D0B2
:100FA0004C874C99300E0026EACF46F8E9CF45F839
:100FB00000C04EF800017BDF46C8EAFF45C8E9FFE4
:100FC0000801EE504CADDAD700017CEF08F0010EBD
:100FD0000501865DFB0F19E2050F000108EF08F01F
:100FE00092908990050111D09292899205010DD0BD
:100FF00092948994050109D092968996050105D0AD
:10100000929A899A050101D005010001BBEF09F010
:10101000E824F76AF7362B0FF66E100EF7220A0057
:10102000F550FA6E0800F550F96EE00FE80FF00F7A
:10103000F80F00100701AE6BAD6B06019C6B000151
:10104000120006019C5302E19AD197D19C2D0AD03F
:1010500000016EDE5E0EF66E050EF76E2FDF0601E6
:101060009C2B8BD19C51020811E10701B22D0CD0B1
:10107000B3514F0806E1B4514B0803E106019C2B24
:101080000701000155DE070179D106019C510308D3
:101090000AE100014DDE640EF66E050EF76E0EDFFE
:1010A00006019C2B6AD19C51040811E10701B22D65
:1010B0000CD0B3514F0806E1B4514B0803E10601CF
:1010C0009C2B0701000134DE070158D106019C5119
:1010D00005081AE100012CDE6C0EF66E050EF76EA7
:1010E000090E0801456F0001F9D6100EE96EAEC772
:1010F00046F8ADC745F807D70D0E08014E6F000141
:10110000D6DE06019C2B39D19C5106081AE1070155
:10111000B22D15D0B35152080FE1B45145080CE17E
:10112000B551410809E1B651440806E1B7515908E3
:1011300003E106019C2B07010001FADD07011ED126
:1011400006019C5107083DE10001F2DD0801446BF6
:10115000436B426B416B42510701AE5D24E308E1F2
:10116000AD510801415DD8A002D007011CD0070194
:101170009D0E08014125E96E060E4221EA6EEFCF71
:101180004EF8000194DE9D0E08014125E96E060E21
:101190004221EA6EEF504327000E4423412BD8B47E
:1011A000422BD9D7070144C845F844C84EF800017E
:1011B0007EDE43C845F843C84EF879DE06019C2B15
:1011C000DCD09C51080810E10701B22D0BD0B351BF
:1011D000300804E106019C2B04D007010001A8DDC2
:1011E00006010701CBD006019C51090811E1070156
:1011F000B22D0CD0B3514F0806E1B4514B0803E1B6
:1012000006019C2B0701000193DD0701B7D0060101
:101210009C510A0812E10701AF5305E0B05303E007
:101220000601ADD00701000183DD7A0EF66E050ED2
:10123000F76E44DE06019C2BA0D09C510B082CE1DC
:101240000701B22D27D0B3512B0821E1B451530827
:101250001EE1B55142081BE1B651440818E1B751EF
:10126000490815E1B851580812E1BA5120080BE1BC
:10127000BB512F0808E2BB51320805E306019C2B45
:101280000701AF6B04D006019C2B0701AF2B0001B7
:101290004FDD070173D006019C510C0833E10701B3
:1012A000B22D0CD0B3514F0806E1B4514B0803E105
:1012B00006019C2B070100013BDD0701AF5320E035
:1012C0000A0E06019C6F0701AF2D01D003D0AF516C
:1012D000020803E1030EB06F13D0AF51030803E01F
:1012E000AF51040803E1150EB06F0AD0AF510508E5
:1012F00003E1FB0EB06F04D00D0E06019C6F0701D9
:101300003DD006019C510D080AE1000111DD840E5B
:10131000F66E050EF76ED2DD06019C2B2ED09C5189
:101320000E0810E10701B22D0BD0B351300804E1D3
:1013300006019C2B04D007010001FADC060107011D
:101340001DD006019C510F0811E10701B22D0CD0F0
:10135000B3514F0806E1B4514B0803E106019C2B41
:1013600007010001E5DC070109D006019C511008C6
:1013700004E100012CD6DCDC5DDE07010601000182
:1013800049EF11F09EA8FED7AD6ECBEF09F0080132
:101390004F510001F7D7196AF2BE198EF29E4FC85D
:1013A00063F864EC02F019BEF28E0400440E006E85
:1013B000002EFED700D012000501926991698F912D
:1013C0009D9A949A8B8A0400F20E006E002EFED72E
:1013D0004DC84FF80001DBDF4EC84FF8D8DF1200D0
:1013E00092C54EF891C54DF84EC84FF8D0DF4DC8A4
:1013F0004FF8CDDFADA2FED70400F20E006E002E36
:10140000FED780DC949A8B9A05019269916900015C
:10141000120005018FB104D0000E016E0AD006D073
:1014200095AF04D097C596F5010E946F8F91010E7C
:10143000016E0001120048C84DF8040E08014E6FFD
:101440000001BADF4AC84DF84AC84FF8A0DF49C8C2
:101450004DF849C84FF89BDF4CC84DF84CC84FF8C1
:1014600096DF4BC84DF84BC84FF891DFB9DF080144
:10147000485329E00001CDDF015219E1FF0E0501BB
:101480008B27D8A08C27D8A08D27D8A08E278B5348
:1014900009E18C5307E18D5305E18E53D8A402D0A6
:1014A000000105D0040000000801E4D70001050197
:1014B0008B5308E18C5306E18D5304E18E5302E116
:1014C0000C0E966F080105018E6B010E8D6F860E56
:1014D0008C6FA00E8B6F96C501F0000143EF0EF0EC
:1014E00048C84DF8030E08014E6F000165DF4AC879
:1014F0004DF84AC84FF84BDF49C84DF849C84FF876
:1015000046DF4CC84DF84CC84FF841DF4BC84DF88A
:101510004BC84FF83CDF64DF0801485329E0000165
:1015200078DF015219E1FF0E05018B27D8A08C2727
:10153000D8A08D27D8A08E278B5309E18C5307E1C3
:101540008D5305E18E53D8A402D0000105D00400CC
:1015500000000801E4D7000105018B5308E18C531A
:1015600006E18D5304E18E5302E10C0E966F0801E3
:1015700005018E6B010E8D6F860E8C6FA00E8B6F2A
:1015800096C501F00001A4EF0EF008015E515E0760
:10159000000A24E05DC8EAFF5C515C2BD8B45D2BE7
:1015A000E96EEF505A1B5F6B5F51070816E35A5103
:1015B000010B006E036A005003100AE0D8905B3103
:1015C000616F5A31010A5A6F6151A00A5B6F03D0F3
:1015D000D8905B335A335F2BE7D7D8D75AC801F07E
:1015E0005BC802F000011200A4A8FED7796E1200B9
:1015F000110E04016625020F0801586F596BD8B00F
:10160000592B230E476F81C548F883C549F8080157
:1016100082C54AF808014B69120E4C6F59C84DF843
:1016200058C84EF869C44FF8080168C450F808015A
:1016300067C446F85B6B46C85AF85D6B0D0E5C6F6D
:101640000001C5EC04F001C05AF8010E08010124A4
:10165000016E000E0220036E0150210FE96E000E94
:101660000320EA6EECCF51F8ED52EFCF5AF85B6BE6
:1016700046C85AF85D6B0D0E5C6F0001C5EC04F0B6
:1016800001C05AF8010E08010124016E000E02206B
:10169000036E0150210FE96E000E0320EA6EECCFBD
:1016A0005BF8ED52EFCF52F85B6B46C85AF85D6BB2
:1016B0000D0E5C6F0001C5EC04F001C05AF8050E78
:1016C00008010124016E000E0220036E0150210F5B
:1016D000E96E000E0320EA6EEFCF5AF8ECCF5BF80C
:1016E000ECCF5CF8ECCF53F85B6B46C85AF85D6BF7
:1016F0000D0E5C6F0001C5EC04F001C05AF8050E38
:1017000008010124016E000E0220036E0150210F1A
:10171000E96E000E0320EA6EEFCF5AF8ECCF5BF8CB
:10172000ECCF54F8ECCF5DF85B6B46C85AF85D6BB4
:101730000D0E5C6F0001C5EC04F001C05AF8050EF7
:1017400008010124016E000E0220036E0150210FDA
:10175000E96E000E0320EA6EEFCF5AF8ECCF55F891
:10176000ECCF5CF8ECCF5DF85B6B46C85AF85D6B6C
:101770000D0E5C6F0001C5EC04F001C05AF8050EB7
:1017800008010124016E000E0220036E0150210F9A
:10179000E96E000E0320EA6EEFCF56F8ECCF5BF84F
:1017A000ECCF5CF8ECCF5DF865C357F85B695A691C
:1017B000080E5D6F480E5C6F100E5E6F0001E5DE77
:1017C00002C045F801C044F845C85BF844C85AF85F
:1017D000030E08015D6F660E5C6F66C45EF8000163
:1017E000D4DE02C045F801C044F80801466B4651FA
:1017F00010080FE3036A4651470FE96E080E0320F5
:10180000EA6EEFCF5AF85A510001EEDE0801462B7E
:10181000EED7466B040166510801465D0FE2660E85
:101820004625E96E030EEA6ED8B0EA2AEFCF5AF8E1
:101830005A510001D9DE0801462BECD745C85AF8A9
:101840005A510001D1DE44C85AF808015A5100012A
:10185000CBDE120048C84DF8010E08014E6F0001A2
:10186000ABDD4AC84DF84AC84FF891DD49C84DF87C
:1018700049C84FF88CDD4CC84DF84CC84FF887DD8F
:101880004BC84DF84BC84FF882DDAADD080148531C
:1018900029E00001BEDD015219E1FF0E05018B2791
:1018A000D8A08C27D8A08D27D8A08E278B5309E1EC
:1018B0008C5307E18D5305E18E53D8A402D000016B
:1018C00005D0040000000801E4D7000105018B5396
:1018D00008E18C5306E18D5304E18E5302E10C0EB6
:1018E000966F080105018E6B010E8D6F860E8C6F51
:1018F000A00E8B6F96C501F0000152EF0FF0C5806E
:10190000C5B0FED70400090E006E002EFED7000001
:1019100048C852F873EC03F049C852F873EC03F06E
:10192000C582C5B2FED70400090E006E002EFED798
:1019300000000801485101094D6F526F000173EC1E
:1019400003F008014C514C07010810E04BC8EAFFB6
:101950004AC8E9FF010E006E00019DEC06F001C0CF
:10196000EFFF08014A2BD8B44B2BECD74BC8EAFF4A
:101970004AC8E9FF006A00019DEC06F001C0EFFFD4
:10198000C584C5B4FED703EF10F008013E2D08D082
:101990003F5306E1000125EC07F01AEC08F00801BE
:1019A0003E532BE13F5329E1000125EC07F01AECEF
:1019B00008F00701AEC703F0AD51AD2BD8B4AE2B84
:1019C0000801446F9D0E4425E96E060E0320EA6E61
:1019D0000701FDC7EFFFAEC703F0AD51AD2BD8B483
:1019E000AE2B0801446F9D0E4425E96E060E0320C0
:1019F000EA6E0701FCC7EFFF0801416B41513F0848
:101A0000D8A07AD30400640E0301646F08015B6BF5
:101A100041C85AF85D6B0D0E5C6F0001C5EC04F017
:101A200002C045F801C044F8210E08010124E96E06
:101A3000000E0220EA6EEF5001E15CD3036A4151CF
:101A4000FE0FE96E070E0320EA6EEF2A036A41518A
:101A5000FE0FE96E070E0320EA6EEFCF44F85B6BD2
:101A600041C85AF85D6B0D0E5C6F0001C5EC04F0C7
:101A700002C046F801C045F8030E08010124016EBA
:101A8000000E0220036E0150210FE96E000E0320AC
:101A9000EA6EEF50445D02E22DD308D0036A415153
:101AA000FE0FE96E070E0320EA6EEF6A41C867F485
:101AB000FDC769F4FCC768F45B6B41C85AF85D6BFD
:101AC0000D0E5C6F0001C5EC04F002C045F801C0CA
:101AD00044F8210E08010124E96E000E0220EA6E8E
:101AE000EF500708D8A002D25B6B41C85AF85D6B73
:101AF0000D0E5C6F0001C5EC04F002C045F801C09A
:101B000044F80C0E08010124016E000E0220036E41
:101B10000150210FE96E000E0320EA6EEF5001081C
:101B200008E1A796190EAF6EA60EAC6E900EAB6EC6
:101B300007D0A7960C0EAF6EA20EAC6E900EAB6ED9
:101B40005B6B41C85AF85D6B0D0E5C6F0001C5EC14
:101B500004F002C045F801C044F8210E0801012438
:101B6000E96E000E0220EA6EEF50030818E05B6B8E
:101B700041C85AF85D6B0D0E5C6F0001C5EC04F0B6
:101B800002C047F801C046F8210E08010124E96EA1
:101B9000000E0220EA6EEF500408D8A4F8D05B6B68
:101BA00041C85AF85D6B0D0E5C6F0001C5EC04F086
:101BB00002C045F801C044F8210E08010124E96E75
:101BC000000E0220EA6EEF50040861E15B6B41C831
:101BD0005AF85D6B0D0E5C6F0001C5EC04F002C09D
:101BE00045F801C044F8040E08010124016E000EFE
:101BF0000220036E0150210FE96E000E0320EA6EF1
:101C0000EFCF44F85B6B41C85AF85D6B0D0E5C6F0B
:101C10000001C5EC04F001C045F8090E08010124DB
:101C2000016E000E0220036E0150210FE96E000EBE
:101C30000320EA6EECCF46F8ED52EFCF45F85B6B30
:101C400041C85AF85D6B0D0E5C6F0001C5EC04F0E5
:101C500001C047F80B0E08010124016E000E02209E
:101C6000036E0150210FE96E000E0320EA6EEFCFE4
:101C70004BF844C848F846C84AF845C849F84C6B80
:101C800000011BEF0AF001C065F360D008015B6B37
:101C900041C85AF85D6B0D0E5C6F0001C5EC04F095
:101CA00002C045F801C044F8040E08010124016E89
:101CB000000E0220036E0150210FE96E000E03207A
:101CC000EA6EEFCF44F85B6B41C85AF85D6B0D0EBE
:101CD0005C6F0001C5EC04F001C045F8090E080175
:101CE0000124016E000E0220036E0150210FE96EE7
:101CF000000E0320EA6EECCF46F8ED52EFCF45F828
:101D00005B6B41C85AF85D6B0D0E5C6F0001C5EC52
:101D100004F001C047F80B0E08010124016E000E0B
:101D20000220036E0150210FE96E000E0320EA6EBF
:101D3000EFCF4BF844C848F846C84AF845C849F8B8
:101D40004C6B000170EF0AF001C065F303016553AD
:101D50001CE1010E0501945D0401666F010E050191
:101D6000945D0801446F030EEA6E660EE96E050E7F
:101D7000E26E980EE16E4451016E04E0E6CFEEFF94
:101D8000012EFCD7000134DC0301AED008015B6BEF
:101D900041C85AF85D6B0D0E5C6F0001C5EC04F094
:101DA00002C045F801C044F8210E08010124E96E83
:101DB000000E0220EA6EEF50010818E05B6B41C88C
:101DC0005AF85D6B0D0E5C6F0001C5EC04F002C0AB
:101DD00047F801C046F8210E08010124E96E000E03
:101DE0000220EA6EEF500208D8A47FD05B6B41C896
:101DF0005AF85D6B0D0E5C6F0001C5EC04F002C07B
:101E000045F801C044F8040E08010124016E000EDB
:101E10000220036E0150210FE96E000E0320EA6ECE
:101E2000EFCF44F85B6B41C85AF85D6B0D0E5C6FE9
:101E30000001C5EC04F001C045F8090E08010124B9
:101E4000016E000E0220036E0150210FE96E000E9C
:101E50000320EA6EECCF46F8ED52EFCF45F85B6B0E
:101E600041C85AF85D6B0D0E5C6F0001C5EC04F0C3
:101E700001C047F80B0E08010124016E000E02207C
:101E8000036E0150210FE96E000E0320EA6EEFCFC2
:101E90004BF844C848F846C84AF845C849F84C6B5E
:101EA0000001D8D401C065F3030165531DE1010EA3
:101EB0000501945D0401666F010E0501945D080142
:101EC000446F030EEA6E660EE96E050EE26E980E22
:101ED000E16E4451016E04E0E6CFEEFF012EFCD727
:101EE0000001F8EC0AF003010801AED05B6B41C8B9
:101EF0005AF85D6B0D0E5C6F0001C5EC04F002C07A
:101F000045F801C044F8210E08010124E96E000ED5
:101F10000220EA6EEF501708D8A096D05B6B41C83C
:101F20005AF85D6B0D0E5C6F0001C5EC04F002C049
:101F300045F801C044F8210E08010124E96E000EA5
:101F40000220EA6EEF501008D8A47ED05B6B41C827
:101F50005AF85D6B0D0E5C6F0001C5EC04F002C019
:101F600045F801C044F8040E08010124016E000E7A
:101F70000220036E0150210FE96E000E0320EA6E6D
:101F8000EFCF44F85B6B41C85AF85D6B0D0E5C6F88
:101F90000001C5EC04F001C045F8090E0801012458
:101FA000016E000E0220036E0150210FE96E000E3B
:101FB0000320EA6EECCF46F8ED52EFCF45F85B6BAD
:101FC00041C85AF85D6B0D0E5C6F0001C5EC04F062
:101FD00001C047F80B0E08010124016E000E02201B
:101FE000036E0150210FE96E000E0320EA6EEFCF61
:101FF0004CF844C848F845C849F8030E4B6F660EC4
:102000004A6F00017CD40301656B08015B6B41C81A
:102010005AF85D6B0D0E5C6F0001C5EC04F001C059
:1020200044F80B0E08010124016E000E0220036E1D
:102030000150210FE96E000E0320EA6EEFCF66F427
:102040000001F8EC0AF008013E5354E13F5352E11D
:1020500003016553D8B402D008014CD00701AEC7C4
:1020600003F0AD51AD2BD8B4AE2B0801446F9D0EDB
:102070004425E96E060E0320EA6E41C8EFFF070112
:10208000AEC703F0AD51AD2BD8B4AE2B0801446FF1
:102090009D0E4425E96E060E0320EA6E66C4EFFF2E
:1020A000436B426B435326E1040166510801425DD4
:1020B00021E20701AEC745F8AD51AD2BD8B4AE2B28
:1020C0000801446F9D0E4425016E060E4521036EE6
:1020D000660E4225E96E030E4321EA6EEFCF48F803
:1020E00003C0EAFF01C0E9FF48C8EFFF422BD8B4A4
:1020F000432BD8D7412B82D43E530EE13F530CE102
:102100000701AD5305E1AE53D8A402D0080104D0B5
:10211000010E06019C6F08010701FC2BD8B4FD2BB2
:1021200008013E530DE13F530BE1010E0501875DB0
:1021300008013E6F000E0501885908013F6F04D069
:102140003E51D8B43F073E07000154EF11F0F86A42
:10215000D09E078E620ED36E9B6A646A206AB9862F
:10216000220E7B6E000E7C6EA60EBA6E900EA66ED0
:1021700094869488040EC86E280EC66EC79EC79CAF
:1021800005018A6B896BA7960C0EAF6EA20EAC6E22
:10219000900EAB6E8E6B010E8D6F860E8C6FA00E47
:1021A0008B6F8F91906B0F015C51800B5C6F000EF9
:1021B0005D6FC196C198C19A5E6B5F6B07D00200DC
:1021C0001A0000FF469600ABC0000000000EF86E3B
:1021D000210EF76EBE0EF66E0900F550006E000A75
:1021E00013E00900F550016EE8BE05D03F0BEA6E22
:1021F0000900F5CFE9FF01BC090001AC0900F5CFEA
:10220000EEFF004EE9D7F9D7F86A0001EFEF03F0CF
:102210000801406B4051090813E30400939A8A8A2D
:10222000640E416F0001D7EC03F0939A8A9A640E12
:102230000801416F0001D7EC03F00801402BEAD7F9
:10224000C00EF21200019FEC04F000EC05F0A7EFC5
:1022500005F03FEF06F08CEF06F098EC06F0040076
:102260000501865318E00701B2530BE10001DEEFD0
:1022700006F00152D8A402D0070103D0E8EF06F01F
:10228000070106019C5306E0000125EC07F021EF51
:1022900008F0060105010301615307E0616BC80EF8
:1022A000646F0001C5EF0CF003010001D8D70300F3
:020000040030CA
:0E00000015086727000991000FC000E00040BE
:00000001FF
;PIC18F25K80
;CRC=35D1  CREATED="09-Feb-22 09:13"
