:0400000046EF13F0C4
:08000800046ED8CF05F0E0CF33
:1000100006F00001E9CF0CF0EACF07F0E1CF08F0DD
:10002000E2CF09F0D9CF0AF0DACF0BF0F3CF12F01C
:10003000F4CF13F0FACF14F0F5CF15F0F6CF16F099
:10004000F7CF17F000C00EF001C00FF002C010F0A3
:1000500003C011F09DA230EF00F09EB2E0EF01F07E
:100060009DAA36EF00F09EBA1BEF02F0A3AA3CEF68
:1000700000F0A4BA86EF02F0B6AE42EF00F0B7BED1
:1000800050EF02F00EC000F00FC001F010C002F0FF
:1000900011C003F00CC0E9FF07C0EAFF078E08C0DB
:1000A000E1FF09C0E2FF0AC0D9FF0BC0DAFF12C0AE
:1000B000F3FF13C0F4FF14C0FAFF15C0F5FF16C01C
:1000C000F6FF17C0F7FF045006C0E0FF05C0D8FFD9
:1000D0001000F76AE20FF66E000EF7220900F550E5
:1000E000120000C1814001C0804101C0804100C1B7
:1000F000814001C0804100C1814000C1814001C0F8
:10010000804101C0804100C1814000C1814001C0E7
:10011000804100C1814001C0804101C0804100C1D7
:10012000814001C0804100C1814000C1814001C0C7
:10013000804100C1814001C0804101C0804100C1B7
:10014000814000C1814001C0804101C0804100C1A7
:10015000814001C0804100C1814000C1814001C097
:10016000804101C0804100C1814000C1814001C087
:10017000804100C1814001C0804101C0804100C177
:10018000814000C1814001C0804101C0804100C167
:10019000814001C0804100C1814000C1814001C057
:1001A000804100C1814001C0804101C0804100C147
:1001B000814001C0804100C1814000C1814001C037
:1001C000804101C0804100C1814000C1814001C027
:1001D000804100C1814001C0804101C0804100C117
:1001E0008140F76AF20FF66E010EF7220900F55012
:1001F000120000C0C101C30302C2C60607C705C57D
:10020000C404CC0C0DCD0FCFCE0E0ACACB0BC9093E
:1002100008C8D81819D91BDBDA1A1EDEDF1FDD1D4E
:100220001CDC14D4D515D71716D6D21213D311D17E
:10023000D010F03031F133F3F23236F6F737F535CE
:1002400034F43CFCFD3DFF3F3EFEFA3A3BFB39F9FE
:10025000F83828E8E929EB2B2AEAEE2E2FEF2DEDCE
:10026000EC2CE42425E527E7E62622E2E323E1213E
:1002700020E0A06061A163A3A26266A6A767A5654E
:1002800064A46CACAD6DAF6F6EAEAA6A6BAB69A9BE
:10029000A86878B8B979BB7B7ABABE7E7FBF7DBDCE
:1002A000BC7CB47475B577B7B67672B2B373B171FE
:1002B00070B05090915193535292965657975595CE
:1002C00094549C5C5D9D5F9F9E5E5A9A9B5B99597E
:1002D0005898884849894B8B8A4A4E8E8F4F8D4D4E
:1002E0004C8C4484854587474686824243834181BE
:1002F0008040232064756D70696E6720616C6C208E
:10030000656E61626C656420646576696365733AE5
:100310000D0A00006465766963655B25755D0D0AED
:10032000000009747970653D25750D0A0000097497
:1003300072616E736D697445766572793D25750DD0
:100340000A00096E6574776F726B4164647265733D
:10035000733D25750D0A00000973657269616C4E65
:10036000756D6265723D307825303278253032788F
:1003700025303278253032780D0A00000973746117
:10038000727452656769737465723D256C750D0AE8
:100390000000096E5265676973746572733D257557
:1003A0000D0A00002320646F6E650D0A00009D9207
:1003B0000601FF5303E0CC6A9E929D820001120069
:1003C00005018D5102080AE18E5308E18F5306E1C1
:1003D0008CB104D0020E915F8C8101D08C918F6919
:1003E0008E698D6B0601FF6B0001E1DF9E9242EF8B
:1003F00000F09EAAFED7ABCF20F0AECF01F020A236
:1004000002D0AB98AB88120005018F510601FF198D
:100410000701006F036A005100015BDE016E0501F8
:100420008E5101188F6F036A070100510001D9DE58
:10043000E8CF8EF51200DDDF01C0FEF605018CB1BC
:100440002BD08D5308E18F698E69FEC690F58D2BF8
:10045000916B936B17D08D2D04D0FEC692F58D2B2A
:1004600011D08D5102080EE1913D02D0FE0E916F28
:10047000940E9125E96E050EEA6ED8B0EA2AFEC602
:10048000EFFF912BFEC6FFF60001BEDF010E060155
:10049000FF6F00018CDF05019E9A000142EF00F022
:1004A0000601932B9351640815E1936B942BD8B4F8
:1004B000952B050185510601955D0CE305E10501CC
:1004C00084510601945D06E3956B946B010E030164
:1004D000616F06010301623D01D001D0622B6453BC
:1004E00003E1939A8A9A03D0939A8A8A6407B79E03
:1004F000000142EF00F0A4AAFED7A6CF20F07ACFE9
:1005000001F020A202D0A698A688120005016B5324
:1005100003E00001F0DF0501030162510A0803E274
:1005200005016A6B0301626B05016A5336E197C6E8
:1005300096F698C697F699C698F69AC699F6000167
:10054000DADF01C09AF606019651230824E197519B
:100550000501815DD8B402D006011DD098C603F014
:10056000060199510501825DD8B402D0060113D06D
:100570000350835DD8B402D006010DD096C66AF44C
:1005800097C66BF498C66CF499C66DF49AC66EF46F
:10059000050E6A6F06011DD005016A516A2B6A0FAC
:1005A000E96E040EEA6ED8B0EA2AEACF03F7E9CF83
:1005B00002F70001A0DF03C7EAFF02C7E9FF01C09D
:1005C000EFFF04016E5105016A5D02E1010E6B6FE0
:1005D0000601A49A000142EF00F0232072645461E6
:1005E0007020257320282563256C75290D0A0000CD
:1005F000362D4665622D323200002320656E616221
:100600006C655F696E746572727570747328474C9F
:100610004F42414C290D0A0023207264546170201E
:10062000257320282563256C75290D0A0000362DB9
:100630004665622D323200002320726454617020BE
:10064000257320282563256C75290D0A0000362D99
:100650004665622D3232000005016A6B6B6B00014A
:10066000120093988A8893908A80DCEF03F0C69EEC
:100670009E96E2C6C9FF020EC6BE05D09EA6FED754
:10068000000EC5BC010E016E1200C580C5B0FED7BC
:100690000400090E006E002EFED700009A0E06011F
:1006A000E26F0001E4DF0601DF35E16FE137E1379A
:1006B000F80EE117E1C6E2F60001D9DFE0C6E2F686
:1006C000D6DFC584C5B4FED71200030E0601DF6F66
:1006D000800EE06F0001D9DF0601DF6BDEC6E0F6B9
:1006E0000001D3DF010E0601DF6FE06B0001CDDFFB
:1006F000030E0601DF6FBF0EE06F0001C6DF020EC2
:100700000601DF6F100EE06F0001BFDF030E060170
:10071000DF6FE06F0001B9DF010E0601DF6FE06BF4
:100720000001B3DF020E0601DF6F070EE06F00016C
:10073000ACDFE1EF03F0060EEA6EDE0EE96EEF507D
:1007400011E0020E016EBF0E006E0400002EFDD7F8
:10075000012EF9D7960E006E002EFED700D00400B1
:10076000EF2EEFD71200620ED36E9B6A646A0F0100
:100770005C51800B5C6F000E5D6FC196C198C19A91
:10078000D1805D691F0E5C6FF00EBB1650174D17C0
:100790004A174717949A8B9A780E0609886E4D0E61
:1007A000A96EB68E010E0301616F6269636B646BA3
:1007B000000152DFA38A55D7060E0601DE6F000145
:1007C00084D70E0E0601DE6F0001B5DFA5EF13F032
:1007D0000900F6CFDFF6F7CFE0F6F550A4A8FED774
:1007E000796EDFC6F6FFE0C6F7FF0601DE2F01D007
:1007F00002D00001EDD7000112000900F5520DE012
:10080000F6CFDEF6F7CFDFF6F550A4A8FED7796E67
:10081000DEC6F6FFDFC6F7FFF0D71200EACFE6F636
:10082000E9CFE5F60601DF39F009E16FE127E20FD4
:10083000E26F320FE46FDF510F0BE227E227E4276C
:10084000E90FE36FE327E327DE390F0BE327E42704
:10085000E337E437E41FE437DE510F0BE427E137D9
:10086000070EE06F0A0EE307E427FDE3E207E32744
:10087000FDE3E107E227FDE3E007E127FDE3060EE4
:10088000EA6EE00EE96E070EE515E59DE926000E1D
:10089000EA22E950E40804E1EA50060801E1E58DA6
:1008A000EF50006E08E1E5BD06D0E5B90CD0E5B724
:1008B00002D0200E03D0E587E599300E00260050C7
:1008C000A4A8FED7796EEE50E5ADE3D70001120083
:1008D0000601FA6BF9C6FCF6F851D8B4F907F80727
:1008E000FB6FFB5302E1FC533EE0F7C603F0F65109
:1008F000E96E03C0EAFFEFCFFBF6FAC6FCF6FBC6D3
:10090000FDF6FC51FD19016E01C0FAF6F551036EBA
:10091000F451F42BD8B4F52BFB6F03C0FCF6F75160
:10092000036EF651F62BD8B4F72BE96E03C0EAFF3D
:10093000EFCFFDF6F250006EF29EFCC675FFFBC6CF
:1009400074FFFDC673FF7F9C7F9E7F840F01550E51
:100950007E6EAA0E7E6E7F827FB2FED77F9400509D
:10096000F2120601B7D7FAC601F000011200050E17
:100970000601F26F810EF16FF56B040EF46FF2C693
:10098000F7F6F1C6F6F6F96B050EF86F0001A0DF79
:1009900001C0F0F6F250006EF29E756A746AF0C6FD
:1009A00073FF7F9C7F9E7F840F01550E7E6EAA0E83
:1009B0007E6E7F827FB2FED77F940050F2120001DC
:1009C0001200960E0301646F410E0501816F0F0E38
:1009D000836FA10E826F856B0A0E846F0001C7DFE3
:1009E00012000601F851FA03F3CF01F0F4CF00F042
:1009F000FB03F3500026F951FA03F3500020026E76
:100A000000011200C00EF6163F0E006E08000D0029
:100A1000002EFCD708000C0035EF05F0F250036EF5
:100A2000F29E7F8E7F840F01550E7E6EAA0E7E6E23
:100A30007F8200000350F212000112000601210E15
:100A4000F26FF56B800EF46FF76BF2C6F6F6030EDD
:100A5000F96F400EF86F00013BDF01C0F1F6D08C5A
:100A6000F86AF76A020EF66ECDD7020EF66EF1C680
:100A7000F5FF0D00F56A0C007F9C7F88CFDFCEDF8D
:100A8000F86AF86A1200960E0301646F0601F06BB3
:100A9000F0513F0812E3F96BF0C6F8F6FB6B0D0E50
:100AA000FA6F00019EDF210E06010124E96E000E9F
:100AB0000220EA6EEF6AF02BEBD70001BFDF1200D5
:100AC0000601E76BE6C6E9F6E551D8B4E607E507A7
:100AD000E86FE85302E1E95332E0E4C603F0E35182
:100AE000E96E03C0EAFFE251036EE151E12BD8B495
:100AF000E22BEA6F03C0EBF6F2CFECF6F29EEBC608
:100B000075FFEAC674FF7F9C7F9E7F807350ECBFA9
:100B1000F28EEF6EE4C603F0E351E96E03C0EAFF24
:100B2000EFCFE8F6E7C6FCF6E8C6FDF6FC51FD1986
:100B3000016E01C0E7F6E32BD8B4E42BC3D7E7C6B8
:100B400001F000011200050E0601E06F810EDF6F5B
:100B5000E26B040EE16FE0C6E4F6DFC6E3F6E66B97
:100B6000050EE56F0001ACDF01C0DEF6F2CFDFF667
:100B7000F29EF86AF76AF66A0900F5500800F5CFA8
:100B800003F0F86A0601DFBFF28EDE5D02E1035278
:100B900003E0000116DF06010001FCEF13F006017F
:100BA000210EDF6FE26B800EE16FE46BDFC6E3F6D0
:100BB000030EE66F400EE56F000182DF01C0DEF636
:100BC000F2CFDFF6F29EF86AF76A020EF66E0900BF
:100BD000F5500800F5CF03F0F86A0601DFBFF28E8A
:100BE000DE5D02E1035203E000014DDF060100017A
:100BF000FEEF13F09EAA03D0F9EC01F0FBD7AE5044
:100C0000949A8B9A9D8A1200949A8B9AF3DF480EDD
:100C10000609CA6EF90ECB6EC00EF21230EF14F058
:100C20009EA8FED7AD6E19EF06F00601F351000144
:100C3000F7D7196AF2BE198EF29EF3C6FFF604ECDE
:100C400002F019BEF28E0400440E006E002EFED794
:100C500000D0120005018F698E698C919D9A949A3B
:100C60008B8A0400F20E006E002EFED7F0C6F3F65B
:100C70000001DBDFF1C6F3F6D8DF12008FC5F1F615
:100C80008EC5F0F6F1C6F3F6D0DFF0C6F3F6CDDF91
:100C9000ADA2FED70400F20E006E002EFED7AADF32
:100CA000949A8B9A05018F698E69000112000501E3
:100CB0008CB104D0000E016E0AD006D092AF04D0E1
:100CC00094C593F5010E916F8C91010E016E000198
:100CD0001200E5C6F0F6040E0601F16F0001BADF5E
:100CE000E7C6EAF6E7C6F3F6A0DFE6C6EAF6E6C62A
:100CF000F3F69BDFE9C6EAF6E9C6F3F696DFE8C647
:100D0000EAF6E8C6F3F691DFB9DF0601E55329E01C
:100D10000001CDDF015219E1FF0E05018827D8A09F
:100D20008927D8A08A27D8A08B27885309E189531F
:100D300007E18A5305E18B53D8A402D0000105D006
:100D4000040000000601E4D700010501885308E112
:100D5000895306E18A5304E18B5302E10C0E936F31
:100D6000060105018B6B010E8A6F860E896FA00E3E
:100D7000886F93C501F000011200E5C6F0F6030E7E
:100D80000601F16F000166DFE7C6EAF6E7C6F3F693
:100D90004CDFE6C6EAF6E6C6F3F647DFE9C6EAF652
:100DA000E9C6F3F642DFE8C6EAF6E8C6F3F63DDF49
:100DB00065DF0601E55329E0000179DF015219E101
:100DC000FF0E05018827D8A08927D8A08A27D8A098
:100DD0008B27885309E1895307E18A5305E18B5337
:100DE000D8A402D0000105D0040000000601E4D719
:100DF00000010501885308E1895306E18A5304E1A3
:100E00008B5302E10C0E936F060105018B6B010EF3
:100E10008A6F860E896FA00E886F93C501F000015E
:100E200012000601F951F907000A24E0F8C6EAFFAA
:100E3000F751F72BD8B4F82BE96EEF50F51BFA6B8E
:100E4000FA51070816E3F551010B006E036A0050D2
:100E500003100AE0D890F631FC6FF531010AF56F06
:100E6000FC51A00AF66F03D0D890F633F533FA2B75
:100E7000E7D7D8D7F5C601F0F6C602F00001120098
:100E8000A4A8FED7796E1200110E04016625020F88
:100E90000601F36FF46BD8B0F42B230EE26F81C51B
:100EA000E3F683C5E4F6060182C5E5F60601E669C8
:100EB000120EE76FF4C6E8F6F3C6E9F669C4EAF67F
:100EC000060168C4EBF6060167C4E1F6F96BE1C6FA
:100ED000F8F6FB6B0D0EFA6F000183DD01C0F5F62D
:100EE000010E06010124016E000E0220036E015066
:100EF000210FE96E000E0320EA6EECCFECF6ED5206
:100F0000EFCFF5F6F96BE1C6F8F6FB6B0D0EFA6F55
:100F1000000167DD01C0F5F6010E06010124016E36
:100F2000000E0220036E0150210FE96E000E032017
:100F3000EA6EECCFF6F6ED52EFCFEDF6F96BE1C6C7
:100F4000F8F6FB6B0D0EFA6F00014BDD01C0F5F6F4
:100F5000050E06010124016E000E0220036E0150F1
:100F6000210FE96E000E0320EA6EEFCFF5F6ECCF0D
:100F7000F6F6ECCFF7F6ECCFEEF6F96BE1C6F8F645
:100F8000FB6B0D0EFA6F00012CDD01C0F5F6050EAE
:100F900006010124016E000E0220036E0150210F94
:100FA000E96E000E0320EA6EEFCFF5F6ECCFF6F611
:100FB000ECCFEFF6ECCFF8F6F96BE1C6F8F6FB6B89
:100FC0000D0EFA6F00010DDD01C0F5F6050E0601EC
:100FD0000124016E000E0220036E0150210FE96E04
:100FE000000E0320EA6EEFCFF5F6ECCFF0F6ECCF73
:100FF000F7F6ECCFF8F6F96BE1C6F8F6FB6B0D0EE1
:10100000FA6F0001EEDC01C0F5F6050E06010124C1
:10101000016E000E0220036E0150210FE96E000EDA
:101020000320EA6EEFCFF1F6ECCFF6F6ECCFF7F651
:10103000ECCFF8F665C3F2F6F669F569060EF86FBF
:10104000E30EF76F100EF96F0001EBDE02C0E0F661
:1010500001C0DFF6E0C6F6F6DFC6F5F6030E0601C0
:10106000F86F660EF76F66C4F9F60001DADE02C0AB
:10107000E0F601C0DFF60601E16BE15110080FE375
:10108000036AE151E20FE96E060E0320EA6EEFCF2C
:10109000F5F6F5510001F4DE0601E12BEED7E16B28
:1010A000040166510601E15D0FE2660EE125E96E7D
:1010B000030EEA6ED8B0EA2AEFCFF5F6F55100013B
:1010C000DFDE0601E12BECD7E0C6F5F6F5510001B5
:1010D000D7DEDFC6F5F60601F5510001D1DE1200BC
:1010E000E5C6F0F6010E0601F16F0001B3DDE7C6BB
:1010F000EAF6E7C6F3F699DDE6C6EAF6E6C6F3F6E3
:1011000094DDE9C6EAF6E9C6F3F68FDDE8C6EAF64D
:10111000E8C6F3F68ADDB2DD0601E55329E00001F9
:10112000C6DD015219E1FF0E05018827D8A08927E5
:10113000D8A08A27D8A08B27885309E1895307E1D3
:101140008A5305E18B53D8A402D0000105D00400D6
:1011500000000601E4D700010501885308E1895326
:1011600006E18A5304E18B5302E10C0E936F0601F2
:1011700005018B6B010E8A6F860E896FA00E886F3A
:1011800093C501F0000112000601DE6BDE513F083D
:10119000D8A05FD20400640E0301646F0601F96BEE
:1011A000DEC6F8F6FB6B0D0EFA6F00011ADC02C00A
:1011B000E0F601C0DFF6210E06010124E96E000E03
:1011C0000220EA6EEF5001E142D2036ADE519D0F28
:1011D000E96E060E0320EA6EEF2A036ADE519D0FC8
:1011E000E96E060E0320EA6EEFCFDFF6F96BDEC67E
:1011F000F8F6FB6B0D0EFA6F0001F1EC04F002C083
:10120000E1F601C0E0F6030E06010124016E000EB6
:101210000220036E0150210FE96E000E0320EA6EDA
:10122000EF50DF5D02E213D208D0036ADE519D0F5A
:10123000E96E060E0320EA6EEF6AF96BDEC6F8F679
:10124000FB6B0D0EFA6F0001F1EC04F002C0E0F64A
:1012500001C0DFF60C0E06010124016E000E022013
:10126000036E0150210FE96E000E0320EA6EEF506D
:10127000010808E1A796190EAF6EA60EAC6E900E8F
:10128000AB6E07D0A7960C0EAF6EA20EAC6E900E92
:10129000AB6EDEC667F49CC669F49BC668F4F96B56
:1012A000DEC6F8F6FB6B0D0EFA6F0001F1EC04F0F0
:1012B00002C0E0F601C0DFF6210E06010124E96E4E
:1012C000000E0220EA6EEF50030818E0F96BDEC64C
:1012D000F8F6FB6B0D0EFA6F0001F1EC04F002C0A2
:1012E000E2F601C0E1F6210E06010124E96E000ECE
:1012F0000220EA6EEF500408D8A4FAD0F96BDEC6DB
:10130000F8F6FB6B0D0EFA6F0001F1EC04F002C071
:10131000E0F601C0DFF6210E06010124E96E000EA1
:101320000220EA6EEF50040862E1F96BDEC6F8F6BF
:10133000FB6B0D0EFA6F0001F1EC04F002C0E0F659
:1013400001C0DFF6040E06010124016E000E02202A
:10135000036E0150210FE96E000E0320EA6EEFCFFD
:10136000DFF6F96BDEC6F8F6FB6B0D0EFA6F0001C7
:10137000F1EC04F001C0E0F6090E06010124016E53
:10138000000E0220036E0150210FE96E000E0320B3
:10139000EA6EECCFE1F6ED52EFCFE0F6F96BDEC688
:1013A000F8F6FB6B0D0EFA6F0001F1EC04F002C0D1
:1013B000E3F601C0E2F60B0E06010124016E000EF9
:1013C0000220036E0150210FE96E000E0320EA6E29
:1013D000EFCFE8F6DFC6E5F6E1C6E7F6E0C6E6F6EB
:1013E000E96B000176DC01C065F361D00601F96BA1
:1013F000DEC6F8F6FB6B0D0EFA6F0001F1EC04F09F
:1014000002C0E0F601C0DFF6040E06010124016E01
:10141000000E0220036E0150210FE96E000E032022
:10142000EA6EEFCFDFF6F96BDEC6F8F6FB6B0D0E5A
:10143000FA6F0001F1EC04F001C0E0F6090E0601BC
:101440000124016E000E0220036E0150210FE96E8F
:10145000000E0320EA6EECCFE1F6ED52EFCFE0F69E
:10146000F96BDEC6F8F6FB6B0D0EFA6F0001F1ECBE
:1014700004F002C0E3F601C0E2F60B0E06010124FF
:10148000016E000E0220036E0150210FE96E000E66
:101490000320EA6EEFCFE8F6DFC6E5F6E1C6E7F631
:1014A000E0C6E6F6E96B000168DC01C065F3030104
:1014B00065531CE1010E0501915D0401666F010E8B
:1014C0000501915D0601DF6F030EEA6E660EE96E9F
:1014D000050EE26E950EE16EDF51016E04E0E6CF7F
:1014E000EEFF012EFCD70001CFDC0301AFD00601D7
:1014F000F96BDEC6F8F6FB6B0D0EFA6F0001F1EC2E
:1015000004F002C0E0F601C0DFF6210E060101245E
:10151000E96E000E0220EA6EEF50010818E0F96B48
:10152000DEC6F8F6FB6B0D0EFA6F0001F1EC04F06D
:1015300002C0E2F601C0E1F6210E06010124E96EC7
:10154000000E0220EA6EEF500208D8A480D0F96B9A
:10155000DEC6F8F6FB6B0D0EFA6F0001F1EC04F03D
:1015600002C0E0F601C0DFF6040E06010124016EA0
:10157000000E0220036E0150210FE96E000E0320C1
:10158000EA6EEFCFDFF6F96BDEC6F8F6FB6B0D0EF9
:10159000FA6F0001F1EC04F001C0E0F6090E06015B
:1015A0000124016E000E0220036E0150210FE96E2E
:1015B000000E0320EA6EECCFE1F6ED52EFCFE0F63D
:1015C000F96BDEC6F8F6FB6B0D0EFA6F0001F1EC5D
:1015D00004F002C0E3F601C0E2F60B0E060101249E
:1015E000016E000E0220036E0150210FE96E000E05
:1015F0000320EA6EEFCFE8F6DFC6E5F6E1C6E7F6D0
:10160000E0C6E6F6E96B00016BDD01C065F303019E
:1016100065531CE1010E0501915D0401666F010E29
:101620000501915D0601DF6F030EEA6E660EE96E3D
:10163000050EE26E950EE16EDF51016E04E0E6CF1D
:10164000EEFF012EFCD700011FDC03010601DE2B9B
:101650009DD59B2BD8B49C2B0301646B000181EFBB
:1016600014F00601ED510308D8A06AD104E1EC5151
:10167000E708D8A065D1ED31036EEC31026E03327C
:1016800002320332023202C0F1F6EC51070BF26F64
:10169000F151400803E2020E016ECED1F251F80F73
:1016A000D8B04DD1080F00011FEF0DF00601F96B06
:1016B000F1C6F8F6FB6B0D0EFA6F0001F1EC04F0C9
:1016C00002C0F4F601C0F3F6210E06010124E96E12
:1016D000000E0220EA6EF06BEFCFEFF630D106017C
:1016E000F96BF1C6F8F6FB6B0D0EFA6F0001F1EC29
:1016F00004F002C0F4F601C0F3F6010E0601012465
:10170000016E000E0220036E0150210FE96E000EE3
:101710000320EA6EECCFF0F6ED52EFCFEFF60FD1EB
:101720000601F96BF1C6F8F6FB6B0D0EFA6F0001BE
:10173000F1EC04F002C0F4F601C0F3F6030E06016A
:101740000124016E000E0220036E0150210FE96E8C
:10175000000E0320EA6EF06BEFCFEFF6F0D006013B
:10176000F96BF1C6F8F6FB6B0D0EFA6F0001F1ECA8
:1017700004F002C0F4F601C0F3F6040E06010124E1
:10178000016E000E0220036E0150210FE96E000E63
:101790000320EA6EF06BEFCFEFF6D1D00601F96BC4
:1017A000F1C6F8F6FB6B0D0EFA6F0001F1EC04F0D8
:1017B00001C0F3F6050E06010124016E000E0220A1
:1017C000036E0150210FE96E000E0320EA6EEFCF89
:1017D000F3F6ECCFF4F6ECCFF5F6ECCFF7F6F96BC9
:1017E000F1C6F8F6FB6B0D0EFA6F0001F1EC04F098
:1017F00001C0F8F6050E06010124016E000E02205C
:10180000036E0150210FE96E000E0320EA6EEFCF48
:10181000F8F6ECCFF9F6ECCFFAF6ECCFFBF6FAC619
:10182000FCF6F7C6F0F6FAC6EFF689D00601F96BBA
:10183000F1C6F8F6FB6B0D0EFA6F0001F1EC04F047
:1018400001C0F3F6050E06010124016E000E022010
:10185000036E0150210FE96E000E0320EA6EEFCFF8
:10186000F3F6ECCFF7F6ECCFF5F6ECCFF6F6F96B36
:10187000F1C6F8F6FB6B0D0EFA6F0001F1EC04F007
:1018800001C0F8F6050E06010124016E000E0220CB
:10189000036E0150210FE96E000E0320EA6EEFCFB8
:1018A000F8F6ECCFF9F6ECCFFAF6ECCFFBF6F8C68B
:1018B000FCF6F7C6F0F6F8C6EFF641D00601F96B74
:1018C000F1C6F8F6FB6B0D0EFA6F0001F1EC04F0B7
:1018D00002C0F4F601C0F3F6090E06010124016E00
:1018E000000E0220036E0150210FE96E000E03204E
:1018F000EA6EECCFF0F6ED52EFCFEFF620D0060116
:10190000F96BF1C6F8F6FB6B0D0EFA6F0001F1EC06
:1019100004F002C0F4F601C0F3F60B0E0601012438
:10192000016E000E0220036E0150210FE96E000EC1
:101930000320EA6EF06BEFCFEFF601D0060163D023
:10194000EC51006EED51036E030E035C05E1E80EF1
:10195000005C000132E00601030E035C05E1E90EC4
:10196000005C00012FE00601030E035C05E1EA0EB6
:10197000005C00012DE00601030E035C05E1EB0EA7
:10198000005C00012AE00601030E035C05E1EC0E99
:10199000005C000126E00601030E035C05E1ED0E8C
:1019A000005C000123E00601040E035C05E14C0E1F
:1019B000005C00011FE0060123D00601F06B81C529
:1019C000EFF621D083C5F0F682C5EFF606011BD0F5
:1019D0000601F06B520EEF6F16D00601F06BEF6B45
:1019E00012D00601F06B340EEF6F0DD00601F06BD4
:1019F000EF6B09D085C5F0F684C5EFF6060103D07C
:101A0000020E016E19D06A0EEE25E96E040EEA6E22
:101A1000D8B0EA2AF0C6EFFF010EEE256A0FE96E94
:101A2000040EEA6ED8B0EA2AEFC6EFFF020E0501F7
:101A30008027000E016E060100014CEF0DF0E82436
:101A4000F76AF736590FF66E1A0EF7220A00F550AC
:101A5000FA6E0800F550F96EAC16DE1620175E1708
:101A60009C172C18BC18FE180601E86BE76BE651B2
:101A7000E75D17E2E85315E1E751E425E96F000E51
:101A8000E521EA6FD890E735EB6FEAC6EDF6E9C6D7
:101A9000ECF6EE6F0001E5D501C0E8F60601E72B94
:101AA000E6D7E8C601F000012AEF0FF00301635307
:101AB0001BE00601E851E80809E1E951030806E1E5
:101AC000EAC681F5000E016E83D10DD0E851E90818
:101AD0000AE1E951030807E1EBC683F5EAC682F59E
:101AE000000E016E75D103010601E9510308D8A06B
:101AF00002D104E1E851E708D8A0FDD0E931036E36
:101B0000E831026E033202320332023202C0ECF6D6
:101B1000E851070BED6FEC51400803E2020E016E35
:101B200057D1ED51F80FD8B0E5D0080F0001EBEF19
:101B30000EF00601F96BECC6F8F6FB6B0D0EFA6FB2
:101B40000001F1EC04F002C0F1F601C0F0F6210E44
:101B500006010124E96E000E0220EA6EEAC6EFFFDC
:101B6000C9D00601F96BECC6F8F6FB6B0D0EFA6FE7
:101B70000001F1EC04F002C0F1F601C0F0F6010E34
:101B800006010124016E000E0220036E0150210F98
:101B9000E96E000E0320EA6EEBC6ECFFED52EAC6DA
:101BA000EFFFA8D00601F96BECC6F8F6FB6B0D0E43
:101BB000FA6F0001F1EC04F002C0F1F601C0F0F69A
:101BC000030E06010124016E000E0220036E015077
:101BD000210FE96E000E0320EA6EEAC6EFFF8AD0FD
:101BE0000601F96BECC6F8F6FB6B0D0EFA6F0001FF
:101BF000F1EC04F002C0F1F601C0F0F6040E0601AB
:101C00000124016E000E0220036E0150210FE96EC7
:101C1000000E0320EA6EEAC6EFFF6CD0EBC6EFF6CB
:101C2000EAC6EEF6060166D00601F96BECC6F8F6D8
:101C3000FB6B0D0EFA6F0001F1EC04F001C0F0F641
:101C4000050E06010124016E000E0220036E0150F4
:101C5000210FE96E000E0320EA6EEE52EEC6ECFF95
:101C6000EFC6ECFFED52ED52ED52EAC6EFFFEBC6C8
:101C7000ECFF00010601F96BECC6F8F6FB6B0D0EEC
:101C8000FA6F0001F1EC04F002C0F1F601C0F0F6C9
:101C9000090E0601F025016E000EF121036E0150C0
:101CA000210FE96E000E0320EA6EEBC6ECFFED5249
:101CB000EAC6EFFF1FD00601F96BECC6F8F6FB6B26
:101CC0000D0EFA6F0001F1EC04F002C0F1F601C054
:101CD000F0F60B0E06010124016E000E0220036EC9
:101CE0000150210FE96E000E0320EA6EEAC6EFFFF5
:101CF00001D0060169D0E851006EE951036E040E6F
:101D0000035C05E14C0E005C000122E00601070EB9
:101D1000035C05E1CD0E005C00011FE00601070E2B
:101D2000035C05E1CE0E005C000118E00601070E21
:101D3000035C05E1CF0E005C000120E006014E0EC1
:101D4000035C05E11F0E005C000126E0060139D0AE
:101D5000EBC685F5EAC684F538D0FF000601EA51E6
:101D6000CE0803E1EB51070803E0030E016E30D00B
:101D70000001E1EC04F043EC05F027D00601EA2D68
:101D800002D0EB5303E0030E016E22D00001B7EC4A
:101D900004F01EEC05F019D00601EA510A0803E12F
:101DA000EB51070806E00301636B030E016E0601A9
:101DB0000FD0010E0301636FC80E646F000105D0E0
:101DC0000601020E016E04D00001000E016E060134
:101DD00000014FEF0FF0E824F76AF736F10FF66EC7
:101DE0001D0EF7220A00F550FA6E0800F550F96E44
:101DF000321B621BA41BE01B1C1C281C741CB61C81
:101E00000501806B7751006E7851036E035005E138
:101E1000030E005C000117E00501035005E1040E0C
:101E2000005C000110E00501035005E1060E005CB6
:101E3000000113E00501035005E1070E005C0001FD
:101E400031E0050131D07AC5E5F679C5E4F67BC508
:101E5000E6F60AD601C07FF52AD06A0E05017C2578
:101E6000E96E040EEA6ED8B0EA2AEFCFE4F6010E6E
:101E70007C256A0FE96E040EEA6ED8B0EA2AEFCF2D
:101E8000E5F6E4C6E7F6E5C6E6F67AC5E9F679C50D
:101E9000E8F6E4C6EBF6E5C6EAF6000107D601C0AF
:101EA0007FF505D004D00501010E7F6F806B000126
:101EB0003DEF13F0E5C6F0F6020E0601F16F0001EA
:101EC0002AEC06F0E7C6EAF6E7C6F3F615EC06F0EC
:101ED000E6C6EAF6E6C6F3F615EC06F0E9C6EAF65B
:101EE000E9C6F3F615EC06F0E8C6EAF6E8C6F3F63E
:101EF00015EC06F03EEC06F00601E5532AE0000181
:101F000057EC06F0015219E1FF0E05018827D8A011
:101F10008927D8A08A27D8A08B27885309E189531D
:101F200007E18A5305E18B53D8A402D0000105D004
:101F3000040000000601E3D700010501885308E111
:101F4000895306E18A5304E18B5302E10C0E936F2F
:101F5000060105018B6B010E8A6F860E896FA00E3C
:101F6000886F93C501F0000176EF11F0E6C6F0F638
:101F7000050E0601F16F00012AEC06F0E8C6EAF64C
:101F8000E8C6F3F615EC06F0E7C6EAF6E7C6F3F6A0
:101F900015EC06F00601E95306E0F369000115ECC3
:101FA00006F005D00601F36B000115EC06F0060102
:101FB000F36B000115EC06F03EEC06F00601E6536B
:101FC0002AE0000157EC06F0015219E1FF0E05016D
:101FD0008827D8A08927D8A08A27D8A08B278853FC
:101FE00009E1895307E18A5305E18B53D8A402D054
:101FF000000105D0040000000601E3D7000105013F
:10200000885308E1895306E18A5304E18B5302E1C6
:102010000C0E936F060105018B6B010E8A6F860E05
:10202000896FA00E886F93C501F00001B7EF11F022
:10203000E9C6F0F6060E0601F16F00012AEC06F083
:10204000EBC6EEF6EBC6F3F615EC06F0EAC6EEF6D6
:10205000EAC6F3F615EC06F0EDC6EEF6EDC6F3F6BD
:1020600015EC06F0ECC6EEF6ECC6F3F615EC06F051
:102070003EEC06F00601E9532AE0000157EC06F0B9
:10208000015219E1FF0E05018827D8A08927D8A0A1
:102090008A27D8A08B27885309E1895307E18A53FF
:1020A00005E18B53D8A402D0000105D00400000044
:1020B0000601E3D700010501885308E1895306E1D1
:1020C0008A5304E18B5302E10C0E936F0601050164
:1020D0008B6B010E8A6F860E896FA00E886F93C579
:1020E00001F00001E2EF11F0D8900601EA35026E2E
:1020F000EB3502C0EFF6E7C6F0F6100EF16F000107
:102100002AEC06F0E9C6F0F6E9C6F3F615EC06F09F
:10211000E8C6F0F6E8C6F3F615EC06F0EBC6F0F606
:10212000EBC6F3F615EC06F0EAC6F0F6EAC6F3F6EF
:1021300015EC06F0EFC6F3F615EC06F00601EE6BB3
:10214000EB5303E1EA51EE5D34E2036AEEC602F0BE
:10215000D890023603360250EC25E96EED5103208B
:10216000EA6EECCFF1F6ED52EFCFF0F6F0C6F2F6F4
:10217000F0C6F3F6000115EC06F0036A0601EEC6A0
:1021800002F0D890023603360250EC25E96EED518C
:102190000320EA6EECCFF1F6ED52EFCFF0F6F1C688
:1021A000F2F6F1C6F3F6000115EC06F00601EE2B8F
:1021B000C7D700013EEC06F00601E7532AE0000114
:1021C00057EC06F0015219E1FF0E05018827D8A04F
:1021D0008927D8A08A27D8A08B27885309E189535B
:1021E00007E18A5305E18B53D8A402D0000105D042
:1021F000040000000601E3D700010501885308E14F
:10220000895306E18A5304E18B5302E10C0E936F6C
:10221000060105018B6B010E8A6F860E896FA00E79
:10222000886F93C501F0000101EF12F005017751AD
:10223000006E7851036E035004E10052000135E056
:102240000501035005E1010E005C00012FE00501CE
:10225000035005E1020E005C00013CE00501035063
:1022600005E1030E005C000148E00501035005E1B3
:10227000040E005C000155E00501035005E1050E68
:10228000005C000162E00501035006E1060E005CFF
:102290000001D8B473D00501035006E1070E005CBD
:1022A0000001D8B496D00501B4D0E3D075C5E5F6E9
:1022B0007AC5E7F679C5E6F60601E96B7BC5E8F66F
:1022C000000170EC08F001C07FF5010E0601E46F1B
:1022D00005019FD075C5E5F67AC5E7F679C5E6F63E
:1022E0000601E96B7BC5E8F60001E4D501C07FF586
:1022F000010E0601E46F05018CD075C5E5F67AC5BF
:10230000E7F679C5E6F60601E96B7BC5E8F600015C
:10231000BDEC06F001C07FF5010E0601E46F05017A
:1023200078D075C5E5F67AC5E7F679C5E6F6060113
:10233000E96B7BC5E8F6000169EC06F001C07FF5AA
:10234000010E0601E46F050164D06A0E05017C25CB
:10235000E96E040EEA6ED8B0EA2AEFCFE9F675C549
:10236000E6F67AC5E8F679C5E7F60001FFD501C0C3
:102370007FF5020E0601E46F05014BD06A0E0501E0
:102380007C25E96E040EEA6ED8B0EA2AEFCFE5F6B6
:10239000010E7C256A0FE96E040EEA6ED8B0EA2AB7
:1023A000EFCFE6F6E5C6E8F6E6C6E7F675C5E9F668
:1023B0007AC5EBF679C5EAF6E5C6EDF6E6C6ECF6C3
:1023C000000136D601C07FF5020E0601E46F000160
:1023D00050D06A0E05017C250601E56F040EE66FFC
:1023E000D8B0E62B75C5E7F67AC5E9F679C5E8F603
:1023F000EB6B7BC5EAF6E6C6EDF6E5C6ECF600014A
:1024000073D601C07FF5020E0601E46F000131D0E2
:1024100005010601E42D1DD005017F53D8B402D07B
:10242000060117D0010E915D806F010E915D0601CE
:10243000E56F040EEA6E6A0EE96E050EE26E950E09
:10244000E16EE551016E04E0E6CFEEFF012EFCD710
:1024500010D0E45102080DE105017F53D8B402D039
:10246000060107D0020E806F97C56AF498C56BF419
:102470000601000141EF13F0230E0601E46F81C550
:10248000E5F683C5E6F6060182C5E7F60601E869CA
:10249000140EE96F0D0E05018025020F0601F16F84
:1024A000F26BD8B0F22BF2C6EAF6F1C6EBF670C5C5
:1024B000ECF606016FC5EDF606016EC5EEF60601F7
:1024C0006DC5EFF606017FC5F0F6F669F569060EF3
:1024D000F86FE50EF76F0C0EF96F000111EC07F0C5
:1024E00002C0F2F601C0F1F6F2C6F6F6F1C6F5F654
:1024F000040E0601F86F6A0EF76F80C5F9F6000149
:1025000011EC07F002C0F2F601C0F1F60601F36B20
:10251000F3510C0810E3036AF351E40FE96E060E61
:102520000320EA6EEFCFF4F6F451000140EC07F01F
:102530000601F32BEDD7F36B050180510601F35D26
:1025400010E26A0EF325E96E040EEA6ED8B0EA2AAC
:10255000EFCFF4F6F451000140EC07F00601F32B45
:10256000EBD7F2C6F4F6F451000140EC07F0F1C6E7
:10257000F4F60601F451000140EC07F042EF13F0CD
:102580006EC46CF5020E05016C5D6A0FE96E040EF7
:10259000EA6ED8B0EA2AEFCF7EF5010E6C5D6A0FC5
:1025A000E96E040EEA6ED8B0EA2AEFCF7DF5030E8D
:1025B0006C5D0601E46FF669F569040EF86F6B0E49
:1025C000F76FE4C6F9F6000111EC07F002C0E3F67C
:1025D00001C0E2F605017D510601E25D05E105015C
:1025E0007E510601E35D01E04ED004016F511308F6
:1025F00003E0060148D0040170C470F571C46FF5A2
:1026000072C46EF573C46DF574C474F575C473F556
:1026100076C472F577C471F578C476F579C475F52A
:102620007AC478F57BC477F57CC47AF57DC479F5F6
:102630007EC47BF5150E05017C6F806B0601E16B96
:1026400081C5E0F682C5DEF683C5DFF6050171516E
:102650000601DE5D14E1050172510601DF5D0FE147
:10266000050173510601E05D0AE10501745106019F
:10267000E15D05E1000100EF0FF003D0060100016C
:10268000D5D5FAD60601000187EF14F0F86AD09E7E
:10269000078E620ED36E9B6A646A206AB986220E28
:1026A0007B6E000E7C6EA60EBA6E900EA66E9486A1
:1026B0009488040EC86E280EC66EC79EC79C05017E
:1026C000876B866BA7960C0EAF6EA20EAC6E900E4B
:1026D000AB6E8B6B010E8A6F860E896FA00E886FB2
:1026E0008C918D6B0F015C51800B5C6F000E5D6FE8
:1026F000C196C198C19A5E6B5F6B05D002001A004B
:10270000004A46930000000EF86E260EF76EFC0E8F
:10271000F66E0900F550006E000A13E00900F5504E
:10272000016EE8BE05D03F0BEA6E0900F5CFE9FF68
:1027300001BC090001AC0900F5CFEEFF004EE9D75E
:10274000F9D7F86A0001B3EF03F00601DD6BDD5144
:10275000630843E30400DA0EF66E050EF76E080E0A
:10276000DE6F0001E8EC03F0F00EF66E050EF76E7A
:10277000FDEC03F0200EA4A8FED7796E280EA4A8C5
:10278000FED7796E05018151A4A8FED7796E100E8F
:10279000E96E83C5DFF682C5DEF600010EEC04F0BB
:1027A000EB0EF66E050EF76E030E0601DE6F0001EE
:1027B000E8EC03F0939A8A8A640E0601DE6F00014A
:1027C0009BEC03F0939A8A9A640E0601DE6F000177
:1027D0009BEC03F00601DD2BBAD7FA0EF66E050E60
:1027E000F76E0001FDEC03F0C00EF212E1EC04F014
:1027F00043EC05F0A3EF05F0CFEF05F0180EF66EF1
:10280000060EF76E080E0601DE6F0001E8EC03F01D
:102810002E0EF66E060EF76EFDEC03F0200EA4A849
:10282000FED7796E280EA4A8FED7796E05018151D6
:10283000A4A8FED7796E100EE96E83C5DFF682C5B7
:10284000DEF600010EEC04F0290EF66E060EF76EB1
:10285000030E0601DE6F0001E8EC03F004EF06F062
:102860000601DD6BDD51630844E30400380EF66EAB
:10287000060EF76E080EDE6F0001E8EC03F04E0E58
:10288000F66E060EF76EFDEC03F0200EA4A8FED740
:10289000796E280EA4A8FED7796E05018151A4A8EF
:1028A000FED7796E100EE96E83C5DFF682C5DEF6BF
:1028B00000010EEC04F0490EF66E060EF76E030EE4
:1028C0000601DE6F0001E8EC03F00A0E0301646FFD
:1028D000640E0601DE6F00019BEC03F00301646BE4
:1028E000640E0601DE6F00019BEC03F00601DD2B98
:1028F000B9D704000301615305E0616B0001C4EF27
:1029000008F0030105016B5305E0000139D62CECFA
:0A29100003F005010601EDD70300F6
:020000040030CA
:0E00000015086727000991000FC000E00040BE
:00000001FF
;PIC18F25K80
;CRC=CA69  CREATED="06-Feb-22 21:51"
