:040000001FEF1FF0DF
:08000800046ED8CF05F0E0CF33
:1000100006F00001E9CF0CF0EACF07F0E1CF08F0DD
:10002000E2CF09F0D9CF0AF0DACF0BF0F3CF12F01C
:10003000F4CF13F0FACF14F0F5CF15F0F6CF16F099
:10004000F7CF17F000C00EF001C00FF002C010F0A3
:1000500003C011F09DA230EF00F09EB240EF02F01D
:100060009DAA36EF00F09EBA7AEF02F0A3AA3CEF09
:1000700000F0A4BA00EF03F0B6AE42EF00F0B7BE56
:10008000C7EF02F00EC000F00FC001F010C002F088
:1000900011C003F00CC0E9FF07C0EAFF078E08C0DB
:1000A000E1FF09C0E2FF0AC0D9FF0BC0DAFF12C0AE
:1000B000F3FF13C0F4FF14C0FAFF15C0F5FF16C01C
:1000C000F6FF17C0F7FF045006C0E0FF05C0D8FFD9
:1000D0001000F76AE20FF66E000EF7220900F550E5
:1000E000120000C1814001C0804101C0804100C1B7
:1000F000814001C0804100C1814000C1814001C0F8
:10010000804101C0804100C1814000C1814001C0E7
:10011000804100C1814001C0804101C0804100C1D7
:10012000814001C0804100C1814000C1814001C0C7
:10013000804100C1814001C0804101C0804100C1B7
:10014000814000C1814001C0804101C0804100C1A7
:10015000814001C0804100C1814000C1814001C097
:10016000804101C0804100C1814000C1814001C087
:10017000804100C1814001C0804101C0804100C177
:10018000814000C1814001C0804101C0804100C167
:10019000814001C0804100C1814000C1814001C057
:1001A000804100C1814001C0804101C0804100C147
:1001B000814001C0804100C1814000C1814001C037
:1001C000804101C0804100C1814000C1814001C027
:1001D000804100C1814001C0804101C0804100C117
:1001E0008140F76AF20FF66E010EF7220900F55012
:1001F000120000C0C101C30302C2C60607C705C57D
:10020000C404CC0C0DCD0FCFCE0E0ACACB0BC9093E
:1002100008C8D81819D91BDBDA1A1EDEDF1FDD1D4E
:100220001CDC14D4D515D71716D6D21213D311D17E
:10023000D010F03031F133F3F23236F6F737F535CE
:1002400034F43CFCFD3DFF3F3EFEFA3A3BFB39F9FE
:10025000F83828E8E929EB2B2AEAEE2E2FEF2DEDCE
:10026000EC2CE42425E527E7E62622E2E323E1213E
:1002700020E0A06061A163A3A26266A6A767A5654E
:1002800064A46CACAD6DAF6F6EAEAA6A6BAB69A9BE
:10029000A86878B8B979BB7B7ABABE7E7FBF7DBDCE
:1002A000BC7CB47475B577B7B67672B2B373B171FE
:1002B00070B05090915193535292965657975595CE
:1002C00094549C5C5D9D5F9F9E5E5A9A9B5B99597E
:1002D0005898884849894B8B8A4A4E8E8F4F8D4D4E
:1002E0004C8C4484854587474686824243834181BE
:1002F00080402320726561645F706172616D5F662A
:10030000696C6520435243206D69732D6D61746380
:10031000682E2057726974696E67206E6577206455
:10032000656661756C74210D0A0023206469736130
:10033000626C696E6720616C6C20646576696365C8
:10034000730D0A00232077726974655F64657669AE
:1003500063655F66696C6528290D0A002320726554
:1003600061645F6465766963655F66696C65206377
:1003700072633D25750D0A002320726561645F6418
:1003800065766963655F66696C6520435243206DDD
:1003900069732D6D617463682E2057726974696E7C
:1003A00067206E65772064656661756C74210D0A3F
:1003B0000000232064756D70696E6720616C6C208D
:1003C000656E61626C656420646576696365733A25
:1003D0000D0A00006465766963655B25755D0D0A2D
:1003E000000009747970653D25750D0A00000974D7
:1003F00072616E736D697445766572793D25750D10
:100400000A00096E6574776F726B4164647265737C
:10041000733D25750D0A00000973657269616C4EA4
:10042000756D6265723D30782530327825303278CE
:1004300025303278253032780D0A00000973746156
:10044000727452656769737465723D256C750D0A27
:100450000000096E5265676973746572733D257596
:100460000D0A00002320646F6E650D0A00009D9246
:100470000801645303E0CC6A9E929D820001120041
:100480000501905102080AE1915308E1925306E1F7
:100490008FB104D0020E945F8F8101D08F91926949
:1004A0009169906B0801646B0001E1DF9E9242EF5D
:1004B00000F09EAAFED7ABCF20F0AECF01F020A275
:1004C00002D0AB98AB881200050192510801641963
:1004D000656F036A65510001FCDD016E05019151F4
:1004E0000118926F036A0801655100017ADEE8CFB6
:1004F00091F51200DEDF01C063F805018FB12BD04A
:10050000905308E19269916963C893F5902B946BBD
:10051000966B17D0902D04D063C895F5902B11D011
:10052000905102080EE1943D02D0FE0E946F970E9A
:100530009425E96E050EEA6ED8B0EA2A63C8EFFF8B
:10054000942B63C864F80001BFDF010E0801646FDB
:1005500000018DDF05019E9A000142EF00F0415439
:1005600045300D004154264B300D000041542B53B3
:10057000424457423D256C750D0041542B53424473
:1005800049580D0041542B53424444300D0007019B
:10059000F42BF451640818E1F46BF52BD8B4F62B66
:1005A000050185510701F65D0CE305E10501845164
:1005B0000701F55D06E3F66BF56B010E0301616F54
:1005C0000701B05301E0B0070301623D01D001D043
:1005D000622B645303E1939A8A9A03D0939A8A8A8E
:1005E0006407B79E000142EF00F0A4AAFED7A6CF91
:1005F00020F07ACF01F020A202D0A698A68812009F
:1006000005016B5303E00001F0DF050103016251B6
:100610000A0803E205016A6B0301626B05016A5374
:1006200036E1F8C7F7F7F9C7F8F7FAC7F9F7FBC7E4
:10063000FAF70001DADF01C0FBF70701F7512308E1
:1006400024E1F8510501815DD8B402D007011DD025
:10065000F9C703F00701FA510501825DD8B402D051
:10066000070113D00350835DD8B402D007010DD029
:10067000F7C76AF4F8C76BF4F9C76CF4FAC76DF4FE
:10068000FBC76EF4050E6A6F07011DD005016A51A4
:100690006A2B6A0FE96E040EEA6ED8B0EA2AEACF36
:1006A00066F8E9CF65F80001A0DF66C8EAFF65C813
:1006B000E9FF01C0EFFF04016E5105016A5D02E12F
:1006C000010E6B6F0701A49A000142EF00F0232096
:1006D000777220616464726573733D256C75207652
:1006E000616C75653D256C750D0A000023207772DD
:1006F0006974696E672064656661756C74206669EB
:100700006C65730D0A002320636F6E6669672E6C3B
:100710006976655F696E74657276616C3D256C758E
:100720000D0A00002320666163746F727920756E74
:100730006C6F636B65640D0A0000232020206F75C9
:10074000722073657269616C3D2563256C750D0AB5
:100750000000232071756572792073657269616C80
:100760003D2563256C750D0A000023206932632046
:1007700064657669636520746F2071756572790DA3
:100780000A006465766963655B25755D0D0A000086
:1007900009747970653D25750D0A00000974726150
:1007A0006E736D697445766572793D25750D0A0025
:1007B000096E6574776F726B416464726573733D23
:1007C0003078253032780D0A00000973657269614E
:1007D0006C4E756D6265723D30782530327825300B
:1007E000327825303278253032780D0A00000973CE
:1007F0007461727452656769737465723D256C75B6
:100800000D0A0000096E5265676973746572733D65
:1008100025750D0A000023207265672061646472EB
:100820005B3078253032785D3D3078253032782065
:10083000282575290D0A000023206C6F63616C2048
:1008400064657669636520746F2071756572790DD2
:100850000A0023207264546170206869206A6F6501
:1008600020257320282563256C75290D0A00323256
:100870002D4A756E2D3232002320726573746172B9
:10088000742063617573653A2000574454205449BD
:100890004D454F5554004D434C522046524F4D202C
:1008A000534C454550004D434C522046524F4D202D
:1008B00052554E004E4F524D414C20504F574552CD
:1008C0002055500042524F574E4F555420524553D9
:1008D0005441525400005744542046524F4D205327
:1008E0004C4545500000524553455420494E535401
:1008F00052554354494F4E00554E4B4E4F574E2183
:10090000000005016A6B6B6B0001120093988A88E6
:1009100093908A8031EF05F0C69E9E9652C8C9FF1B
:10092000020EC6BE05D09EA6FED7000EC5BC010EA7
:10093000016E1200C580C5B0FED70400090E006E1E
:10094000002EFED700009A0E0801526F0001E4DF6E
:1009500008014F35516F51375137F80E511751C8B3
:1009600052F80001D9DF50C852F8D6DFC584C5B4AB
:10097000FED71200030E08014F6F800E506F00016A
:10098000D9DF08014F6B41C850F80001D3DF010ED9
:1009900008014F6F506B0001CDDF030E08014F6F50
:1009A000BF0E506F0001C6DF020E08014F6F100E20
:1009B000506F0001BFDF030E08014F6F506F000141
:1009C000B9DF010E08014F6F506B0001B3DF020E5B
:1009D00008014F6F070E506F0001ACDF36EF05F0D6
:1009E000080EEA6E410EE96EEF5011E0020E016E44
:1009F000BF0E006E0400002EFDD7012EF9D7960E13
:100A0000006E002EFED700D00400EF2EEFD71200AC
:100A1000620ED36E9B6A646A0F015C51800B5C6F3F
:100A2000000E5D6FC196C198C19AD1805D691F0E9D
:100A30005C6FF00EBB1650174D174A174717949A64
:100A40008B9A780E0609886E4D0EA96EB68E010E31
:100A50000301616F6269636B646B000152DFA38AFB
:100A600055D7060E0801416F000184D70E0E08010C
:100A7000416F0001B5DF80EF1FF0010E0501865DBB
:100A8000FB0F19E2050F000162EF05F092908980DB
:100A9000050111D09292898205010DD0929489842A
:100AA000050109D092968986050105D0929A898A16
:100AB000050101D00501040E08014F6F506B0001C4
:100AC00039DF1200E824F76AF736DF0FF66E0A0EF8
:100AD000F7220A00F550FA6E0800F550F96E8C0AFC
:100AE000940A9C0AA40AAC0A0900F6CF5AF8F7CF78
:100AF0005BF8F550A4A8FED7796E5AC8F6FF5BC81C
:100B0000F7FF0801592F01D002D00001EDD70001F5
:100B100012000900F5520DE0F6CF54F8F7CF55F862
:100B2000F550A4A8FED7796E54C8F6FF55C8F7FF54
:100B3000F0D71200EACF5BF8E9CF5AF80801543930
:100B4000F009566F5627E20F576F320F596F545105
:100B50000F0B572757275927E90F586F5827582742
:100B600053390F0B5827592758375937591F5937B9
:100B700053510F0B59275637070E556F0A0E58075A
:100B80005927FDE357075827FDE356075727FDE38D
:100B900055075627FDE3080EEA6E550EE96E070E5F
:100BA0005A155A9DE926000EEA22E950590804E137
:100BB000EA50080801E15A8DEF50006E08E15ABD75
:100BC00006D05AB90CD05AB702D0200E03D05A879B
:100BD0005A99300E00260050A4A8FED7796EEE5028
:100BE0005AADE3D70001120008015D6B5CC85FF8E5
:100BF0005B51D8B45C075B075E6F5E5302E15F53E5
:100C00003FE004005AC803F05951E96E03C0EAFFFF
:100C1000EFCF5EF85DC85FF85EC860F85F5160199D
:100C2000016E01C05DF85851036E5751572BD8B46F
:100C3000582B5E6F03C05FF85A51036E5951592B00
:100C4000D8B45A2BE96E03C0EAFFEFCF60F8F25038
:100C5000006EF29E5FC875FF5EC874FF60C873FFC8
:100C60007F9C7F9E7F840F01550E7E6EAA0E7E6E46
:100C70007F827FB2FED77F940050F2120801B6D770
:100C80005DC801F000011200050E0801556F810ECC
:100C9000546F586B040E576F55C85AF854C859F81A
:100CA0005C6B080E5B6F00019FDF01C053F8F250D0
:100CB000006EF29E756A746A53C873FF7F9C7F9EB4
:100CC0007F840F01550E7E6EAA0E7E6E7F827FB2EC
:100CD000FED77F940050F21200011200960E03011D
:100CE000646F410E0501816F120E836FBD0E826F1E
:100CF000856B3C0E846F050E866F010E886F2C0E7F
:100D0000876F0001C1DF120008015B515D03F3CF63
:100D100001F0F4CF00F05E03F35000265C515D0358
:100D2000F3500020026E000112000801210E556FE1
:100D3000586B800E576F5A6B55C859F8030E5C6F8D
:100D4000400E5B6F000150DF01C054F8F250006E9E
:100D5000F29E756A020E746E54C873FF7F9C7F9E6C
:100D60007F840F01550E7E6EAA0E7E6E7F827FB24B
:100D7000FED77F940050F21200011200960E03017C
:100D8000646F2A0EF66E030EF76E0001C2DE0801D4
:100D9000536B53513F0812E35C6B53C85BF85E6BB7
:100DA0000D0E5D6F0001B0DF210E08010124E96E18
:100DB000000E0220EA6EEF6A532BEBD7440EF66E5C
:100DC000030EF76E0001A5DEB0DF120008014A6BCA
:100DD00049C84CF84851D8B4490748074B6F4B53A2
:100DE00002E14C5332E047C803F04651E96E03C0BC
:100DF000EAFF4551036E4451442BD8B4452B4D6F47
:100E000003C04EF8F2CF4FF8F29E4EC875FF4DC8A2
:100E100074FF7F9C7F9E7F8073504FBFF28EEF6E7A
:100E200047C803F04651E96E03C0EAFFEFCF4BF825
:100E30004AC85FF84BC860F85F516019016E01C085
:100E40004AF8462BD8B4472BC3D74AC801F0000153
:100E50001200050E0801436F810E426F456B040EB0
:100E6000446F43C847F842C846F8496B080E486FBC
:100E70000001ACDF01C041F8F2CF42F8F29E756A82
:100E8000746A7F9C7F9E7F807350080142BFF28E00
:100E9000415D08E0F20EF66E020EF76E000139DEDB
:100EA0001DDF0801000130EF20F008014C51016AFC
:100EB0004B5D03E24BC800F00CD0006A080E4D6F8A
:100EC0004B3700364C51005CD8B0006E01364D2FC8
:100ED000F7D700011200015049C84BF8640E080111
:100EE0004C6F0001E2DF00C049F80150300E08E10C
:100EF00008014AA30ED04AB70CD04AB9200E04D03C
:100F000008014A974A994A8101260150A4A8FED7B0
:100F1000796E49C84BF80A0E4C6F0001C6DF00C05D
:100F200049F80150300E08E108014AB70BD04AA138
:100F300009D04AB9200E000101260150A4A8FED70D
:100F4000796E0801300E49274951A4A8FED7796E61
:100F5000000112000801210E426F456B800E446FA4
:100F6000476B42C846F8030E496F400E486F0001B8
:100F70002DDF01C041F85C0EF66E030EF76E170E02
:100F80000801596F0001B0DD41C849F81B0E080186
:100F90004A6F0001A0DF0D0EA4A8FED7796E0A0EDD
:100FA000A4A8FED7796EF2CF42F8F29E756A020EBF
:100FB000746E7F9C7F9E7F807350080142BFF28ECB
:100FC000415D08E0780EF66E030EF76E0001A1DDBC
:100FD000D5DE0801000132EF20F09EAA03D059ECC3
:100FE00002F0FBD7AE50949A8B9A9D8A1200949A85
:100FF0008B9AF3DF480E0609CA6EF90ECB6EC00E4F
:10100000F21234EF20F008015ABF10D00F0E006E1C
:10101000593900160A0E005C03E2300E002602D099
:101020005A5100260050A4A8FED7796E0F0E59170A
:101030000A0E595D02E2300E02D05A9F5A515927CA
:101040005951A4A8FED7796E00011200B20EF66EB7
:10105000030EF76E5EDD0801416B41510F08D8A009
:10106000D9D104005C6B41C85BF85E6B0D0E5D6FFF
:1010700000014ADE02C043F801C042F8210E080117
:101080000124E96E000E0220EA6EEF5001E1C0D1AA
:10109000D40EF66E030EF76E070E596F000124DDB5
:1010A00041C849F81B0E08014A6F000114DFDD0E2C
:1010B000F66E030EF76E030E0801596F000114DD82
:1010C00008015C6B41C85BF85E6B0D0E5D6F000143
:1010D0001BDE02C043F801C042F8210E08010124C2
:1010E000E96E000E0220EA6EEFCF44F8E20EF66ED3
:1010F000030EF76E060E596F0001F6DC44C849F87E
:101100001B0E08014A6F0001E6DE0D0EA4A8FED7F3
:10111000796E0A0EA4A8FED7796E08015C6B41C8EF
:101120005BF85E6B0D0E5D6F0001EEDD02C043F8F3
:1011300001C042F8030E08010124016E000E0220D6
:10114000036E0150210FE96E000E0320EA6EEFCF0F
:1011500042F8EE0EF66E030EF76E0F0E596F000199
:10116000C3DC42C849F81B0E08014A6F0001B3DE18
:101170000D0EA4A8FED7796E0A0EA4A8FED7796E2C
:1011800008015C6B41C85BF85E6B0D0E5D6F000182
:10119000BBDD02C043F801C042F8040E080101247F
:1011A000016E000E0220036E0150210FE96E000E49
:1011B0000320EA6EEFCF42F8020EF66E040EF76ED1
:1011C000100E596F000190DC42C849F81B0E08014F
:1011D0004A6F000180DE0D0EA4A8FED7796E0A0EBC
:1011E000A4A8FED7796E08015C6B41C85BF85E6B02
:1011F0000D0E5D6F000188DD01C042F8050E08018B
:101200000124016E000E0220036E0150210FE96ED1
:10121000000E0320EA6EEFCF42F8ECCF43F8ECCF9C
:1012200044F8ECCF46F85C6B41C85BF85E6B0D0E82
:101230005D6F000169DD01C047F8050E080101245A
:10124000016E000E0220036E0150210FE96E000EA8
:101250000320EA6EEFCF47F8ECCF48F8ECCF4BF81D
:10126000ECCF4AF85C6B41C85BF85E6B0D0E5D6FAE
:1012700000014ADD01C04CF8050E08010124016E91
:10128000000E0220036E0150210FE96E000E0320B4
:10129000EA6EEFCF4CF8ECCF50F8ECCF4EF8ECCF35
:1012A0004FF85C6B41C85BF85E6B0D0E5D6F000123
:1012B0002BDD01C051F8050E08010124016E000E5E
:1012C0000220036E0150210FE96E000E0320EA6E2A
:1012D000EFCF55F8ECCF52F8ECCF53F8ECCF54F8F1
:1012E000180EF66E040EF76E100E596F000174ECB6
:1012F00005F046C859F8570E08015A6F000183DE01
:101300004BC859F8570E08015A6F00017CDE50C8CF
:1013100059F8570E08015A6F000175DE55C859F883
:10132000570E08015A6F00016EDE0D0EA4A8FED7FD
:10133000796E0A0EA4A8FED7796E08015C6B41C8CD
:101340005BF85E6B0D0E5D6F0001DEDC01C042F8E4
:10135000090E08010124016E000E0220036E0150E7
:10136000210FE96E000E0320EA6EECCF43F8ED5238
:10137000EFCF42F83C0EF66E040EF76E0F0E596F6B
:10138000000174EC05F0100EE96E43C854F842C831
:1013900053F89AEC05F00D0EA4A8FED7796E0A0E4C
:1013A000A4A8FED7796E08015C6B41C85BF85E6B40
:1013B0000D0E5D6F0001A8DC02C043F801C042F8C9
:1013C0000B0E08010124016E000E0220036E015075
:1013D000210FE96E000E0320EA6EEFCF42F8520EA5
:1013E000F66E040EF76E0C0E596F000174EC05F0EA
:1013F00042C849F81B0E08014A6F00016CDD0D0E52
:10140000A4A8FED7796E0A0EA4A8FED7796E0801AB
:10141000412B23D6640EF66E040EF76E000189ECA4
:1014200005F036EF20F00701B26BF36B00011200FC
:10143000C69CC586C5B6FED700B0C59A00A0C58AB1
:10144000C588C5B8FED7C9CF01F01200C580C5B0A8
:10145000FED70400090E006E002EFED700009A0E83
:101460000801526F00018CEC04F008014235446F12
:1014700044374437F80E441744C852F800018CEC46
:1014800004F0C582C5B2FED70400090E006E002E1E
:10149000FED700009B0E0801526F00018CEC04F097
:1014A000006AC6DF01C043F8C584C5B4FED7080191
:1014B00043C801F000011200050E0801426F00014F
:1014C000C5DF0150010B016E42EF20F00801426BB5
:1014D0000001BCDF015001C041F8080141510D0875
:1014E00001E12ED00701B2532AE1080141510A0857
:1014F00008E10701F353D8B402D0080102D0080173
:101500001FD041510A080DE1B30E0701F325E96E22
:10151000070EEA6ED8B0EA2AEF6A010EB26F080130
:101520000FD00701F3513E080AE3B30EF325E96E2D
:10153000070EEA6ED8B0EA2A41C8EFFFF32B080184
:10154000000149EF20F008014F6B4EC850F8000130
:101550009AEC04F012000900F5520CE0F6CF45F8C1
:10156000F7CF46F8F5CF4EF8EEDF45C8F6FF46C890
:10157000F7FFF1D712000900F6CF46F8F7CF47F88A
:10158000F5CF4EF8E0DF46C8F6FF47C8F7FF080181
:10159000452F01D002D00001EED70001C9EF0BF0BA
:1015A000EACF4DF8E9CF4CF808014639F009486F09
:1015B0004827E20F496F320F4B6F46510F0B4927F7
:1015C00049274B27E90F4A6F4A274A2745390F0B0E
:1015D0004A274B274A374B374B1F4B3745510F0B89
:1015E0004B274837070E476F0A0E4A074B27FDE384
:1015F00049074A27FDE348074927FDE347074827EE
:10160000FDE3080EEA6E470EE96E070E4C154C9D81
:10161000E926000EEA22E9504B0804E1EA500808E6
:1016200001E14C8DEF50006E08E14CBD06D04CB985
:1016300015D04CB702D0200E03D04C874C99300EF9
:101640000026EACF46F8E9CF45F800C04EF8000181
:101650007ADF46C8EAFF45C8E9FF0801EE504CAD05
:10166000DAD70001D0EF0BF0010E0501865DFB0F0C
:1016700019E2050F00015CEF0BF0929089900501D3
:1016800011D09292899205010DD09294899405010E
:1016900009D092968996050105D0929A899A0501FA
:1016A00001D00501040E08014F6F020E506F0001BA
:1016B0009AEC04F00FEF0DF0E824F76AF736D30F39
:1016C000F66E160EF7220A00F550FA6E0800F55075
:1016D000F96E7A1682168A1692169A160701AE6B62
:1016E000AD6B06019C6B0001120006019C5302E1E8
:1016F0009AD197D19C2D0AD0000195DE5E0EF66E30
:10170000050EF76E28DF06019C2B8BD19C51020839
:1017100011E10701B22D0CD0B3514F0806E1B451CD
:101720004B0803E106019C2B070100017CDE070149
:1017300079D106019C5103080AE1000174DE640EB0
:10174000F66E050EF76E07DF06019C2B6AD19C51E1
:10175000040811E10701B22D0CD0B3514F0806E186
:10176000B4514B0803E106019C2B070100015BDE2D
:10177000070158D106019C5105081AE1000153DE0A
:101780006C0EF66E050EF76E090E0801456F00012E
:10179000F2D6100EE96EAEC746F8ADC745F800D7D1
:1017A0000D0E08014E6F0001CEDE06019C2B39D1D3
:1017B0009C5106081AE10701B22D15D0B351520809
:1017C0000FE1B45145080CE1B551410809E1B651AA
:1017D000440806E1B751590803E106019C2B0701B3
:1017E000000121DE07011ED106019C5107083DE1E1
:1017F000000119DE0801446B436B426B416B42519F
:101800000701AE5D24E308E1AD510801415DD8A0B8
:1018100002D007011CD007019D0E08014125E96E89
:10182000060E4221EA6EEFCF4EF800018CDE9D0ECF
:1018300008014125E96E060E4221EA6EEF5043276A
:10184000000E4423412BD8B4422BD9D7070144C8FA
:1018500045F844C84EF8000176DE43C845F843C851
:101860004EF871DE06019C2BDCD09C51080810E17B
:101870000701B22D0BD0B351300804E106019C2BB7
:1018800004D007010001CFDD06010701CBD006011E
:101890009C51090811E10701B22D0CD0B3514F083A
:1018A00006E1B4514B0803E106019C2B070100013E
:1018B000BADD0701B7D006019C510A0812E1070101
:1018C000AF5305E0B05303E00601ADD007010001BE
:1018D000AADD7A0EF66E050EF76E3DDE06019C2B34
:1018E000A0D09C510B082CE10701B22D27D0B35199
:1018F0002B0821E1B45153081EE1B55142081BE108
:10190000B651440818E1B751490815E1B8515808D3
:1019100012E1BA5120080BE1BB512F0808E2BB517C
:10192000320805E306019C2B0701AF6B04D00601CA
:101930009C2B0701AF2B000176DD070173D0060158
:101940009C510C0833E10701B22D0CD0B3514F0864
:1019500006E1B4514B0803E106019C2B070100018D
:1019600062DD0701AF5320E00A0E06019C6F0701FC
:10197000AF2D01D003D0AF51020803E1030EB06FC9
:1019800013D0AF51030803E0AF51040803E1150E73
:10199000B06F0AD0AF51050803E1FB0EB06F04D061
:1019A0000D0E06019C6F07013DD006019C510D08EC
:1019B0000AE1000138DD840EF66E050EF76ECBDD10
:1019C00006019C2B2ED09C510E0810E10701B22D70
:1019D0000BD0B351300804E106019C2B04D0070161
:1019E000000121DD060107011DD006019C510F08F1
:1019F00011E10701B22D0CD0B3514F0806E1B451EB
:101A00004B0803E106019C2B070100010CDD0701D7
:101A100009D006019C51100804E1000125D603DD20
:101A20005DDE07010601000152EF20F09EA8FED7FF
:101A3000AD6E1FEF0DF0080156510001F7D7196A7E
:101A4000F2BE198EF29E56C864F864EC02F019BE1C
:101A5000F28E0400440E006E002EFED700D012005D
:101A60000501926991698F919D9A949A8B8A0400DD
:101A7000F20E006E002EFED753C856F80001DBDFD1
:101A800054C856F8D8DF120092C554F891C553F8DF
:101A900054C856F8D0DF53C856F8CDDFADA2FED7F4
:101AA0000400F20E006E002EFED7EDEC07F0949AC3
:101AB0008B9A0501926991690001120005018FB1AD
:101AC00004D0000E016E0AD006D095AF04D097C5A1
:101AD00096F5010E946F8F91010E016E00011200B8
:101AE00049C853F8040E0801546F0001B9DF4BC810
:101AF0004EF84BC856F89FDF4AC84EF84AC856F809
:101B00009ADF4DC84EF84DC856F895DF4CC84EF8D0
:101B10004CC856F890DFB8DF0801495329E00001AE
:101B2000CDDF015219E1FF0E05018B27D8A08C27CC
:101B3000D8A08D27D8A08E278B5309E18C5307E1BD
:101B40008D5305E18E53D8A402D0000105D00400C6
:101B500000000801E4D7000105018B5308E18C5314
:101B600006E18D5304E18E5302E10C0E966F0801DD
:101B700005018E6B010E8D6F860E8C6FA00E8B6F24
:101B800096C501F00001120049C853F8030E080180
:101B9000546F000165DF4BC84EF84BC856F84BDF59
:101BA0004AC84EF84AC856F846DF4DC84EF84DC8E8
:101BB00056F841DF4CC84EF84CC856F83CDF64DF9D
:101BC0000801495329E0000179DF015219E1FF0EB4
:101BD00005018B27D8A08C27D8A08D27D8A08E27C9
:101BE0008B5309E18C5307E18D5305E18E53D8A443
:101BF00002D0000105D0040000000801E4D7000174
:101C000005018B5308E18C5306E18D5304E18E539B
:101C100002E10C0E966F080105018E6B010E8D6FAF
:101C2000860E8C6FA00E8B6F96C501F0000112001E
:101C300008015F515F07000A24E05EC8EAFF5D51BA
:101C40005D2BD8B45E2BE96EEF505B1B606B60516F
:101C5000070816E35B51010B006E036A0050031086
:101C60000AE0D8905C31626F5B31010A5B6F6251B0
:101C7000A00A5C6F03D0D8905C335B33602BE7D74E
:101C8000D8D75BC801F05CC802F000011200A4A81C
:101C9000FED7796E1200110E04016625020F0801AD
:101CA000596F5A6BD8B05A2B230E486F81C549F82B
:101CB00083C54AF8080182C54BF808014C69120E29
:101CC0004D6F5AC84EF859C84FF869C450F808010A
:101CD00068C451F8080167C447F85C6B47C85BF8F3
:101CE0005E6B0D0E5D6F000184EC06F001C05BF8C9
:101CF000010E08010124016E000E0220036E015046
:101D0000210FE96E000E0320EA6EECCF52F8ED527F
:101D1000EFCF5BF85C6B47C85BF85E6B0D0E5D6FD9
:101D2000000184EC06F001C05BF8010E08010124FB
:101D3000016E000E0220036E0150210FE96E000EAD
:101D40000320EA6EECCF5CF8ED52EFCF53F85C6BFA
:101D500047C85BF85E6B0D0E5D6F000184EC06F00A
:101D600001C05BF8050E08010124016E000E02207F
:101D7000036E0150210FE96E000E0320EA6EEFCFD3
:101D80005BF8ECCF5CF8ECCF5DF8ECCF54F85C6B13
:101D900047C85BF85E6B0D0E5D6F000184EC06F0CA
:101DA00001C05BF8050E08010124016E000E02203F
:101DB000036E0150210FE96E000E0320EA6EEFCF93
:101DC0005BF8ECCF5CF8ECCF55F8ECCF5EF85C6BD1
:101DD00047C85BF85E6B0D0E5D6F000184EC06F08A
:101DE00001C05BF8050E08010124016E000E0220FF
:101DF000036E0150210FE96E000E0320EA6EEFCF53
:101E00005BF8ECCF56F8ECCF5DF8ECCF5EF85C6B8E
:101E100047C85BF85E6B0D0E5D6F000184EC06F049
:101E200001C05BF8050E08010124016E000E0220BE
:101E3000036E0150210FE96E000E0320EA6EEFCF12
:101E400057F8ECCF5CF8ECCF5DF8ECCF5EF865C3EB
:101E500058F85C695B69080E5E6F490E5D6F100E85
:101E60005F6F0001E5DE02C046F801C045F846C8D4
:101E70005CF845C85BF8030E08015E6F660E5D6F87
:101E800066C45FF80001D4DE02C046F801C045F820
:101E90000801476B475110080FE3036A4751480F89
:101EA000E96E080E0320EA6EEFCF5BF85B5100018C
:101EB000EEDE0801472BEED7476B0401665108019F
:101EC000475D0FE2660E4725E96E030EEA6ED8B055
:101ED000EA2AEFCF5BF85B510001D9DE0801472BFE
:101EE000ECD746C85BF85B510001D1DE45C85BF812
:101EF00008015B510001CBDE120049C853F8010E06
:101F00000801546F0001ACDD4BC84EF84BC856F8C1
:101F100092DD4AC84EF84AC856F88DDD4DC84EF8D5
:101F20004DC856F888DD4CC84EF84CC856F883DDCD
:101F3000ABDD0801495329E00001C0DD015219E180
:101F4000FF0E05018B27D8A08C27D8A08D27D8A0FD
:101F50008E278B5309E18C5307E18D5305E18E5396
:101F6000D8A402D0000105D0040000000801E4D785
:101F7000000105018B5308E18C5306E18D5304E108
:101F80008E5302E10C0E966F080105018E6B010E57
:101F90008D6F860E8C6FA00E8B6F96C501F00001C1
:101FA0001200C580C5B0FED70400090E006E002ED9
:101FB000FED7000049C852F88CEC04F04AC852F829
:101FC0008CEC04F0C582C5B2FED70400090E006E89
:101FD000002EFED700000801495101094E6F526FD3
:101FE00000018CEC04F008014D514D07010810E090
:101FF0004CC8EAFF4BC8E9FF010E006E000118EC67
:102000000AF001C0EFFF08014B2BD8B44C2BECD7E2
:102010004CC8EAFF4BC8E9FF006A000118EC0AF05F
:1020200001C0EFFFC584C5B4FED738EF15F0080135
:102030003E2D08D03F5306E100013DEC05F06EEC6B
:102040000BF008013E532BE13F5329E100013DEC29
:1020500005F06EEC0BF00701AEC703F0AD51AD2BF0
:10206000D8B4AE2B0801456F9D0E4525E96E060ECE
:102070000320EA6E0701FDC7EFFFAEC703F0AD51C5
:10208000AD2BD8B4AE2B0801456F9D0E4525E96EEA
:10209000060E0320EA6E0701FCC7EFFF0801416B43
:1020A00041513F08D8A04CEF16F00400640E030124
:1020B000646F08015C6B41C85BF85E6B0D0E5D6F71
:1020C000000184EC06F002C046F801C045F8210E7C
:1020D00008010124E96E000E0220EA6EEF5002E1D1
:1020E00049EF16F0036A4151FE0FE96E070E032017
:1020F000EA6EEF2A036A4151FE0FE96E070E0320D4
:10210000EA6EEFCF45F85C6B41C85BF85E6B0D0E75
:102110005D6F000184EC06F002C047F801C046F88C
:10212000030E08010124016E000E0220036E01500F
:10213000210FE96E000E0320EA6EEF50455D03E2C9
:1021400049EF16F008D0036A4151FE0FE96E070E01
:102150000320EA6EEF6A41C867F4FDC769F4FCC763
:1021600068F45C6B41C85BF85E6B0D0E5D6F00013F
:1021700084EC06F002C046F801C045F8210E0801C3
:102180000124E96E000E0220EA6EEF500708D8A085
:1021900002D25C6B41C85BF85E6B0D0E5D6F000197
:1021A00084EC06F002C046F801C045F80C0E0801A8
:1021B0000124016E000E0220036E0150210FE96E12
:1021C000000E0320EA6EEF50010808E1A796190EF1
:1021D000AF6EA60EAC6E900EAB6E07D0A7960C0E2F
:1021E000AF6EA20EAC6E900EAB6E5C6B41C85BF82E
:1021F0005E6B0D0E5D6F000184EC06F002C046F8C8
:1022000001C045F8210E08010124E96E000E0220EC
:10221000EA6EEF50030818E05C6B41C85BF85E6B38
:102220000D0E5D6F000184EC06F002C048F801C09D
:1022300047F8210E08010124E96E000E0220EA6E23
:10224000EF500408D8A4F8D05C6B41C85BF85E6B13
:102250000D0E5D6F000184EC06F002C046F801C06F
:1022600045F8210E08010124E96E000E0220EA6EF5
:10227000EF50040861E15C6B41C85BF85E6B0D0ECA
:102280005D6F000184EC06F002C046F801C045F81D
:10229000040E08010124016E000E0220036E01509D
:1022A000210FE96E000E0320EA6EEFCF45F85C6B5C
:1022B00041C85BF85E6B0D0E5D6F000184EC06F0AB
:1022C00001C046F8090E08010124016E000E02202B
:1022D000036E0150210FE96E000E0320EA6EECCF71
:1022E00047F8ED52EFCF46F85C6B41C85BF85E6B88
:1022F0000D0E5D6F000184EC06F001C048F80B0E76
:1023000008010124016E000E0220036E0150210F0E
:10231000E96E000E0320EA6EEFCF4CF845C849F88D
:1023200047C84BF846C84AF84D6B000170EC0DF0F9
:1023300001C065F360D008015C6B41C85BF85E6B5F
:102340000D0E5D6F000184EC06F002C046F801C07E
:1023500045F8040E08010124016E000E0220036EF0
:102360000150210FE96E000E0320EA6EEFCF45F811
:102370005C6B41C85BF85E6B0D0E5D6F000184EC19
:1023800006F001C046F8090E08010124016E000E96
:102390000220036E0150210FE96E000E0320EA6E49
:1023A000ECCF47F8ED52EFCF46F85C6B41C85BF8D5
:1023B0005E6B0D0E5D6F000184EC06F001C048F805
:1023C0000B0E08010124016E000E0220036E015065
:1023D000210FE96E000E0320EA6EEFCF4CF845C8DE
:1023E00049F847C84BF846C84AF84D6B0001C4ECA1
:1023F0000DF001C065F3030165531CE1010E0501F9
:10240000945D0401666F010E0501945D0801456F3E
:10241000030EEA6E660EE96E050EE26E980EE16E30
:102420004551016E04E0E6CFEEFF012EFCD700011E
:1024300032DC0301AED008015C6B41C85BF85E6B17
:102440000D0E5D6F000184EC06F002C046F801C07D
:1024500045F8210E08010124E96E000E0220EA6E03
:10246000EF50010818E05C6B41C85BF85E6B0D0E25
:102470005D6F000184EC06F002C048F801C047F827
:10248000210E08010124E96E000E0220EA6EEF50D1
:102490000208D8A47FD05C6B41C85BF85E6B0D0E60
:1024A0005D6F000184EC06F002C046F801C045F8FB
:1024B000040E08010124016E000E0220036E01507B
:1024C000210FE96E000E0320EA6EEFCF45F85C6B3A
:1024D00041C85BF85E6B0D0E5D6F000184EC06F089
:1024E00001C046F8090E08010124016E000E022009
:1024F000036E0150210FE96E000E0320EA6EECCF4F
:1025000047F8ED52EFCF46F85C6B41C85BF85E6B65
:102510000D0E5D6F000184EC06F001C048F80B0E53
:1025200008010124016E000E0220036E0150210FEC
:10253000E96E000E0320EA6EEFCF4CF845C849F86B
:1025400047C84BF846C84AF84D6B0001D6DC01C0BD
:1025500065F3030165531DE1010E0501945D04015E
:10256000666F010E0501945D0801456F030EEA6E6A
:10257000660EE96E050EE26E980EE16E4551016E33
:1025800004E0E6CFEEFF012EFCD700014BEC0EF08D
:102590000301080128D35C6B41C85BF85E6B0D0E2C
:1025A0005D6F000184EC06F002C046F801C045F8FA
:1025B000210E08010124E96E000E0220EA6EEF50A0
:1025C0001708D8A008D36A0EF66E070EF76E000142
:1025D00089EC05F0820EF66E070EF76E070E080105
:1025E000596F000174EC05F041C849F81B0E080151
:1025F0004A6F00016BEC07F08B0EF66E070EF76E5C
:10260000030E0801596F000174EC05F008015C6BC2
:1026100041C85BF85E6B0D0E5D6F000184EC06F047
:1026200002C046F801C045F8210E08010124E96EF8
:10263000000E0220EA6EEFCF47F8900EF66E070EFE
:10264000F76E060E596F000174EC05F047C849F8A3
:102650001B0E08014A6F00016BEC07F00D0EA4A8D9
:10266000FED7796E0A0EA4A8FED7796E08015C6BBE
:1026700041C85BF85E6B0D0E5D6F000184EC06F0E7
:1026800002C046F801C045F8030E08010124016E9E
:10269000000E0220036E0150210FE96E000E032090
:1026A000EA6EEFCF45F89C0EF66E070EF76E0F0E32
:1026B000596F000174EC05F045C849F81B0E08017C
:1026C0004A6F00016BEC07F00D0EA4A8FED7796EDF
:1026D0000A0EA4A8FED7796E08015C6B41C85BF8AE
:1026E0005E6B0D0E5D6F000184EC06F002C046F8D3
:1026F00001C045F8040E08010124016E000E0220FD
:10270000036E0150210FE96E000E0320EA6EEFCF39
:1027100045F8B00EF66E070EF76E120E596F0001F7
:1027200074EC05F045C859F8570E08015A6F0001BE
:1027300003EC08F00D0EA4A8FED7796E0A0EA4A82B
:10274000FED7796E08015C6B41C85BF85E6B0D0EBD
:102750005D6F000184EC06F001C045F8050E08012C
:102760000124016E000E0220036E0150210FE96E5C
:10277000000E0320EA6EEFCF45F8ECCF46F8ECCF21
:1027800047F8ECCF49F85C6B41C85BF85E6B0D0E07
:102790005D6F000184EC06F001C04AF8050E0801E7
:1027A0000124016E000E0220036E0150210FE96E1C
:1027B000000E0320EA6EEFCF4AF8ECCF4BF8ECCFD7
:1027C0004EF8ECCF4DF85C6B41C85BF85E6B0D0EBC
:1027D0005D6F000184EC06F001C04FF8050E0801A2
:1027E0000124016E000E0220036E0150210FE96EDC
:1027F000000E0320EA6EEFCF4FF8ECCF53F8ECCF8A
:1028000051F8ECCF52F85C6B41C85BF85E6B0D0E73
:102810005D6F000184EC06F001C054F8050E08015C
:102820000124016E000E0220036E0150210FE96E9B
:10283000000E0320EA6EEFCF58F8ECCF55F8ECCF3E
:1028400056F8ECCF57F8CA0EF66E070EF76E100E5C
:10285000596F000174EC05F049C859F8570E08018A
:102860005A6F000103EC08F04EC859F8570E0801E2
:102870005A6F000103EC08F053C859F8570E0801CD
:102880005A6F000103EC08F058C859F8570E0801B8
:102890005A6F000103EC08F00D0EA4A8FED7796E64
:1028A0000A0EA4A8FED7796E08015C6B41C85BF8DC
:1028B0005E6B0D0E5D6F000184EC06F001C045F803
:1028C000090E08010124016E000E0220036E015062
:1028D000210FE96E000E0320EA6EECCF46F8ED52B0
:1028E000EFCF45F8EE0EF66E070EF76E0F0E596F2E
:1028F000000174EC05F0100EE96E46C854F845C8A6
:1029000053F89AEC05F00D0EA4A8FED7796E0A0EC6
:10291000A4A8FED7796E08015C6B41C85BF85E6BBA
:102920000D0E5D6F000184EC06F002C046F801C098
:1029300045F80B0E08010124016E000E0220036E03
:102940000150210FE96E000E0320EA6EEFCF45F82B
:10295000040EF66E080EF76E0C0E596F000174EC43
:1029600005F045C849F81B0E08014A6F00016BECE1
:1029700007F00D0EA4A8FED7796E0A0EA4A8FED704
:10298000796E08015C6B41C85BF85E6B0D0E5D6F84
:10299000000184EC06F002C046F801C045F8210EA3
:1029A00008010124E96E000E0220EA6EEF501008C3
:1029B000D8A410D15C6B41C85BF85E6B0D0E5D6FE7
:1029C000000184EC06F002C046F801C045F8040E90
:1029D00008010124016E000E0220036E0150210F38
:1029E000E96E000E0320EA6EEFCF45F85C6B41C83C
:1029F0005BF85E6B0D0E5D6F000184EC06F001C0AC
:102A000046F8090E08010124016E000E0220036E33
:102A10000150210FE96E000E0320EA6EECCF47F85B
:102A2000ED52EFCF46F85C6B41C85BF85E6B0D0E64
:102A30005D6F000184EC06F001C048F80B0E080140
:102A40000124016E000E0220036E0150210FE96E79
:102A5000000E0320EA6EEFCF4DF845C849F846C88E
:102A60004AF8030E4C6F660E4B6F0001D1EF0FF06A
:102A70000301656B08015C6B41C85BF85E6B0D0E72
:102A80005D6F000184EC06F001C045F80B0E0801F3
:102A90000124016E000E0220036E0150210FE96E29
:102AA000000E0320EA6EEFCF66F4446B5C6B41C806
:102AB0005BF85E6B0D0E5D6F000184EC06F002C0EA
:102AC00046F801C045F80B0E08010124016E000E06
:102AD0000220036E0150210FE96E000E0320EA6E02
:102AE000EF50445D73E25C6B41C85BF85E6B0D0EAA
:102AF0005D6F000184EC06F001C045F8090E080185
:102B00000124016E000E0220036E0150210FE96EB8
:102B1000000E0320EA6EECCF03F0ED52EF50442597
:102B2000456F000E0320466F660E4425E96E030EC6
:102B3000EA6ED8B0EA2AEFCF47F8660E4425E96E70
:102B4000030EEA6ED8B0EA2AEFCF48F8160EF66EFA
:102B5000080EF76E0D0E596F000174EC05F045C8B4
:102B600059F8570E08015A6F000103EC08F0270EC0
:102B7000F66E080EF76E040E0801596F000174EC32
:102B800005F047C859F8570E08015A6F000103ECC9
:102B900008F0200EA4A8FED7796E280EA4A8FED7B0
:102BA000796E48C849F81B0E08014A6F00016BECAA
:102BB00007F0330EF66E080EF76E030E0801596F1C
:102BC000000174EC05F00801442B70D700014BECB8
:102BD0000EF0080108D0380EF66E080EF76E0001F0
:102BE00089EC05F008013E5354E13F5352E10301E3
:102BF0006553D8B402D008014CD00701AEC703F02A
:102C0000AD51AD2BD8B4AE2B0801456F9D0E4525B7
:102C1000E96E060E0320EA6E41C8EFFF0701AEC75A
:102C200003F0AD51AD2BD8B4AE2B0801456F9D0E0E
:102C30004525E96E060E0320EA6E66C4EFFF436B7E
:102C4000426B435326E1040166510801425D21E2D3
:102C50000701AEC746F8AD51AD2BD8B4AE2B080175
:102C6000456F9D0E4525016E060E4621036E660ECC
:102C70004225E96E030E4321EA6EEFCF49F803C007
:102C8000EAFF01C0E9FF49C8EFFF422BD8B4432B4C
:102C9000D8D7412B50EF10F03E530EE13F530CE1DB
:102CA0000701AD5305E1AE53D8A402D0080104D00A
:102CB000010E06019C6F08010701FC2BD8B4FD2B07
:102CC00008013E530DE13F530BE1010E0501875D05
:102CD00008013E6F000E0501885908013F6F04D0BE
:102CE0003E51D8B43F073E0700015DEF20F00801D8
:102CF00050510308D8A06AD104E14F51E708D8A089
:102D000065D15031036E4F31026E0332023203320D
:102D1000023202C054F84F51070B556F545140080E
:102D200003E2020E016ECED15551F80FD8B04DD14D
:102D3000080F000165EF18F008015C6B54C85BF8E0
:102D40005E6B0D0E5D6F000184EC06F002C057F85B
:102D500001C056F8210E08010124E96E000E022080
:102D6000EA6E536BEFCF52F830D108015C6B54C858
:102D70005BF85E6B0D0E5D6F000184EC06F002C027
:102D800057F801C056F8010E08010124016E000E2B
:102D90000220036E0150210FE96E000E0320EA6E3F
:102DA000ECCF53F8ED52EFCF52F80FD108015C6B26
:102DB00054C85BF85E6B0D0E5D6F000184EC06F08D
:102DC00002C057F801C056F8030E08010124016E35
:102DD000000E0220036E0150210FE96E000E032049
:102DE000EA6E536BEFCF52F8F0D008015C6B54C819
:102DF0005BF85E6B0D0E5D6F000184EC06F002C0A7
:102E000057F801C056F8040E08010124016E000EA7
:102E10000220036E0150210FE96E000E0320EA6EBE
:102E2000536BEFCF52F8D1D008015C6B54C85BF8FC
:102E30005E6B0D0E5D6F000184EC06F001C056F86C
:102E4000050E08010124016E000E0220036E0150E0
:102E5000210FE96E000E0320EA6EEFCF56F8ECCF9B
:102E600057F8ECCF58F8ECCF5AF85C6B54C85BF8C5
:102E70005E6B0D0E5D6F000184EC06F001C05BF827
:102E8000050E08010124016E000E0220036E0150A0
:102E9000210FE96E000E0320EA6EEFCF5BF8ECCF56
:102EA0005CF8ECCF5DF8ECCF5EF85DC85FF85AC80F
:102EB00053F85DC852F889D008015C6B54C85BF8C0
:102EC0005E6B0D0E5D6F000184EC06F001C056F8DC
:102ED000050E08010124016E000E0220036E015050
:102EE000210FE96E000E0320EA6EEFCF56F8ECCF0B
:102EF0005AF8ECCF58F8ECCF59F85C6B54C85BF833
:102F00005E6B0D0E5D6F000184EC06F001C05BF896
:102F1000050E08010124016E000E0220036E01500F
:102F2000210FE96E000E0320EA6EEFCF5BF8ECCFC5
:102F30005CF8ECCF5DF8ECCF5EF85BC85FF85AC880
:102F400053F85BC852F841D008015C6B54C85BF879
:102F50005E6B0D0E5D6F000184EC06F002C057F849
:102F600001C056F8090E08010124016E000E02206E
:102F7000036E0150210FE96E000E0320EA6EECCFC4
:102F800053F8ED52EFCF52F820D008015C6B54C8D3
:102F90005BF85E6B0D0E5D6F000184EC06F002C005
:102FA00057F801C056F80B0E08010124016E000EFF
:102FB0000220036E0150210FE96E000E0320EA6E1D
:102FC000536BEFCF52F801D0080163D04F51006E20
:102FD0005051036E030E035C05E1E80E005C000136
:102FE00032E00801030E035C05E1E90E005C00011C
:102FF0002FE00801030E035C05E1EA0E005C00010E
:103000002DE00801030E035C05E1EB0E005C0001FE
:103010002AE00801030E035C05E1EC0E005C0001F0
:1030200026E00801030E035C05E1ED0E005C0001E3
:1030300023E00801040E035C05E14C0E005C000176
:103040001FE0080123D00801536B81C552F821D03D
:1030500083C553F882C552F808011BD00801536B91
:10306000520E526F16D00801536B526B12D00801EA
:10307000536B340E526F0DD00801536B526B09D055
:1030800085C553F884C552F8080103D0020E016EBD
:1030900019D06A0E5125E96E040EEA6ED8B0EA2AFC
:1030A00053C8EFFF010E51256A0FE96E040EEA6E58
:1030B000D8B0EA2A52C8EFFF020E05018027000EA1
:1030C000016E0801000192EF18F0E824F76AF73664
:1030D000E50FF66E300EF7220A00F550FA6E080082
:1030E000F550F96E382D6A2DAC2DEA2D282EB82E0C
:1030F000482F8A2F08014B6B4A6B49514A5D17E2F2
:103100004B5315E14A5147254C6F000E48214D6F36
:10311000D8904A354E6F4DC850F84CC84FF8516F93
:103120000001E5D501C04BF808014A2BE6D74BC892
:1031300001F00001C2EF1AF0CE0EF66E060EF76E29
:103140000D0E0801596F000174EC05F0100EE96EC8
:103150004CC854F84BC853F89AEC05F0DE0EF66EE6
:10316000060EF76E070E0801596F000174EC05F0AA
:10317000100EE96E4EC854F84DC853F89AEC05F09D
:103180000D0EA4A8FED7796E0A0EA4A8FED7796EFC
:10319000030163531BE008014B51E80809E14C515E
:1031A000030806E14DC881F5000E016EA9D10DD0CE
:1031B0004B51E9080AE14C51030807E14EC883F579
:1031C0004DC882F5000E016E9BD1030108014C51E0
:1031D0000308D8A002D104E14B51E708D8A0FDD0E4
:1031E0004C31036E4B31026E033202320332023233
:1031F00002C04FF84B51070B506F4F51400803E28C
:10320000020E016E7DD15051F80FD8B0E5D0080FF5
:10321000000183EF1AF008015C6B4FC85BF85E6B2E
:103220000D0E5D6F000184EC06F002C054F801C081
:1032300053F8210E08010124E96E000E0220EA6E07
:103240004DC8EFFFC9D008015C6B4FC85BF85E6BDF
:103250000D0E5D6F000184EC06F002C054F801C051
:1032600053F8010E08010124016E000E0220036EC6
:103270000150210FE96E000E0320EA6E4EC8ECFFEC
:10328000ED524DC8EFFFA8D008015C6B4FC85BF84A
:103290005E6B0D0E5D6F000184EC06F002C054F809
:1032A00001C053F8030E08010124016E000E022034
:1032B000036E0150210FE96E000E0320EA6E4DC827
:1032C000EFFF8AD008015C6B4FC85BF85E6B0D0E98
:1032D0005D6F000184EC06F002C054F801C053F8A1
:1032E000040E08010124016E000E0220036E01503D
:1032F000210FE96E000E0320EA6E4DC8EFFF6CD07F
:103300004EC852F84DC851F8080166D008015C6BF0
:103310004FC85BF85E6B0D0E5D6F000184EC06F02C
:1033200001C053F8050E08010124016E000E0220B1
:10333000036E0150210FE96E000E0320EA6EEE527B
:1033400051C8ECFF52C8ECFFED52ED52ED524DC8A2
:10335000EFFF4EC8ECFF000108015C6B4FC85BF843
:103360005E6B0D0E5D6F000184EC06F002C054F838
:1033700001C053F8090E08015325016E000E5421B7
:10338000036E0150210FE96E000E0320EA6E4EC855
:10339000ECFFED524DC8EFFF1FD008015C6B4FC82A
:1033A0005BF85E6B0D0E5D6F000184EC06F002C0F1
:1033B00054F801C053F80B0E08010124016E000EF1
:1033C0000220036E0150210FE96E000E0320EA6E09
:1033D0004DC8EFFF01D008018FD04B51006E4C510A
:1033E000036E040E035C05E14C0E005C000122E05C
:1033F0000801070E035C05E1CD0E005C00011FE033
:103400000801070E035C05E1CE0E005C000118E028
:103410000801070E035C05E1CF0E005C000126E009
:1034200008014E0E035C05E11F0E005C000146E042
:1034300008015FD04EC885F54DC884F55ED0FF0009
:1034400008014D51CE0803E14E51070803E0030E79
:10345000016E56D000016EEC06F0BEEC06F0EC0EEC
:10346000F66E060EF76E89EC05F047D008014D2D7B
:1034700002D04E5303E0030E016E42D0000144EC33
:1034800006F095EC06F0060EF66E070EF76E170EB8
:103490000801596F000174EC05F0100EE96E85C546
:1034A00054F884C553F89AEC05F00D0EA4A8FED785
:1034B000796E0A0EA4A8FED7796E1FD008014D516F
:1034C0000A0803E14E51070806E00301636B030E8F
:1034D000016E080115D0010E0301636FC80E646F01
:1034E00000010BD0240EF66E070EF76E89EC05F086
:1034F0000801020E016E04D00001000E016E0801E9
:103500000001E7EF1AF0E824F76AF736210FF66EAC
:10351000350EF7220A00F550FA6E0800F550F96EE4
:10352000163246328832C43200330C3358339A3361
:103530000501806B7751006E7851036E035005E1F1
:10354000030E005C000117E00501035005E1040EC5
:10355000005C000110E00501035005E1060E005C6F
:10356000000113E00501035005E1070E005C0001B6
:1035700031E0050131D07AC548F879C547F87BC5F7
:1035800049F8B8D501C07FF52AD06A0E05017C251F
:10359000E96E040EEA6ED8B0EA2AEFCF47F8010EC2
:1035A0007C256A0FE96E040EEA6ED8B0EA2AEFCFE6
:1035B00048F847C84AF848C849F87AC54CF879C568
:1035C0004BF847C84EF848C84DF80001B5D501C0C2
:1035D0007FF505D004D00501010E7F6F806B0001DF
:1035E00016EF1FF048C853F8020E0801546F00018F
:1035F00030EC0DF04AC84DF84AC856F81BEC0DF0F7
:1036000049C84DF849C856F81BEC0DF04CC84DF8A8
:103610004CC856F81BEC0DF04BC84DF84BC856F88B
:103620001BEC0DF044EC0DF0080148532AE00001BA
:103630005EEC0DF0015219E1FF0E05018B27D8A0B9
:103640008C27D8A08D27D8A08E278B5309E18C53C7
:1036500007E18D5305E18E53D8A402D0000105D0B7
:10366000040000000801E3D7000105018B5308E1C5
:103670008C5306E18D5304E18E5302E10C0E966FDC
:10368000080105018E6B010E8D6F860E8C6FA00EEA
:103690008B6F96C501F000010EEF1DF049C853F87D
:1036A000050E0801546F000130EC0DF04BC84DF8C9
:1036B0004BC856F81BEC0DF04AC84DF84AC856F8EE
:1036C0001BEC0DF008014C5306E0566900011BECA1
:1036D0000DF005D00801566B00011BEC0DF0080140
:1036E000566B00011BEC0DF044EC0DF00801495342
:1036F0002AE000015EEC0DF0015219E1FF0E050118
:103700008B27D8A08C27D8A08D27D8A08E278B53A5
:1037100009E18C5307E18D5305E18E53D8A402D003
:10372000000105D0040000000801E3D700010501F5
:103730008B5308E18C5306E18D5304E18E5302E173
:103740000C0E966F080105018E6B010E8D6F860EB3
:103750008C6FA00E8B6F96C501F000014FEF1DF02E
:103760004CC853F8060E0801546F000130EC0DF000
:103770004EC851F84EC856F81BEC0DF04DC851F824
:103780004DC856F81BEC0DF050C851F850C856F80B
:103790001BEC0DF04FC851F84FC856F81BEC0DF05C
:1037A00044EC0DF008014C532AE000015EEC0DF0F2
:1037B000015219E1FF0E05018B27D8A08C27D8A054
:1037C0008D27D8A08E278B5309E18C5307E18D53A9
:1037D00005E18E53D8A402D0000105D004000000FA
:1037E0000801E3D7000105018B5308E18C5306E182
:1037F0008D5304E18E5302E10C0E966F0801050112
:103800008E6B010E8D6F860E8C6FA00E8B6F96C522
:1038100001F000017AEF1DF0D89008014D35026EDD
:103820004E3502C052F84AC853F8100E546F0001CA
:1038300030EC0DF04CC853F84CC856F81BEC0DF0AA
:103840004BC853F84BC856F81BEC0DF04EC853F854
:103850004EC856F81BEC0DF04DC853F84DC856F83D
:103860001BEC0DF052C856F81BEC0DF00801516B23
:103870004E5303E14D51515D34E2036A51C802F0E9
:10388000D8900236033602504F25E96E505103207E
:10389000EA6EECCF54F8ED52EFCF53F853C855F819
:1038A00053C856F800011BEC0DF0036A080151C81B
:1038B00002F0D8900236033602504F25E96E50517F
:1038C0000320EA6EECCF54F8ED52EFCF53F854C812
:1038D00055F854C856F800011BEC0DF00801512BA7
:1038E000C7D7000144EC0DF008014A532AE000015B
:1038F0005EEC0DF0015219E1FF0E05018B27D8A0F7
:103900008C27D8A08D27D8A08E278B5309E18C5304
:1039100007E18D5305E18E53D8A402D0000105D0F4
:10392000040000000801E3D7000105018B5308E102
:103930008C5306E18D5304E18E5302E10C0E966F19
:10394000080105018E6B010E8D6F860E8C6FA00E27
:103950008B6F96C501F0000199EF1DF005017751BD
:10396000006E7851036E035004E10052000135E00F
:103970000501035005E1010E005C00012FE0050187
:10398000035005E1020E005C00013CE0050103501C
:1039900005E1030E005C000148E00501035005E16C
:1039A000040E005C000155E00501035005E1050E21
:1039B000005C000162E00501035006E1060E005CB8
:1039C0000001D8B473D00501035006E1070E005C76
:1039D0000001D8B496D00501B4D0E3D075C549F83C
:1039E0007AC54BF879C54AF808014D6B7BC54CF890
:1039F00000017DEC0FF001C07FF5010E0801476F5B
:103A000005019FD075C548F87AC54AF879C549F8C7
:103A100008014C6B7BC54BF80001E4D501C07FF574
:103A2000010E0801476F05018CD075C549F87AC5AC
:103A30004BF879C54AF808014D6B7BC54CF800017D
:103A4000C4EC0DF001C07FF5010E0801476F0501C0
:103A500078D075C549F87AC54BF879C54AF8080198
:103A60004D6B7BC54CF8000170EC0DF001C07FF58B
:103A7000010E0801476F050164D06A0E05017C251F
:103A8000E96E040EEA6ED8B0EA2AEFCF4CF875C59D
:103A900049F87AC54BF879C54AF80001FFD501C04D
:103AA0007FF5020E0801476F05014BD06A0E050134
:103AB0007C25E96E040EEA6ED8B0EA2AEFCF48F80A
:103AC000010E7C256A0FE96E040EEA6ED8B0EA2A70
:103AD000EFCF49F848C84BF849C84AF875C54CF8C3
:103AE0007AC54EF879C54DF848C850F849C84FF81E
:103AF000000136D601C07FF5020E0801476F0001B4
:103B000050D06A0E05017C250801486F040E496FEC
:103B1000D8B0492B75C54AF87AC54CF879C54BF829
:103B20004E6B7BC54DF849C850F848C84FF80001A6
:103B300073D601C07FF5020E0801476F000131D036
:103B400005010801472D1DD005017F53D8B402D0CF
:103B5000080117D0010E945D806F010E945D08017D
:103B6000486F040EEA6E6A0EE96E050EE26E980E5C
:103B7000E16E4851016E04E0E6CFEEFF012EFCD766
:103B800010D0475102080DE105017F53D8B402D08F
:103B9000080107D0020E806F9AC56AF49BC56BF4CA
:103BA000080100011AEF1FF0230E0801476F81C5BD
:103BB00048F883C549F8080182C54AF808014B69ED
:103BC000140E4C6F0D0E05018025020F0801546F75
:103BD000556BD8B0552B55C84DF854C84EF870C524
:103BE0004FF808016FC550F808016EC551F808017B
:103BF0006DC552F808017FC553F85C695B69080E12
:103C00005E6F480E5D6F0C0E5F6F000118EC0EF0DA
:103C100002C055F801C054F855C85CF854C85BF8A8
:103C2000040E08015E6F6A0E5D6F80C55FF80001CB
:103C300018EC0EF002C055F801C054F80801566B9C
:103C400056510C0810E3036A5651470FE96E080EEF
:103C50000320EA6EEFCF57F85751000147EC0EF002
:103C60000801562BEDD7566B050180510801565DB2
:103C700010E26A0E5625E96E040EEA6ED8B0EA2A02
:103C8000EFCF57F85751000147EC0EF00801562BC3
:103C9000EBD755C857F85751000147EC0EF054C800
:103CA00057F808015751000147EC0EF01BEF1FF0C9
:103CB0006EC46CF5020E05016C5D6A0FE96E040EB0
:103CC000EA6ED8B0EA2AEFCF7EF5010E6C5D6A0F7E
:103CD000E96E040EEA6ED8B0EA2AEFCF7DF5030E46
:103CE0006C5D0801476F5C695B69040E5E6F6B0E6B
:103CF0005D6F47C85FF8000118EC0EF002C046F88F
:103D000001C045F805017D510801455D05E105014A
:103D10007E510801465D01E08FD004016F51130808
:103D200003E0080189D0040170C470F571C46FF517
:103D300072C46EF573C46DF574C474F575C473F50F
:103D400076C472F577C471F578C476F579C475F5E3
:103D50007AC478F57BC477F57CC47AF57DC479F5AF
:103D60007EC47BF5150E05017C6F806B0801446BEA
:103D700081C543F882C541F883C542F83A0EF66E14
:103D8000070EF76E0F0E596F000174EC05F0050178
:103D90008151A4A8FED7796E100EE96E83C554F840
:103DA00082C553F800019AEC05F00D0EA4A8FED7C9
:103DB000796E0A0EA4A8FED7796E73C547F8520E25
:103DC000F66E070EF76E0F0E0801596F000174ECC6
:103DD00005F008014751A4A8FED7796E100EE96ED0
:103DE00072C554F871C553F800019AEC05F00D0E38
:103DF000A4A8FED7796E0A0EA4A8FED7796E050195
:103E000071510801415D14E1050172510801425DE3
:103E10000FE1050173510801435D0AE10501745189
:103E20000801445D05E1000198EF1AF003D0080194
:103E3000000194D5B9D60801000163EF20F0F86ABB
:103E4000D09E078E620ED36E9B6A646A206AB98622
:103E5000220E7B6E000E7C6EA60EBA6E900EA66EC3
:103E600094869488040EC86E280EC66EC79EC79CA2
:103E700005018A6B896BA7960C0EAF6EA20EAC6E15
:103E8000900EAB6E8E6B010E8D6F860E8C6FA00E3A
:103E90008B6F8F91906B0F015C51800B5C6F000EEC
:103EA0005D6FC196C198C19A5E6B5F6B07D00200CF
:103EB0001A0000FF469600ABC0000000000EF86E2E
:103EC0003E0EF76EAE0EF66E0900F550006E000A5B
:103ED00013E00900F550016EE8BE05D03F0BEA6E15
:103EE0000900F5CFE9FF01BC090001AC0900F5CFDD
:103EF000EEFF004EE9D7F9D7F86A000108EF05F0A8
:103F00000801406B405195081AE30400939A8A8A8D
:103F1000640E416F0001F0EC04F0939A8A9A640EEB
:103F20000801416F0001F0EC04F0080140514B081A
:103F300004E200013DEC05F00801402BE3D7520EEE
:103F4000F66E080EF76E0F0E596F000174EC05F057
:103F50006E0EF66E080EF76E89EC05F0200EA4A822
:103F6000FED7796E280EA4A8FED7796E050181517F
:103F7000A4A8FED7796E100EE96E83C554F882C5E9
:103F800053F800019AEC05F06A0EF66E080EF76E13
:103F9000030E0801596F000174EC05F0780EF66EFF
:103FA000080EF76E89EC05F0070E005C12E00B0EB0
:103FB000005C16E00F0E005C1AE00C0E005C1EE0C8
:103FC0000E0E005C22E0030E005C26E000522BE0A7
:103FD00031D08A0EF66E080EF76E89EC05F030D0FF
:103FE000960EF66E080EF76E89EC05F029D0A60E37
:103FF000F66E080EF76E89EC05F022D0B40EF66E60
:10400000080EF76E89EC05F01BD0C40EF66E080E94
:10401000F76E89EC05F014D0D60EF66E080EF76E2A
:1040200089EC05F00DD0E60EF66E080EF76E89EC01
:1040300005F006D0F80EF66E080EF76E89EC05F066
:104040000D0EA4A8FED7796E0A0EA4A8FED7796E2D
:10405000C00EF2126EEC06F0BEEC06F029EF07F08F
:10406000AAEF07F0F7EF07F026EF08F013EC0AF0DD
:1040700004000501865318E00701B2530BE100016B
:104080005CEF0AF00152D8A402D0070103D066EF1A
:104090000AF0070106019C5306E000013DEC05F023
:1040A00075EF0BF0060105010301615307E0616B39
:1040B000C80E646F000117EF10F0030105016B5388
:1040C00005E00001F5D581EC04F005010001D0D731
:0240D0000300EB
:020000040030CA
:0E00000015086727000991000FC000E00040BE
:00000001FF
;PIC18F25K80
;CRC=907D  CREATED="22-Jun-22 13:42"
