:04000000C2EF18F043
:08000800046ED8CF05F0E0CF33
:1000100006F00001E9CF0CF0EACF07F0E1CF08F0DD
:10002000E2CF09F0D9CF0AF0DACF0BF0F3CF12F01C
:10003000F4CF13F0FACF14F0F5CF15F0F6CF16F099
:10004000F7CF17F000C00EF001C00FF002C010F0A3
:1000500003C011F09DA230EF00F09EB240EF02F01D
:100060009DAA36EF00F09EBA7AEF02F0A3AA3CEF09
:1000700000F0A4BA00EF03F0B6AE42EF00F0B7BE56
:10008000C7EF02F00EC000F00FC001F010C002F088
:1000900011C003F00CC0E9FF07C0EAFF078E08C0DB
:1000A000E1FF09C0E2FF0AC0D9FF0BC0DAFF12C0AE
:1000B000F3FF13C0F4FF14C0FAFF15C0F5FF16C01C
:1000C000F6FF17C0F7FF045006C0E0FF05C0D8FFD9
:1000D0001000F76AE20FF66E000EF7220900F550E5
:1000E000120000C1814001C0804101C0804100C1B7
:1000F000814001C0804100C1814000C1814001C0F8
:10010000804101C0804100C1814000C1814001C0E7
:10011000804100C1814001C0804101C0804100C1D7
:10012000814001C0804100C1814000C1814001C0C7
:10013000804100C1814001C0804101C0804100C1B7
:10014000814000C1814001C0804101C0804100C1A7
:10015000814001C0804100C1814000C1814001C097
:10016000804101C0804100C1814000C1814001C087
:10017000804100C1814001C0804101C0804100C177
:10018000814000C1814001C0804101C0804100C167
:10019000814001C0804100C1814000C1814001C057
:1001A000804100C1814001C0804101C0804100C147
:1001B000814001C0804100C1814000C1814001C037
:1001C000804101C0804100C1814000C1814001C027
:1001D000804100C1814001C0804101C0804100C117
:1001E0008140F76AF20FF66E010EF7220900F55012
:1001F000120000C0C101C30302C2C60607C705C57D
:10020000C404CC0C0DCD0FCFCE0E0ACACB0BC9093E
:1002100008C8D81819D91BDBDA1A1EDEDF1FDD1D4E
:100220001CDC14D4D515D71716D6D21213D311D17E
:10023000D010F03031F133F3F23236F6F737F535CE
:1002400034F43CFCFD3DFF3F3EFEFA3A3BFB39F9FE
:10025000F83828E8E929EB2B2AEAEE2E2FEF2DEDCE
:10026000EC2CE42425E527E7E62622E2E323E1213E
:1002700020E0A06061A163A3A26266A6A767A5654E
:1002800064A46CACAD6DAF6F6EAEAA6A6BAB69A9BE
:10029000A86878B8B979BB7B7ABABE7E7FBF7DBDCE
:1002A000BC7CB47475B577B7B67672B2B373B171FE
:1002B00070B05090915193535292965657975595CE
:1002C00094549C5C5D9D5F9F9E5E5A9A9B5B99597E
:1002D0005898884849894B8B8A4A4E8E8F4F8D4D4E
:1002E0004C8C4484854587474686824243834181BE
:1002F00080402320726561645F706172616D5F662A
:10030000696C6520435243206D69732D6D61746380
:10031000682E2057726974696E67206E6577206455
:10032000656661756C74210D0A0023206469736130
:10033000626C696E6720616C6C20646576696365C8
:10034000730D0A00232077726974655F64657669AE
:1003500063655F66696C6528290D0A002320726554
:1003600061645F6465766963655F66696C65206377
:1003700072633D25750D0A002320726561645F6418
:1003800065766963655F66696C6520435243206DDD
:1003900069732D6D617463682E2057726974696E7C
:1003A00067206E65772064656661756C74210D0A3F
:1003B0000000232064756D70696E6720616C6C208D
:1003C000656E61626C656420646576696365733A25
:1003D0000D0A00006465766963655B25755D0D0A2D
:1003E000000009747970653D25750D0A00000974D7
:1003F00072616E736D697445766572793D25750D10
:100400000A00096E6574776F726B4164647265737C
:10041000733D25750D0A00000973657269616C4EA4
:10042000756D6265723D30782530327825303278CE
:1004300025303278253032780D0A00000973746156
:10044000727452656769737465723D256C750D0A27
:100450000000096E5265676973746572733D257596
:100460000D0A00002320646F6E650D0A00009D9246
:100470000801635303E0CC6A9E929D820001120042
:100480000501905102080AE1915308E1925306E1F7
:100490008FB104D0020E945F8F8101D08F91926949
:1004A0009169906B0801636B0001E1DF9E9242EF5E
:1004B00000F09EAAFED7ABCF20F0AECF01F020A275
:1004C00002D0AB98AB881200050192510801631964
:1004D000646F036A64510001FCDD016E05019151F6
:1004E0000118926F036A0801645100017ADEE8CFB7
:1004F00091F51200DEDF01C062F805018FB12BD04B
:10050000905308E19269916962C893F5902B946BBE
:10051000966B17D0902D04D062C895F5902B11D012
:10052000905102080EE1943D02D0FE0E946F970E9A
:100530009425E96E050EEA6ED8B0EA2A62C8EFFF8C
:10054000942B62C863F80001BFDF010E0801636FDE
:1005500000018DDF05019E9A000142EF00F0415439
:1005600045300D004154264B300D000041542B53B3
:10057000424457423D256C750D0041542B53424473
:1005800049580D0041542B53424444300D0007019B
:10059000F42BF451640818E1F46BF52BD8B4F62B66
:1005A000050185510701F65D0CE305E10501845164
:1005B0000701F55D06E3F66BF56B010E0301616F54
:1005C0000701B05301E0B0070301623D01D001D043
:1005D000622B645303E1939A8A9A03D0939A8A8A8E
:1005E0006407B79E000142EF00F0A4AAFED7A6CF91
:1005F00020F07ACF01F020A202D0A698A68812009F
:1006000005016B5303E00001F0DF050103016251B6
:100610000A0803E205016A6B0301626B05016A5374
:1006200036E1F8C7F7F7F9C7F8F7FAC7F9F7FBC7E4
:10063000FAF70001DADF01C0FBF70701F7512308E1
:1006400024E1F8510501815DD8B402D007011DD025
:10065000F9C703F00701FA510501825DD8B402D051
:10066000070113D00350835DD8B402D007010DD029
:10067000F7C76AF4F8C76BF4F9C76CF4FAC76DF4FE
:10068000FBC76EF4050E6A6F07011DD005016A51A4
:100690006A2B6A0FE96E040EEA6ED8B0EA2AEACF36
:1006A00065F8E9CF64F80001A0DF65C8EAFF64C817
:1006B000E9FF01C0EFFF04016E5105016A5D02E12F
:1006C000010E6B6F0701A49A000142EF00F00501D3
:1006D0006A6B6B6B0001120093988A8893908A80F2
:1006E00017EF04F0C69E9E9652C8C9FF020EC6BE02
:1006F00005D09EA6FED7000EC5BC010E016E1200ED
:10070000C580C5B0FED70400090E006E002EFED7CE
:1007100000009A0E0801526F0001E4DF08014F3516
:10072000516F51375137F80E511751C852F8000127
:10073000D9DF50C852F8D6DFC584C5B4FED7120041
:10074000030E08014F6F800E506F0001D9DF0801C2
:100750004F6B41C850F80001D3DF010E08014F6F05
:10076000506B0001CDDF030E08014F6FBF0E506FBD
:100770000001C6DF020E08014F6F100E506F00011E
:10078000BFDF030E08014F6F506F0001B9DF010E8C
:1007900008014F6F506B0001B3DF020E08014F6F6D
:1007A000070E506F0001ACDF1CEF04F0080EEA6E7C
:1007B000410EE96EEF5011E0020E016EBF0E006EA9
:1007C0000400002EFDD7012EF9D7960E006E002EE4
:1007D000FED700D00400EF2EEFD71200620ED36ECA
:1007E0009B6A646A0F015C51800B5C6F000E5D6F49
:1007F000C196C198C19AD1805D691F0E5C6FF00EE1
:10080000BB1650174D174A174717949A8B9A780EB4
:100810000609886E4D0EA96EB68E010E0301616F3A
:100820006269636B646B000152DFA38A55D7060EC1
:100830000801416F000184D70E0E0801416F0001CD
:10084000B5DF23EF19F0010E0501865DFB0F19E2FC
:10085000050F000148EF04F092908980050111D046
:100860009292898205010DD092948984050109D064
:1008700092968986050105D0929A898A050101D050
:100880000501040E08014F6F506B000139DF1200A3
:10089000E824F76AF736AB0FF66E080EF7220A0067
:1008A000F550FA6E0800F550F96E580860086808AF
:1008B0007008780808015D6B5CC85FF85B51D8B4BC
:1008C0005C075B075E6F5E5302E15F533FE004002D
:1008D0005AC803F05951E96E03C0EAFFEFCF5EF842
:1008E0005DC85FF85EC860F85F516019016E01C0B5
:1008F0005DF85851036E5751572BD8B4582B5E6F83
:1009000003C05FF85A51036E5951592BD8B45A2B72
:10091000E96E03C0EAFFEFCF60F8F250006EF29E7E
:100920005FC875FF5EC874FF60C873FF7F9C7F9EC1
:100930007F840F01550E7E6EAA0E7E6E7F827FB27F
:10094000FED77F940050F2120801B6D75DC801F0BF
:1009500000011200050E0801556F810E546F586B8F
:10096000040E576F55C85AF854C859F85C6B080EF6
:100970005B6F00019FDF01C053F8F250006EF29EE2
:10098000756A746A53C873FF7F9C7F9E7F840F01D2
:10099000550E7E6EAA0E7E6E7F827FB2FED77F944A
:1009A0000050F21200011200960E0301646F410E16
:1009B0000501816F120E836FBD0E826F856B3C0E39
:1009C000846F050E866F886FA00E876F0001C2DFEF
:1009D00012000900F5520DE0F6CF54F8F7CF55F8A4
:1009E000F550A4A8FED7796E54C8F6FF55C8F7FF96
:1009F000F0D7120008015B515D03F3CF01F0F4CF93
:100A000000F05E03F35000265C515D03F3500020BC
:100A1000026E000112000801210E556F586B800E06
:100A2000576F5A6B55C859F8030E5C6F400E5B6FD9
:100A3000000140DF01C054F8F250006EF29E756A6A
:100A4000020E746E54C873FF7F9C7F9E7F840F01DB
:100A5000550E7E6EAA0E7E6E7F827FB2FED77F9489
:100A60000050F21200011200960E0301646F2A0E6C
:100A7000F66E030EF76E0001ACDF0801536B5351A5
:100A80003F0812E35C6B53C85BF85E6B0D0E5D6F45
:100A90000001B0DF210E08010124E96E000E0220E2
:100AA000EA6EEF6A532BEBD7100E216E7D0E236E8C
:100AB000226A010E246E3E0E256E296A410E286EB2
:100AC000120E276EB60E266E2B6A2A6A060E2C6E42
:100AD000100E2E6E7D0E306E2F6A010E316E360EA8
:100AE000326E366A410E356E120E346EB70E336EAC
:100AF000386A376A200E396E100E3B6E7D0E3D6EE1
:100B00003C6A010E3E6E380E3F6E436A410E426EE5
:100B1000120E416EB80E406E456A446A200E466E53
:100B2000440EF66E030EF76E000153DF74DF120001
:100B300008014A6B49C84CF84851D8B449074807DE
:100B40004B6F4B5302E14C5332E047C803F0465120
:100B5000E96E03C0EAFF4551036E4451442BD8B4FB
:100B6000452B4D6F03C04EF8F2CF4FF8F29E4EC8A2
:100B700075FF4DC874FF7F9C7F9E7F8073504FBF71
:100B8000F28EEF6E47C803F04651E96E03C0EAFFEC
:100B9000EFCF4BF84AC85FF84BC860F85F51601957
:100BA000016E01C04AF8462BD8B4472BC3D74AC8B8
:100BB00001F000011200050E0801436F810E426F23
:100BC000456B040E446F43C847F842C846F8496B6A
:100BD000080E486F0001ACDF01C041F8F2CF42F8C7
:100BE000F29E756A746A7F9C7F9E7F8073500801B5
:100BF00042BFF28E415D08E0F20EF66E020EF76E15
:100C00000001E7DED1DE080100014BEF19F0090019
:100C1000F6CF43F8F7CF44F8F550A4A8FED7796E85
:100C200043C8F6FF44C8F7FF0801422F01D002D0A5
:100C30000001EDD700018DEF06F008014551016A72
:100C4000445D03E244C800F00CD0006A080E466F11
:100C5000443700364551005CD8B0006E0136462F4F
:100C6000F7D700011200015042C844F8640E080191
:100C7000456F0001E2DF00C042F80150300E08E18C
:100C8000080143A30ED043B70CD043B9200E04D0C3
:100C9000080143974399438101260150A4A8FED738
:100CA000796E42C844F80A0E456F0001C6DF00C0E5
:100CB00042F80150300E08E1080143B70BD043A1C0
:100CC00009D043B9200E000101260150A4A8FED787
:100CD000796E0801300E42274251A4A8FED7796EE2
:100CE000000194EF06F00801210E426F456B800E63
:100CF000446F476B42C846F8030E496F400E486F79
:100D0000000116DF01C041F85C0EF66E030EF76EAF
:100D1000170E0801426F00017AD741C842F81B0E36
:100D20000801436F00019FD70D0EA4A8FED7796E6E
:100D30000A0EA4A8FED7796EF2CF42F8F29E756A29
:100D4000020E746E7F9C7F9E7F807350080142BFAD
:100D5000F28E415D08E0780EF66E030EF76E00012C
:100D600038DE82DE080100014DEF19F09EAA03D0A3
:100D700059EC02F0FBD7AE50949A8B9A9D8A1200E0
:100D8000949A8B9AF3DF480E0609CA6EF90ECB6E61
:100D9000C00EF2124FEF19F00701B26BF36B0001B6
:100DA0001200C69CC586C5B6FED700B0C59A00A085
:100DB000C58AC588C5B8FED7C9CF01F01200C58065
:100DC000C5B0FED70400090E006E002EFED700004D
:100DD0009A0E0801526F000185DC08014235446F0C
:100DE00044374437F80E441744C852F800017ADCFF
:100DF000C582C5B2FED70400090E006E002EFED7D4
:100E000000009B0E0801526F00016CDC006AC9DF14
:100E100001C043F8C584C5B4FED7080143C801F03A
:100E200000011200050E0801426F0001C8DF0150E9
:100E3000010B016E5BEF19F00801426B0001BFDF8F
:100E4000015001C041F8080141510D0801E12ED0C7
:100E50000701B2532AE1080141510A0808E10701DC
:100E6000F353D8B402D0080102D008011FD0415179
:100E70000A080DE1B30E0701F325E96E070EEA6ECD
:100E8000D8B0EA2AEF6A010EB26F08010FD007014D
:100E9000F3513E080AE3B30EF325E96E070EEA6E3E
:100EA000D8B0EA2A41C8EFFFF32B0801000162EF36
:100EB00019F008014F6B4EC850F8000121DC1200F8
:100EC0000900F5520CE0F6CF45F8F7CF46F8F5CF1C
:100ED0004EF8EFDF45C8F6FF46C8F7FFF1D712001E
:100EE0000900F6CF46F8F7CF47F8F5CF4EF8E1DF27
:100EF00046C8F6FF47C8F7FF0801452F01D002D0CA
:100F00000001EED700017EEF08F0EACF4DF8E9CFFF
:100F10004CF808014639F009486F4827E20F496F3D
:100F2000320F4B6F46510F0B492749274B27E90FCB
:100F30004A6F4A274A2745390F0B4A274B274A371A
:100F40004B374B1F4B3745510F0B4B274837070E7D
:100F5000476F0A0E4A074B27FDE349074A27FDE37F
:100F600048074927FDE347074827FDE3080EEA6ED7
:100F7000470EE96E070E4C154C9DE926000EEA223D
:100F8000E9504B0804E1EA50080801E14C8DEF50AC
:100F9000006E08E14CBD06D04CB915D04CB702D05C
:100FA000200E03D04C874C99300E0026EACF46F82D
:100FB000E9CF45F800C04EF800017BDF46C8EAFFE4
:100FC00045C8E9FF0801EE504CADDAD7000185EFC6
:100FD00008F0010E0501865DFB0F19E2050F000107
:100FE00011EF08F092908990050111D092928992A8
:100FF00005010DD092948994050109D092968996A5
:10100000050105D0929A899A050101D00501040EC7
:1010100008014F6F020E506F000180EC03F0C4EF27
:1010200009F0E824F76AF7363D0FF66E100EF72246
:101030000A00F550FA6E0800F550F96EE40FEC0F57
:10104000F40FFC0F04100701AE6BAD6B06019C6B37
:101050000001120006019C5302E19AD197D19C2D08
:101060000AD0000199DE5E0EF66E050EF76E28DFDF
:1010700006019C2B8BD19C51020811E10701B22D76
:101080000CD0B3514F0806E1B4514B0803E10601FF
:101090009C2B0701000180DE070179D106019C51DC
:1010A00003080AE1000178DE640EF66E050EF76EA5
:1010B00007DF06019C2B6AD19C51040811E107014E
:1010C000B22D0CD0B3514F0806E1B4514B0803E1E7
:1010D00006019C2B070100015FDE070158D10601C4
:1010E0009C5105081AE1000157DE6C0EF66E050EE4
:1010F000F76E090E0801456F0001F2D6100EE96E79
:10110000AEC746F8ADC745F800D70D0E08014E6FC3
:101110000001CFDE06019C2B39D19C5106081AE153
:101120000701B22D15D0B35152080FE1B451450853
:101130000CE1B551410809E1B651440806E1B75147
:10114000590803E106019C2B0701000125DE070178
:101150001ED106019C5107083DE100011DDE08017A
:10116000446B436B426B416B42510701AE5D24E31C
:1011700008E1AD510801415DD8A002D007011CD0A3
:1011800007019D0E08014125E96E060E4221EA6E17
:10119000EFCF4EF800018DDE9D0E08014125E96E6E
:1011A000060E4221EA6EEF504327000E4423412BE6
:1011B000D8B4422BD9D7070144C845F844C84EF8E3
:1011C000000177DE43C845F843C84EF872DE0601D9
:1011D0009C2BDCD09C51080810E10701B22D0BD0EC
:1011E000B351300804E106019C2B04D00701000133
:1011F000D3DD06010701CBD006019C51090811E19E
:101200000701B22D0CD0B3514F0806E1B4514B0881
:1012100003E106019C2B07010001BEDD0701B7D0E9
:1012200006019C510A0812E10701AF5305E0B053D3
:1012300003E00601ADD007010001AEDD7A0EF66EC7
:10124000050EF76E3DDE06019C2BA0D09C510B08CD
:101250002CE10701B22D27D0B3512B0821E1B45165
:1012600053081EE1B55142081BE1B651440818E18C
:10127000B751490815E1B851580812E1BA51200890
:101280000BE1BB512F0808E2BB51320805E3060110
:101290009C2B0701AF6B04D006019C2B0701AF2BE1
:1012A00000017ADD070173D006019C510C0833E17F
:1012B0000701B22D0CD0B3514F0806E1B4514B08D1
:1012C00003E106019C2B0701000166DD0701AF5316
:1012D00020E00A0E06019C6F0701AF2D01D003D05C
:1012E000AF51020803E1030EB06F13D0AF510308F2
:1012F00003E0AF51040803E1150EB06F0AD0AF51FF
:10130000050803E1FB0EB06F04D00D0E06019C6FC3
:1013100007013DD006019C510D080AE100013CDDAA
:10132000840EF66E050EF76ECBDD06019C2B2ED0DB
:101330009C510E0810E10701B22D0BD0B3513008BB
:1013400004E106019C2B04D00701000125DD060104
:1013500007011DD006019C510F0811E10701B22DB4
:101360000CD0B3514F0806E1B4514B0803E106011C
:101370009C2B0701000110DD070109D006019C51DB
:10138000100804E1000125D607DD5DDE0701060136
:1013900000016BEF19F09EA8FED7AD6ED4EF09F0F7
:1013A000080156510001F7D7196AF2BE198EF29E54
:1013B00056C863F864EC02F019BEF28E0400440EC5
:1013C000006E002EFED700D01200050192699169CF
:1013D0008F919D9A949A8B8A0400F20E006E002ED3
:1013E000FED753C856F80001DBDF54C856F8D8DFE3
:1013F000120092C554F891C553F854C856F8D0DF7E
:1014000053C856F8CDDFADA2FED70400F20E006E31
:10141000002EFED7ABDC949A8B9A050192699169F4
:101420000001120005018FB104D0000E016E0AD038
:1014300006D095AF04D097C596F5010E946F8F91A5
:10144000010E016E0001120048C853F8040E080195
:10145000546F0001BADF4AC84DF84AC856F8A0DFF9
:1014600049C84DF849C856F89BDF4CC84DF84CC8E0
:1014700056F896DF4BC84DF84BC856F891DFB9DFE8
:101480000801485329E00001CDDF015219E1FF0EA8
:1014900005018B27D8A08C27D8A08D27D8A08E2710
:1014A0008B5309E18C5307E18D5305E18E53D8A48A
:1014B00002D0000105D0040000000801E4D70001BB
:1014C00005018B5308E18C5306E18D5304E18E53E3
:1014D00002E10C0E966F080105018E6B010E8D6FF7
:1014E000860E8C6FA00E8B6F96C501F00001120066
:1014F00048C853F8030E0801546F000166DF4AC85C
:101500004DF84AC856F84CDF49C84DF849C856F856
:1015100047DF4CC84DF84CC856F842DF4BC84DF871
:101520004BC856F83DDF65DF0801485329E000014C
:1015300079DF015219E1FF0E05018B27D8A08C2716
:10154000D8A08D27D8A08E278B5309E18C5307E1B3
:101550008D5305E18E53D8A402D0000105D00400BC
:1015600000000801E4D7000105018B5308E18C530A
:1015700006E18D5304E18E5302E10C0E966F0801D3
:1015800005018E6B010E8D6F860E8C6FA00E8B6F1A
:1015900096C501F00001120008015E515E07000AC5
:1015A00024E05DC8EAFF5C515C2BD8B45D2BE96E8A
:1015B000EF505A1B5F6B5F51070816E35A51010B3E
:1015C000006E036A005003100AE0D8905B31616F2F
:1015D0005A31010A5A6F6151A00A5B6F03D0D8904B
:1015E0005B335A335F2BE7D7D8D75AC801F05BC8B3
:1015F00002F000011200A4A8FED7796E1200110EAD
:1016000004016625020F0801586F596BD8B0592B99
:10161000230E476F81C548F883C549F8080182C584
:101620004AF808014B69120E4C6F59C84DF858C85A
:101630004EF869C44FF8080168C450F8080167C43F
:1016400046F85C6B46C85BF85E6B0D0E5D6F000183
:10165000FAEC04F001C05AF8010E08010124016EF1
:10166000000E0220036E0150210FE96E000E0320D0
:10167000EA6EECCF51F8ED52EFCF5AF85C6B46C8EA
:101680005BF85E6B0D0E5D6F0001FAEC04F001C0BB
:101690005AF8010E08010124016E000E0220036EAB
:1016A0000150210FE96E000E0320EA6EECCF5BF8CB
:1016B000ED52EFCF52F85C6B46C85BF85E6B0D0ED7
:1016C0005D6F0001FAEC04F001C05AF8050E080144
:1016D0000124016E000E0220036E0150210FE96EFD
:1016E000000E0320EA6EEFCF5AF8ECCF5BF8ECCF98
:1016F0005CF8ECCF53F85C6B46C85BF85E6B0D0E84
:101700005D6F0001FAEC04F001C05AF8050E080103
:101710000124016E000E0220036E0150210FE96EBC
:10172000000E0320EA6EEFCF5AF8ECCF5BF8ECCF57
:1017300054F8ECCF5DF85C6B46C85BF85E6B0D0E41
:101740005D6F0001FAEC04F001C05AF8050E0801C3
:101750000124016E000E0220036E0150210FE96E7C
:10176000000E0320EA6EEFCF5AF8ECCF55F8ECCF1D
:101770005CF8ECCF5DF85C6B46C85BF85E6B0D0EF9
:101780005D6F0001FAEC04F001C05AF8050E080183
:101790000124016E000E0220036E0150210FE96E3C
:1017A000000E0320EA6EEFCF56F8ECCF5BF8ECCFDB
:1017B0005CF8ECCF5DF865C357F85B695A69080EB1
:1017C0005D6F480E5C6F100E5E6F0001E5DE02C0BB
:1017D00045F801C044F845C85BF844C85AF8030E00
:1017E00008015D6F660E5C6F66C45EF80001D4DEB2
:1017F00002C045F801C044F80801466B4651100884
:101800000FE3036A4651470FE96E080E0320EA6EA4
:10181000EFCF5AF85A510001EEDE0801462BEED701
:10182000466B040166510801465D0FE2660E4625CF
:10183000E96E030EEA6ED8B0EA2AEFCF5AF85A5191
:101840000001D9DE0801462BECD745C85AF85A5199
:101850000001D1DE44C85AF808015A510001CBDE1C
:10186000120048C853F8010E0801546F0001ADDDA5
:101870004AC84DF84AC856F893DD49C84DF849C8DA
:1018800056F88EDD4CC84DF84CC856F889DD4BC86B
:101890004DF84BC856F884DDACDD0801485329E00B
:1018A0000001C0DD015219E1FF0E05018B27D8A010
:1018B0008C27D8A08D27D8A08E278B5309E18C5375
:1018C00007E18D5305E18E53D8A402D0000105D065
:1018D000040000000801E4D7000105018B5308E172
:1018E0008C5306E18D5304E18E5302E10C0E966F8A
:1018F000080105018E6B010E8D6F860E8C6FA00E98
:101900008B6F96C501F000011200C580C5B0FED7EF
:101910000400090E006E002EFED7000048C852F8E1
:1019200072EC03F049C852F872EC03F0C582C5B2FC
:10193000FED70400090E006E002EFED7000008013D
:10194000485101094D6F526F000172EC03F008011C
:101950004C514C07010810E04BC8EAFF4AC8E9FFA8
:10196000010E006E0001D1EC06F001C0EFFF08018E
:101970004A2BD8B44B2BECD74BC8EAFF4AC8E9FF37
:10198000006A0001D1EC06F001C0EFFFC584C5B4C8
:10199000FED709EF10F008013E2D08D03F5306E1B5
:1019A000000123EC04F023EC08F008013E532BE186
:1019B0003F5329E1000123EC04F023EC08F0070178
:1019C000AEC703F0AD51AD2BD8B4AE2B0801446FB8
:1019D0009D0E4425E96E060E0320EA6E0701FDC741
:1019E000EFFFAEC703F0AD51AD2BD8B4AE2B08015D
:1019F000446F9D0E4425E96E060E0320EA6E070132
:101A0000FCC7EFFF0801416B41513F08D8A07AD3D2
:101A10000400640E0301646F08015C6B41C85BF84D
:101A20005E6B0D0E5D6F0001FAEC04F002C045F82C
:101A300001C044F8210E08010124E96E000E0220C5
:101A4000EA6EEF5001E15CD3036A4151FE0FE96E8B
:101A5000070E0320EA6EEF2A036A4151FE0FE96E7A
:101A6000070E0320EA6EEFCF44F85C6B41C85BF8C9
:101A70005E6B0D0E5D6F0001FAEC04F002C046F8DB
:101A800001C045F8030E08010124016E000E02207A
:101A9000036E0150210FE96E000E0320EA6EEF5035
:101AA000445D02E22DD308D0036A4151FE0FE96E76
:101AB000070E0320EA6EEF6A41C867F4FDC769F4B8
:101AC000FCC768F45C6B41C85BF85E6B0D0E5D6F24
:101AD0000001FAEC04F002C045F801C044F8210E00
:101AE00008010124E96E000E0220EA6EEF5007089B
:101AF000D8A002D25C6B41C85BF85E6B0D0E5D6FC7
:101B00000001FAEC04F002C045F801C044F80C0EE4
:101B100008010124016E000E0220036E0150210F06
:101B2000E96E000E0320EA6EEF50010808E1A79667
:101B3000190EAF6EA60EAC6E900EAB6E07D0A796C8
:101B40000C0EAF6EA20EAC6E900EAB6E5C6B41C80D
:101B50005BF85E6B0D0E5D6F0001FAEC04F002C0E5
:101B600045F801C044F8210E08010124E96E000E79
:101B70000220EA6EEF50030818E05C6B41C85BF886
:101B80005E6B0D0E5D6F0001FAEC04F002C047F8C9
:101B900001C046F8210E08010124E96E000E022062
:101BA000EA6EEF500408D8A4F8D05C6B41C85BF82B
:101BB0005E6B0D0E5D6F0001FAEC04F002C045F89B
:101BC00001C044F8210E08010124E96E000E022034
:101BD000EA6EEF50040861E15C6B41C85BF85E6B34
:101BE0000D0E5D6F0001FAEC04F002C045F801C073
:101BF00044F8040E08010124016E000E0220036E59
:101C00000150210FE96E000E0320EA6EEFCF44F879
:101C10005C6B41C85BF85E6B0D0E5D6F0001FAEC0A
:101C200004F001C045F8090E08010124016E000E00
:101C30000220036E0150210FE96E000E0320EA6EB0
:101C4000ECCF46F8ED52EFCF45F85C6B41C85BF83E
:101C50005E6B0D0E5D6F0001FAEC04F001C047F8F9
:101C60000B0E08010124016E000E0220036E0150CC
:101C7000210FE96E000E0320EA6EEFCF4BF844C847
:101C800048F846C84AF845C849F84C6B000124ECAE
:101C90000AF001C065F360D008015C6B41C85BF8D5
:101CA0005E6B0D0E5D6F0001FAEC04F002C045F8AA
:101CB00001C044F8040E08010124016E000E022048
:101CC000036E0150210FE96E000E0320EA6EEFCF84
:101CD00044F85C6B41C85BF85E6B0D0E5D6F0001F4
:101CE000FAEC04F001C045F8090E08010124016E68
:101CF000000E0220036E0150210FE96E000E03203A
:101D0000EA6EECCF46F8ED52EFCF45F85C6B41C878
:101D10005BF85E6B0D0E5D6F0001FAEC04F001C024
:101D200047F80B0E08010124016E000E0220036E1D
:101D30000150210FE96E000E0320EA6EEFCF4BF841
:101D400044C848F846C84AF845C849F84C6B0001F1
:101D500078EC0AF001C065F3030165531CE1010E44
:101D60000501945D0401666F010E0501945D080193
:101D7000446F030EEA6E660EE96E050EE26E980E73
:101D8000E16E4451016E04E0E6CFEEFF012EFCD778
:101D9000000135DC0301AED008015C6B41C85BF883
:101DA0005E6B0D0E5D6F0001FAEC04F002C045F8A9
:101DB00001C044F8210E08010124E96E000E022042
:101DC000EA6EEF50010818E05C6B41C85BF85E6B8F
:101DD0000D0E5D6F0001FAEC04F002C047F801C07F
:101DE00046F8210E08010124E96E000E0220EA6E79
:101DF000EF500208D8A47FD05C6B41C85BF85E6BE3
:101E00000D0E5D6F0001FAEC04F002C045F801C050
:101E100044F8040E08010124016E000E0220036E36
:101E20000150210FE96E000E0320EA6EEFCF44F857
:101E30005C6B41C85BF85E6B0D0E5D6F0001FAECE8
:101E400004F001C045F8090E08010124016E000EDE
:101E50000220036E0150210FE96E000E0320EA6E8E
:101E6000ECCF46F8ED52EFCF45F85C6B41C85BF81C
:101E70005E6B0D0E5D6F0001FAEC04F001C047F8D7
:101E80000B0E08010124016E000E0220036E0150AA
:101E9000210FE96E000E0320EA6EEFCF4BF844C825
:101EA00048F846C84AF845C849F84C6B0001D9DCE7
:101EB00001C065F3030165531DE1010E0501945D49
:101EC0000401666F010E0501945D0801446F030E65
:101ED000EA6E660EE96E050EE26E980EE16E4451F2
:101EE000016E04E0E6CFEEFF012EFCD70001FFEC0F
:101EF0000AF003010801AED05C6B41C85BF85E6B71
:101F00000D0E5D6F0001FAEC04F002C045F801C04F
:101F100044F8210E08010124E96E000E0220EA6E49
:101F2000EF501708D8A096D05C6B41C85BF85E6B89
:101F30000D0E5D6F0001FAEC04F002C045F801C01F
:101F400044F8210E08010124E96E000E0220EA6E19
:101F5000EF501008D8A47ED05C6B41C85BF85E6B74
:101F60000D0E5D6F0001FAEC04F002C045F801C0EF
:101F700044F8040E08010124016E000E0220036ED5
:101F80000150210FE96E000E0320EA6EEFCF44F8F6
:101F90005C6B41C85BF85E6B0D0E5D6F0001FAEC87
:101FA00004F001C045F8090E08010124016E000E7D
:101FB0000220036E0150210FE96E000E0320EA6E2D
:101FC000ECCF46F8ED52EFCF45F85C6B41C85BF8BB
:101FD0005E6B0D0E5D6F0001FAEC04F001C047F876
:101FE0000B0E08010124016E000E0220036E015049
:101FF000210FE96E000E0320EA6EEFCF4CF844C8C3
:1020000048F845C849F8030E4B6F660E4A6F000149
:102010007CD40301656B08015C6B41C85BF85E6BA7
:102020000D0E5D6F0001FAEC04F001C044F80B0ED8
:1020300008010124016E000E0220036E0150210FE1
:10204000E96E000E0320EA6EEFCF66F40001FFECAC
:102050000AF008013E5354E13F5352E10301655336
:10206000D8B402D008014CD00701AEC703F0AD517F
:10207000AD2BD8B4AE2B0801446F9D0E4425E96EFC
:10208000060E0320EA6E41C8EFFF0701AEC703F05A
:10209000AD51AD2BD8B4AE2B0801446F9D0E442535
:1020A000E96E060E0320EA6E66C4EFFF436B426BD7
:1020B000435326E1040166510801425D21E2070114
:1020C000AEC745F8AD51AD2BD8B4AE2B0801446F67
:1020D0009D0E4425016E060E4521036E660E4225B7
:1020E000E96E030E4321EA6EEFCF48F803C0EAFF22
:1020F00001C0E9FF48C8EFFF422BD8B4432BD8D723
:10210000412B82D43E530EE13F530CE10701AD5306
:1021100005E1AE53D8A402D0080104D0010E060197
:102120009C6F08010701FC2BD8B4FD2B08013E531E
:102130000DE13F530BE1010E0501875D08013E6F84
:10214000000E0501885908013F6F04D03E51D8B4F4
:102150003F073E07000176EF19F0080150510308D0
:10216000D8A06AD104E14F51E708D8A065D1503119
:10217000036E4F31026E033202320332023202C06A
:1021800054F84F51070B556F5451400803E2020EAB
:10219000016ECED15551F80FD8B04DD1080F0001C6
:1021A0009BEF12F008015C6B54C85BF85E6B0D0E80
:1021B0005D6F0001FAEC04F002C057F801C056F858
:1021C000210E08010124E96E000E0220EA6E536B15
:1021D000EFCF52F830D108015C6B54C85BF85E6BEE
:1021E0000D0E5D6F0001FAEC04F002C057F801C05B
:1021F00056F8010E08010124016E000E0220036E44
:102200000150210FE96E000E0320EA6EECCF53F867
:10221000ED52EFCF52F80FD108015C6B54C85BF858
:102220005E6B0D0E5D6F0001FAEC04F002C057F812
:1022300001C056F8030E08010124016E000E0220B1
:10224000036E0150210FE96E000E0320EA6E536BFE
:10225000EFCF52F8F0D008015C6B54C85BF85E6BAE
:102260000D0E5D6F0001FAEC04F002C057F801C0DA
:1022700056F8040E08010124016E000E0220036EC0
:102280000150210FE96E000E0320EA6E536BEFCF71
:1022900052F8D1D008015C6B54C85BF85E6B0D0E30
:1022A0005D6F0001FAEC04F001C056F8050E08015C
:1022B0000124016E000E0220036E0150210FE96E11
:1022C000000E0320EA6EEFCF56F8ECCF57F8ECCFB4
:1022D00058F8ECCF5AF85C6B54C85BF85E6B0D0E87
:1022E0005D6F0001FAEC04F001C05BF8050E080117
:1022F0000124016E000E0220036E0150210FE96ED1
:10230000000E0320EA6EEFCF5BF8ECCF5CF8ECCF69
:102310005DF8ECCF5EF85DC85FF85AC853F85DC849
:1023200052F889D008015C6B54C85BF85E6B0D0EE7
:102330005D6F0001FAEC04F001C056F8050E0801CB
:102340000124016E000E0220036E0150210FE96E80
:10235000000E0320EA6EEFCF56F8ECCF5AF8ECCF20
:1023600058F8ECCF59F85C6B54C85BF85E6B0D0EF7
:102370005D6F0001FAEC04F001C05BF8050E080186
:102380000124016E000E0220036E0150210FE96E40
:10239000000E0320EA6EEFCF5BF8ECCF5CF8ECCFD9
:1023A0005DF8ECCF5EF85BC85FF85AC853F85BC8BD
:1023B00052F841D008015C6B54C85BF85E6B0D0E9F
:1023C0005D6F0001FAEC04F002C057F801C056F846
:1023D000090E08010124016E000E0220036E015057
:1023E000210FE96E000E0320EA6EECCF53F8ED5298
:1023F000EFCF52F820D008015C6B54C85BF85E6BDD
:102400000D0E5D6F0001FAEC04F002C057F801C038
:1024100056F80B0E08010124016E000E0220036E17
:102420000150210FE96E000E0320EA6E536BEFCFCF
:1024300052F801D0080163D04F51006E5051036E25
:10244000030E035C05E1E80E005C000132E00801C8
:10245000030E035C05E1E90E005C00012FE00801BA
:10246000030E035C05E1EA0E005C00012DE00801AB
:10247000030E035C05E1EB0E005C00012AE008019D
:10248000030E035C05E1EC0E005C000126E0080190
:10249000030E035C05E1ED0E005C000123E0080182
:1024A000040E035C05E14C0E005C00011FE0080116
:1024B00023D00801536B81C552F821D083C553F84E
:1024C00082C552F808011BD00801536B520E526F9F
:1024D00016D00801536B526B12D00801536B340EA7
:1024E000526F0DD00801536B526B09D085C553F85C
:1024F00084C552F8080103D0020E016E19D06A0E8D
:102500005125E96E040EEA6ED8B0EA2A53C8EFFFEF
:10251000010E51256A0FE96E040EEA6ED8B0EA2A60
:1025200052C8EFFF020E05018027000E016E080160
:102530000001C8EF12F0E824F76AF736510FF66E83
:10254000250EF7220A00F550FA6E0800F550F96ED4
:10255000A421D6211822562294222423B423F62320
:1025600008014B6B4A6B49514A5D17E24B5315E129
:102570004A5147254C6F000E48214D6FD8904A357F
:102580004E6F4DC850F84CC84FF8516F0001E5D55B
:1025900001C04BF808014A2BE6D74BC801F00001F7
:1025A000A6EF14F0030163531BE008014B51E80848
:1025B00009E14C51030806E14DC881F5000E016E9A
:1025C00083D10DD04B51E9080AE14C51030807E1D2
:1025D0004EC883F54DC882F5000E016E75D103011A
:1025E00008014C510308D8A002D104E14B51E7087F
:1025F000D8A0FDD04C31036E4B31026E0332023253
:102600000332023202C04FF84B51070B506F4F514B
:10261000400803E2020E016E57D15051F80FD8B0B6
:10262000E5D0080F000167EF14F008015C6B4FC89C
:102630005BF85E6B0D0E5D6F0001FAEC04F002C0FA
:1026400054F801C053F8210E08010124E96E000E70
:102650000220EA6E4DC8EFFFC9D008015C6B4FC87D
:102660005BF85E6B0D0E5D6F0001FAEC04F002C0CA
:1026700054F801C053F8010E08010124016E000E48
:102680000220036E0150210FE96E000E0320EA6E56
:102690004EC8ECFFED524DC8EFFFA8D008015C6BAF
:1026A0004FC85BF85E6B0D0E5D6F0001FAEC04F035
:1026B00002C054F801C053F8030E08010124016E52
:1026C000000E0220036E0150210FE96E000E032060
:1026D000EA6E4DC8EFFF8AD008015C6B4FC85BF80B
:1026E0005E6B0D0E5D6F0001FAEC04F002C054F851
:1026F00001C053F8040E08010124016E000E0220EF
:10270000036E0150210FE96E000E0320EA6E4DC8E2
:10271000EFFF6CD04EC852F84DC851F8080166D092
:1027200008015C6B4FC85BF85E6B0D0E5D6F0001BE
:10273000FAEC04F001C053F8050E08010124016E03
:10274000000E0220036E0150210FE96E000E0320DF
:10275000EA6EEE5251C8ECFF52C8ECFFED52ED525A
:10276000ED524DC8EFFF4EC8ECFF000108015C6B55
:102770004FC85BF85E6B0D0E5D6F0001FAEC04F064
:1027800002C054F801C053F8090E08015325016E28
:10279000000E5421036E0150210FE96E000E03203C
:1027A000EA6E4EC8ECFFED524DC8EFFF1FD0080196
:1027B0005C6B4FC85BF85E6B0D0E5D6F0001FAEC51
:1027C00004F002C054F801C053F80B0E08010124B4
:1027D000016E000E0220036E0150210FE96E000E03
:1027E0000320EA6E4DC8EFFF01D0080169D04B51BC
:1027F000006E4C51036E040E035C05E14C0E005C50
:10280000000122E00801070E035C05E1CD0E005C2B
:1028100000011FE00801070E035C05E1CE0E005C1D
:10282000000118E00801070E035C05E1CF0E005C13
:10283000000120E008014E0E035C05E11F0E005C64
:10284000000126E0080139D04EC885F54DC884F551
:1028500038D0FF0008014D51CE0803E14E51070862
:1028600003E0030E016E30D00001D4EC04F034EC30
:1028700005F027D008014D2D02D04E5303E0030E82
:10288000016E22D00001AAEC04F00BEC05F019D087
:1028900008014D510A0803E14E51070806E0030103
:1028A000636B030E016E08010FD0010E0301636F0D
:1028B000C80E646F000105D00801020E016E04D03D
:1028C0000001000E016E08010001CBEF14F0E824B6
:1028D000F76AF736E90FF66E280EF7220A00F55070
:1028E000FA6E0800F550F96E2A265A269C26D8263C
:1028F000142720276C27AE270501806B7751006EC7
:102900007851036E035005E1030E005C000117E0EF
:102910000501035005E1040E005C000110E0050113
:10292000035005E1060E005C000113E005010350B1
:1029300005E1070E005C000131E0050131D07AC5E8
:1029400048F879C547F87BC549F80AD601C07FF534
:102950002AD06A0E05017C25E96E040EEA6ED8B015
:10296000EA2AEFCF47F8010E7C256A0FE96E040EC4
:10297000EA6ED8B0EA2AEFCF48F847C84AF848C804
:1029800049F87AC54CF879C54BF847C84EF848C89D
:102990004DF8000107D601C07FF505D004D0050130
:1029A000010E7F6F806B0001B9EF18F048C853F833
:1029B000020E0801546F0001E5EC09F04AC84DF819
:1029C0004AC856F8D0EC09F049C84DF849C856F83D
:1029D000D0EC09F04CC84DF84CC856F8D0EC09F0D2
:1029E0004BC84DF84BC856F8D0EC09F0F9EC09F09B
:1029F000080148532AE0000112EC0AF0015219E1E3
:102A0000FF0E05018B27D8A08C27D8A08D27D8A032
:102A10008E278B5309E18C5307E18D5305E18E53CB
:102A2000D8A402D0000105D0040000000801E3D7BB
:102A3000000105018B5308E18C5306E18D5304E13D
:102A40008E5302E10C0E966F080105018E6B010E8C
:102A50008D6F860E8C6FA00E8B6F96C501F00001F6
:102A6000F2EF16F049C853F8050E0801546F000143
:102A7000E5EC09F04BC84DF84BC856F8D0EC09F01E
:102A80004AC84DF84AC856F8D0EC09F008014C5332
:102A900006E056690001D0EC09F005D00801566B3C
:102AA0000001D0EC09F00801566B0001D0EC09F0F0
:102AB000F9EC09F0080149532AE0000112EC0AF090
:102AC000015219E1FF0E05018B27D8A08C27D8A051
:102AD0008D27D8A08E278B5309E18C5307E18D53A6
:102AE00005E18E53D8A402D0000105D004000000F7
:102AF0000801E3D7000105018B5308E18C5306E17F
:102B00008D5304E18E5302E10C0E966F080105010E
:102B10008E6B010E8D6F860E8C6FA00E8B6F96C51F
:102B200001F0000133EF17F04CC853F8060E08010E
:102B3000546F0001E5EC09F04EC851F84EC856F844
:102B4000D0EC09F04DC851F84DC856F8D0EC09F05A
:102B500050C851F850C856F8D0EC09F04FC851F899
:102B60004FC856F8D0EC09F0F9EC09F008014C53C5
:102B70002AE0000112EC0AF0015219E1FF0E0501F2
:102B80008B27D8A08C27D8A08D27D8A08E278B5331
:102B900009E18C5307E18D5305E18E53D8A402D08F
:102BA000000105D0040000000801E3D70001050181
:102BB0008B5308E18C5306E18D5304E18E5302E1FF
:102BC0000C0E966F080105018E6B010E8D6F860E3F
:102BD0008C6FA00E8B6F96C501F000015EEF17F0B1
:102BE000D89008014D35026E4E3502C052F84AC8E1
:102BF00053F8100E546F0001E5EC09F04CC853F87F
:102C00004CC856F8D0EC09F04BC853F84BC856F8EE
:102C1000D0EC09F04EC853F84EC856F8D0EC09F085
:102C20004DC853F84DC856F8D0EC09F052C856F8C4
:102C3000D0EC09F00801516B4E5303E14D51515D49
:102C400034E2036A51C802F0D890023603360250CB
:102C50004F25E96E50510320EA6EECCF54F8ED5247
:102C6000EFCF53F853C855F853C856F80001D0ECCD
:102C700009F0036A080151C802F0D8900236033601
:102C800002504F25E96E50510320EA6EECCF54F804
:102C9000ED52EFCF53F854C855F854C856F8000118
:102CA000D0EC09F00801512BC7D70001F9EC09F06D
:102CB00008014A532AE0000112EC0AF0015219E11E
:102CC000FF0E05018B27D8A08C27D8A08D27D8A070
:102CD0008E278B5309E18C5307E18D5305E18E5309
:102CE000D8A402D0000105D0040000000801E3D7F9
:102CF000000105018B5308E18C5306E18D5304E17B
:102D00008E5302E10C0E966F080105018E6B010EC9
:102D10008D6F860E8C6FA00E8B6F96C501F0000133
:102D20007DEF17F005017751006E7851036E035067
:102D300004E10052000135E00501035005E1010EF8
:102D4000005C00012FE00501035005E1020E005C6C
:102D500000013CE00501035005E1030E005C0001A9
:102D600048E00501035005E1040E005C000155E058
:102D70000501035005E1050E005C000162E005015C
:102D8000035006E1060E005C0001D8B473D00501C3
:102D9000035006E1070E005C0001D8B496D005018F
:102DA000B4D0E3D075C548F87AC54AF879C549F872
:102DB00008014C6B7BC54BF8000131EC0CF001C0F5
:102DC0007FF5010E0801476F05019FD075C548F8D2
:102DD0007AC54AF879C549F808014C6B7BC54BF8B0
:102DE0000001E4D501C07FF5010E0801476F050120
:102DF0008CD075C548F87AC54AF879C549F80801F4
:102E00004C6B7BC54BF8000178EC0AF001C07FF5F4
:102E1000010E0801476F050178D075C548F87AC5DD
:102E20004AF879C549F808014C6B7BC54BF800019D
:102E300024EC0AF001C07FF5010E0801476F05017F
:102E400064D06A0E05017C25E96E040EEA6ED8B0E6
:102E5000EA2AEFCF4CF875C549F87AC54BF879C521
:102E60004AF80001FFD501C07FF5020E0801476F47
:102E700005014BD06A0E05017C25E96E040EEA6E51
:102E8000D8B0EA2AEFCF48F8010E7C256A0FE96E28
:102E9000040EEA6ED8B0EA2AEFCF49F848C84BF8DA
:102EA00049C84AF875C54CF87AC54EF879C54DF849
:102EB00048C850F849C84FF8000136D601C07FF520
:102EC000020E0801476F000150D06A0E05017C25F3
:102ED0000801486F040E496FD8B0492B75C54AF8F0
:102EE0007AC54CF879C54BF84E6B7BC54DF849C88F
:102EF00050F848C84FF8000173D601C07FF5020EA4
:102F00000801476F000131D005010801472D1DD090
:102F100005017F53D8B402D0080117D0010E945D8B
:102F2000806F010E945D0801486F040EEA6E6A0E10
:102F3000E96E050EE26E980EE16E4851016E04E0F6
:102F4000E6CFEEFF012EFCD710D0475102080DE16D
:102F500005017F53D8B402D0080107D0020E806F5C
:102F60009AC56AF49BC56BF408010001BDEF18F027
:102F7000230E0801476F81C548F883C549F8080149
:102F800082C54AF808014B69140E4C6F0D0E0501FD
:102F90008025020F0801546F556BD8B0552B55C8CA
:102FA0004DF854C84EF870C54FF808016FC550F879
:102FB00008016EC551F808016DC552F808017FC5BA
:102FC00053F85B695A69080E5D6F480E5C6F0C0E12
:102FD0005E6F0001CCEC0AF002C055F801C054F855
:102FE00055C85BF854C85AF8040E08015D6F6A0EA4
:102FF0005C6F80C55EF80001CCEC0AF002C055F8A9
:1030000001C054F80801566B56510C0810E3036ACE
:103010005651470FE96E080E0320EA6EEFCF57F8BE
:1030200057510001FBEC0AF00801562BEDD7566B07
:10303000050180510801565D10E26A0E5625E96EC1
:10304000040EEA6ED8B0EA2AEFCF57F857510001C4
:10305000FBEC0AF00801562BEBD755C857F857512F
:103060000001FBEC0AF054C857F808015751000161
:10307000FBEC0AF0BEEF18F06EC46CF5020E050111
:103080006C5D6A0FE96E040EEA6ED8B0EA2AEFCFE3
:103090007EF5010E6C5D6A0FE96E040EEA6ED8B023
:1030A000EA2AEFCF7DF5030E6C5D0801476F5B697F
:1030B0005A69040E5D6F6B0E5C6F47C85EF80001C5
:1030C000CCEC0AF002C046F801C045F805017D517C
:1030D0000801455D05E105017E510801465D01E0FD
:1030E0004ED004016F51130803E0080148D00401D9
:1030F00070C470F571C46FF572C46EF573C46DF56C
:1031000074C474F575C473F576C472F577C471F53B
:1031100078C476F579C475F57AC478F57BC477F50B
:103120007CC47AF57DC479F57EC47BF5150E050166
:103130007C6F806B0801446B81C543F882C541F800
:1031400083C542F8050171510801415D14E1050193
:1031500072510801425D0FE1050173510801435DA1
:103160000AE1050174510801445D05E100017CEFAD
:1031700014F003D008010001D5D5FAD608010001EA
:103180007CEF19F0F86AD09E078E620ED36E9B6AB0
:10319000646A206AB986220E7B6E000E7C6EA60ED3
:1031A000BA6E900EA66E94869488040EC86E280E91
:1031B000C66EC79EC79C05018A6B896BA7960C0ECD
:1031C000AF6EA20EAC6E900EAB6E8E6B010E8D6F5D
:1031D000860E8C6FA00E8B6F8F91906B0F015C51E0
:1031E000800B5C6F000E5D6FC196C198C19A5E6BDB
:1031F0005F6B07D002001A0000FF469600ABC000CC
:103200000000000EF86E310EF76EF40EF66E090037
:10321000F550006E000A13E00900F550016EE8BE9B
:1032200005D03F0BEA6E0900F5CFE9FF01BC0900AC
:1032300001AC0900F5CFEEFF004EE9D7F9D7F86AE7
:103240000001EEEF03F00801406B405195081AE3CE
:103250000400939A8A8A640E416F0001D6EC03F051
:10326000939A8A9A640E0801416F0001D6EC03F02C
:10327000080140514B0804E2000123EC04F008016E
:10328000402BE3D7C00EF2120001D4EC04F034EC72
:1032900005F0DBEF05F073EF06F0C0EF06F0CCECC5
:1032A00006F004000501865318E00701B2530BE154
:1032B000000112EF07F00152D8A402D0070103D099
:1032C0001CEF07F0070106019C5306E0000123EC08
:1032D00004F02AEF08F0060105010301615307E03D
:1032E000616BC80E646F0001CBEF0CF003010501A8
:1032F0006B5305E00001C0D667EC03F00501000147
:04330000D0D703001F
:020000040030CA
:0E00000015086727000991000FC000E00040BE
:00000001FF
;PIC18F25K80
;CRC=3FC5  CREATED="10-Feb-22 17:37"
